:020000021000EC
:10C000000000022075C301005DC301005FC3010091
:10C0100061C3010063C3010065C3010000000000AB
:10C0200000000000000000000000000067C30100E5
:10C0300069C30100000000006BC301006DC3010073
:10C0400099E901006FC3010031EE01006FC30100E7
:10C050006FC301006FC30100B1EC01006FC30100A9
:10C060006FC301006FC301006FC301006FC3010004
:10C070006FC301006FC301006FC301006FC30100F4
:10C080006FC30100D9D801006FC301006FC3010065
:10C090006FC301006FC30100591902006FC3010093
:10C0A0006FC301006FC301006FC301006FC30100C4
:10C0B0006FC301006FC3010000000000000000001A
:10C0C0006FC301006FC301006FC301006FC30100A4
:10C0D0006FC301006FC301006FC301006FC3010094
:10C0E0006FC301000000000000000000000000001D
:10C0F000000000006FC30100000000006FC30100DA
:10C10000000000000000000000000000000000002F
:10C11000000000000000000000000000000000001F
:10C12000000000000000000000000000000000000F
:10C1300000000000000000000000000000000000FF
:10C1400000000000000000000000000000000000EF
:10C1500000000000000000000000000000000000DF
:10C1600000000000000000000000000000000000CF
:10C1700000000000000000000000000000000000BF
:10C1800000000000000000000000000000000000AF
:10C19000000000000000000000000000000000009F
:10C1A000000000000000000000000000000000008F
:10C1B000000000000000000000000000000000007F
:10C1C000000000000000000000000000000000006F
:10C1D000000000000000000000000000000000005F
:10C1E000000000000000000000000000000000004F
:10C1F000000000000000000000000000000000003F
:10C20000354936480A1A02D0072291438D463449EF
:10C2100034480A1A06D00722914381F30988022282
:10C2200082F3148830483149314A00F044F83148EB
:10C230003149324A00F03FF831483249324A00F081
:10C240003AF832483249334A00F035F83248334937
:10C25000334A00F030F833483349344A00F02BF8C1
:10C2600033483449344A00F026F83448344900222F
:10C2700000F02CF833483449002200F027F8334806
:10C280003349091A082902DB002202604160314A61
:10C2900090471F481F49884205D00268043003B404
:10C2A000904703BCF7E700208646EC4600200021BB
:10C2B000294A9047FEE7884207D0521A05D00378F2
:10C2C00001300B700131013AF9D17047884202D038
:10C2D00002700130FAE770470000022000F80120E8
:10C2E000000002200000022010390200B0270020C8
:10C2F000D42D0020D0C30100D0C301008826020045
:10C3000010390200B0270020B0270020C827020003
:10C31000C8270200C8270200C8270200C827020059
:10C32000C8270200C8270200C82702000F390200F0
:10C33000343F0200D42D0020D42D0020D42D002025
:10C34000103E0020103E0020103E0020103E002035
:10C35000104600209DC30100B9010200FEE7FEE780
:10C36000FEE7FEE7FEE7FEE7FEE7FEE7FEE7FEE7A5
:10C3700000F002B8FFF7FCBF0F484FF007018843F9
:10C3800085460E4880470E48016841F470010160FF
:10C39000BFF34F8FBFF36F8FFFF732BF09480A49D2
:10C3A0000A4A884207D0521A05D0037801300B7030
:10C3B0000131013AF9D17047000002200DE401007B
:10C3C00088ED00E0C8270200B0270020B027002039
:10C3D0007047000007B5044B0093044A402300F067
:10C3E00032F803B05DF804FBF1C30100D52D002045
:10C3F0002DE9F84388461446B2B10F4B0F4E032582
:10C40000002743F00109224608EB0701002004F051
:10C4100021F80744241A48B933782BB14FF47A40F5
:10C42000C847013D02D13570BDE8F8830123337060
:10C43000002CE8D1F8E700BFD0270200D42D00205F
:10C44000704704F03BB8F0B595B01D461646084657
:10C450000C4601F0CBFD1A9B0D93CDE90865002534
:10C460002B46082205A920460A958DF82C500C95DC
:10C4700001F0D9FD079B0293069B03939DF81430AE
:10C480008DF8115003F00302012A1DD1BDF81420CC
:10C49000059DC3F3C203C2F383168DF81030B200BA
:10C4A00008230EA9204601F0BEFDC5F3952508AB73
:10C4B0000093324602AB0EA9284600F045FB204609
:10C4C00001F098FD15B0F0BD022AF8D1BDF8165064
:10C4D000C3F3C203C5F389158DF810300827082D62
:10C4E0002E4628BF08263B4632460EA9204601F0BC
:10C4F0009AFDAD1B08AB02AA31460EA8374400F0E6
:10C5000087FB002DEBD1DAE708B5FFF79AFF044867
:10C51000042100F083FA034B01225A7108BD00BFC9
:10C52000B8270200B0270020037813F0040216D0C9
:10C5300003F00303012B03D0022B09D00120704725
:10C540000A6800880232C0F3831002440A60F5E7EB
:10C550000B684288023303EB92130B60EEE7104640
:10C56000704700002DE9F04F87B000230446861C79
:10C570000DF107000F4615468DF8073001F03EF823
:10C58000404A51683960936803F580735B1A92469C
:10C5900002F21C4702F5836902F21448B3421AD32F
:10C5A0000020002D69D004F00F039B0143F0050328
:10C5B00063F30F00DAF80430DAB203321E444AF8AB
:10C5C00022009DF80700CAF8046001F03BF8012042
:10C5D00007B0BDE8F08F0121384601F032FA484635
:10C5E00001F047FA404601F044FADAF808000290F8
:10C5F000C0B203300AEB800002A9FFF795FF029B4F
:10C6000030BBDAB20AEB8202D16803919A1C013383
:10C61000DBB20AEB83030292D3F80CB001F0030300
:10C62000012B22D0022B15D08346404601F024FA7C
:10C6300010B1029BCAF808305946384601F001FA99
:10C64000DAF80830DAF8042003F580739B1AA5E7BE
:10C65000D8B2CEE7BDF80E30C3F3891303334FEAE7
:10C660001B4B02EB93030293DFE7BDF80C30C3F3DF
:10C6700083134FEA1B4B1344F5E7A40544F006006F
:10C6800098E700BFE82E0020064B074810B50022AF
:10C690001A7001F064FC044610B9044801F022FE4F
:10C6A000204610BDE82E00202C2702000C28020096
:10C6B00030B50A4C71B10A4A0A49121BD20800234C
:10C6C0009A4201D1002030BD31F82350854202D07A
:10C6D0000133F5E7034654F83300F4E794260200EB
:10C6E0002C270200B0270020094B013903EBC000C2
:10C6F000032909D8DFE801F00A0204060420704784
:10C7000000797047407970470020704702207047D9
:10C7100094260200034BD3E90130C31A5842584112
:10C72000704700BFE82E00202DE9F04186B0FFF7EA
:10C73000F1FF0546002840F0E680744CC4F8180468
:10C74000BFF34F8FA3680293DBB2033304EB830084
:10C7500002A9FFF7E9FE029B18B1D4F81824002AB9
:10C7600055D0DAB2991C013304EB8202DBB204EB40
:10C770008303D268DB68049302F00303022B039265
:10C7800002914FD1BDF80E306148C3F38917502F85
:10C790003E4628BF502666F38F1306F10801ADF818
:10C7A0000E3001F0F4FB0546002800F0978001F000
:10C7B0001DFC002303A90822284601F02AFC029947
:10C7C000CB43DBB20133C9B20331B6EB830F4FEA7F
:10C7D000830804EB810122D908234246A6EB080610
:10C7E000284601F016FCF6B24A4908F10803324621
:10C7F000284601F00EFC029B033703EB97070297D4
:10C80000D4F81834002B41D1D4F8106451E0626898
:10C810009A4299D8A260284606B0BDE8F081082364
:10C820003246E5E7012B59D1BDF80C303848C3F347
:10C830008311062928BF062161F38913023189007B
:10C84000ADF80C3001F0A3FB0546002846D001F0FE
:10C85000CDFB0023082203A9284601F0DAFB0026BD
:10C86000BDF80C20C2F38312B300964203F1080313
:10C87000C6D202994A1CC9B20331029204EB81016B
:10C880000422284601F0C5FB0136E9E7284601F0FD
:10C89000B1FBFFF73FFF80F00100C5B2BBE7F368D3
:10C8A0005B7923B1336829461B6830469847F368A3
:10C8B0001E68002EF3D1284601F09CFB0DF1070005
:10C8C0008DF8076000F09AFED4F818340BB9029B7B
:10C8D000A3609DF8070000F0B5FEDAE7D4F8104435
:10C8E00054B90D4B0D480E49C01AC008000440F061
:10C8F000020000F05DF8CCE7236820469B6898476B
:10C90000E3681C68ECE7002585E700BFE82E0020FF
:10C910002C270200F42E002094260200BC260200E0
:10C92000F42702002DE9F34704460E46924601A97A
:10C93000012218469946FFF715FE1B4F10B3019DC3
:10C940004FF00008AA1CC84508EB020123D1174884
:10C95000002101F053F880F31000000440EA144075
:10C96000E4006B1C04F03804DBB2EDB244F00104C7
:10C9700007EB8303033544EA881444EA8624D8602D
:10C9800047F825403B781BB1FFF7CEFE0028FBD1CE
:10C9900002B0BDE8F087C9B207EB81015AF8283030
:10C9A000CB6008F10108CEE7E82E00200433002018
:10C9B00000231A46FFF7B6BF07B50123019201AA6B
:10C9C000FFF7B0FF03B05DF804FB07B5CDE9002326
:10C9D00002236A46FFF7A6FF03B05DF804FB1FB50C
:10C9E000CDE90123069B039301AA0323FFF79AFFD6
:10C9F00005B05DF804FB7FB5CDE90023089B0293E9
:10CA0000099B03930A9B04930B9B05936A46062399
:10CA1000FFF788FF07B05DF804FB000030B50F4951
:10CA2000D1F8102403460020144634B9DC68207184
:10CA30004AB9C1F81034226030BDE46825798542D6
:10CA400006D02468F1E7D268116821601360F3E72B
:10CA500001300A28E8D14FF0FF30EDE7E82E002042
:10CA6000084A38B50123D2F8104413701D4604B9A2
:10CA700038BDE3685D71236820465B689847E368CA
:10CA80001C68F4E7E82E002007B503460846197A2B
:10CA9000052911D05B7A2BB1094A0A49019001F0AE
:10CAA0004EF801980849019001F049F8019803B047
:10CAB0005DF804EB01F038B8002AF8D0F2E700BFC7
:10CAC000182802001D280200F030020030B5C3888B
:10CAD00085B004460D4633B1144A00921449154AF4
:10CAE000284601F02CF8217A05291DD0637A4BB134
:10CAF000A088FFF7F9FD104B104953F82020284675
:10CB000001F01DF8227A0E4BA08853F822200392E0
:10CB10000021FFF7CDFD039A0A490346284605B0D8
:10CB2000BDE8304001F00BB805B030BD1828020058
:10CB30002828020020280200A42802001D28020044
:10CB4000C8280200402802002DE9F04385B01F46A6
:10CB50000C9D002395F80C902B7306460C469046CE
:10CB600029463846FFF7B2FFB8F1060F09D8DFE8CB
:10CB700008F00412181F283340003146284600F000
:10CB8000DEFF002229463846FFF77EFF85F80C902D
:10CB900005B0BDE8F08322683146284600F0CFFF9B
:10CBA000EFE7D4E900233146284600F0C8FFE8E764
:10CBB000A36800933146D4E90023284600F0BFFF64
:10CBC000DFE7E3680193A36800933146D4E90023CB
:10CBD000284600F0B4FFD4E723690293E368019389
:10CBE000A36800933146D4E90023284600F0A7FF4C
:10CBF000C7E76369039323690293E3680193A3681A
:10CC000000933146D4E90023284600F098FFB8E7A6
:10CC100008292DE9F74F80460E4617461C463CD89A
:10CC2000002593F80C901D7319461046FFF74EFF30
:10CC3000DFF888A0DFF888B0AE4231D918F80520B7
:10CC40005946204600F07BFF0135082DF4D11949E3
:10CC5000194DDFF870A0204600F071FF4FF0000B77
:10CC60005E4522D918F80B207E2A05D8104601927D
:10CC700005F0D6F8019A00B92E225146204600F060
:10CC80005EFF0BF1010BBBF1080FE9D10122214638
:10CC90003846FFF7F9FE84F80C9003B0BDE8F08F3A
:10CCA0005146204600F04BFFCEE72946204600F0D3
:10CCB00046FFE6E7542802005228020050280200EE
:10CCC0004A28020056280200C30710B507D4F023F3
:10CCD000054A4008145C23401943115410BD090152
:10CCE000C9B20F23F4E700BFD033002030B5094BA1
:10CCF0001C78094B196800239C4202DC0022104674
:10CD000030BD11F83350854201EBC302F7D0013337
:10CD1000F2E700BFA0330020F033002013B5044633
:10CD20000191FFF7E3FF38B143682BB10199204629
:10CD300002B0BDE81040184702B010BD034B0448D4
:10CD400019680022490800F05CBA00BFA433002033
:10CD5000A833002010B5C0B2FFF7C8FF0446007822
:10CD600001F098FF63785A1E53425341834208D121
:10CD7000044BD3E90023134303D1BDE81040FFF770
:10CD8000DDBF10BDC833002037B54308354AD35C3A
:10CD9000C2074CBF1B0903F00F0304460D46042BCA
:10CDA00035D8DFE803F003252C383C0079B30121A6
:10CDB000FFF78AFF00230DF107008DF8073000F020
:10CDC0001DFC0120A4F12003C4F12001264A20FA11
:10CDD00001F100FA03F30B43A040D2E900412043E4
:10CDE0000B43C2E900039DF8070000F02BFC0EE0A6
:10CDF000002918BF02212046FFF766FF07E041B176
:10CE00000321FFF761FF01212046FFF787FF03B0F1
:10CE100030BD0121EFE70029F9D10421EBE709B189
:10CE20000321E8E7FFF750FF29462046FFF776FF8A
:10CE30000DF107008DF8075000F0E0FB0120A4F190
:10CE40002003C4F12001084A20FA01F100FA03F39B
:10CE50000B43A040D2E9004124EA000021EA030389
:10CE6000BFE700BFD0330020C83300202DE9F041D8
:10CE7000124E134F00243378A34208DC114BD3E940
:10CE80000023134318D0BDE8F041FFF757BF3D68BA
:10CE900005EBC40815F8340001F0FCFE98F80130E9
:10CEA0005A1E53425341181A4142414115F8340069
:10CEB000FFF76AFF0134DEE7BDE8F081A033002010
:10CEC000F0330020C8330020092AF7B505460C4688
:10CED00016463CD901F00EFED8B11E4B1E481D600F
:10CEE0001E4B1F4F1C701F4B002120221E6005F09F
:10CEF00029F81D4B00200021C3E90001013CE4B2E8
:10CF00000326FF2C0BD1194A1948002100F06EF9B5
:10CF100003E001F0A9FD0028DFD003B0F0BD9DF8CB
:10CF2000063015F834008DF8046005EBC40223F0D8
:10CF300007038DF8063001A993788DF805303A463D
:10CF400001F0E2FD013CE4B20028DAD0E5E7072079
:10CF5000E3E700BFF0330020D0330020A0330020EF
:10CF600055CD0100A4330020C83300206DCE010050
:10CF7000E828020070B5084D084E00242B789C422A
:10CF800001D3002070BD3368012113F8340001F093
:10CF900037FE0134F2E700BFA0330020F033002059
:10CFA0001FB50021039001AA44F20100CDE901114F
:10CFB00000F004F805B05DF804FB000010B572B68F
:10CFC000FFF74EFDFFF7B0FB0028FBD1104B114CD3
:10CFD0001149E41AE408240444F00100FFF7E8FCD6
:10CFE0000E4B1B68DB0700D500BE0D4944F0020064
:10CFF000FFF7DEFCBFF34F8F0A490B4BCA6802F400
:10D00000E0621343CB60BFF34F8F00BFFDE700BF6B
:10D0100094260200BC260200EC280200F0ED00E09D
:10D02000F828020000ED00E00400FA0549B152B111
:10D03000531E1A4007D1826001608380C26010468F
:10D0400070470E2070470920704710B58468C26889
:10D050008388121B934208D3C26813400268D154DC
:10D06000C3680133C360002010BD0420FCE7826860
:10D07000C3689A420AD08268838813400268D35CEE
:10D080000B70836801338360002070470520704770
:10D09000D0E90223D1E90201994208BF90422CBF96
:10D0A000012000207047000008B50B4800F0FDFB90
:10D0B0000A4B0B49D3E900231218D1E9000143F1CF
:10D0C00000038B4208BF824203D212F1807243F107
:10D0D00000031046194608BDB8270020F833002089
:10D0E0007034002037B505460C460A4801A900F007
:10D0F00010FC60B10570446001A9064800F033FCE3
:10D1000018B1054800F0D6FB002003B030BD042064
:10D11000FBE700BF5C340020B827002038B5184B6F
:10D120001B78044613B90025284638BD0028FAD0DC
:10D13000037F03F0FF05002BF5D0FFF7B5FFD4E91F
:10D140000223994208BF904214D3236903B923777D
:10D15000D4E90530984721690029E4D0237F03F002
:10D16000FF05002BDFD0D4E90223521843F100035E
:10D17000C4E902230348214601F0D3F8D4E700BFF5
:10D18000003400201429020013B5114B114918680E
:10D19000019008231048582200F0A8FB044698B9D3
:10D1A0000E4A0F4801A900F071FA044660B90C4814
:10D1B000012100F05DFB01230A4A0948194600F0ED
:10D1C000BFFA094B01221A70204602B010BD00BF01
:10D1D00010290200043400205C3400204DD20100EC
:10D1E000B8270020FFFF7F00003400203AB1036819
:10D1F0005A614A1E5142514119610020704707206F
:10D20000704738B5037F04460D4683B98261FFF746
:10D210004BFF2369401941F10001C4E9020103B148
:10D22000256121460020BDE83840FFF75BBF0020A4
:10D2300038BD0023014603770120FFF753BF0000EC
:10D24000014800F032BB00BFB82700202DE9F04FA5
:10D2500085B0804600F014FB40B15A4AD2E9003153
:10D2600013F1807341F10001C2E900310021404611
:10D2700000F015FB38B1544E336823B13068FFF726
:10D280004DFF002333600121404600F008FB20B130
:10D29000FFF70AFF4D4BC3E900014D484A4F4D4E81
:10D2A000DFF8389103A900F06EFB002845D1DFF8C4
:10D2B0002491454EDFF828A1484601F048F833682C
:10D2C000002875D07BB13368D0E90201D3E902238D
:10D2D000994208BF90422DD233681B7F1BB1316841
:10D2E000484601F01EF8484601F02BF8D0E902B399
:10D2F00007460193FFF7D8FE019BBBEB000463EBED
:10D300000105012C75F1000345DBB4F5350F40D361
:10D31000FFF796FF304A02444FF49603002150462F
:10D3200000F02EFA00283ED1336813B9404600F0D1
:10D33000FFF9376005B0BDE8F08F0378012B1DD0F1
:10D34000022B09D14FF0000A304600F0FAFF002806
:10D3500034D080F81CA0F7E73BB941680B7F23B9B4
:10D3600001230B77304600F0DCFF03A9184800F0DA
:10D3700035FB03A9164800F006FB96E741683B68B9
:10D38000994202D100233B60EFE7304600F0E2FF14
:10D39000EBE7BA68C0E70021504600F076FA38465D
:10D3A000FFF7BCFE01E00D28F9D00023336083E7CE
:10D3B000002BBFD1404600F0BFF9BBE7012389F83D
:10D3C0000030D2E7F8330020783400207034002099
:10D3D0005C34002014290200FFFFB4000034002058
:10D3E000B82700200648074A03780749D35C012282
:10D3F00013B1043002F0A2B90C3001F051BF00BFEC
:10D40000C0270020F4340020A43400200648074A36
:10D4100003780749D35C012213B1043002F03AB912
:10D420000C3001F0EBBE00BFC0270020F434002018
:10D43000A534002037B50578012D0BD0022D2ED054
:10D4400065B91E491E48FFF712FE002832D1FFF7CA
:10D45000DDFF03E0037A1BB9FFF7C4FF03B030BD63
:10D460004368184C19782046FFF7EFFD80B18DF81E
:10D4700000500190144B68461B689847A168E36808
:10D48000A2885B1A9A42E7D2104B01221A70E5E794
:10D49000A268E3689A42F1D08DF80000EAE7C36819
:10D4A0008DF800500193FFF79DFF074B68461B68FE
:10D4B0009847D3E703238DF80030F6E7A534002022
:10D4C00094340020803400207C34002090340020EC
:10D4D000F0B51F46234B89B004461A600D4600295B
:10D4E0003DD08A8820480968FFF7A0FD002834D184
:10D4F000AA89A9681D48FFF799FD00282DD11C4E67
:10D500000FCE6D460FC596E80F0085E80F006369E2
:10D510000693237C174A18488DF81C70003B18BFEF
:10D5200001238DF81430637C002B14BF0E230023DD
:10D530008DF81530E3680293A36803932368019381
:10D5400069466368009301F0ADF930B90B4B187070
:10D550002368013301D0FFF745FF09B0F0BD072074
:10D56000FBE700BF7C34002080340020943400208E
:10D570002029020035D40100C0270020903400206B
:10D5800070B5084D014608482E78FFF770FD044637
:10D5900036B100232B70FFF725FF08B1FFF700FD20
:10D5A000204670BD903400208034002010B5014624
:10D5B0000E48FFF74AFD0446A8B90D480D4A037806
:10D5C000D35C63B1043002F0ADF860B90A49074892
:10D5D000FFF74DFD38B9BDE81040FFF717BF0C301D
:10D5E00001F052FEF1E7204610BD00BF9434002048
:10D5F000C0270020F4340020A534002070B5EFF3DC
:10D60000108672B60C4A946801239CB993600B4B48
:10D610000B4DD3F8801029401160C3F88050D3F827
:10D62000841051604FF0FF32C3F88420047006B9B3
:10D6300062B670BD0370FAE7A834002000E100E094
:10D64000FC06FFBD084B9A6810B55AB150B9EFF30C
:10D65000108172B6054A1C6814605C68546098605A
:10D6600001B962B610BD00BFA834002000E100E09F
:10D67000435882B03BB10023435043580193019B70
:10D68000012002B070471846FBE70000F8B5204BB8
:10D690004479204D43F824201F4A204B05EBC40455
:10D6A0009B1A2279DB081B0432B143F002001C49AB
:10D6B000FFF77EF90820F8BD02680C88C2F808451B
:10D6C00090F904608A7804795201002ED2B219DBF5
:10D6D00014498F1987F800230122760904F01F04EA
:10D6E00002FA04F441F82640427905EBC201012414
:10D6F00045F832000C7143F003000B49FFF758F96D
:10D700000020D8E7094904F00F040A55ECE700BFF0
:10D71000BC340020B434002094260200CC26020041
:10D720004029020000E100E06229020014ED00E05F
:10D73000036801221A607047036801225A6070472B
:10D7400073B501F15005AD000068ADB24FF48034FF
:10D750008C400026C0F80843C0F84843465101F504
:10D76000A8714559019522F07F42019D40F8212082
:10D77000C0F844430BB1C0F8044302B070BD0000D0
:10D780002DE9F74F0D4622F07F4402684FF48037B1
:10D7900005F150068F408046B60002EB8500C2F8C6
:10D7A0004873B6B2C2F80873D2F8041599464FF020
:10D7B000000BD0F84035C0F8401542F806B05B1AAF
:10D7C0009259009223F07F43012B009A4FEA850A79
:10D7D0000CD1264B4FF4806043F001039847D8F8F2
:10D7E000003043F806B09B590193019BD8F8001014
:10D7F000D1F80465C1F84473A31B23F07F43012BC8
:10D800001CD11A4B05F5A875013443F0010341F80A
:10D8100025404FF480609847D8F80030D3F804359D
:10D820009E4209D1D8F800300020C3F84473C3F8F1
:10D83000047303B0BDE8F08F0D20FAE78A44C9F104
:10D84000FF13CAF84045D1F80405221A013A22F024
:10D850007F4203F57F439342EED3002AE2D10134A5
:10D86000CAF84045D1F804359842DAE78029020029
:10D8700003680222C3F8442309B1C3F804237047A4
:10D8800000684FF48271FFF7F3BE4FF4803303FA60
:10D8900001F10368C3F84813C3F808137047503107
:10D8A0008900006889B2FFF7E3BE0368D3F8040576
:10D8B0007047000090F90430002B09DB5A09012160
:10D8C00003F01F0301FA03F34032024941F822300A
:10D8D000704700BF00E100E0024B034A1B6810687C
:10D8E000184700BFBC340020B434002010B561B12B
:10D8F000B2FBF3F403FB1424A4B244B9C0E900144E
:10D9000084608281C381204610BD0E20FCE709207F
:10D91000FAE737B550E8013F9DB2C48925448489B0
:10D92000A54228BF2D1B0489A54202BFBFF32F8F3C
:10D93000002207E0C5EA030540E80154002CE9D1C4
:10D940004FF001028DF803200193019B9DF8032005
:10D950000B6002F0FF0322B10B880068184403B08B
:10D9600030BD1846FBE70A884B889A4209D150E837
:10D97000012FC2EA024240E80123002BF7D1012027
:10D9800070470020704737B550E8023F1FFAA3F5F3
:10D99000C488A54202BFBFF32F8F00220DE0C489C7
:10D9A00025448489A54228BF2D1BC3EA054540E8CC
:10D9B0000254002CE8D14FF001028DF803200193AE
:10D9C000019B9DF803200B6002F0FF0322B14B88FE
:10D9D0000068184403B030BD1846FBE70A884B883E
:10D9E0009A4209D150E8022FC2EA224240E80223BB
:10D9F000002BF7D1012070470020704710B5034677
:10DA000053E8000F0A4643E8002494F0000FF7D1D2
:10DA100010BD10B5034653E8002F42EA010043E869
:10DA2000000494F0000FF6D110BD10B5034653E882
:10DA3000000F00EA010243E8002494F0000FF6D141
:10DA400010BD10B5034653E8002F02EB010043E878
:10DA5000000494F0000FF6D110BD10B5034653E852
:10DA6000002FA2EB010043E8000494F0000FF6D170
:10DA700010BD0121FFF7CDBF0021FFF7D6BF10B5C4
:10DA800090B1D0E9012301689B1ADBB20A60013B27
:10DA9000DBB2FF2B026802D10020107110BD1168AB
:10DAA0004C1C14600B70F2E70E20F7E737B5054603
:10DAB00000240DF107008DF80740FFF79FFD2A684D
:10DAC0006B68116899420ED9481E106011F8014C1C
:10DAD000EB68298A01FB0434AB6811791B1ADBB2AD
:10DAE000994238BF13719DF80700FFF7ABFD204640
:10DAF00003B030BD37B5054600230DF107000C46D5
:10DB00008DF80730FFF77AFD2A681368591C1160F9
:10DB1000E968641A298AB4FBF1F41C709DF80700C7
:10DB2000FFF790FD03B030BD826810B504462AB1FE
:10DB300043690168006998470023A36010BD0EB4D3
:10DB400003B5039921B104AB01AA019300F076F863
:10DB500002B05DF804EB03B070470A2938B50446FB
:10DB60000D4602D10D21FFF7F8FFA3682268591C6A
:10DB7000A160D554D4E901329A4204D32046BDE8CD
:10DB80003840FFF7D1BF38BD2DE9F84F9846DDE9A1
:10DB90000A43154682460F460A464FF00109AA423B
:10DBA0000FD2C14538BFC14613F0010B01D16CB98A
:10DBB00000240126B8F1010F1BD908F1FF386E438C
:10DBC000F8E709F10109B2FBF5F2E8E79B070ED58A
:10DBD000B8F1000F0CBF30262026A145E9D2013C48
:10DBE00031465046FFF7B9FF002CF6D1E0E720267A
:10DBF000F3E7B7FBF6F39D42E1D9DFF83C80B7FBD2
:10DC0000F6F3504618F8031006FB1377FFF7A5FF4D
:10DC10003346AB42B6FBF5F6F1D2BBF1000F02D0B2
:10DC20000CB1A14501D3BDE8F88F20215046013C3D
:10DC3000FFF793FFF4E700BF862902002DE9F74FB5
:10DC4000054617468846002900F0428118F8011B56
:10DC500049B92B7B002B00F03B81284603B0BDE87F
:10DC6000F04FFFF761BF252940F0B780002698F8F4
:10DC700000302D2B424608F1010823D0302B24D050
:10DC80002B2B25D000242A2B02F1010123D13B6844
:10DC90001A1D1B683A601C440A4613782E2B26D1A5
:10DCA00001324FF0000A104610F8011BA1F1300CB0
:10DCB000BCF1090F1DD80A2303FB0A13A3F1300A94
:10DCC0000246F0E746F00106D1E746F00206CEE74D
:10DCD00046F00406CBE711F8013CA3F13000092817
:10DCE000DBD80A2202FB0434303C0A46CBE74FF073
:10DCF000000A12F8011B01F0FB0068289046F8D0DA
:10DD0000782909D86F290CD8632962D022D825290F
:10DD100063D0582900F0888098F80030002B95D106
:10DD200097E770390829F7D801A353F821F000BF0D
:10DD3000ABDE010019DD010019DD010039DE010053
:10DD400019DD010017DE010019DD010019DD0100F8
:10DD500029DE0100642901D06929DDD13A68D2F8B1
:10DD60000090111D89EAE9723960A2EBE9724FF067
:10DD7000010B092A35DCD34538BFD3462CB1B9F1A4
:10DD8000000F01DB720700D5013CB30702D5BAF1E1
:10DD9000000F03D0F00701D44CBB0024B9F1000FF1
:10DDA0002DDAC9F100092D212846FFF7D6FE06F02D
:10DDB0000302022A04D1BAF1000F01D11CBB0024D6
:10DDC000CDE9004653460A2249462846FFF7DCFEC5
:10DDD000A2E73B681A1D19783A602846FFF7BDFE96
:10DDE0009AE70A230BF1010BB2FBF3F2C1E7A3455B
:10DDF000D4D220212846013CFFF7AFFECCE77107C3
:10DE0000D5D52B21D0E7A345DAD230212846013CD5
:10DE1000FFF7A3FED2E73968CDE900460A1D3A6054
:10DE200053460A220968D0E739680A1D3A60CDE9ED
:10DE3000004653461022F5E73B681A1D3A6016F07B
:10DE40000106D3F8009028D1B9F1000F03D048465D
:10DE500004F0CDF80646B44200D904BB09F1FF39FD
:10DE600019F8011F00293FF457AF2846FFF775FE48
:10DE7000F6E728460136FFF770FE19F8061000296C
:10DE8000F7D1A642BFF448AF002C3FF445AF2021A4
:10DE90002846013CFFF761FEF3E70026EDE720216D
:10DEA0002846013CFFF759FED5E73B681A1D3A604A
:10DEB000302128461C68FFF750FE78212846FFF7DE
:10DEC0004CFE00220823CDE90032214610227CE7D7
:10DED00003B0BDE8F08F00BF2DE9F84FB0F806A001
:10DEE0004579D2F800B09DF828900AFB05F5043D6D
:10DEF00088460BEB0301A94203F1040488BFA5EB9C
:10DF0000030BB4FBFAF607460AFB1644C2F800B04E
:10DF10004EB9AAEB04055D4528BF5D46BBF1000F75
:10DF200004D1BDE8F88F3F68013EF1E7043408EB07
:10DF300006003C442A46B9F1000F0DD02146ABEB58
:10DF4000050B03F0D6FFDA452E443F6855464FF0E7
:10DF5000000428BF5D46E1E701462046EFE7FFF7F2
:10DF60008EBDF8B546790146721E054600239342E0
:10DF70002D6803D30024A64202D8F8BD0133F6E78A
:10DF80000F682846FFF7B6FD01343946F3E72DE95F
:10DF9000F843068ACD1C0746FFF788FD043E35444A
:10DFA0000446B5FBF6F5F0B14FF48073EDB2838013
:10DFB000C680013D076081464FF00008A84512D297
:10DFC0003846FFF773FD064648B163790133637144
:10DFD00008F10108C9F8000007608146EEE7204615
:10DFE000FFF7BFFF34462046BDE8F8830121043027
:10DFF000FFF727BD10B5012104460430FFF72DFDC2
:10E0000010F0FF0F04D12046BDE81040FFF7A9BF74
:10E0100010BD1FB503920022009203AAFFF75CFF18
:10E0200005B05DF804FB1FB503920122009203AA1C
:10E03000FFF752FF05B05DF804FB33DF704741DFA7
:10E0400070470000064B10B500241C70054B1C6087
:10E05000BFF35F8F0449054800F04DF9204610BD1D
:10E06000C9340020CC340020A0290200C034002094
:10E0700007B500230DF107008DF80730FFF7BEFA52
:10E08000F1EE103A23F09F03E1EE103ABFF35F8FF9
:10E09000094B4022C3F884219DF80700FFF7D2FA0C
:10E0A00003F040FC20B1FFF7CAFF03B05DF804FBAA
:10E0B00020BF40BF20BFF8E700E100E070B5264D6B
:10E0C000044601212846FFF799FCBFF35F8F2E46D7
:10E0D00038B9042C0AD0214B1A781AB1BFF35F8FDC
:10E0E000286070BD1E4A147001221A701D4C1C4D10
:10E0F0006368BBB9FEF7B4FCFEF716FB0028FBD142
:10E10000174B1B78023B012B14D8BFF34F8F1649D6
:10E11000164BCA6802F4E0621343CB60BFF34F8F23
:10E1200000BFFDE71B682878984788B1204600F0BB
:10E13000ECF8DDE703F0F6FB08B1FFF77EFF4FF0E8
:10E1400080430122C3F80025BFF34F8F20BFFDE7B6
:10E15000BFF35F8F3060C4E7CC340020C9340020A7
:10E16000C8340020C034002000ED00E00400FA05AF
:10E17000026813685268934291BFD01A80680130D8
:10E18000801888BFC01A7047036881681A685B6886
:10E190008B4234BF01330023D31A58425841704791
:10E1A000F7B5002304460DF107000D468DF8073042
:10E1B000FFF724FA2046FFF7E7FF10B1237C002B7E
:10E1C0003CD12268A66853685168B14234BF01311E
:10E1D0000021516030B11168A068814234BF013123
:10E1E00000211160E2686068511E072920D8DFE82D
:10E1F00001F004101F141F1F1F182A78C254204654
:10E20000FFF7B6FF23689A68824200D29860002424
:10E2100015E02A8820F81320F1E72A6840F8232027
:10E22000EDE7D5E9006700EBC300C0E90067E6E76A
:10E23000294602FB030003F05CFEE0E704249DF89E
:10E240000700FFF7FFF9204603B0F0BD0368186828
:10E250005B68C31A58425841704773B5002305469E
:10E260000DF107000C4616468DF80730FFF7C6F98A
:10E270002846FFF7EBFF002832D129680B682EB93A
:10E280000A68A868824238BF561C0E60EA6869684E
:10E29000501E07281ED8DFE800F0040E1D121D1DB9
:10E2A0001D16CB5C237000249DF80700FFF7CAF908
:10E2B000204602B070BD31F813302380F3E751F8E7
:10E2C00023302360EFE701EBC301D1E90023C4E968
:10E2D0000023E8E703FB0211204603F00AFEE2E711
:10E2E0000524E1E7836800225A60C3E904229A60AA
:10E2F000DA601A6070470B684A684360934208BF4F
:10E300000023016008BF43607047436843B102685F
:10E31000916852680B449342436004BF00234360FA
:10E32000704770B5446806460D46206818B1B3685A
:10E330002946984718B923682B60256070BD24686A
:10E34000F3E74368186808B102681A6070474368C9
:10E35000186870474368186800B97047884203D14D
:10E3600002681A600120704703460068F4E7000065
:10E3700010B50D49A1F59472914201D800200FE02B
:10E380008C1AE30F03EBE4035B1002EBC30452F8B7
:10E390003330834205D802D204F10802ECE760680A
:10E3A00010BD2146E8E700BFAC2E020008B5FFF71C
:10E3B000DFFF024B002808BF184608BD6F2D020082
:10E3C00010B50446C0B2FFF7F1F8204610BD0000BA
:10E3D0000A4B1B685A1C05BF094B0A4A0A4A1068B7
:10E3E0000ABF1B781068C0F303100D2B04D101285D
:10E3F0008CBF0020012070470020704730010010C2
:10E40000E00F00F0E80F00F03401001008B5FFF74E
:10E41000DFFF40B14FF080430022C3F80C21C3F866
:10E420001021C3F83825FFF7D3FF002846D04FF05E
:10E4300080524D4BD2F80414C3F82015D2F80814BA
:10E44000C3F82415D2F80C14C3F82815D2F8101408
:10E45000C3F82C15D2F81414C3F83015D2F81814D8
:10E46000C3F83415D2F81C14C3F84015D2F82014A0
:10E47000C3F84415D2F82414C3F84815D2F8281468
:10E48000C3F84C15D2F82C14C3F85015D2F8301438
:10E49000C3F85415D2F83414C3F86015D2F8381400
:10E4A000C3F86415D2F83C14C3F86815D2F84014C8
:10E4B000C3F86C15D2F84424C3F87025FFF788FF21
:10E4C00048B14FF08043D3F80024D20744BF6FF027
:10E4D0000102C3F80024254AD2F8883043F47003BF
:10E4E000C2F88830BFF34F8FBFF36F8F4FF0102308
:10E4F000D3F80022002A03DBD3F80432002B2FDAF2
:10E500001B4B0122C3F80425D3F80024002AFBD0BA
:10E510004FF010221221C2F80012D3F80024002A72
:10E52000FBD04FF010231222C3F80422104B1A46DE
:10E53000D3F800140029FBD00021C3F80415D2F849
:10E540000034002BFBD0BFF34F8F0849094BCA683A
:10E5500002F4E0621343CB60BFF34F8F00BFFDE7CF
:10E56000054B064A1A6008BD00C0004000ED00E0FF
:10E5700000E001400400FA05D42700200090D003F9
:10E58000074B1B5C1F2B8ABF064A4FF0A04203F0CB
:10E590001F03D2F80405D840C04300F001007047C3
:10E5A000B02E020000030050074B1B5C1F2B86BFE0
:10E5B000064903F01F034FF0A041012202FA03F3C2
:10E5C000C1F80C35704700BFB02E020000030050A8
:10E5D000074B1B5C1F2B86BF064903F01F034FF040
:10E5E000A041012202FA03F3C1F80835704700BFC9
:10E5F000B02E02000003005008B50020FFF7E8FF2E
:10E600000120FFF7E5FF0220FFF7E2FFBDE8084029
:10E610000320FFF7DDBF08B50020FFF7C5FF01208D
:10E62000FFF7C2FF0220FFF7BFFFBDE8084003204D
:10E63000FFF7BABF0A4B185C1F288ABF094B4FF07F
:10E64000A04300F01F00D3F804250121814021EAF6
:10E6500002000A40C3F80805C3F80C25704700BF44
:10E66000B02E020000030050074B1B5C1F2B8ABF1B
:10E67000064A4FF0A04203F01F03D2F81005D8401D
:10E68000C04300F001007047AC2E020000030050B0
:10E690000B2809D00C2809D0182809D019280CBF3C
:10E6A00003204FF0FF307047002070470120704773
:10E6B00002207047014B185C704700BFAC2E02006F
:10E6C000C20710B504460CD54FF0A0430322C3F88F
:10E6D0003427C3F83827C3F83C27C3F84027FFF78F
:10E6E0008BFFA3070AD54FF0A0430C22C3F82C27B9
:10E6F000C3F83027C3F86027C3F8642710BD0000B3
:10E7000038B5074C051E04F1080318BF1C462368E2
:10E710002BB11A6822605B6828469847F7E738BD36
:10E72000D834002020B9054B01225A70FFF7E8BF0A
:10E73000012802D1014A9070F8E77047D0340020D8
:10E7400020B9034B01225A70FFF7DABF704700BFB0
:10E75000D034002038B50E4C2378B3B90D4863602F
:10E76000A3602361E36000F0E5F8054603F0DAF802
:10E7700008B900F0EBF801232370074BD3F80034FD
:10E780000BB10123A370284638BD8525F5E700BFEE
:10E79000D034002025E701000000014037B50D4CC2
:10E7A00000230DF107008DF80730FEF727FFE3681F
:10E7B000013BE360E36833B9074BD3F8005415B964
:10E7C00000F0D6F8A5709DF80700FEF73BFF03B0F8
:10E7D00030BD00BFD034002000000140012813B537
:10E7E0000CD0032820D038B9124B0122C3F8802066
:10E7F000BFF34F8FBFF36F8F02B010BD0E4C0023DD
:10E800000DF107008DF80730FEF7F8FE23780BB9FD
:10E81000FFF7A0FFE3689DF807000133E3600123E1
:10E82000A370FEF70FFFE7E700F090F8FFF7B6FFE1
:10E83000E2E700BF00E100E0D03400201FB503781C
:10E840008DF800304368019383688DF80830C36801
:10E85000054A0393054B684653F8213052F82110BE
:10E86000984705B05DF804FBE4340020EC34002048
:10E870001FB503788DF800304368019383688DF8E5
:10E880000830C368054A0393054B684653F82130A6
:10E8900052F82110984705B05DF804FBE4340020DD
:10E8A000EC340020F0B5194B90F800C0DFF86CE0B4
:10E8B00043F82C20164B16460A6943F82C204B7F50
:10E8C0000EF80C300C4607460FCC89B06D460FC5CC
:10E8D00094E80F0085E80F001EF80C30CDF810C04A
:10E8E0004BB1002E0B4A694608BF3246381D00F076
:10E8F000F3FD09B0F0BD002E074A694608BF324655
:10E9000007F10C0000F0A8FBF3E700BFEC34002097
:10E91000E43400203DE8010071E80100F4340020F7
:10E9200000F18040002382B0036003680193019BE3
:10E9300002B07047044A137923B9012110601171A4
:10E940001846704785207047F8340020074B1A6836
:10E95000D20704D4C02283F8002301221A604FF0AA
:10E9600080430122C3F81825704700BF00E100E092
:10E970004FF0804208B50223C2F808334FF482708A
:10E98000FFF7CEFF034B01211960D2F81834DB03E7
:10E99000FBD408BD0C000040114B1B6810B563B1DF
:10E9A0004FF48070FFF7BCFF4FF080430122C3F8A3
:10E9B00008230C4B00201B6898470B4B1B6873B156
:10E9C0004FF48270FFF7ACFF4FF080430222C3F890
:10E9D0000823044BBDE810401B680120184710BDF8
:10E9E00000010040F83400200401004000F18040A4
:10E9F00000F5C040002382B0036003680193019BCF
:10EA000002B0704703681F2B83BF03F01F0303602E
:10EA100001484FF0A04070470003005007B5019037
:10EA200001A8FFF7EFFF019B00EB8300D0F8003750
:10EA300023F44033C0F80037D0F8003743EA0141EF
:10EA4000C0F8001703B05DF804FB0000054B4FF061
:10EA5000FF32072843F8202084BFC01880F85220D6
:10EA6000704700BF0035002038B51E4C94F8643064
:10EA7000ABBB40F2FF31FF205A09012A14BF4FF00F
:10EA8000FF320A4603F01F05EA40D20748BFE218EA
:10EA900003F1010348BF82F830002A2BECD100219A
:10EAA000C8B2FFF7D3FF01310C29F9D106220021AA
:10EAB0000D4803F047FA0D4BC02283F8062340228D
:10EAC0001A604FF4BE70FFF791FF094B4FF0004200
:10EAD000C3F80423012384F86430002038BD0820E3
:10EAE000FCE700BF003500205E35002000E100E0BB
:10EAF00000600040034B93F86400003818BF012009
:10EB0000704700BF00350020F7B53B4E331805466F
:10EB100093F93030002B6CDA8B78C3F34003002B71
:10EB20000BBF082400240C200820844202D10420BA
:10EB300003B0F0BD56F82470013743D1701946F880
:10EB4000242080F8304013B9331983F852508B7861
:10EB50005A0717D4D80737D501A80195FFF752FFF8
:10EB6000019B00EB8300D0F8003723F00203C0F8CC
:10EB700000372248EA0805F007070123BB40875CFD
:10EB80003B4383548B780A7813F0020328D0A40007
:10EB900004F1804404F5C0442D02D4F8103523F468
:10EBA0004F3323F44073C4F810351204D4F81035F1
:10EBB00005F47C5502F4403215431D43C4F810554A
:10EBC0000020B5E70134B0E701A84A780195FFF7C6
:10EBD00019FF019B03F5E073920040F82320C8E77A
:10EBE000083C344494F85A5045EA821284F85A207A
:10EBF000E6E708209CE700BF003500205E350020D6
:10EC000073B5224C2618054696F93020072A1ADDDE
:10EC1000224492F852309B09032B0FD1019001A896
:10EC2000FFF7F0FE019BD0F81015D94001F001016B
:10EC300002312846FFF7F2FE02B070BD012B0CBF77
:10EC400002210321F5E7D3B2072BF5D8930003F196
:10EC5000804303F5C043D3F8100540F00100C3F82A
:10EC6000100502F14000800080B2FFF7BFFE0029CE
:10EC7000E2D096F9303054F82330002BDCD0012359
:10EC800003FA02F2024BC3F80423D5E70035002053
:10EC90000060004007B5019001A8FFF7B3FE019B9B
:10ECA000D0F81005D84000F0010003B05DF804FB77
:10ECB0002DE9FF470024CDE90244584D4FF48072FE
:10ECC000012102F1804303F5C04390B21B68012B80
:10ECD00006D1D5F804330B4202D0FFF787FE0C4370
:10ECE0000432B2F5907F4FEA4101EAD14C4B1B68E8
:10ECF000012B11D14FF4BE70FFF778FE4FF0A04307
:10ED000044F00044D3F820250292C3F82025D3F81C
:10ED100020280392C3F8202814F0FF0F1AD0414F87
:10ED200000250126344210D0AB0003F1804303F5E7
:10ED3000C043D3F81005D3F8101557F8253023B188
:10ED4000C1F30141C0F3052098470135082D4FEA72
:10ED50004606E7D1002C59DA324D334C334E4FF092
:10ED60000008012716F9013B5A1C3CD0C3F3C2012D
:10ED700004A801445FFA83F911F8081C03F03F026C
:10ED800003F0070307FA03F319422CD001A80192FC
:10ED9000FFF738FE019B03F5E07350F82330C3F30F
:10EDA000014ABAF1020F10460CBF03210221FFF7FE
:10EDB00035FE01A80192FFF725FE019B07FA03F338
:10EDC000C0F82035AB1893F9303055F8233053B1E3
:10EDD0004FEA9911032904D0BAF1020F19D1012980
:10EDE00001D11046984708F10108B8F1040FB9D1D4
:10EDF0004FF0A043D3F820250292C3F82025D4F881
:10EE000020350393C4F820351343A7D104B0BDE8DF
:10EE1000F087BAF1030FE6D10229E1E70060004074
:10EE20007C61004000350020000300505A3500206E
:10EE3000014B1B68184700BF683500200E4B9842F5
:10EE400037B50C4602D0002003B030BD00230DF1D1
:10EE500007008DF80730FEF7D1FB084B1D7915B977
:10EE600001221C601A719DF80700FEF7EBFB002DD4
:10EE7000E9D01120E8E700BF0020004068350020FD
:10EE80000023435082B043580193019B02B0704766
:10EE90000A4610B54FF48E71FFF7F2FF136A9168BE
:10EEA000C95C136A01331362C0F81C1510BD024619
:10EEB00008B500684FF49271FFF7E2FF4FF48471D8
:10EEC0001068FFF7DDFF136801221A6008BD8B6927
:10EED0000A4610B54FF4847123B9FFF7D1FFD0F87B
:10EEE000183510BDFFF7CCFF536AD168D0F818056C
:10EEF000C854536A01335362F3E700001FB501237E
:10EF00008DF80030044BCDE90110D3E900126846BA
:10EF1000904705B05DF804FB7035002030B54C48D3
:10EF2000D0F8043313F4007F85B005464DD0D0F8F7
:10EF30002431002B49D04FF49271FFF7A1FF4FF419
:10EF40000173C0F80833434B93F829200AB9012212
:10EF500042603F4902228DF80020D1F88024C1F898
:10EF6000802403929A690292DA6801920022C3E92E
:10EF700006226846D3E9001290473548D0F81C3184
:10EF80005BB134494A690B6A9A420A464AD991F8F8
:10EF90002830002B46D1FFF77BFF2D48D0F84431B5
:10EFA0008BB14FF4A271FFF76BFF2A4B93F8292026
:10EFB0000AB1012202609A692AB10022586AD9680E
:10EFC0009A61FFF79BFF05B030BDD5F804335B07AE
:10EFD000D3D5D5F80831002BCFD01E4C1C48214684
:10EFE000FFF775FF636AA2699A422346C5D1E269B9
:10EFF000E1684AB12369E3600023606AA261E361CA
:10F000006362FFF77BFFB8E794F829200AB9012271
:10F010006A600F4A4FF40170C2F808030022586A70
:10F020009A61EEE70A484FF48E71FFF729FF5369A2
:10F03000002BB2D051690291002391688DF8003005
:10F04000019153616846D2E900139847A5E700BFD4
:10F0500000200040703500202DE9F843614B057910
:10F0600091462C2202FB0532064692F82A200C46D5
:10F070009846002A40F0B1805B490068FFF7DEFE49
:10F080000746002840F0AB8021684A1C10D01F2999
:10F0900087BF564A01F01F030B464FF0A0420120E4
:10F0A000984003F5E073C2F80805032042F82300F6
:10F0B0006068431C0DD01F288BBF00F01F03034660
:10F0C0004A4A4FF0A04203F5E0734FF0000C42F8BB
:10F0D00023C03368A269C3F8242594F814C0627D64
:10F0E000BCF1010F4CEA0202C3F86C25C3F8140509
:10F0F000C3F80C152BD1A168481C0DD01F298BBF5C
:10F1000001F01F020A4639484FF0A04002F5E072B4
:10F110004FF0000C40F822C0E068421C13D01F28BA
:10F1200087BF324A00F01F0C84464FF0A0424FF0D8
:10F13000010E0EFA0CFE0CF5E07CC2F808E54FF06B
:10F14000030E42F82CE0C3F80805C3F810152C2371
:10F150006B4308EB0302C2F80490226948F80320CD
:10F16000B9F1000F21D03068247F4FF48E71FFF782
:10F1700087FE4FF4A2713068FFF782FE32681C4BA5
:10F18000C2F80433110B42F307326301002ADBB2E9
:10F190001EDB1848841884F800330123520901F05B
:10F1A0001F0103FA01F140F8221033680422C3F86A
:10F1B00000252C2303FB05830022C3E9062283F8E4
:10F1C00029205A61012283F82A203846BDE8F883B5
:10F1D000094A01F00F015354E7E70827F5E7112723
:10F1E000F3E700BF703500201DEF01000003005061
:10F1F0008000020000E100E014ED00E02DE9F0479E
:10F20000204F90F804904FF02C0808FB0974054635
:10F210006669002E34D162610068A16026624FF4F5
:10F220008E7184F82860FFF72BFE28680123836025
:10F230002146FFF72DFE6368A0468BB92868D4F8F5
:10F2400014A0236A9A4511D82A68D2F81C31002BE1
:10F25000FBD00123D3602C2303FB097300225A61E6
:10F260003046BDE8F08794F828303BB9D0F81C311F
:10F27000002BF8D04146FFF70BFEE2E70F26EAE746
:10F280001126EDE7703500200379044A2C2101FB9B
:10F2900003235869003818BF0120704770350020DB
:10F2A0002DE9F843394F05792C2303FB05730646F6
:10F2B0005C6824B103684FF40170C3F808032C2381
:10F2C00003FB0573986950B1D86900283ED024B17A
:10F2D00033684FF40172C3F80423112433E09A61B8
:10F2E000D9605862D8612C2303FB057393F8293049
:10F2F0001BB910B93046FFF7DAFD4FF02C0909FBB6
:10F3000005783068D8F80430002B34D14FF4A2715E
:10F31000C146FFF7B5FD3068D0F82431D0F8082198
:10F32000D0F84441B2B90CB9002BF4D02C2202FB26
:10F3300005750022AA6123BB2CBB95F82910336800
:10F340000122B1B11A602046BDE8F8831961DA6183
:10F350000120C8E7002BE9D1002CE7D14946FFF78F
:10F36000B6FDD8F82430D8F818209A42D3D82346CE
:10F37000DCE75A60E7E74FF40173C0F80433002478
:10F38000E1E70324DFE70F24DDE700BF703500204D
:10F390000023435082B043580193019B02B0704751
:10F3A0001FB501238DF80030044BCDE90110D3E9DE
:10F3B00000126846904705B05DF804FB9C350020BC
:10F3C0007FB5434AD2F82461002E60D010464FF436
:10F3D0009271FFF7DDFF02238DF80030D2F8803400
:10F3E000C2F880340393D2F83C350293394BDA6883
:10F3F00001920022C3E906226846D3E90012904731
:10F400003348D0F8443173B14FF4A271FFF7C0FF15
:10F41000304B9A693AB10022C3E90622D968D0F884
:10F420003C05FFF7BDFF2A48D0F82031ABB14FF4BF
:10F430009071FFF7ADFF0123C360264B5A6962B19B
:10F44000D0F84C150291002299688DF800200191A6
:10F450005A616846D3E9001290471D48D0F85831E8
:10F460009BB14FF4AC71FFF793FF1A4B5A6962B12D
:10F47000D0F84C150291002299688DF80020019176
:10F480005A616846D3E90012904704B070BDD2F8C3
:10F490001031002BB4D04FF488711046FFF778FF7D
:10F4A0000C4BD2F83C0599698842A9D1DC69D9682E
:10F4B00064B1D2F8005225F02005C2F800521A6952
:10F4C0009C61DA60DE61FFF76BFF99E79C61FAE708
:10F4D000002000409C3500202DE9F843674B067959
:10F4E0009146242202FB0632044692F820200D4663
:10F4F0009846002A40F0BE8061490068FFF79EFCF4
:10F500000746002840F0B8802868421C10D01F2809
:10F5100087BF5C4A00F01F0303464FF0A042012161
:10F52000994003F5E073C2F80815032142F823104F
:10F5300069684B1C0DD01F298BBF01F01F030B46C0
:10F54000504A4FF0A04203F5E0734FF0000C42F830
:10F5500023C02368AA69C3F8242595F814C06A7DDE
:10F56000BCF1010F4CEA0202C3F86C25C3F80C058C
:10F57000C3F814152BD1A968481C0DD01F298BBFC7
:10F5800001F01F020A463F484FF0A04002F5E0722A
:10F590004FF0000C40F822C0E868421C13D01F282E
:10F5A00087BF384A00F01F0C84464FF0A0424FF04E
:10F5B000010E0EFA0CFE0CF5E07CC2F808E54FF0E7
:10F5C000030E42F82CE0C3F80805C3F810152423F5
:10F5D000734308EB0302C2F804902A6948F8032039
:10F5E000B9F1000F30D020682A7F4FF48871FFF7FF
:10F5F000CFFE20684FF49071FFF7CAFE20684FF4E9
:10F600009271FFF7C5FE20684FF4A271FFF7C0FEAC
:10F610004FF4AC712068FFF7BBFE23681A49C3F8AA
:10F620000413190B43F307335201002BD2B21CDB36
:10F630001648C51885F8002301225B0901F01F0157
:10F6400002FA01F140F8231023680822C3F80025CC
:10F65000242303FB06830022C3E906225A61012208
:10F6600083F820203846BDE8F883094B01F00F01EC
:10F670005A54E9E70827F5E71127F3E79C350020FE
:10F68000C1F30100000300501003420000E100E05C
:10F6900014ED00E001F06043B3F1005F2DE9F041AB
:10F6A000064638D11E4B0779242505FB07359846B9
:10F6B0006C69002C31D16A610068A9604FF49071C7
:10F6C000FFF766FE4FF4AC713068FFF761FE3368F8
:10F6D0006A69A968C3F84415C3F8482501229A60ED
:10F6E0006A68AAB9D3F82021D3F858411AB9002C76
:10F6F000F8D00F2407E0002CFBD10122DA60D3F808
:10F700005821002AFBD0242303FB078700237B61B9
:10F710002046BDE8F0811024FAE71124F8E700BF85
:10F720009C3500200379044A242101FB03235869F6
:10F73000003818BF012070479C350020F8B501F053
:10F740006043B3F1005F04460F465ED10379304D4C
:10F75000242101FB0351496821B100684FF404766C
:10F76000C0F80863242000FB03539E6956B1D86992
:10F77000002839D021B123684FF40472C3F8042360
:10F78000112030E09A61DF60DE6120684FF48871FB
:10F79000FFF7FEFD20684FF4A271FFF7F9FD236823
:10F7A000C3F83475C3F8382516BB01221A602179D5
:10F7B000242202FB015252680ABBD3F81041D3F84D
:10F7C0004421D3F82401144302D10028F5D0224665
:10F7D000242303FB01550023984218BF03209A42BB
:10F7E000AB6118BF0F20F8BD1F61DA610126CCE7BD
:10F7F000D3F8002242F02002C3F80022D7E74FF4EA
:10F800000472C3F804230020EDE71020EBE700BFEB
:10F810009C3500200220FEF70DBF00002DE9F047C7
:10F8200080460D46FEF734FF0328044610D8012D0C
:10F8300010D0022D30D05DB91A48FDF7FAFC1A4BF2
:10F8400004EB440213449E78184B1B5DB34219D05D
:10F85000BDE8F087144D00EB4002A918AE5C4A7871
:10F86000470052B1DFF84C900E484A464FF48041B1
:10F87000FDF7C7FC08B989F800803B192B449A783A
:10F880000A4B1A55002EE3D0094B1B68002BDFD022
:10F890003046BDE8F047184700EB400402480444F6
:10F8A0006678EFE7E8350020283600204136002052
:10F8B0003C360020C035002000780221FFF7AEBFA3
:10F8C00008B5094B1B7853B10020FEF781FE0120DB
:10F8D000FEF77EFEBDE808400320FEF779BEBDE8D6
:10F8E0000840FEF789BE00BFC1350020F8B57B4C4B
:10F8F000237805461BB100232370FFF7E1FF172D86
:10F9000000F28880DFE805F00C1717435465768015
:10F91000888D888D959A9A9A9A9AC4C9D1D9E4E427
:10F92000FFF7CEFF6E48FDF784FC6E4B00220446C5
:10F930001A702046F8BD0020FEF722FEF8B1002024
:10F94000FEF746FE022D0CBF4FF4E1614FF47A61E1
:10F95000644B1D704FF400404FF47A740025E0FBB7
:10F9600001454FF4FA6200232046294602F064F96B
:10F9700000220146BDE8F8405948FDF742BCFEF7B9
:10F9800013FE022D0CBFC8214FF4C871E0E7002020
:10F99000FEF7F6FD40B10020FEF71AFE4FF4487165
:10F9A000504B03221A70D5E7FEF7FEFDC821F7E79A
:10F9B0000020FEF7E5FD38B10020FEF709FE4FF408
:10F9C0007A61484B0422EDE7FEF7EEFD4FF4C87173
:10F9D000F7E70020FEF7D4FD48B10020FEF7F8FD60
:10F9E000404B05221A7040F6CD410022C2E7FEF7D7
:10F9F000DBFDF5E70020FEF71DFE3A4B06221A70EC
:10FA0000002240F26661B5E70020FEF7CDFD354BE0
:10FA100007221A7000248CE701202070FEF70AFEEE
:10FA2000EEE701202070FEF705FE00224FF40051A2
:10FA3000A0E7FEF7F0FD2B4B0C22EAE72A482B4EFD
:10FA4000FDF7F7FBD5F1110504461CD0D8B9012DFF
:10FA500013D0C8235D434FF400474FF47A70002160
:10FA60004FF4FA620023C7FB050102F0E5F82246D5
:10FA700001461D48FDF7C5FB04460220FEF794FD34
:10FA80000123337055E70220FEF7A2FD0023F8E7BB
:10FA9000FFF716FF134B1222BBE7FFF711FF002001
:10FAA000FEF782FD0F4B1322B3E7FFF709FF01209A
:10FAB000FEF77AFD0B4B1422ABE7FFF701FF0020A6
:10FAC000FEF772FD0120FEF76FFD064B1522A0E741
:10FAD000FEF7A1FD034B1D709CE700BF38360020E8
:10FAE0000836002040360020C8350020C1350020EF
:10FAF000044B1B68DB0703D5034B1878FFF7F6BEF2
:10FB0000704700BF3436002040360020002910B571
:10FB100014BF03240024FEF7CDFD1F288ABF0A4B23
:10FB20004FF0A04300F01F0003EB8000D0F8002747
:10FB300022F44032C0F80027D0F8003743EA0443EB
:10FB4000C0F80037002010BD00030050032801D882
:10FB5000FEF78ABD00207047044B1B6813F00103B9
:10FB600001D0FFF7C3BE1846704700BF34360020EF
:10FB700038B51C4B18601C4B10F002040546196088
:10FB80001AD01A4B1A480E221A700F22DA7010225D
:10FB90009A7111225A72042140F23332FDF794F91E
:10FBA000044648B9FDF7E6F9044628B90146114A6A
:10FBB0001148FDF71BFB0446EB0711D50120FEF7AA
:10FBC0007FFD6CB921460D4A0D48FDF70FFB044639
:10FBD00030B9BDE838400B4A0B480121FDF706BBA0
:10FBE000204638BD343600203C3600202836002020
:10FBF000D82E0200B9F80100FC2E0200F1FA010033
:10FC0000002F020015F80100F82E0200032811D879
:10FC1000012A0AD101290FD100F10E02D2B20D4BF7
:10FC200000EB40001A54002070470129F7D0022948
:10FC300004D049B1072070470022F8E7054B00EBDC
:10FC4000400018444270EEE7024B00EB40001844BD
:10FC50008270E8E728360020032802D80121FFF748
:10FC600055BF0620704708B5012202210020FFF78A
:10FC7000CDFF08B1072810D1072202210120FFF78C
:10FC8000C5FF08B1072808D100210A220846FFF75E
:10FC9000BDFF10B1072808BF002008BD0388102B46
:10FCA00010B502D0112B1ED010BD1A4C2168B1B96D
:10FCB00001220846FFF7AAFF08B1072824D107222E
:10FCC00002210120FFF7A2FF08B107281CD104225E
:10FCD00002210020FFF79AFF08B1072814D12368FA
:10FCE00001332360E0E70B4A1368013B1360002BEC
:10FCF000DAD1FFF7B8FF0028D6D0074B1B68002BDE
:10FD0000D2D0BDE810401847034B1B68002BE6D04B
:10FD10009847E4E74C3600204836002008B500201C
:10FD2000FFF79AFF08B1062806D10120FFF794FFDC
:10FD300010B1062808BF002008BD00000D4B10B50B
:10FD400018600C4629B10120FFF700FF40B10223E3
:10FD50002370094B1B6853B9BDE81040FFF783BF00
:10FD6000FFF7F4FE08B10B23F2E72070F1E7002063
:10FD700010BD00BF483600204C36002076DF7047AB
:10FD800077DF704780DF70478DDF7047FDF708B978
:10FD90000146014801F0E7BBD43800200388212B3D
:10FDA00013B504460FD80F2B11D9103B112B0ED8C9
:10FDB000DFE803F00F260D410D0D0D0D0D0D0D3378
:10FDC0000D0D0D480D4E3B2B4AD0562B48D002B09E
:10FDD00010BD81882548002201F00AFD08B1FDF719
:10FDE000DFF80720FFF7B8FE08B1FDF7D9F8A188C2
:10FDF0001F4800F0AFFD0028E9D0FDF7D1F8E6E795
:10FE00001C4B1D48A2881D49C01AC0080004237A53
:10FE100040F00300FCF7D9FDD9E7037A022BD6D1D5
:10FE2000144B15481649C01AC008000440F00300DE
:10FE3000FCF7BEFDCBE700231A4685218088FFF73B
:10FE4000A1FFD8E700F108018088FFF797FFD2E70C
:10FE5000002301A98088ADF80430FFF795FFCAE7B9
:10FE6000A0881321FFF78CFFC5E700BFD43800201E
:10FE7000F027002094260200BC260200042F020076
:10FE8000322F020008B5074801F07CFA08B1FDF7EF
:10FE900087F80120FFF760FE18B1BDE80840FDF7C4
:10FEA0007FB808BD0439002070B50378012B0446E3
:10FEB00037D0022B26D023BB1D4C1E4D2088284452
:10FEC000FDF75EFB238801339BB21D44238015F8A8
:10FED000012C0A2A05D00D2A03D0174A12889A420B
:10FEE0000FD8144D154E22882946304601F030FCBB
:10FEF000082804D01328F6D008B1FDF751F80023E4
:10FF0000238070BD0E4B0F480F491B1ADB081B04E2
:10FF100043F00100FCF74CFD6068BDE87040FDF760
:10FF20003FB8074B074809491B1ADB081B04EFE7DA
:10FF30004437002050360020EE270020D43800201F
:10FF4000BC26020094260200502F0200822F0200DD
:10FF500010B504460020FFF7FFFD08B1FDF720F8BB
:10FF600024B9FFF7DBFE08B1FDF71AF8012010BD38
:10FF70000A8840F677239A4213B50C4617D10D4BE9
:10FF80000D480E49C01AC008000440F0030001905B
:10FF9000FCF70EFDA3880A4A0A490198033B9BB26D
:10FFA00013801A4602B0BDE81040FCF70EBD02B047
:10FFB00010BD00BF94260200BC260200AE2F020036
:10FFC000EE270020CA2F0200042808B506D00A2810
:10FFD00010D1BDE808400020FEF770B8064B132191
:10FFE0005888FFF7CDFE30F0080303D0BDE8084085
:10FFF000FCF7D6BF08BD00BFD43800202DE9F84378
:020000022000DC
:100000000B78012B06460D4623D0022B5FD0002B28
:100010006BD1374B374C3849E41AE408240444F0D8
:1000200003042046FCF7C4FC698805F10E02304643
:1000300001F0DEFB08B1FCF7B3FF304601F056FBE0
:1000400008B1FCF7ADFF20462C49BDE8F843FCF7AA
:10005000AFBC284C264B8E688F89DFF8AC90E41A31
:10006000E408240444F001040025BD4219D3F31927
:1000700013F8013C0D2B25D0DFF890803A4631462D
:10008000404601F065FB054678B31128F6D00246DC
:100090001B492046FCF790FC2846BDE8F843FCF7D6
:1000A0007FBF705DFDF782FA804648B11128F8D015
:1000B00020462A464946FCF77FFC4046FCF770FF85
:1000C0000135D2E70A20FDF771FA1128D3E7084B72
:1000D00008480C49C01AC008000440F00300FCF7AF
:1000E00067FCBDE8F843FFF7CDBEBDE8F88300BF6D
:1000F00094260200BC260200F22F02000630020005
:100100005A3002008330020034300200D43800201C
:100110001FB50378052B12D0062B17D0042B2AD13C
:10012000164B17481749C01AC008000440F00300D6
:10013000FCF73EFC04B0BDE81040FFF7A3BE4068EA
:10014000C8B104B0BDE81040FCF72ABF41680B4CB1
:100150000B488B784A78001B8C7903944C79029475
:100160000C790194C008C97800910004064940F058
:100170000300FCF740FC04B010BD00BF9426020051
:10018000BC260200BF3002009130020008B50849C9
:10019000084800F06BFD08B1FCF702FF0548F721A5
:1001A00000F073FD18B1BDE80840FCF7F9BE08BDCA
:1001B00071FF0100F038002000B54FF480418BB092
:1001C0000020FCF761FA08B1FCF7EAFEFCF79CF9A5
:1001D000FCF7DAFF08B1FCF7E3FE4B4D0FCD04ACA2
:1001E0000FC495E80300494B494A00934FF48073CC
:1001F00084E80300CDE902230193464A07236946B8
:1002000004A8FDF765F908B1FCF7CAFE42490120D0
:10021000FFF7AEFC08B1FCF7C3FE04A90020FFF70E
:100220008DFD08B1FCF7BCFE0822002104A801F0F6
:1002300089FE3A4C3A4B049304A8059400F04CFB19
:1002400008B1FCF7ADFEFDF7FDFE08B1FCF7A8FE16
:1002500001F02AFB08B1FCF7A3FE002304A901204A
:10026000049301F0AFFB08B1FCF79AFE04A801F07B
:1002700077FC08B1FCF794FEFFF788FF294B049345
:10028000294B2A4804A9CDE9053401F0C9F908B180
:10029000FCF786FE102200210DEB020001F052FE59
:1002A0000123234A23488DF8143004A98DF81C300B
:1002B00001F012F808B1FCF773FE1F4A1D48032134
:1002C00000F0DEFF08B1FCF76BFE1A4800220421A3
:1002D00000F0EDFF08B1FCF763FE184801F0D8FD0F
:1002E000174B18481849C01AC008000440F0030012
:1002F000FCF75EFBFFF7C6FDFCF716FA0028FBD102
:10030000FDF7B6FEF8E700BF1831020058390020AB
:10031000583A0020A9FE0100C9FF0100D82700209B
:1003200091FD0100FDFF01008DFD0100D43800208A
:10033000110102000439002044310200CF300200D4
:1003400094260200BC260200F33002000369C16853
:100350008B429DBF8268D21802F1FF3203F1FF3356
:1003600094BF501A581A70472DE9F843D0E9029407
:100370000546A9EB04084068904520440F46144404
:1003800004D901F0B6FDEC60BDE8F8834246A4EB69
:10039000090401F0AEFD6868224607EB0801F0E7AA
:1003A0002DE9F843C5680646894617464FF0000810
:1003B0003469B3687068A54228BFE418013C621B29
:1003C0005C1BBC4228BF3C46944228BF14464946A9
:1003D0002844224601F08DFDB3682544AB4208BF96
:1003E00000253F1BA044A144F560E1D14046BDE893
:1003F000F883000010B5114C114AA2610223C4E930
:100400000433104BE361A2644FF400730E4A0F49AA
:100410002362E26400231022E01DA3626362E362B0
:10042000A3656365E365226501F0BFFD08492046C9
:1004300001F0BBFD2023A37110BD00BF583B00207D
:1004400048310200E03B0020D03B00205131020047
:1004500055310200F8B5184C182300FB033503FB97
:1004600000402544C46A012C0F4616460FD0022CCA
:100470001AD0F4B92846FFF769FF864205D83246FC
:1004800039462846FFF770FF34462046F8BD284617
:10049000FFF75CFF8642344628BF044622463946B1
:1004A0002846FFF761FFF0E72846BDE8F840FFF770
:1004B00077BF0024E9E700BF583B0020FFF79ABF51
:1004C00065DF704730B5C8B1F2B10024651C8D42BC
:1004D00006DA1588A54212D805196D789D420ED10D
:1004E000A14211D9005D48B1013880B230B1023467
:1004F000A3B210FA84F4A14206DB138030BD055D7F
:1005000001352C44A4B2E1E70020F7E7F0B587B04D
:10051000002306460C461046ADF8063002AA10230A
:100520000DF105018DF80530FFF7CAFF16B900205F
:1005300007B0F0BD0028FAD19DF80550042D2BD04E
:10054000102D2BD0022DF3D10323BDF806207AB94C
:100550000DF1060221463046FFF7B4FFBDF8063024
:100560002BB92B460DF106023046FFF7ABFF0446D0
:10057000BDF80670002FDAD00025AC42D7D9E819B3
:100580009DF8052002A9304401F04FFC48B19DF8C8
:1005900005301D44ADB2F0E70523D6E70625072355
:1005A000D3E70120C4E7000030B50B4B19680B4BB3
:1005B0000022914201D1002009E09D788478A54273
:1005C00006D11D880488A54202D1054B186830BDAC
:1005D00001320433EDE700BFE83D0020EC3D002090
:1005E000E03D00202DE9F84F90F8C6A24FF0760BC1
:1005F00004460AFB0B0088469146FFF7D5FF0746E5
:1006000070B3D4F8CC52052D2AD804EBC5165A463F
:10061000A6F8D2920BFB0A4106F5357001F069FC91
:10062000B8F1000F14BF0023022386F8D0320D4B1F
:10063000C6F84C731A6801359542C4F8CC521D4671
:100640000ED104F534760027F36F304698472B68B7
:1006500001379F4206F18006F6D30023C4F8CC325E
:10066000BDE8F88FE83D002030B5A1B004460D4646
:100670007C22002101A801F065FC03238DF80430E1
:10068000044BADF806501B6802940BB101A89847C3
:1006900021B030BDE03D00202DE9F041074691F842
:1006A000C60276234FF00008A0B081F8C88200FB94
:1006B00003100C461546FFF777FF064660B17C2213
:1006C000414601A801F03EFC01238DF80430ADF84D
:1006D0000650029701A8B04729462046FFF7C4FFFD
:1006E00020B0BDE8F081000030B58BB00446202278
:1006F0000D4602A8002101F025FC04220DEB0200AA
:10070000002101F01FFC94F8C53294F8C62213B3FF
:10071000013B7621DBB25143122000FB031323443B
:100720005B8A01339BB2ADF80430762303FB0242AF
:1007300002A91389ADF8063003238DF80830019B18
:10074000CDE90543064B0493064B2A46186800F092
:100750006BFC0BB030BD762303FB0243DB88E2E782
:1007600099060200043E0020F0B5044689B020221C
:100770000D466846002101F0E5FB94F8C7321E4A99
:1007800001331268DBB2934284F8C7324FF00002A3
:100790002BD294F8C632194F84F8C5220133DBB24C
:1007A000762113FB01F057F8237084F8C63226181F
:1007B000275001FB034332711B68CDF81230104BF8
:1007C000029302220F4B8DF800200122ADF8102079
:1007D000186803942A46694600F026FC18B12A4698
:1007E0002146FFF759FF09B0F0BD84F8C822294619
:1007F0002046FFF739FFF6E7E83D0020EC3D0020FA
:1008000099060200043E00202DE9F047044688B016
:100810000D46164600212022684601F093FB94F80D
:10082000C62294F8C512762312FB03F2A0181227F1
:1008300090F804C017FB012301F1010E0A33E645CD
:10084000234411D004F11C0900F1220E0CF1FF38F1
:100850009144CAB294450BD988451B890ED10289AF
:100860009A421BD1002312E01B890289934215D1C1
:1008700001232B70002008B0BDE8F08707FB01FAC8
:1008800001333EF80A2093421DD109EB0A0394F884
:10089000C522013284F8C5220131DAE701339BB267
:1008A000ADF810300A4B029300210A4B2970042145
:1008B0008DF80010ADF8122018680394324669468E
:1008C00000F0B2FBD7E7013A9BB292B2E8E700BF73
:1008D00099060200043E002010B570B1026862B1B2
:1008E000436853B1064900200860064901240C7092
:1008F00005490A60054A136010BD0E20FCE700BFE1
:10090000E83D0020E43D0020E03D0020043E0020C2
:1009100010B5044680B10C4B1B787BB1FFF744FE49
:1009200070B90A4A1368052B0CD80949246841F8A4
:1009300023400133136010BD0E20FCE70820FAE7C6
:100940000020F8E70420F6E7E43D0020E83D002021
:10095000EC3D0020F0B50D468BB0044600283BD09E
:10096000204B1B78002B39D01F4B1B68002B35D038
:1009700090F8C812002933D14FF4BA621B4F01918D
:1009800001F0E0FA0199202202A801F0DBFA3868B0
:10099000294600F0E9FBE8B9154BC4F8CC0284F80D
:1009A000C502A4F8C6021868206002238DF808303A
:1009B0000126104BCDF81A00A4F8CA523868ADF8D9
:1009C00018602A4602A90594049300F02DFB08B98B
:1009D00084F8C8620BB0F0BD0E20FBE70820F9E7F1
:1009E0001120F7E7E43D0020E83D0020043E002010
:1009F000EC3D0020990602002DE9FF410C4605461A
:100A000060B159B1904B1B7843B10388322B64D04D
:100A100007D8112B00F00A81302B20D004B0BDE89C
:100A2000F081332BFAD18288B1F8CA329342F5D1E2
:100A3000C68891F8C6C291F8C572002E00F0C08039
:100A4000762101FB0C4C00239CF804108DF80F302C
:100A50007B1C8B4200F0E48084F8C532A2E08388DE
:100A6000B1F8CA229A42D9D1C3886BBB91F8C63279
:100A7000762202FB03130269C3F8062091F8C43200
:100A8000827A1344062B0CDC81F8C432A9882046F4
:100A9000FFF72AFE0028C1D0AA882146FFF7FCFDF7
:100AA000BCE7062381F8C4326848694B6949C01A1B
:100AB000C008000440F002000190FBF779FF66498E
:100AC0000198FBF775FFE1E700212046FFF78AFD5B
:100AD000A9882046FFF748FEA0E78288B1F8CA320D
:100AE0009A429BD1C388002B58D191F8C6727623C5
:100AF00017FB03F701EB0708837A98F80460334487
:100B0000062B26DC88F80430334603EBC30207EBE0
:100B1000420205F10C062244002198F804008342A9
:100B200006F10A0602F1120227D31222013B02FB50
:100B3000034394F8C62276213B4401FB0242598AC2
:100B4000138999422AD2062828D0A98884F8C50298
:100B50009DE7062388F804303C483D4BCA5B3F497B
:100B6000C01AC008000440F002000190FBF724FF07
:100B70003B490198FBF71CFFC6E73046013350F8AC
:100B80000ACD42F808CCD0F804C042F804CC008961
:100B9000108051809180D1801181BEE7002384F8BC
:100BA000C532AA880DF10F012046FFF72DFE00285F
:100BB0007FF472AF9DF80F30002B3FF42FAF32E07F
:100BC000762303FB0CF1122303FB0713B0F80AE0B2
:100BD00023447645BFF434AFC189A1F524510829D7
:100BE00008D8DFE801F014170507070707071A0000
:100BF00081899982998A39B1D98A29B1198B19B118
:100C0000598B00297FF41CAF01360630E1E781895A
:100C1000D982EFE781891983ECE781895983E9E774
:100C200001238DF80F30AA8801214EE7B1F8CA32AE
:100C300082889A4201BF002381F8C8324FF6FF73C1
:100C4000A1F8CA32EAE600BFE43D0020D426020043
:100C5000942602005C3102007B310200C0310200A8
:100C600006320200A5DF7047B5DF704758B14FF07C
:100C7000F7130360FB230371F723C380172301617C
:100C80008360002070470E20704730B1A1F1170338
:100C9000E02B04D84180002070470E2070470720C9
:100CA00070470000828813B50C4692B903883A2B2E
:100CB00066D010D8102B3BD0112B5CD0A37A43B157
:100CC000E1880020FFF7CEFF002871D14FF4807338
:100CD000638102B010BD552BF0D1C388C988A272C0
:100CE000172B38BF17238B4228BF0B462381104692
:100CF000FFF7BAFF60B1FDF759FB354B35490246A6
:100D000035481B1ADB081B0443F00100FBF754FEB7
:100D1000E37A002BD2D12369002BCFD040F6772283
:100D200000922289ADF80420694620469847C5E71D
:100D3000C37B022B04BF4B88CB80C98823898B429D
:100D4000BCD20020FFF78EFF10B90123E372B5E794
:100D5000112802D10123A372B0E7FDF727FB1C4B3A
:100D60001E4902461C481B1ADB081B0443F0010005
:100D7000FBF722FEA2E7F723CB8017238B609DE7CA
:100D80004389CA88934228BF1346172B0A6938BF84
:100D900017230B814AB1C97A39B140F67721009106
:100DA000ADF804306946204690470023638185E70B
:100DB00011288ED0FDF7FAFA054B0849024606487D
:100DC0001B1ADB081B0443F00100FBF7F5FD80E76D
:100DD000F42602009D320200942602006C320200CA
:100DE0009BDF70479DDF70479EDF7047A1DF704734
:100DF000A3DF7047AEDF704730B5048800239AB296
:100E0000944206D9456835F813508D4203F1010329
:100E1000F5D1104630BD8B6910B50C4619881029E4
:100E200012D80231FDF7B3F8606078B1A1690023F0
:100E30000222FDF7EEF8A26960681288E1690223D8
:100E4000FDF7E7F8002010BD0920FCE70420FAE7D1
:100E500010B50C46C98A10290AD8FDF798F86060C9
:100E600040B1E28AA1690023FDF7D3F8002010BD4C
:100E70000920FCE70420FAE7F0B58BB00022044615
:100E80000DF10601C068124EFDF7E7F91425024680
:100E90000AB10BB0F0BDBDF80670A36805FB0737BB
:100EA00002A93846FDF7D9F938B10022E0680DF102
:100EB0000601FDF7D2F90246EAE79DF8083056F838
:100EC000233013B10398FDF74CF80022E8E700BF88
:100ED0004C330200F7B505460C4C0D480092241A1D
:100EE000E40824040B460F4616460A492A7844F0C3
:100EF0000100FBF774FDAB6833B1E9683A46304650
:100F000003B0BDE8F040184703B0F0BDFC26020076
:100F100094260200D9320200F0B58FB00D460122AE
:100F200006A90646FDF799F9044690B99DF81830D0
:100F3000052B65D8DFE803F0030F1C24292EBDF82C
:100F40002A20BDF828102846FFF750FF0446112C30
:100F500040D10FB0F0BD02A90798BDF82E200C912A
:100F60000023FDF760F80AA92846FFF741FFEDE7E7
:100F7000BDF828100DF12A022846FFF731FFE5E7FA
:100F80000AA92846FFF72EFFE0E70AA92846FFF73F
:100F90002BFFDBE70DF1060402AB214607980D930A
:100FA00002220023FDF73FF8BDF806200D990798AF
:100FB0000C940223FDF737F80AA92846BDF80670FD
:100FC000FFF718FF04460028C1D1BDF80630BB4228
:100FD00018BF0C249DF818200F4B53F8223013B182
:100FE0000798FCF7BEFF002206A93046FDF735F949
:100FF000002CAED02246294606A8FFF76BFFA8E7D3
:101000000648074B07491B1ADB081B0443F0020084
:10101000FBF7CEFCDEE700BF4C3302009426020053
:10102000FC260200233302002DE9F8430F46144644
:10103000054620B94FF00E084046BDE8F883002968
:10104000F8D0FFF719FF3B78052B6AD821462846D0
:10105000FFF7D2FE2B88834263D014264643A8684C
:101060003044FDF7F3F8002860D03B78052B3BD8DF
:10107000DFE803F00311171E242A7A8A398A2046F2
:10108000FFF7B4FE112851D058B302462146384626
:10109000FFF720FF25E007F110012046FFF7A8FE2B
:1010A000F0E7398A07F112022046FFF799FEE9E7D7
:1010B00007F110012046FFF795FEE3E707F1100165
:1010C0002046FFF791FEDDE7BB6907F110012046DE
:1010D000B3F80080FFF78EFE30BBBB691B88434529
:1010E0000DD14FF00008A7E71B4B1C481C49C01A44
:1010F000C008000440F00200FBF75AFCF1E70C20A6
:10110000C3E72869002895D0394698478046A0B1A2
:1011100092E73B7859F82330BBB17868FCF721FFA0
:1011200013E04FF0070887E71128AED10D4A3B784E
:1011300052F823309146002BE3D1A8683946304459
:10114000FDF72EF880460028E3D1A86821463044F8
:10115000FFF7E2FE70E700BF94260200FC260200C3
:10116000233302004C330200F8B50D46044678B331
:10117000FFF782FE29462046FFF73EFE2288824284
:1011800011D00020F8BD616831F81310814203F1DD
:1011900001030BD0208800234FF6FF769AB28242DB
:1011A0000BD30420EEE700234FF6FF7099B28A427A
:1011B000E9D82069FCF7D3FEECE761685A0001EB3F
:1011C00043078A5AB24203F10103E7D13D80D8E7D1
:1011D0000E20D7E737B50C4608B301B30588112DAB
:1011E00015D181882046FFF707FE2388ADF8060059
:1011F000834214D0112D14D163684FF6FF7223F887
:1012000010200DF10601E068FCF7CAFF07E0A5F128
:1012100030031F2BE5D9A5F150031F2BE1D903B0F3
:1012200030BDA368142202FB0030FFF775FEF6E71D
:1012300089DF70478ADF70478BDF704730B5037AEC
:1012400089B004460D46CBB1837C0193FFF7F2FFD2
:101250001422002103A800F075FE019B04F10A028C
:1012600004F11401A81CFFF7E7FF05238DF80C30EB
:10127000049018B1A36A0BB103A8984709B030BD18
:1012800010B5034668B162B103290CD1007960B989
:101290001C8811888C4203D00121197112681A60D0
:1012A00010BD0E20FCE70720FAE70420F8E750B154
:1012B000CB060AD011F0040116BF0123417143711E
:1012C0008271002070470E20704707207047007D14
:1012D000C0F3C00070470000F8B50E460446002871
:1012E0004CD082620021082200F02CFE002E30D06B
:1012F00033792372337BA3743568ADB10FCD04F11C
:1013000014070FC72B683B60B268D2B11368C4F8EA
:101310000A305368C4F80E3004F12C03E3641F2331
:10132000A4F850300020F8BD154925844CF2503304
:10133000C4E90613A38A03F0E30343F48273A38290
:10134000E2E7062363811823E3604FF4C873238226
:10135000E2E70B4A26844CF25033C4E90623A38A01
:10136000267203F0E30343F48273A38206236381AE
:101370001823E3604FF4C8732382CDE70E20D2E731
:10138000A086010010B5044686B048B3142200219F
:1013900001A800F0D7FDFFF74DFF2046FFF797FFAC
:1013A00030B1A36A23B101228DF8042001A8984727
:1013B00004F14C0104F11400FFF73AFF044630F049
:1013C00008000BD00748084B08491B1ADB081B0410
:1013D00043F001002246FBF7EFFA204606B010BDAD
:1013E0000E20FBE794260200E4260200643302008C
:1013F0002DE9F04F06468BB036F8083B1B2B07460D
:101400000C4600F094801D2B16D0102B32D11422E4
:1014100000210DEB020000F095FD06238DF814303D
:10142000BB88ADF81C3004F114030993A36A069637
:10143000002B40F08F801DE0142200210DEB0200F4
:1014400000F080FD04F1140320460993FFF73FFFED
:1014500004F14C0A88B102238DF8143005A8A36A60
:101460000696984751460020FFF7E2FE3146204697
:10147000FFF7E4FE0BB0BDE8F08F94F8058094F818
:101480000690B8F1000F45D094F804B0B98C22460C
:1014900004EB8B03054693420CD1B9F1000F18D031
:1014A000AB4518D19DF81C3043F004038DF81C3077
:1014B000012313E0386A0191CDE90223FFF726F8F2
:1014C000DDE90112039B00B30135EDB2B9F1000F64
:1014D0001ED1002DE6D14FF00008434601220696AA
:1014E000B9F1000F19D09A421DD100238DF81430A4
:1014F00031462046FFF7A2FEA36A0BB105A8984724
:1015000051460020FFF794FEB4E7B9F1000FC7D1B0
:101510000432C0E743464246E1E7B8F1000F02D08B
:101520008DF81490E4E703238DF81430E4E71422D7
:101530000DEB0200002100F005FD3A7A012A99D155
:10154000A36A002B96D0042114348DF8141009944A
:101550008DF8182005A898478CE762DF70474B6923
:1015600003B1184770472DE9F0470C4686B01822A2
:1015700005460021684600F0E5FC2278AABBA38856
:10158000012B32D1A1792B7899422ED1207ABDF846
:101590001470BDF81660BDF80EE0BDF810C0BDF8BF
:1015A00012901221234611FB0041904692468B4235
:1015B0001ED1BAF1000F01D0ADF81290B8F1000FB2
:1015C00003D0ADF80EE0ADF810C01AB1ADF814704C
:1015D000ADF816602B6943B16288ADF80220002295
:1015E0008DF8002069462846984706B0BDE8F08788
:1015F000D889032809D004280ED0022803D1B3F8D3
:1016000016904FF0010A1233D1E7B3F816E0B3F8A1
:1016100018C04FF00108F6E7DF8A1E8B0122F2E7BF
:10162000F0B5184B87B002AA04460D4603F1100C22
:10163000174618685968164603C60833634532468C
:10164000F7D1ECB1E5B1AB68D3B121463846FFF72D
:1016500084FF98B923788DF806300123ADF8043063
:101660004FF6FF7363802B6823616B686361AB681F
:10167000A080A060A36101A8FFF74AF907B0F0BD00
:101680000E20FBE7C833020010B5034686B00846BB
:10169000F9B1F3B149884FF6FF72914219D09C8895
:1016A0008C4216D11988112915D0392911D1828877
:1016B0007AB1598991420CD1026952B101218DF858
:1016C000001003F11001DB890291ADF80C3069467E
:1016D000904706B010BD0369002BFAD002218DF8A7
:1016E0000010428069469847F3E7000010B50446B1
:1016F0008AB030B342884FF6FF739A4223D0C38832
:101700000BB32022002102A800F01CFC0123ADF83D
:1017100004308DF808300D4B6288A069CDE904349F
:10172000E388ADF81A304FF40033079301AB089308
:1017300002A940F20113ADF81830FFF775FC0AB0AA
:1017400010BD0E20FBE70820F9E700BF5F1502007F
:1017500070B50E4688B01546044600283CD02022BD
:101760000021684600F0EEFBF42D0CD91B4B1C4801
:101770001C49C01AC008000440F00200FBF718F929
:10178000072008B070BD62884FF6FF739A420BD1F4
:10179000124B13481449C01AC008000440F002005C
:1017A000FBF706F90820ECE701238DF800300F4B1A
:1017B000A069ADF81650CDE902342389ADF8123096
:1017C0000023ADF8143069464FF481730696ADF8E6
:1017D0001030FFF729FCD4E70E20D2E79426020050
:1017E000DC26020091330200A33302005F150200E1
:1017F00070B141804AB15388C38013888380938835
:101800000381D3884381138983818069FFF7ACBC4E
:101810000E20704710DF704713B50446094968462B
:10182000FCF769FD019808B902B010BDD0E90021AC
:101830002046904718B16846FCF767FDF2E7112093
:10184000F2E700BFE433020013B5044607496846D7
:10185000FCF751FD019B0BB902B010BD2046D3E946
:10186000002190476846FCF750FDF3E7FC33020087
:101870000B4991F816335A09EC231341DB0706D5BF
:10188000084B9A683AB94FF480030B60704742F2F4
:101890000200FBF785BB1A6842F480021A607047A9
:1018A00000E100E0A8340020F7B5194F3C7864BB94
:1018B000184E012520463570FFF7AEFF112821D0C4
:1018C0002046FFF7C1FF144B8DF8034018680190C4
:1018D0000DF10300FBF792FE104901A8FFF79AFFF4
:1018E0000446B0FA80F0400938709DF80300FBF719
:1018F000A9FE3CB90A4B34701C70FFF7B9FF2846AB
:10190000FFF7A2FF204603B0F0BD0824FAE700BFAE
:10191000093E0020083E0020E0330200BDCF010058
:101920000A3E0020014B1878704700BF093E002096
:1019300007B508496846FCF7DEFC019B13B903B004
:101940005DF804FBD3E9002090476846FCF7DDFC16
:10195000F3E700BFF0330200FFF7EABF60DF704734
:101960006ADF704761DF704730B5114DADF5017D1D
:101970004FF4FA740DF1020103A8ADF80240FFF72D
:10198000F1FF70B9294601A8FCF7B5FC029B002BBA
:10199000F0D003A8D3E90021904701A8FCF7B5FCDB
:1019A000F4E7052801D0FBF7FBFA0DF5017D30BD0A
:1019B00084360200024B1B780BB1FFF7D5BF70478E
:1019C0000B3E002030B5054685B00C46002900F0DE
:1019D000B3805A4B0B600C22002101A800F0B2FA30
:1019E00001238DF8063022688DF80450062301A9E2
:1019F0002020ADF80830FFF7B3FF60B1FCF7D6FC4C
:101A00004F4B5049024650481B1ADB081B0443F059
:101A10000100FAF7D1FF0C22002101A800F092FA90
:101A200040F201132268ADF8043001A94020FFF70D
:101A300097FF60B1FCF7BAFC414B4449024642486B
:101A40001B1ADB081B0443F00100FAF7B5FF0C2258
:101A5000002101A800F076FAF72322688DF80450DF
:101A600001A92320ADF80630FFF77AFF60B1FCF73B
:101A70009DFC334B3649024633481B1ADB081B04D6
:101A800043F00100FAF798FF0C22002101A800F0B2
:101A900059FA012022688DF8040001A9FFF760FFC0
:101AA00060B1FCF783FC264B2A49024626481B1AE4
:101AB000DB081B0443F00100FAF77EFF0C22002133
:101AC00001A800F03FFA4FF4B0632268019301A926
