:020000022000DC
:1070000000000420757302005D7302005F730200CC
:1070100061730200637302006573020000000000E8
:107020000000000000000000000000006773020084
:1070300069730200000000006B7302006D730200B0
:10704000ED9A02006F730200899F02006F730200C5
:107050006F7302006F730200099E02006F730200DB
:107060006F7302006F7302006F7302006F73020090
:107070006F7302006F7302006F7302006F73020080
:107080006F730200B58902006F7302006F73020014
:107090006F7302006F730200C1CC02006F730200B5
:1070A0006F7302006F7302006F7302006F73020050
:1070B0006F7302006F730200000000000000000008
:1070C0006F7302006F7302006F7302006F73020030
:1070D0006F7302006F7302006F7302006F73020020
:1070E0006F7302006F7302006F73020000000000F4
:1070F000000000006F730200000000006F730200C8
:10710000000000000000000000000000000000007F
:10711000000000000000000000000000000000006F
:10712000000000000000000000000000000000005F
:10713000000000000000000000000000000000004F
:10714000000000000000000000000000000000003F
:10715000000000000000000000000000000000002F
:10716000000000000000000000000000000000001F
:10717000000000000000000000000000000000000F
:1071800000000000000000000000000000000000FF
:1071900000000000000000000000000000000000EF
:1071A00000000000000000000000000000000000DF
:1071B00000000000000000000000000000000000CF
:1071C00000000000000000000000000000000000BF
:1071D00000000000000000000000000000000000AF
:1071E000000000000000000000000000000000009F
:1071F000000000000000000000000000000000008F
:10720000354936480A1A02D0072291438D4634493F
:1072100034480A1A06D00722914381F309880222D2
:1072200082F3148830483149314A00F044F831483B
:107230003149324A00F03FF831483249324A00F0D1
:107240003AF832483249334A00F035F83248334987
:10725000334A00F030F833483349344A00F02BF811
:1072600033483449344A00F026F83448344900227F
:1072700000F02CF833483449002200F027F8334856
:107280003349091A082902DB002202604160314AB1
:1072900090471F481F49884205D00268043003B454
:1072A000904703BCF7E700208646EC46002000210B
:1072B000294A9047FEE7884207D0521A05D0037842
:1072C00001300B700131013AF9D17047884202D088
:1072D00002700130FAE770470000042000E003204C
:1072E000000004200000042058E80200382A002092
:1072F0005C300020D0730200D073020008D302007B
:1073000058E80200382A0020382A002048D4020019
:1073100048D4020048D4020048D4020048D40200F5
:1073200048D4020048D4020048D4020056E80200C3
:107330007CEE02005C3000205C3000205C300020DD
:10734000B0400020B0400020B0400020B0400020FD
:10735000B06000209D730200E1B30200FEE7FEE78B
:10736000FEE7FEE7FEE7FEE7FEE7FEE7FEE7FEE7F5
:1073700000F002B8FFF7FCBF0F484FF00701884349
:1073800085460E4880470E48016841F4700101604F
:10739000BFF34F8FBFF36F8FFFF732BF09480A4922
:1073A0000A4A884207D0521A05D0037801300B7080
:1073B0000131013AF9D1704700000420059502001F
:1073C00088ED00E048D40200382A0020382A002046
:1073D0007047000007B5044B0093044A402300F0B7
:1073E00032F803B05DF804FBF17302005D30002059
:1073F0002DE9F84388461446B2B10F4B0F4E0325D2
:10740000002743F00109224608EB0701002004F0A1
:1074100059F90744241A48B933782BB14FF47A400C
:10742000C847013D02D13570BDE8F88301233370B0
:10743000002CE8D1F8E700BF50D402005C300020F7
:10744000704704F073B9F0B595B01D46164608466E
:107450000C4601F039FE1A9B0D93CDE90865002515
:107460002B46082205A920460A958DF82C500C952C
:1074700001F047FE079B0293069B03939DF814308F
:107480008DF8115003F00302012A1DD1BDF814201C
:10749000059DC3F3C203C2F383168DF81030B2000A
:1074A00008230EA9204601F02CFEC5F3952508AB54
:1074B0000093324602AB0EA9284600F055FB204649
:1074C00001F006FE15B0F0BD022AF8D1BDF8165045
:1074D000C3F3C203C5F389158DF810300827082DB2
:1074E0002E4628BF08263B4632460EA9204601F00C
:1074F00008FEAD1B08AB02AA31460EA8374400F0C7
:1075000097FB002DEBD1DAE708B5FFF79AFF0448A7
:10751000042100F093FA034B01225A7108BD00BF09
:1075200038D40200382A0020037813F0040216D061
:1075300003F00303012B03D0022B09D00120704775
:107540000A6800880232C0F3831002440A60F5E73B
:107550000B684288023303EB92130B60EEE7104690
:10756000704700002DE9F04F87B000230446861CC9
:107570000DF107000F4615468DF8073001F0ACF805
:10758000404A51683960936803F580735B1A9246EC
:1075900002F21C4702F5836902F21448B3421AD37F
:1075A0000020002D69D004F00F039B0143F0050378
:1075B00063F30F00DAF80430DAB203321E444AF8FB
:1075C00022009DF80700CAF8046001F0A9F8012024
:1075D00007B0BDE8F08F0121384601F0A0FA484617
:1075E00001F0B5FA404601F0B2FADAF8080002906C
:1075F000C0B203300AEB800002A9FFF795FF029B9F
:1076000030BBDAB20AEB8202D16803919A1C0133D3
:10761000DBB20AEB83030292D3F80CB001F0030350
:10762000012B22D0022B15D08346404601F092FA5E
:1076300010B1029BCAF808305946384601F06FFA7B
:10764000DAF80830DAF8042003F580739B1AA5E70E
:10765000D8B2CEE7BDF80E30C3F3891303334FEA37
:107660001B4B02EB93030293DFE7BDF80C30C3F32F
:1076700083134FEA1B4B1344F5E7A40544F00600BF
:1076800098E700BF70310020064B074810B5002274
:107690001A7001F0D2FC044610B9044801F092FEC1
:1076A000204610BD70310020ACD302008CD4020003
:1076B00030B50A4C71B10A4A0A49121BD20800239C
:1076C0009A4201D1002030BD31F82350854202D0CA
:1076D0000133F5E7034654F83300F4E714D302000E
:1076E000ACD30200382A0020094B013903EBC0005B
:1076F000032909D8DFE801F00A02040604207047D4
:107700000079704740797047002070470220704729
:1077100014D30200034BD3E90130C31A5842584135
:10772000704700BF703100202DE9F04186B0FFF7AF
:10773000F1FF0546002840F0E680744CC4F81804B8
:10774000BFF34F8FA3680293DBB2033304EB8300D4
:1077500002A9FFF7E9FE029B18B1D4F81824002A09
:1077600055D0DAB2991C013304EB8202DBB204EB90
:107770008303D268DB68049302F00303022B0392B5
:1077800002914FD1BDF80E306148C3F38917502FD5
:107790003E4628BF502666F38F1306F10801ADF868
:1077A0000E3001F062FC0546002800F0978001F0E1
:1077B0008BFC002303A90822284601F098FC0299BB
:1077C000CB43DBB20133C9B20331B6EB830F4FEACF
:1077D000830804EB810122D908234246A6EB080660
:1077E000284601F084FCF6B24A4908F10803324603
:1077F000284601F07CFC029B033703EB97070297B6
:10780000D4F81834002B41D1D4F8106451E06268E8
:107810009A4299D8A260284606B0BDE8F0810823B4
:107820003246E5E7012B59D1BDF80C303848C3F397
:107830008311062928BF062161F3891302318900CB
:10784000ADF80C3001F011FC0546002846D001F0DF
:107850003BFC0023082203A9284601F048FC00262F
:10786000BDF80C20C2F38312B300964203F1080363
:10787000C6D202994A1CC9B20331029204EB8101BB
:107880000422284601F033FC0136E9E7284601F0DE
:107890001FFCFFF73FFF80F00100C5B2BBE7F368B4
:1078A0005B7923B1336829461B6830469847F368F3
:1078B0001E68002EF3D1284601F00AFC0DF10700E6
:1078C0008DF8076000F008FFD4F818340BB9029B5C
:1078D000A3609DF8070000F023FFDAE7D4F8104416
:1078E00054B90D4B0D480E49C01AC008000440F0B1
:1078F000020000F05DF8CCE7236820469B689847BB
:10790000E3681C68ECE7002585E700BF70310020C4
:10791000ACD302007C31002014D302003CD302001F
:1079200074D402002DE9F34704460E46924601A99D
:10793000012218469946FFF715FE1B4F10B3019D13
:107940004FF00008AA1CC84508EB020123D11748D4
:10795000002101F0C1F880F31000000440EA144057
:10796000E4006B1C04F03804DBB2EDB244F0010417
:1079700007EB8303033544EA881444EA8624D8607D
:1079800047F825403B781BB1FFF7CEFE0028FBD11E
:1079900002B0BDE8F087C9B207EB81015AF8283080
:1079A000CB6008F10108CEE7703100208C35002053
:1079B00000231A46FFF7B6BF07B50123019201AABB
:1079C000FFF7B0FF03B05DF804FB07B5CDE9002376
:1079D00002236A46FFF7A6FF03B05DF804FB1FB55C
:1079E000CDE90123069B039301AA0323FFF79AFF26
:1079F00005B05DF804FB7FB5CDE90123089B039337
:107A0000099B04930A9B059301AA0523FFF78AFFAC
:107A100007B05DF804FB7FB5CDE90023089B029316
:107A2000099B03930A9B04930B9B05936A460623C9
:107A3000FFF778FF07B05DF804FB000030B50F4991
:107A4000D1F8102403460020144634B9DC682071B4
:107A50004AB9C1F81034226030BDE4682579854206
:107A600006D02468F1E7D268116821601360F3E75B
:107A700001300A28E8D14FF0FF30EDE770310020E7
:107A8000084A38B50123D2F8104413701D4604B9D2
:107A900038BDE3685D71236820465B689847E368FA
:107AA0001C68F4E77031002007B503460846197AD0
:107AB000052911D05B7A2BB1094A0A49019001F0DE
:107AC000ACF801980849019001F0A7F8019803B0BB
:107AD0005DF804EB01F096B8002AF8D0F2E700BF99
:107AE00098D402009DD40200BDD4020030B5C388F2
:107AF00085B004460D4633B1144A00921449154A24
:107B0000284601F08AF8217A05291DD0637A4BB105
:107B1000A088FFF7E9FD104B104953F820202846B4
:107B200001F07BF8227A0E4BA08853F822200392B2
:107B30000021FFF7BDFD039A0A490346284605B018
:107B4000BDE8304001F069B805B030BD98D40200FE
:107B5000A8D40200A0D402002CD502009DD40200BB
:107B600050D50200C0D402002DE9F04385B01F4675
:107B70000C9D002395F80C902B7306460C469046FE
:107B800029463846FFF7B2FFB8F1060F09D8DFE8FB
:107B900008F00412181F283340003146284601F02F
:107BA0003CF8002229463846FFF77EFF85F80C9006
:107BB00005B0BDE8F08322683146284601F02DF873
:107BC000EFE7D4E900233146284601F026F8E8E73C
:107BD000A36800933146D4E90023284601F01DF83C
:107BE000DFE7E3680193A36800933146D4E90023FB
:107BF000284601F012F8D4E723690293E368019361
:107C0000A36800933146D4E90023284601F005F823
:107C1000C7E76369039323690293E3680193A36849
:107C200000933146D4E90023284600F0F6FFB8E778
:107C300008292DE9F74F80460E4617461C463CD8CA
:107C4000002593F80C901D7319461046FFF74EFF60
:107C5000DFF888A0DFF888B0AE4231D918F80520E7
:107C60005946204600F0D9FF0135082DF4D11949B5
:107C7000194DDFF870A0204600F0CFFF4FF0000B49
:107C80005E4522D918F80B207E2A05D810460192AD
:107C900005F054FA019A00B92E225146204600F010
:107CA000BCFF0BF1010BBBF1080FE9D1012221460A
:107CB0003846FFF7F9FE84F80C9003B0BDE8F08F6A
:107CC0005146204600F0A9FFCEE72946204600F0A5
:107CD000A4FFE6E7D4D40200D2D40200D0D402003C
:107CE000CAD40200D6D40200C30710B507D4F023CB
:107CF000054A4008145C23401943115410BD090182
:107D0000C9B20F23F4E700BF5836002030B5094B45
:107D10001C78094B196800239C4202DC00221046A3
:107D200030BD11F83350854201EBC302F7D0013367
:107D3000F2E700BF283600207836002013B504464D
:107D40000191FFF7E3FF38B143682BB10199204659
:107D500002B0BDE81040184702B010BD034B044804
:107D600019680022490800F0B6BA00BF2C3600207E
:107D70003036002010B5C0B2FFF7C8FF04460078C7
:107D800002F034F863785A1E53425341834208D1BB
:107D9000044BD3E90023134303D1BDE81040FFF7A0
:107DA000DDBF10BD5036002037B54308354AD35CDF
:107DB000C2074CBF1B0903F00F0304460D46042BFA
:107DC00035D8DFE803F003252C383C0079B30121D6
:107DD000FFF78AFF00230DF107008DF8073000F050
:107DE0007BFC0120A4F12003C4F12001264A20FAE3
:107DF00001F100FA03F30B43A040D2E90041204314
:107E00000B43C2E900039DF8070000F089FC0EE077
:107E1000002918BF02212046FFF766FF07E041B1A5
:107E20000321FFF761FF01212046FFF787FF03B021
:107E300030BD0121EFE70029F9D10421EBE709B1B9
:107E40000321E8E7FFF750FF29462046FFF776FFBA
:107E50000DF107008DF8075000F03EFC0120A4F161
:107E60002003C4F12001084A20FA01F100FA03F3CB
:107E70000B43A040D2E9004124EA000021EA0303B9
:107E8000BFE700BF58360020503600202DE9F041F2
:107E9000124E134F00243378A34208DC114BD3E970
:107EA0000023134318D0BDE8F041FFF757BF3D68EA
:107EB00005EBC40815F8340001F098FF98F801307C
:107EC0005A1E53425341181A4142414115F8340099
:107ED000FFF76AFF0134DEE7BDE8F08128360020B5
:107EE0007836002050360020092AF7B505460C46A2
:107EF00016463CD901F0AAFED8B11E4B1E481D60A3
:107F00001E4B1F4F1C701F4B002120221E6005F0CE
:107F100076F91D4B00200021C3E90001013CE4B2C9
:107F20000326FF2C0BD1194A1948002100F0C8F98B
:107F300003E001F045FE0028DFD003B0F0BD9DF85E
:107F4000063015F834008DF8046005EBC40223F008
:107F500007038DF8063001A993788DF805303A466D
:107F600001F07EFE013CE4B20028DAD0E5E707200C
:107F7000E3E700BF7836002058360020283600207E
:107F8000757D02002C360020503600208D7E0200C8
:107F900070D5020070B5084D084E00242B789C4225
:107FA00001D3002070BD3368012113F8340001F0C3
:107FB000D3FE0134F2E700BF2836002078360020D7
:107FC00082B001238DF807309DF80730114B1860FF
:107FD000596044F2010188429A6012D044F20201D1
:107FE000884206D1DA60DA6812689A61DA68526803
:107FF000DA6172B69DF80730002BFBD162B602B091
:1080000070471A611A6992685A611A6912689A610E
:108010001A69ECE77C36002000B583B0029000912D
:10802000019244F2010071466A4600F003F803B081
:1080300000BD0000F0B5064687B00F46154672B683
:10804000FFF71EFDFFF770FB0028FBD1234B244CEC
:10805000E41AE40844F2010324049E4244F00104BB
:108060002AD00BD8012E14D041F201039E4221D018
:108070001C493A462046FFF79FFC0EE044F20203FB
:108080009E42F5D1D5E9003217492046FFF79DFC05
:1080900003E016492046FFF78BFC154B1B68DB07F6
:1080A00000D500BE2A463946304607B0BDE8F0404C
:1080B000FFF786BF0F49EDE7AA680592104601F069
:1080C000E5F92968029701916968009103460A4918
:1080D000059A2046FFF78FFC0849DBE714D302001E
:1080E0003CD3020007D60200B3D5020074D50200CB
:1080F000F0ED00E091D50200CDD50200F3D50200ED
:1081000049B152B1531E1A4007D182600160838089
:10811000C260104670470E2070470920704710B5A6
:108120008468C2688388121B934208D3C2681340D4
:108130000268D154C3680133C360002010BD04201D
:10814000FCE78268C3689A420AD082688388134039
:108150000268D35C0B708368013383600020704732
:1081600005207047D0E90223D1E90201994208BFF6
:1081700090422CBF012000207047000008B50B483A
:1081800000F001FC0A4B0B49D3E900231218D1E996
:10819000000143F100038B4208BF824203D212F177
:1081A000807243F100031046194608BD402A0020A2
:1081B000A03600201837002037B505460C460A487F
:1081C00001A900F014FC60B10570446001A90648E3
:1081D00000F037FC18B1054800F0DAFB002003B0CE
:1081E00030BD0420FBE700BF04370020402A0020F8
:1081F00038B5184B1B78044613B90025284638BDFE
:108200000028FAD0037F03F0FF05002BF5D0FFF71D
:10821000B5FFD4E90223994208BF904214D32369E1
:1082200003B92377D4E90530984721690029E4D0C0
:10823000237F03F0FF05002BDFD0D4E9022352187F
:1082400043F10003C4E902230348214601F0D9F8B1
:10825000D4E700BFA836002030D6020013B5114B7A
:1082600011491868019008231048582200F0ACFB0F
:10827000044698B90E4A0F4801A900F075FA044661
:1082800060B90C48012100F061FB01230A4A09484A
:10829000194600F0C3FA094B01221A70204602B0B9
:1082A00010BD00BF2AD60200AC36002004370020E3
:1082B00021830200402A0020FFFF7F00A836002013
:1082C0003AB103685A614A1E514251411961002076
:1082D00070470720704738B5037F04460D4683B9C1
:1082E0008261FFF74BFF2369401941F10001C4E9A6
:1082F000020103B1256121460020BDE83840FFF7A7
:108300005BBF002038BD0023014603770120FFF743
:1083100053BF0000014800F036BB00BF402A0020D8
:108320002DE9F04F85B0804600F018FB40B15A4A65
:10833000D2E9003113F1807341F10001C2E900314B
:108340000021404600F019FB38B1544E336823B188
:108350003068FFF74DFF002333600121404600F0F5
:108360000CFB20B1FFF70AFF4D4BC3E900014D485C
:108370004A4F4D4EDFF8389103A900F072FB0028F8
:1083800045D1DFF82491454EDFF828A1484601F099
:108390004EF83368002875D07BB13368D0E902010C
:1083A000D3E90223994208BF90422DD233681B7F44
:1083B0001BB13168484601F024F8484601F031F815
:1083C000D0E902B307460193FFF7D8FE019BBBEB50
:1083D000000463EB0105012C75F1000345DBB4F5E6
:1083E000350F40D3FFF796FF304A02444FF496030F
:1083F0000021504600F032FA00283ED1336813B90C
:10840000404600F003FA376005B0BDE8F08F03780E
:10841000012B1DD0022B09D14FF0000A304601F08C
:1084200000F8002834D080F81CA0F7E73BB9416879
:108430000B7F23B901230B77304600F0E2FF03A93D
:10844000184800F039FB03A9164800F00AFB96E72C
:1084500041683B68994202D100233B60EFE7304618
:1084600000F0E8FFEBE7BA68C0E70021504600F0F3
:108470007AFA3846FFF7BCFE01E00D28F9D0002358
:10848000336083E7002BBFD1404600F0C3F9BBE760
:10849000012389F80030D2E7A036002020370020E1
:1084A000183700200437002030D60200FFFFB40048
:1084B000A8360020402A00200648074A03780749CA
:1084C000D35C012213B1043002F0E4B90C3001F0A6
:1084D00093BF00BF482A00209C3700204C37002063
:1084E0000648074A03780749D35C012213B10430D8
:1084F00002F07CB90C3001F02DBF00BF482A0020EB
:108500009C3700204D37002037B50578012D0BD062
:10851000022D2ED065B91E491E48FFF712FE002815
:1085200032D1FFF7DDFF03E0037A1BB9FFF7C4FF89
:1085300003B030BD4368184C19782046FFF7EFFDB3
:1085400080B18DF800500190144B68461B68984725
:10855000A168E368A2885B1A9A42E7D2104B012215
:108560001A70E5E7A268E3689A42F1D08DF800003E
:10857000EAE7C3688DF800500193FFF79DFF074BB2
:1085800068461B689847D3E703238DF80030F6E769
:108590004D3700203C3700202837002024370020AA
:1085A00038370020F0B51F46234B89B004461A60C7
:1085B0000D4600293DD08A8820480968FFF7A0FDB4
:1085C000002834D1AA89A9681D48FFF799FD002821
:1085D0002DD11C4E0FCE6D460FC596E80F0085E8D5
:1085E0000F0063690693237C174A18488DF81C70A6
:1085F000003B18BF01238DF81430637C002B14BF9F
:108600000E2300238DF81530E3680293A3680393CB
:108610002368019369466368009301F0EDF930B96E
:108620000B4B18702368013301D0FFF745FF09B0E9
:10863000F0BD0720FBE700BF2437002028370020CB
:108640003C37002090D6020009850200482A00200D
:108650003837002070B5094D014609482E78FFF7DC
:1086600070FD044646B100232B70FFF725FF18B1BB
:10867000044AD621FFF7D0FC204670BD38370020D1
:10868000283700203CD6020010B501460E48FFF7FF
:1086900046FD0446A8B90D480D4A0378D35C63B182
:1086A000043002F0EBF860B90A490748FFF749FDCA
:1086B00038B9BDE81040FFF713BF0C3001F090FE51
:1086C000F1E7204610BD00BF3C370020482A0020BB
:1086D0009C3700204D37002070B5EFF3108672B63E
:1086E0000C4A946801239CB993600B4B0B4DD3F853
:1086F000801029401160C3F88050D3F88410516075
:108700004FF0FF32C3F88420047006B962B670BD22
:108710000370FAE75037002000E100E0FC06FFBDDF
:10872000084B9A6810B55AB150B9EFF3108172B680
:10873000054A1C6814605C685460986001B962B6B0
:1087400010BD00BF5037002000E100E0435882B068
:108750003BB10023435043580193019B012002B0D9
:1087600070471846FBE70000F8B5204B4479204DD0
:1087700043F824201F4A204B05EBC4049B1A22799E
:10878000DB081B0432B143F002001C49FFF710F96B
:108790000820F8BD02680C88C2F8084590F904600A
:1087A0008A7804795201002ED2B219DB14498F194C
:1087B00087F800230122760904F01F0402FA04F46A
:1087C00041F82640427905EBC201012445F8320008
:1087D0000C7143F003000B49FFF7EAF80020D8E7DB
:1087E000094904F00F040A55ECE700BF6437002084
:1087F0005C37002014D302004CD30200B0D6020034
:1088000000E100E0D2D6020014ED00E0036801228E
:108810001A607047036801225A60704773B501F10E
:108820005005AD000068ADB24FF480348C40002696
:10883000C0F80843C0F84843465101F5A8714559AE
:10884000019522F07F42019D40F82120C0F8444369
:108850000BB1C0F8044302B070BD00002DE9F74F22
:108860000D4622F07F4402684FF4803705F1500630
:108870008F408046B60002EB8500C2F84873B6B25E
:10888000C2F80873D2F8041599464FF0000BD0F8DF
:108890004035C0F8401542F806B05B1A9259009274
:1088A00023F07F43012B009A4FEA850A0CD1264B17
:1088B0004FF4806043F001039847D8F8003043F844
:1088C00006B09B590193019BD8F80010D1F80465BC
:1088D000C1F84473A31B23F07F43012B1CD11A4B17
:1088E00005F5A875013443F0010341F825404FF424
:1088F00080609847D8F80030D3F804359E4209D1FB
:10890000D8F800300020C3F84473C3F8047303B0F0
:10891000BDE8F08F0D20FAE78A44C9F1FF13CAF8C9
:108920004045D1F80405221A013A22F07F4203F5AE
:108930007F439342EED3002AE2D10134CAF8404586
:10894000D1F804359842DAE7F0D602000368022233
:10895000C3F8442309B1C3F80423704700684FF4F7
:108960008271FFF7F3BE4FF4803303FA01F103681D
:10897000C3F84813C3F808137047503189000068E2
:1089800089B2FFF7E3BE0368D3F80405704700001F
:1089900090F90430002B09DB5A09012103F01F0371
:1089A00001FA03F34032024941F82230704700BF18
:1089B00000E100E0024B034A1B681068184700BF43
:1089C000643700205C37002010B561B1B2FBF3F4CE
:1089D00003FB1424A4B244B9C0E90014846082816A
:1089E000C381204610BD0E20FCE70920FAE737B509
:1089F00050E8013F9DB2C48925448489A54228BF1F
:108A00002D1B0489A54202BFBFF32F8F002207E070
:108A1000C5EA030540E80154002CE9D14FF00102FA
:108A20008DF803200193019B9DF803200B6002F059
:108A3000FF0322B10B880068184403B030BD18460C
:108A4000FBE70A884B889A4209D150E8012FC2EA15
:108A5000024240E80123002BF7D10120704700209B
:108A6000704737B550E8023F1FFAA3F5C488A54206
:108A700002BFBFF32F8F00220DE0C48925448489F3
:108A8000A54228BF2D1BC3EA054540E80254002C2F
:108A9000E8D14FF001028DF803200193019B9DF86E
:108AA00003200B6002F0FF0322B14B8800681844DA
:108AB00003B030BD1846FBE70A884B889A4209D1BB
:108AC00050E8022FC2EA224240E80223002BF7D1ED
:108AD000012070470020704710B5034653E8000F8F
:108AE0000A4643E8002494F0000FF7D110BD10B5FA
:108AF000034653E8002F42EA010043E8000494F0E3
:108B0000000FF6D110BD10B5034653E8000F00EA80
:108B1000010243E8002494F0000FF6D110BD10B517
:108B2000034653E8002F02EB010043E8000494F0F1
:108B3000000FF6D110BD10B5034653E8002FA2EB8D
:108B4000010043E8000494F0000FF6D110BD0121AC
:108B5000FFF7CDBF0021FFF7D6BF10B590B1D0E928
:108B6000012301689B1ADBB20A60013BDBB2FF2BD9
:108B7000026802D10020107110BD11684C1C1460F5
:108B80000B70F2E70E20F7E737B5054600240DF12C
:108B900007008DF80740FFF79FFD2A686B68116892
:108BA00099420ED9481E106011F8014CEB68298AD1
:108BB00001FB0434AB6811791B1ADBB2994238BF50
:108BC00013719DF80700FFF7ABFD204603B030BDE1
:108BD00037B5054600230DF107000C468DF8073028
:108BE000FFF77AFD2A681368591C1160E968641A56
:108BF000298AB4FBF1F41C709DF80700FFF790FD83
:108C000003B030BD826810B504462AB143690168DB
:108C1000006998470023A36010BD0EB403B5039903
:108C200021B104AB01AA019300F076F802B05DF81F
:108C300004EB03B070470A2938B504460D4602D14B
:108C40000D21FFF7F8FFA3682268591CA160D554D5
:108C5000D4E901329A4204D32046BDE83840FFF7F8
:108C6000D1BF38BD2DE9F84F9846DDE90A431546D6
:108C700082460F460A464FF00109AA420FD2C1456B
:108C800038BFC14613F0010B01D16CB90024012695
:108C9000B8F1010F1BD908F1FF386E43F8E709F16D
:108CA0000109B2FBF5F2E8E79B070ED5B8F1000F1A
:108CB0000CBF30262026A145E9D2013C3146504662
:108CC000FFF7B9FF002CF6D1E0E72026F3E7B7FB6A
:108CD000F6F39D42E1D9DFF83C80B7FBF6F350464E
:108CE00018F8031006FB1377FFF7A5FF3346AB42D6
:108CF000B6FBF5F6F1D2BBF1000F02D00CB1A145E5
:108D000001D3BDE8F88F20215046013CFFF793FFC7
:108D1000F4E700BFF6D602002DE9F74F05461746E7
:108D20008846002900F0428118F8011B49B92B7BC5
:108D3000002B00F03B81284603B0BDE8F04FFFF761
:108D400061BF252940F0B780002698F800302D2B10
:108D5000424608F1010823D0302B24D02B2B25D0FC
:108D600000242A2B02F1010123D13B681A1D1B6844
:108D70003A601C440A4613782E2B26D101324FF05C
:108D8000000A104610F8011BA1F1300CBCF1090FCC
:108D90001DD80A2303FB0A13A3F1300A0246F0E7A9
:108DA00046F00106D1E746F00206CEE746F004069B
:108DB000CBE711F8013CA3F130000928DBD80A22E7
:108DC00002FB0434303C0A46CBE74FF0000A12F8AD
:108DD000011B01F0FB0068289046F8D0782909D8DB
:108DE0006F290CD8632962D022D8252963D058294D
:108DF00000F0888098F80030002B95D197E7703903
:108E00000829F7D801A353F821F000BF878F02008B
:108E1000F58D0200F58D0200158F0200F58D020020
:108E2000F38E0200F58D0200F58D0200058F020021
:108E3000642901D06929DDD13A68D2F80090111D6A
:108E400089EAE9723960A2EBE9724FF0010B092A55
:108E500035DCD34538BFD3462CB1B9F1000F01DB67
:108E6000720700D5013CB30702D5BAF1000F03D059
:108E7000F00701D44CBB0024B9F1000F2DDAC9F181
:108E800000092D212846FFF7D6FE06F00302022A2C
:108E900004D1BAF1000F01D11CBB0024CDE900467A
:108EA00053460A2249462846FFF7DCFEA2E73B6804
:108EB0001A1D19783A602846FFF7BDFE9AE70A2383
:108EC0000BF1010BB2FBF3F2C1E7A345D4D2202191
:108ED0002846013CFFF7AFFECCE77107D5D52B2123
:108EE000D0E7A345DAD230212846013CFFF7A3FEA4
:108EF000D2E73968CDE900460A1D3A6053460A2296
:108F00000968D0E739680A1D3A60CDE90046534642
:108F10001022F5E73B681A1D3A6016F00106D3F8F7
:108F2000009028D1B9F1000F03D0484604F0BCF9F5
:108F30000646B44200D904BB09F1FF3919F8011FF4
:108F400000293FF457AF2846FFF775FEF6E728469D
:108F50000136FFF770FE19F806100029F7D1A64276
:108F6000BFF448AF002C3FF445AF20212846013C18
:108F7000FFF761FEF3E70026EDE720212846013CDC
:108F8000FFF759FED5E73B681A1D3A6030212846A5
:108F90001C68FFF750FE78212846FFF74CFE0022A0
:108FA0000823CDE90032214610227CE703B0BDE85A
:108FB000F08F00BF2DE9F84FB0F806A04579D2F840
:108FC00000B09DF828900AFB05F5043D88460BEBA0
:108FD0000301A94203F1040488BFA5EB030BB4FB12
:108FE000FAF607460AFB1644C2F800B04EB9AAEBDF
:108FF00004055D4528BF5D46BBF1000F04D1BDE807
:10900000F88F3F68013EF1E7043408EB06003C446A
:109010002A46B9F1000F0DD02146ABEB050B04F049
:10902000C5F8DA452E443F6855464FF0000428BF86
:109030005D46E1E701462046EFE7FFF78EBDF8B554
:1090400046790146721E0546002393422D6803D3DC
:109050000024A64202D8F8BD0133F6E70F6828467F
:10906000FFF7B6FD01343946F3E72DE9F843068AE8
:10907000CD1C0746FFF788FD043E35440446B5FB8A
:10908000F6F5F0B14FF48073EDB28380C680013DF8
:10909000076081464FF00008A84512D23846FFF716
:1090A00073FD064648B163790133637108F1010825
:1090B000C9F8000007608146EEE72046FFF7BFFFD2
:1090C00034462046BDE8F88301210430FFF727BD70
:1090D00010B5012104460430FFF72DFD10F0FF0FFD
:1090E00004D12046BDE81040FFF7A9BF10BD1FB551
:1090F00003920022009203AAFFF75CFF05B05DF81F
:1091000004FB1FB503920122009203AAFFF752FF4E
:1091100005B05DF804FB33DF704741DF70470000A6
:10912000064B10B500241C70054B1C60BFF35F8F0D
:109130000449054800F04FF9204610BD7137002062
:109140007437002010D702006837002007B50023CD
:109150000DF107008DF80730FFF7BEFAF1EE103A77
:1091600023F09F03E1EE103ABFF35F8F094B4022DB
:10917000C3F884219DF80700FFF7D2FA03F086FDBB
:1091800020B1FFF7CAFF03B05DF804FB20BF40BF6A
:1091900020BFF8E700E100E070B5274D044601214B
:1091A0002846FFF799FCBFF35F8F2E4638B9042C91
:1091B0000AD0224B1A781AB1BFF35F8F286070BDB6
:1091C0001F4A147001221A701E4C1D4D6368BBB9F2
:1091D000FEF756FCFEF7A8FA0028FBD1184B1B78C7
:1091E000023B012B14D8BFF34F8F1749174BCA68A6
:1091F00002F4E0621343CB60BFF34F8F00BFFDE783
:109200001B682878984798B1204600F0EEF8DDE713
:1092100003F03CFD18B1FFF77EFF20BFFDE74FF0E4
:1092200080430122C3F80025BFF34F8F20BFFDE725
:10923000BFF35F8F3060C2E77437002071370020C2
:10924000703700206837002000ED00E00400FA05C8
:10925000026813685268934291BFD01A8068013047
:10926000801888BFC01A7047036881681A685B68F5
:109270008B4234BF01330023D31A58425841704700
:10928000F7B5002304460DF107000D468DF80730B1
:10929000FFF722FA2046FFF7E7FF10B1237C002BEF
:1092A0003CD12268A66853685168B14234BF01318D
:1092B0000021516030B11168A068814234BF013192
:1092C00000211160E2686068511E072920D8DFE89C
:1092D00001F004101F141F1F1F182A78C2542046C3
:1092E000FFF7B6FF23689A68824200D29860002494
:1092F00015E02A8820F81320F1E72A6840F8232097
:10930000EDE7D5E9006700EBC300C0E90067E6E7D9
:10931000294602FB030003F049FFE0E704249DF81F
:109320000700FFF7FDF9204603B0F0BD0368186899
:109330005B68C31A58425841704773B5002305460D
:109340000DF107000C4616468DF80730FFF7C4F9FB
:109350002846FFF7EBFF002832D129680B682EB9A9
:109360000A68A868824238BF561C0E60EA686968BD
:10937000501E07281ED8DFE800F0040E1D121D1D28
:109380001D16CB5C237000249DF80700FFF7C8F979
:10939000204602B070BD31F813302380F3E751F856
:1093A00023302360EFE701EBC301D1E90023C4E9D7
:1093B0000023E8E703FB0211204603F0F7FEE2E793
:1093C0000524E1E7836800225A60C3E904229A6019
:1093D000DA601A6070470B684A684360934208BFBE
:1093E0000023016008BF43607047436843B10268CF
:1093F000916852680B449342436004BF002343606A
:10940000704770B5446806460D46206818B1B368C9
:109410002946984718B923682B60256070BD2468D9
:10942000F3E74368186808B102681A607047436838
:10943000186870474368186800B97047884203D1BC
:1094400002681A600120704703460068F4E70000D4
:1094500010B50D49A1F59472914201D800200FE09A
:109460008C1AE30F03EBE4035B1002EBC30452F826
:109470003330834205D802D204F10802ECE7606879
:1094800010BD2146E8E700BF1CDC020008B5FFF76D
:10949000DFFF024B002808BF184608BDDFDA0200D4
:1094A0000A4B1B685A1C05BF094B0A4A0A4A106836
:1094B0000ABF1B781068C0F30310082B04D10328DF
:1094C0008CBF002001207047002070473001001041
:1094D000E00F00F0E80F00F034010010064B1B68AD
:1094E000082B06D1054B1B68032B02D8044AD05C1D
:1094F00070470020704700BF300100103401001099
:109500001CDC020008B5FFF7CBFF40B14FF08043F1
:109510000022C3F80C21C3F81021C3F83825FFF747
:10952000BFFF002846D04FF080525E4BD2F80414A3
:10953000C3F82015D2F80814C3F82415D2F80C1477
:10954000C3F82815D2F81014C3F82C15D2F8141447
:10955000C3F83015D2F81814C3F83415D2F81C1417
:10956000C3F84015D2F82014C3F84415D2F82414D7
:10957000C3F84815D2F82814C3F84C15D2F82C14A7
:10958000C3F85015D2F83014C3F85415D2F8341477
:10959000C3F86015D2F83814C3F86415D2F83C1437
:1095A000C3F86815D2F84014C3F86C15D2F84424F7
:1095B000C3F87025FFF792FF10B13B4B3B4A1A608E
:1095C000FFF78CFF18B13A4BFB22C3F81825FFF7C1
:1095D00085FF48B13749384B0A681B6822F00F02F3
:1095E00003F00F0313430B60FFF778FF18B1334B01
:1095F0004FF400721A60FFF753FF48B14FF08043F9
:10960000D3F80024D20744BF6FF00102C3F800244E
:109610002B4AD2F8883043F47003C2F88830BFF385
:109620004F8FBFF36F8F4FF01023D3F80022002A23
:1096300003DBD3F80432002B2FDA224B0122C3F8CC
:109640000425D3F80024002AFBD04FF01022122169
:10965000C2F80012D3F80024002AFBD04FF01023E8
:109660001222C3F80422174B1A46D3F8001400291B
:10967000FBD00021C3F80415D2F80034002BFBD036
:10968000BFF34F8F0E49104BCA6802F4E0621343D8
:10969000CB60BFF34F8F00BFFDE70C4B0C4A1A6045
:1096A00008BD00BF00C000408C5600404881030048
:1096B00000F00040E40E00405802001040960240C6
:1096C00000ED00E000E001400400FA055C2A002003
:1096D0000090D003074B1B5C1F2B8ABF064A4FF03C
:1096E000A04203F01F03D2F80405D840C04300F0A5
:1096F0000100704724DC020000030050074B1B5C94
:109700001F2B86BF064903F01F034FF0A041012223
:1097100002FA03F3C1F80C35704700BF24DC0200E5
:1097200000030050074B1B5C1F2B86BF064903F04C
:109730001F034FF0A041012202FA03F3C1F80835DC
:10974000704700BF24DC02000003005008B5002071
:10975000FFF7E8FF0120FFF7E5FF0220FFF7E2FF38
:10976000BDE808400320FFF7DDBF08B50020FFF784
:10977000C5FF0120FFF7C2FF0220FFF7BFFFBDE8D2
:1097800008400320FFF7BABF0A4B185C1F288ABFA6
:10979000094B4FF0A04300F01F00D3F8042501212E
:1097A000814021EA02000A40C3F80805C3F80C25ED
:1097B000704700BF24DC020000030050074B1B5C15
:1097C0001F2B8ABF064A4FF0A04203F01F03D2F8B6
:1097D0001005D840C04300F00100704720DC0200B3
:1097E000000300500B2809D00C2809D0182809D0F4
:1097F00019280CBF03204FF0FF307047002070473E
:109800000120704702207047014B185C704700BF71
:1098100020DC0200C20710B504460CD54FF0A0436F
:109820000322C3F83427C3F83827C3F83C27C3F80A
:109830004027FFF78BFFA3070AD54FF0A0430C2268
:10984000C3F82C27C3F83027C3F86027C3F8642770
:1098500010BD000038B5074C051E04F1080318BF01
:109860001C4623682BB11A6822605B68284698471B
:10987000F7E738BD8037002020B9054B01225A7028
:10988000FFF7E8BF012802D1014A9070F8E770475E
:109890007837002020B9034B01225A70FFF7DABF56
:1098A000704700BF7837002038B50E4C2378B3B925
:1098B0000D486360A3602361E36000F0E5F80546AE
:1098C00003F0E4F908B900F0EBF801232370074B2B
:1098D000D3F800340BB10123A370284638BD852589
:1098E000F5E700BF783700207998020000000140BA
:1098F00037B50D4C00230DF107008DF80730FEF74A
:10990000EBFEE368013BE360E36833B9074BD3F850
:10991000005415B900F0D6F8A5709DF80700FEF7C1
:10992000FFFE03B030BD00BF7837002000000140CB
:10993000012813B50CD0032820D038B9124B0122CE
:10994000C3F88020BFF34F8FBFF36F8F02B010BDFD
:109950000E4C00230DF107008DF80730FEF7BCFE1A
:1099600023780BB9FFF7A0FFE3689DF807000133E8
:10997000E3600123A370FEF7D3FEE7E700F090F861
:10998000FFF7B6FFE2E700BF00E100E07837002014
:109990001FB503788DF800304368019383688DF814
:1099A0000830C368054A0393054B684653F82130D5
:1099B00052F82110984705B05DF804FB8C37002061
:1099C000943700201FB503788DF800304368019369
:1099D00083688DF80830C368054A0393054B6846D1
:1099E00053F8213052F82110984705B05DF804FB78
:1099F0008C37002094370020F0B5194B90F800C048
:109A0000DFF86CE043F82C20164B16460A6943F841
:109A10002C204B7F0EF80C300C4607460FCC89B03B
:109A20006D460FC594E80F0085E80F001EF80C3056
:109A3000CDF810C04BB1002E0B4A694608BF324624
:109A4000381D00F0F5FD09B0F0BD002E074A69464B
:109A500008BF324607F10C0000F0AAFBF3E700BF95
:109A6000943700208C37002091990200C59902009C
:109A70009C37002000F18040002382B0036003681F
:109A80000193019B02B07047044A137923B9012165
:109A9000106091801846704785207047A0370020DD
:109AA000074B1A68D20704D4C02283F8002301228E
:109AB0001A604FF080430122C3F81825704700BF99
:109AC00000E100E04FF0804208B50223C2F80833FD
:109AD0004FF48270FFF7CEFF034B01211960D2F8DB
:109AE0001834DB03FBD408BD0C000040124B1B688C
:109AF00010B573B14FF48070FFF7BCFF4FF0804397
:109B00000122C3F808230D4B587910B95A711B680C
:109B100098470B4B1B6873B14FF48270FFF7AAFF95
:109B20004FF080430222C3F80823044BBDE81040E5
:109B30001B680120184710BD00010040A03700201D
:109B40000401004000F1804000F5C040002382B0D5
:109B5000036003680193019B02B0704703681F2BE9
:109B600083BF03F01F03036001484FF0A04070471C
:109B70000003005007B5019001A8FFF7EFFF019B1C
:109B800000EB8300D0F8003723F44033C0F80037EF
:109B9000D0F8003743EA0141C0F8001703B05DF880
:109BA00004FB0000054B4FF0FF32072843F820204C
:109BB00084BFC01880F85820704700BFA837002025
:109BC00038B51E4C94F86A30ABBB4FF6FF71FF20DE
:109BD0005A09012A14BF4FF0FF320A4603F01F054D
:109BE000EA40D20748BFE21803F1010348BF82F8F8
:109BF0003000302BECD10021C8B2FFF7D3FF013188
:109C00000C29F9D1062200210D4803F0F8FA0D4B7A
:109C1000C02283F8062340221A604FF4BE70FFF77B
:109C200091FF094B4FF00042C3F80423012384F84D
:109C30006A30002038BD0820FCE700BFA8370020AC
:109C40000C38002000E100E000600040034B93F876
:109C50006A00003818BF0120704700BFA8370020F5
:109C6000F7B53B4E3318054693F93030002B6CDACC
:109C70008B78C3F34003002B0BBF082400240C2077
:109C80000820844202D1042003B0F0BD56F82470AD
:109C9000013743D1701946F8242080F8304013B9B9
:109CA000331983F858508B785A0717D4D80737D50B
:109CB00001A80195FFF752FF019B00EB8300D0F84C
:109CC000003723F00203C0F800372248EA0805F005
:109CD00007070123BB40875C3B4383548B780A789A
:109CE00013F0020328D0A40004F1804404F5C0441A
:109CF0002D02D4F8103523F44F3323F44073C4F805
:109D000010351204D4F8103505F47C5502F44032B5
:109D100015431D43C4F810550020B5E70134B0E7E2
:109D200001A84A780195FFF719FF019B03F5E0733D
:109D3000920040F82320C8E7083C344494F860506F
:109D400045EA821284F86020E6E708209CE700BF1D
:109D5000A83700200C38002073B5224C2618054681
:109D600096F93020072A1ADD224492F858309B09D0
:109D7000032B0FD1019001A8FFF7F0FE019BD0F853
:109D80001015D94001F0010102312846FFF7F2FE1B
:109D900002B070BD012B0CBF02210321F5E7D3B245
:109DA000072BF5D8930003F1804303F5C043D3F8A4
:109DB000100540F00100C3F8100502F140008000DA
:109DC00080B2FFF7BFFE0029E2D096F9303054F898
:109DD0002330002BDCD0012303FA02F2024BC3F83C
:109DE0000423D5E7A83700200060004007B50190A4
:109DF00001A8FFF7B3FE019BD0F81005D84000F092
:109E0000010003B05DF804FB2DE9FF470024CDE914
:109E10000244584D4FF48072012102F1804303F552
:109E2000C04390B21B68012B06D1D5F804330B4216
:109E300002D0FFF787FE0C430432B2F5907F4FEA61
:109E40004101EAD14C4B1B68012B11D14FF4BE707C
:109E5000FFF778FE4FF0A04344F00044D3F82025EC
:109E60000292C3F82025D3F820280392C3F82028B3
:109E700014F0FF0F1AD0414F00250126344210D0B4
:109E8000AB0003F1804303F5C043D3F81005D3F8CA
:109E9000101557F8253023B1C1F30141C0F3052057
:109EA00098470135082D4FEA4606E7D1002C59DACC
:109EB000324D334C334E4FF00008012716F9013B69
:109EC0005A1C3CD0C3F3C20104A801445FFA83F9D1
:109ED00011F8081C03F03F0203F0070307FA03F32D
:109EE00019422CD001A80192FFF738FE019B03F51F
:109EF000E07350F82330C3F3014ABAF1020F104661
:109F00000CBF03210221FFF735FE01A80192FFF7E4
:109F100025FE019B07FA03F3C0F82035AB1893F92F
:109F2000303055F8233053B14FEA9911032904D04A
:109F3000BAF1020F19D1012901D11046984708F151
:109F40000108B8F1040FB9D14FF0A043D3F8202590
:109F50000292C3F82025D4F820350393C4F82035A5
:109F60001343A7D104B0BDE8F087BAF1030FE6D1DF
:109F70000229E1E7006000407C610040A837002032
:109F80000003005008380020014B1B68184700BF31
:109F9000143800200E4B984237B50C4602D00020F2
:109FA00003B030BD00230DF107008DF80730FEF738
:109FB00093FB084B1D7915B901221C601A719DF89D
:109FC0000700FEF7ADFB002DE9D01120E8E700BF48
:109FD00000200040143800200023435082B0435832
:109FE0000193019B02B070470A4610B54FF48E7181
:109FF000FFF7F2FF136A9168C95C136A01331362B9
:10A00000C0F81C1510BD024608B500684FF49271E7
:10A01000FFF7E2FF4FF484711068FFF7DDFF13686C
:10A0200001221A6008BD8B690A4610B54FF484718D
:10A0300023B9FFF7D1FFD0F8183510BDFFF7CCFFDB
:10A04000536AD168D0F81805C854536A0133536273
:10A05000F3E700001FB501238DF80030044BCDE974
:10A060000110D3E900126846904705B05DF804FB83
:10A070001C38002030B54C48D0F8043313F4007F6E
:10A0800085B005464DD0D0F82431002B49D04FF48F
:10A090009271FFF7A1FF4FF40173C0F80833434BEF
:10A0A00093F829200AB9012242603F4902228DF823
:10A0B0000020D1F88024C1F8802403929A6902928A
:10A0C000DA6801920022C3E906226846D3E9001249
:10A0D00090473548D0F81C315BB134494A690B6A66
:10A0E0009A420A464AD991F82830002B46D1FFF708
:10A0F0007BFF2D48D0F844318BB14FF4A271FFF7AC
:10A100006BFF2A4B93F829200AB1012202609A6959
:10A110002AB10022586AD9689A61FFF79BFF05B0FF
:10A1200030BDD5F804335B07D3D5D5F80831002B03
:10A13000CFD01E4C1C482146FFF775FF636AA26909
:10A140009A422346C5D1E269E1684AB12369E360D6
:10A150000023606AA261E3616362FFF77BFFB8E7F7
:10A1600094F829200AB901226A600F4A4FF401705D
:10A17000C2F808030022586A9A61EEE70A484FF4D1
:10A180008E71FFF729FF5369002BB2D051690291FC
:10A19000002391688DF80030019153616846D2E93F
:10A1A00000139847A5E700BF002000401C3800209E
:10A1B0002DE9F843614B057991462C2202FB0532CB
:10A1C000064692F82A200C469846002A40F0B180B4
:10A1D0005B490068FFF7DEFE0746002840F0AB80D1
:10A1E00021684A1C10D01F2987BF564A01F01F035F
:10A1F0000B464FF0A0420120984003F5E073C2F8EF
:10A200000805032042F823006068431C0DD01F2876
:10A210008BBF00F01F0303464A4A4FF0A04203F5EC
:10A22000E0734FF0000C42F823C03368A269C3F812
:10A23000242594F814C0627DBCF1010F4CEA02029F
:10A24000C3F86C25C3F81405C3F80C152BD1A1680D
:10A25000481C0DD01F298BBF01F01F020A46394848
:10A260004FF0A04002F5E0724FF0000C40F822C021
:10A27000E068421C13D01F2887BF324A00F01F0C31
:10A2800084464FF0A0424FF0010E0EFA0CFE0CF582
:10A29000E07CC2F808E54FF0030E42F82CE0C3F86A
:10A2A0000805C3F810152C236B4308EB0302C2F812
:10A2B0000490226948F80320B9F1000F21D03068DA
:10A2C000247F4FF48E71FFF787FE4FF4A271306840
:10A2D000FFF782FE32681C4BC2F80433110B42F3C5
:10A2E00007326301002ADBB21EDB1848841884F8A9
:10A2F00000330123520901F01F0103FA01F140F874
:10A30000221033680422C3F800252C2303FB0583A5
:10A310000022C3E9062283F829205A61012283F82A
:10A320002A203846BDE8F883094A01F00F0153544A
:10A33000E7E70827F5E71127F3E700BF1C380020FF
:10A3400075A00200000300508000020000E100E060
:10A3500014ED00E02DE9F047204F90F804904FF005
:10A360002C0808FB097405466669002E34D1626129
:10A370000068A16026624FF48E7184F82860FFF7B0
:10A380002BFE2868012383602146FFF72DFE6368BA
:10A39000A0468BB92868D4F814A0236A9A4511D82E
:10A3A0002A68D2F81C31002BFBD00123D3602C2368
:10A3B00003FB097300225A613046BDE8F08794F828
:10A3C00028303BB9D0F81C31002BF8D04146FFF7BC
:10A3D0000BFEE2E70F26EAE71126EDE71C38002026
:10A3E0000379044A2C2101FB03235869003818BF64
:10A3F000012070471C3800202DE9F843394F0579BA
:10A400002C2303FB057306465C6824B103684FF4F4
:10A410000170C3F808032C2303FB0573986950B13E
:10A42000D86900283ED024B133684FF40172C3F8D4
:10A430000423112433E09A61D9605862D8612C2337
:10A4400003FB057393F829301BB910B93046FFF7A9
:10A45000DAFD4FF02C0909FB05783068D8F8043094
:10A46000002B34D14FF4A271C146FFF7B5FD30681F
:10A47000D0F82431D0F80821D0F84441B2B90CB951
:10A48000002BF4D02C2202FB05750022AA6123BB0D
:10A490002CBB95F8291033680122B1B11A6020460F
:10A4A000BDE8F8831961DA610120C8E7002BE9D122
:10A4B000002CE7D14946FFF7B6FDD8F82430D8F88C
:10A4C00018209A42D3D82346DCE75A60E7E74FF4D6
:10A4D0000173C0F804330024E1E70324DFE70F240D
:10A4E000DDE700BF1C3800200023435082B04358F2
:10A4F0000193019B02B070471FB501238DF8003016
:10A50000044BCDE90110D3E900126846904705B02D
:10A510005DF804FB483800207FB5434AD2F8246137
:10A52000002E60D010464FF49271FFF7DDFF02233A
:10A530008DF80030D2F88034C2F880340393D2F81A
:10A540003C350293394BDA6801920022C3E90622B6
:10A550006846D3E9001290473348D0F8443173B1CC
:10A560004FF4A271FFF7C0FF304B9A693AB1002255
:10A57000C3E90622D968D0F83C05FFF7BDFF2A4899
:10A58000D0F82031ABB14FF49071FFF7ADFF01234C
:10A59000C360264B5A6962B1D0F84C150291002273
:10A5A00099688DF8002001915A616846D3E900123C
:10A5B00090471D48D0F858319BB14FF4AC71FFF76C
:10A5C00093FF1A4B5A6962B1D0F84C1502910022E0
:10A5D00099688DF8002001915A616846D3E900120C
:10A5E000904704B070BDD2F81031002BB4D04FF4B6
:10A5F00088711046FFF778FF0C4BD2F83C0599693B
:10A600008842A9D1DC69D96864B1D2F8005225F03A
:10A610002005C2F800521A699C61DA60DE61FFF71A
:10A620006BFF99E79C61FAE7002000404838002062
:10A630002DE9F843674B06799146242202FB063246
:10A64000044692F820200D469846002A40F0BE802D
:10A6500061490068FFF79EFC0746002840F0B8807B
:10A660002868421C10D01F2887BF5C4A00F01F03D7
:10A6700003464FF0A0420121994003F5E073C2F870
:10A680000815032142F8231069684B1C0DD01F29BF
:10A690008BBF01F01F030B46504A4FF0A04203F559
:10A6A000E0734FF0000C42F823C02368AA69C3F896
:10A6B000242595F814C06A7DBCF1010F4CEA020212
:10A6C000C3F86C25C3F80C05C3F814152BD1A96881
:10A6D000481C0DD01F298BBF01F01F020A463F48BE
:10A6E0004FF0A04002F5E0724FF0000C40F822C09D
:10A6F000E868421C13D01F2887BF384A00F01F0C9F
:10A7000084464FF0A0424FF0010E0EFA0CFE0CF5FD
:10A71000E07CC2F808E54FF0030E42F82CE0C3F8E5
:10A720000805C3F810152423734308EB0302C2F88D
:10A7300004902A6948F80320B9F1000F30D020684E
:10A740002A7F4FF48871FFF7CFFE20684FF4907195
:10A75000FFF7CAFE20684FF49271FFF7C5FE20682C
:10A760004FF4A271FFF7C0FE4FF4AC712068FFF701
:10A77000BBFE23681A49C3F80413190B43F30733CC
:10A780005201002BD2B21CDB1648C51885F80023F5
:10A7900001225B0901F01F0102FA01F140F82310C8
:10A7A00023680822C3F80025242303FB0683002224
:10A7B000C3E906225A61012283F820203846BDE809
:10A7C000F883094B01F00F015A54E9E70827F5E730
:10A7D0001127F3E74838002019A5020000030050B4
:10A7E0001003420000E100E014ED00E001F06043DE
:10A7F000B3F1005F2DE9F041064638D11E4B0779D1
:10A80000242505FB073598466C69002C31D16A6117
:10A810000068A9604FF49071FFF766FE4FF4AC71C9
:10A820003068FFF761FE33686A69A968C3F84415A8
:10A83000C3F8482501229A606A68AAB9D3F8202192
:10A84000D3F858411AB9002CF8D00F2407E0002C97
:10A85000FBD10122DA60D3F85821002AFBD024234F
:10A8600003FB078700237B612046BDE8F0811024AD
:10A87000FAE71124F8E700BF483800200379044ABA
:10A88000242101FB03235869003818BF01207047B9
:10A8900048380020F8B501F06043B3F1005F04468A
:10A8A0000F465ED10379304D242101FB03514968E5
:10A8B00021B100684FF40476C0F80863242000FB3F
:10A8C00003539E6956B1D869002839D021B1236855
:10A8D0004FF40472C3F80423112030E09A61DF6062
:10A8E000DE6120684FF48871FFF7FEFD20684FF4A9
:10A8F000A271FFF7F9FD2368C3F83475C3F8382552
:10A9000016BB01221A602179242202FB01525268EF
:10A910000ABBD3F81041D3F84421D3F824011443DF
:10A9200002D10028F5D02246242303FB0155002341
:10A93000984218BF03209A42AB6118BF0F20F8BDA0
:10A940001F61DA610126CCE7D3F8002242F0200231
:10A95000C3F80022D7E74FF40472C3F804230020A1
:10A96000EDE71020EBE700BF483800200220FEF79B
:10A970000BBF00002DE9F04780460D46FEF732FF81
:10A980000328044610D8012D10D0022D30D05DB917
:10A990001A48FDF7B8FC1A4B04EB440213449E78A6
:10A9A000184B1B5DB34219D0BDE8F087144D00EB86
:10A9B0004002A918AE5C4A78470052B1DFF84C90CB
:10A9C0000E484A464FF48041FDF785FC08B989F8E6
:10A9D00000803B192B449A780A4B1A55002EE3D07D
:10A9E000094B1B68002BDFD03046BDE8F047184705
:10A9F00000EB4004024804446678EFE790380020FA
:10AA0000D0380020E9380020E43800206C380020DD
:10AA100000780221FFF7AEBF08B5094B1B7853B190
:10AA20000020FEF77FFE0120FEF77CFEBDE8084017
:10AA30000320FEF777BEBDE80840FEF787BE00BFE3
:10AA40006D380020F8B57B4C237805461BB10023F8
:10AA50002370FFF7E1FF172D00F28880DFE805F093
:10AA60000C17174354657680888D888D959A9A9A2D
:10AA70009A9AC4C9D1D9E4E4FFF7CEFF6E48FDF736
:10AA800042FC6E4B002204461A702046F8BD00209E
:10AA9000FEF720FEF8B10020FEF744FE022D0CBFA9
:10AAA0004FF4E1614FF47A61644B1D704FF4004044
:10AAB0004FF47A740025E0FB01454FF4FA6200235D
:10AAC0002046294602F07AFA00220146BDE8F84005
:10AAD0005948FDF700BCFEF711FE022D0CBFC8213E
:10AAE0004FF4C871E0E70020FEF7F4FD40B100200C
:10AAF000FEF718FE4FF44871504B03221A70D5E749
:10AB0000FEF7FCFDC821F7E70020FEF7E3FD38B1B2
:10AB10000020FEF707FE4FF47A61484B0422EDE770
:10AB2000FEF7ECFD4FF4C871F7E70020FEF7D2FD09
:10AB300048B10020FEF7F6FD404B05221A7040F6A2
:10AB4000CD410022C2E7FEF7D9FDF5E70020FEF770
:10AB50001BFE3A4B06221A70002240F26661B5E7EE
:10AB60000020FEF7CBFD354B07221A7000248CE73E
:10AB700001202070FEF708FEEEE701202070FEF7AE
:10AB800003FE00224FF40051A0E7FEF7EEFD2B4B31
:10AB90000C22EAE72A482B4EFDF7B5FBD5F111054B
:10ABA00004461CD0D8B9012D13D0C8235D434FF4FF
:10ABB00000474FF47A7000214FF4FA620023C7FB7C
:10ABC000050102F0FBF9224601461D48FDF783FB13
:10ABD00004460220FEF792FD0123337055E7022060
:10ABE000FEF7A0FD0023F8E7FFF716FF134B122234
:10ABF000BBE7FFF711FF0020FEF780FD0F4B13228C
:10AC0000B3E7FFF709FF0120FEF778FD0B4B142295
:10AC1000ABE7FFF701FF0020FEF770FD0120FEF714
:10AC20006DFD064B1522A0E7FEF79FFD034B1D703F
:10AC30009CE700BFE0380020B0380020E838002052
:10AC4000703800206D380020044B1B68DB0703D5EB
:10AC5000034B1878FFF7F6BE704700BFDC380020C2
:10AC6000E8380020002910B514BF03240024FEF7A3
:10AC7000CBFD1F288ABF0A4B4FF0A04300F01F00F6
:10AC800003EB8000D0F8002722F44032C0F8002700
:10AC9000D0F8003743EA0443C0F80037002010BD65
:10ACA00000030050032801D8FEF788BD002070473C
:10ACB000044B1B6813F0010301D0FFF7C3BE184615
:10ACC000704700BFDC38002038B51C4B18601C4BA7
:10ACD00010F00204054619601AD01A4B1A480E22C9
:10ACE0001A700F22DA7010229A7111225A720421FE
:10ACF00040F23332FDF7F8F8044648B9FDF74AF957
:10AD0000044628B90146114A1148FDF7D9FA04460C
:10AD1000EB0711D50120FEF77DFD6CB921460D4AE8
:10AD20000D48FDF7CDFA044630B9BDE838400B4A6E
:10AD30000B480121FDF7C4BA204638BDDC3800209D
:10AD4000E4380020D03800204CDC020011AA0200B8
:10AD500070DC020049AC020074DC02006DA9020044
:10AD60006CDC0200032811D8012A0AD101290FD175
:10AD700000F10E02D2B20D4B00EB40001A5400203D
:10AD800070470129F7D0022904D049B10720704744
:10AD90000022F8E7054B00EB400018444270EEE754
:10ADA000024B00EB400018448270E8E7D0380020E6
:10ADB000032802D80121FFF755BF0620704708B5C8
:10ADC000012202210020FFF7CDFF08B1072810D192
:10ADD000072202210120FFF7C5FF08B1072808D18B
:10ADE00000210A220846FFF7BDFF10B1072808BF5F
:10ADF000002008BD0388102B10B502D0112B1ED0E7
:10AE000010BD1A4C2168B1B901220846FFF7AAFF0C
:10AE100008B1072824D1072202210120FFF7A2FF51
:10AE200008B107281CD1042202210020FFF79AFF55
:10AE300008B1072814D1236801332360E0E70B4AE7
:10AE40001368013B1360002BDAD1FFF7B8FF00282D
:10AE5000D6D0074B1B68002BD2D0BDE81040184756
:10AE6000034B1B68002BE6D09847E4E7F43800203A
:10AE7000F038002008B50020FFF79AFF08B1062837
:10AE800006D10120FFF794FF10B1062808BF00206B
:10AE900008BD00000D4B10B518600C4629B101200B
:10AEA000FFF700FF40B102232370094B1B6853B921
:10AEB000BDE81040FFF783BFFFF7F4FE08B10B2396
:10AEC000F2E72070F1E7002010BD00BFF03800204D
:10AED000F438002075DF704776DF70477FDF7047FA
:10AEE0008FDF7047014A7721FDF796B878DC0200C2
:10AEF0000146014801F0E7BC7C3B00200388212B80
:10AF000013B504460FD80F2B11D9103B112B0ED8B7
:10AF1000DFE803F00F2F0D4A0D0D0D0D0D0D0D3C4B
:10AF20000D0D0D560D613B2B62D0562B6AD002B031
:10AF300010BD81883848002201F00AFE20B1374A4E
:10AF40004FF4C671FDF768F80720FFF7B1FE20B196
:10AF5000324A40F28F11FDF75FF8A188304800F0C7
:10AF600031FE0028E3D02D4A40F29311FDF754F84A
:10AF7000DDE72C4B2C48A2882C49C01AC0080004DD
:10AF8000237A40F00300FCF720FDD0E7037A022B80
:10AF9000CDD1244B24482649C01AC008000440F0F3
:10AFA0000300FCF705FDC2E7002380881A468521CF
:10AFB000FFF794FF0028BAD0184A40F2A711D5E74E
:10AFC00000F108018088FFF785FF0028AFD0134A01
:10AFD0004FF4D771CAE700238088ADF8043001A987
:10AFE000FFF77EFF0028A2D00C4A4FF4DD71BDE7C9
:10AFF00080881321FFF770FF002898D0074A4FF48C
:10B00000E171B3E780881321FFF766FF00288ED037
:10B01000024A4FF4E571A9E77C3B002078DC02008E
:10B02000782A002014D302003CD30200C6DC0200C0
:10B03000F4DC020008B5094801F054FB18B1084AD5
:10B040008121FCF7E9FF0120FFF732FE28B1BDE8BE
:10B050000840034A8421FCF7DFBF08BDAC3B002059
:10B0600078DC020070B50378012B04463DD0022B3A
:10B0700029D03BBB244C254D20882844FDF7EAFA13
:10B08000238801339BB21D44238015F8012C0A2A22
:10B0900005D00D2A03D01E4A12889A4212D81B4DA1
:10B0A0001C4E22882946304601F002FD082807D0B0
:10B0B0001328F6D020B1184A40F22111FCF7ACFF5A
:10B0C0000023238070BD1548154B16491B1ADB0859
:10B0D0001B0443F00100FCF76BFC0F4A4FF4967120
:10B0E0006068BDE87040FCF797BF0C480C4B0E49F8
:10B0F0001B1ADB081B0443F00100FCF759FC064A4D
:10B1000040F23111ECE700BFEC390020F8380020A4
:10B11000762A00207C3B002078DC020014D3020059
:10B120003CD3020012DD020044DD020010B50446EB
:10B130000020FFF7BDFD20B1074A4FF4B571FCF7C1
:10B140006BFF3CB9FFF796FE20B1034A40F2711144
:10B15000FCF762FF012010BD78DC02000A8840F68F
:10B1600077239A4213B50C4617D10D4B0D480E4963
:10B17000C01AC008000440F003000190FCF718FC5E
:10B18000A3880A4A0A490198033B9BB213801A46D6
:10B1900002B0BDE81040FCF718BC02B010BD00BF03
:10B1A00014D302003CD3020070DD0200762A002096
:10B1B0008CDD0200042808B506D00A2813D1BDE8AA
:10B1C00008400020FDF7E8BF074B13215888FFF720
:10B1D00083FE30F0080306D0BDE80840034A40F281
:10B1E0001A21FCF719BF08BD7C3B002078DC020067
:10B1F0002DE9F0470B78012B06460D4629D0022B8E
:10B200006BD0002B77D13D4B3D4C3E49E41AE4080E
:10B21000240444F003042046FCF7CAFB698805F1C6
:10B220000E02304601F094FC20B1374A4FF4A6716B
:10B23000FCF7F2FE304601F009FC20B1324A40F240
:10B240004F11FCF7E9FE20463049BDE8F047FCF716
:10B25000AFBB2B4C294B8E688F89DFF8BC90DFF891
:10B26000A8A0E41AE408240444F001040025BD4227
:10B270001BD3F31913F8013C0D2B29D0DFF89C8068
:10B280003A463146404601F013FC054698B3112872
:10B29000F6D002461E492046FCF78EFB28461A4A85
:10B2A000BDE8F047FB21FCF7B7BE705DFCF737FF48
:10B2B000804658B11128F8D02A4649462046FCF766
:10B2C0007BFB5246EA214046FCF7A6FE0135CEE75D
:10B2D0000A20FDF7D9F91128CFE7084B08480D4996
:10B2E000C01AC008000440F00300FCF761FBBDE891
:10B2F000F047FFF79FBEBDE8F08700BF14D3020000
:10B300003CD30200B4DD020078DC0200C8DD02009C
:10B310001CDE020045DE0200F6DD02007C3B002060
:10B320001FB50378052B12D0062B19D0042B2CD176
:10B33000174B18481849C01AC008000440F0030011
:10B34000FCF736FB04B0BDE81040FFF773BE406861
:10B35000D8B1124A932104B0BDE81040FCF75CBE9E
:10B3600041680B4C0B488B784A78001B8C7903940E
:10B370004C7902940C790194C008C97800910004BA
:10B38000074940F00300FCF746FB04B010BD00BFC6
:10B3900014D302003CD3020081DE020078DC0200FC
:10B3A00053DE020008B50B490B4800F0D9FD20B16F
:10B3B0000A4A4FF40071FCF72FFE0748F72100F00E
:10B3C000E3FD30B1BDE80840044A40F20321FCF738
:10B3D00023BE08BD5DB10200983B002078DC02006E
:10B3E00000B54FF480418BB00020FCF74DF920B13F
:10B3F000614A40F26621FCF70FFEFCF785F8FCF786
:10B400002DFF20B15C4A40F25E21FCF705FE5B4D4A
:10B410000FCD04AC0FC495E80300594B594A009373
:10B420004FF4807384E80300CDE902230193564A68
:10B430000723694604A8FDF7B5F820B14E4A40F24B
:10B440003A21FCF7E9FD51490120FFF73DFC20B10D
:10B45000494A40F25321FCF7DFFD04A90020FFF721
:10B4600019FD20B1444A40F25621FCF7D5FD0822CF
:10B47000002104A801F0C3FE454C464B049304A8E8
:10B48000059400F061FB20B13B4A40F28121FCF7BA
:10B49000C3FDFDF745FE20B1374A40F27221FCF7AB
:10B4A000BBFD01F0B5FB20B1334A4FF4EE71FCF760
:10B4B000B3FD002304A90120049301F03DFC20B159
:10B4C0002D4A4FF4F171FCF7A7FD04A801F006FD29
:10B4D00020B1294A4FF4F371FCF79EFDFFF762FF9C
:10B4E0002D4B04932D4B2E4804A9CDE9053401F0D2
:10B4F00047FA20B1204A4FF41271FCF78DFD10225B
:10B5000000210DEB020001F07AFE0123254A2648B6
:10B510008DF8143004A98DF81C3001F088F818B1AA
:10B52000154ABE21FCF778FD204A1F48032101F08F
:10B5300053F818B1104AC121FCF76EFD1A480022D9
:10B54000042101F060F818B10B4AC421FCF764FD36
:10B55000174B18481849C01AC008000440F00300EF
:10B56000FCF726FAFFF766FDFCF7DEF80028FBD1B2
:10B57000FDF7ECFDF8E700BF78DC0200B4DE020066
:10B58000FC3B0020FC3C002065B00200B5B102008D
:10B59000602A0020F1AE0200F1B10200E5AE020027
:10B5A0007C3B002021B30200AC3B0020E0DE020027
:10B5B00014D302003CD3020091DE02000369C1688B
:10B5C0008B429DBF8268D21802F1FF3203F1FF3334
:10B5D00094BF501A581A70472DE9F843D0E90294E5
:10B5E0000546A9EB04084068904520440F461444E2
:10B5F00004D901F0DBFDEC60BDE8F8834246A4EB22
:10B60000090401F0D3FD6868224607EB0801F0E762
:10B610002DE9F843C5680646894617464FF00008ED
:10B620003469B3687068A54228BFE418013C621B06
:10B630005C1BBC4228BF3C46944228BF1446494686
:10B640002844224601F0B2FDB3682544AB4208BF4E
:10B6500000253F1BA044A144F560E1D14046BDE870
:10B66000F883000010B5114C114AA2610223C4E90D
:10B670000433104BE361A2644FF400730E4A0F4988
:10B680002362E26400231022E01DA3626362E3628E
:10B69000A3656365E365226501F0E4FD0849204682
:10B6A00001F0E0FD2023A37110BD00BFFC3D002090
:10B6B000E4DE0200843E0020743E0020EDDE020045
:10B6C000F1DE0200F8B5184C182300FB033503FB2C
:10B6D00000402544C46A012C0F4616460FD0022CA8
:10B6E0001AD0F4B92846FFF769FF864205D83246DA
:10B6F00039462846FFF770FF34462046F8BD2846F5
:10B70000FFF75CFF8642344628BF0446224639468E
:10B710002846FFF761FFF0E72846BDE8F840FFF74D
:10B7200077BF0024E9E700BFFC3D0020FFF79ABF88
:10B7300064DF704730B5C8B1F2B10024651C8D429A
:10B7400006DA1588A54212D805196D789D420ED1EA
:10B75000A14211D9005D48B1013880B230B1023444
:10B76000A3B210FA84F4A14206DB138030BD055D5C
:10B7700001352C44A4B2E1E70020F7E7F0B587B02B
:10B78000002306460C461046ADF8063002AA1023E8
:10B790000DF105018DF80530FFF7CAFF16B900203D
:10B7A00007B0F0BD0028FAD19DF80550042D2BD02C
:10B7B000102D2BD0022DF3D10323BDF806207AB92A
:10B7C0000DF1060221463046FFF7B4FFBDF8063002
:10B7D0002BB92B460DF106023046FFF7ABFF0446AE
:10B7E000BDF80670002FDAD00025AC42D7D9E81991
:10B7F0009DF8052002A9304401F0A5FC48B19DF850
:10B8000005301D44ADB2F0E70523D6E70625072332
:10B81000D3E70120C4E7000030B50B4B19680B4B90
:10B820000022914201D1002009E09D788478A54250
:10B8300006D11D880488A54202D1054B186830BD89
:10B8400001320433EDE700BF8C400020904000201F
:10B85000844000202DE9F84F90F8C6A24FF0760BF7
:10B8600004460AFB0B0088469146FFF7D5FF0746C2
:10B8700070B3D4F8CC52052D2AD804EBC5165A461D
:10B88000A6F8D2920BFB0A4106F5357001F08EFC4A
:10B89000B8F1000F14BF0023022386F8D0320D4BFD
:10B8A000C6F84C731A6801359542C4F8CC521D464F
:10B8B0000ED104F534760027F36F304698472B6895
:10B8C00001379F4206F18006F6D30023C4F8CC323C
:10B8D000BDE8F88F8C40002030B5A1B004460D467D
:10B8E0007C22002101A801F08AFC03238DF804309A
:10B8F000044BADF806501B6802940BB101A89847A1
:10B9000021B030BD844000202DE9F041074691F878
:10B91000C60276234FF00008A0B081F8C88200FB71
:10B9200003100C461546FFF777FF064660B17C22F0
:10B93000414601A801F063FC01238DF80430ADF805
:10B940000650029701A8B04729462046FFF7C4FFDA
:10B9500020B0BDE8F081000030B58BB00446202255
:10B960000D4602A8002101F04AFC04220DEB020062
:10B97000002101F044FC94F8C53294F8C62213B3B8
:10B98000013B7621DBB25143122000FB0313234419
:10B990005B8A01339BB2ADF80430762303FB02428D
:10B9A00002A91389ADF8063003238DF80830019BF6
:10B9B000CDE90543064B0493064B2A46186800F070
:10B9C000DFFC0BB030BD762303FB0243DB88E2E7EC
:10B9D00009B90200A8400020F0B5044689B0202231
:10B9E0000D466846002101F00AFC94F8C7321E4A51
:10B9F00001331268DBB2934284F8C7324FF0000281
:10BA00002BD294F8C632194F84F8C5220133DBB229
:10BA1000762113FB01F057F8237084F8C6322618FC
:10BA2000275001FB034332711B68CDF81230104BD5
:10BA3000029302220F4B8DF800200122ADF8102056
:10BA4000186803942A46694600F09AFC18B12A4601
:10BA50002146FFF759FF09B0F0BD84F8C8222946F6
:10BA60002046FFF739FFF6E78C4000209040002089
:10BA700009B90200A84000202DE9F047044688B02B
:10BA80000D46164600212022684601F0B8FB94F8C6
:10BA9000C62294F8C512762312FB03F2A0181227CF
:10BAA00090F804C017FB012301F1010E0A33E645AB
:10BAB000234411D004F11C0900F1220E0CF1FF38CF
:10BAC0009144CAB294450BD988451B890ED102898D
:10BAD0009A421BD1002312E01B890289934215D19F
:10BAE00001232B70002008B0BDE8F08707FB01FAA6
:10BAF00001333EF80A2093421DD109EB0A0394F862
:10BB0000C522013284F8C5220131DAE701339BB244
:10BB1000ADF810300A4B029300210A4B2970042122
:10BB20008DF80010ADF8122018680394324669466B
:10BB300000F026FCD7E7013A9BB292B2E8E700BFDB
:10BB400009B90200A840002010B570B1026862B1C6
:10BB5000436853B1064900200860064901240C706F
:10BB600005490A60054A136010BD0E20FCE700BFBE
:10BB70008C4000208840002084400020A840002005
:10BB800010B5044680B10C4B1B787BB1FFF744FE27
:10BB900070B90A4A1368052B0CD80949246841F882
:10BBA00023400133136010BD0E20FCE70820FAE7A4
:10BBB0000020F8E70420F6E7884000208C400020B1
:10BBC00090400020F0B50D468BB0044600283BD0D5
:10BBD000204B1B78002B39D01F4B1B68002B35D016
:10BBE00090F8C812002933D14FF4BA621B4F01916B
:10BBF00001F005FB0199202202A801F000FB386842
:10BC0000294600F05DFCE8B9154BC4F8CC0284F875
:10BC1000C502A4F8C6021868206002238DF8083017
:10BC20000126104BCDF81A00A4F8CA523868ADF8B6
:10BC300018602A4602A90594049300F0A1FB08B9F4
:10BC400084F8C8620BB0F0BD0E20FBE70820F9E7CE
:10BC50001120F7E7884000208C400020A8400020F9
:10BC60009040002009B902002DE9FF410C4605462D
:10BC700060B159B1904B1B7843B10388322B64D02B
:10BC800007D8112B00F00A81302B20D004B0BDE87A
:10BC9000F081332BFAD18288B1F8CA329342F5D1C0
:10BCA000C68891F8C6C291F8C572002E00F0C08017
:10BCB000762101FB0C4C00239CF804108DF80F300A
:10BCC0007B1C8B4200F0E48084F8C532A2E08388BC
:10BCD000B1F8CA229A42D9D1C3886BBB91F8C63257
:10BCE000762202FB03130269C3F8062091F8C432DE
:10BCF000827A1344062B0CDC81F8C432A9882046D2
:10BD0000FFF72AFE0028C1D0AA882146FFF7FCFDD4
:10BD1000BCE7062381F8C4326848694B6949C01AF8
:10BD2000C008000440F002000190FBF741FE6649A4
:10BD30000198FBF73DFEE1E700212046FFF78AFD71
:10BD4000A9882046FFF748FEA0E78288B1F8CA32EA
:10BD50009A429BD1C388002B58D191F8C6727623A2
:10BD600017FB03F701EB0708837A98F80460334464
:10BD7000062B26DC88F80430334603EBC30207EBBE
:10BD8000420205F10C062244002198F80400834287
:10BD900006F10A0602F1120227D31222013B02FB2E
:10BDA000034394F8C62276213B4401FB0242598AA0
:10BDB000138999422AD2062828D0A98884F8C50276
:10BDC0009DE7062388F804303C483D4BCA5B3F4959
:10BDD000C01AC008000440F002000190FBF7ECFD1F
:10BDE0003B490198FBF7E4FDC6E73046013350F8C4
:10BDF0000ACD42F808CCD0F804C042F804CC00893F
:10BE0000108051809180D1801181BEE7002384F899
:10BE1000C532AA880DF10F012046FFF72DFE00283C
:10BE20007FF472AF9DF80F30002B3FF42FAF32E05C
:10BE3000762303FB0CF1122303FB0713B0F80AE08F
:10BE400023447645BFF434AFC189A1F524510829B4
:10BE500008D8DFE801F014170507070707071A00DD
:10BE600081899982998A39B1D98A29B1198B19B1F5
:10BE7000598B00297FF41CAF01360630E1E7818938
:10BE8000D982EFE781891983ECE781895983E9E752
:10BE900001238DF80F30AA8801214EE7B1F8CA328C
:10BEA00082889A4201BF002381F8C8324FF6FF739F
:10BEB000A1F8CA32EAE600BF8840002054D302004D
:10BEC00014D30200F8DE020017DF02005CDF02007C
:10BED000A2DF020090DF7047A5DF7047B5DF704733
:10BEE0007FB50023ADF80810ADF80A106A4602A924
:10BEF000064603930093ADF80430FFF7EBFF0546C9
:10BF000000B3124B124CE41AE408FDF7BFFA240404
:10BF100044F0010403460F4932462046FBF755FD25
:10BF2000BDF80020BDF8023052EA030103D00A49EF
:10BF30002046FBF74AFDBDF804201AB10749204608
:10BF4000FBF73AFD284604B070BD00BF14D30200D1
:10BF500074D3020008E0020052E0020091E0020007
:10BF600080B14FF0F7130360FB230371F723C38005
:10BF70001723038141F6FB32002301614381828153
:10BF8000184670470E20704730B1A1F11703E02B1F
:10BF900004D84180002070470E207047072070476A
:10BFA00013B5034680880C46B8B91A88242A00F0D5
:10BFB000968014D8112A71D0232A00F09E80102A6E
:10BFC0003BD0A37A4BB1E1880020FFF785FF002822
:10BFD00040F099804FF48073638102B010BD3A2A1B
:10BFE00065D0552AEDD1DB88C988A072172B38BFE0
:10BFF00017238B4228BF0B462381FFF76FFF60B1E9
:10C00000FDF744FA484B4949024649481B1ADB08E8
:10C010001B0443F00100FBF7CFFCE37A002BD0D1E7
:10C020002369002BCDD040F6772200922289ADF80B
:10C030000420694620469847C3E7DB7B0A790A73E8
:10C04000012B13D0022B14D0E18823898B4205D217
:10C050000020FFF741FF70B90123E372217B637B6E
:10C060008B42AED20020FFF73BFFAAE70B88E380AC
:10C07000EAE74B88FBE7112802D10123A372EDE721
:10C08000FDF704FA284B2B49024629481B1ADB0806
:10C090001B0443F00100FBF78FFCDFE7F723CB80A5
:10C0A00017230B8141F6FB3348818B8189E75B893C
:10C0B000CA88934228BF1346172B0A6938BF172333
:10C0C0000B814AB1C97A39B140F677210091ADF8B8
:10C0D00004306946204690470023638171E71A7A4D
:10C0E0000B694A73002B3FF46CAF4DF67A218DF843
:10C0F000050000918DF804209BE7197A237B994273
:10C1000028BF1946AFE711283FF467AFFDF7BEF926
:10C11000054B0849024606481B1ADB081B0443F07E
:10C120000100FBF749FC58E774D3020018E1020054
:10C1300014D30200E7E002009BDF70479DDF7047E9
:10C140009EDF7047A1DF7047A3DF7047AEDF704707
:10C1500030B5048800239AB2944206D9456835F870
:10C1600013508D4203F10103F5D1104630BD8B69A8
:10C1700010B50C461988102912D80231FCF775FF4A
:10C18000606078B1A16900230222FCF7B0FFA269C8
:10C1900060681288E1690223FCF7A9FF002010BD46
:10C1A0000920FCE70420FAE710B50C46C98A1029DB
:10C1B0000AD8FCF75AFF606040B1E28AA169002307
:10C1C000FCF795FF002010BD0920FCE70420FAE7EA
:10C1D000F0B58BB0002204460DF10601C068124E86
:10C1E000FDF7ABF8142502460AB10BB0F0BDBDF85F
:10C1F0000670A36805FB073702A93846FDF79DF8CE
:10C2000038B10022E0680DF10601FDF796F802460C
:10C21000EAE79DF8083056F8233013B10398FCF78D
:10C220000EFF0022E8E700BFC4E10200F7B50546B3
:10C230000C4C0D480092241AE40824040B460F46C7
:10C2400016460A492A7844F00100FBF7C8FBAB68A0
:10C2500033B1E9683A46304603B0BDE8F0401847CC
:10C2600003B0F0BD7CD3020014D3020054E10200FD
:10C27000F0B58FB00D46012206A90646FDF75DF820
:10C28000044690B99DF81830052B65D8DFE803F017
:10C29000030F1C24292EBDF82A20BDF8281028469B
:10C2A000FFF750FF0446112C40D10FB0F0BD02A99A
:10C2B0000798BDF82E200C910023FCF722FF0AA955
:10C2C0002846FFF741FFEDE7BDF828100DF12A02DF
:10C2D0002846FFF731FFE5E70AA92846FFF72EFFBA
:10C2E000E0E70AA92846FFF72BFFDBE70DF106047C
:10C2F00002AB214607980D9302220023FCF701FFB1
:10C30000BDF806200D9907980C940223FCF7F9FE5E
:10C310000AA92846BDF80670FFF718FF0446002852
:10C32000C1D1BDF80630BB4218BF0C249DF81820BF
:10C330000F4B53F8223013B10798FCF780FE002210
:10C3400006A93046FCF7F9FF002CAED0224629465C
:10C3500006A8FFF76BFFA8E70648074B07491B1A1B
:10C36000DB081B0443F00200FBF722FBDEE700BF03
:10C37000C4E1020014D302007CD302009EE102005B
:10C380002DE9F8430F461446054620B94FF00E0834
:10C390004046BDE8F8830029F8D0FFF719FF3B7845
:10C3A000052B6AD821462846FFF7D2FE2B88834208
:10C3B00063D014264643A8683044FCF7B7FF002832
:10C3C00060D03B78052B3BD8DFE803F00311171E44
:10C3D000242A7A8A398A2046FFF7B4FE112851D0E0
:10C3E00058B3024621463846FFF720FF25E007F103
:10C3F00010012046FFF7A8FEF0E7398A07F1120284
:10C400002046FFF799FEE9E707F110012046FFF704
:10C4100095FEE3E707F110012046FFF791FEDDE707
:10C42000BB6907F110012046B3F80080FFF78EFECC
:10C4300030BBBB691B8843450DD14FF00008A7E70F
:10C440001B4B1C481C49C01AC008000440F00200E5
:10C45000FBF7AEFAF1E70C20C3E72869002895D076
:10C46000394698478046A0B192E73B7859F8233087
:10C47000BBB17868FCF7E3FD13E04FF0070887E7EE
:10C480001128AED10D4A3B7852F823309146002B4B
:10C49000E3D1A86839463044FCF7F2FE8046002814
:10C4A000E3D1A86821463044FFF7E2FE70E700BF01
:10C4B00014D302007CD302009EE10200C4E102001A
:10C4C000F8B50D46044678B3FFF782FE29462046AC
:10C4D000FFF73EFE2288824211D00020F8BD61683D
:10C4E00031F81310814203F101030BD0208800239F
:10C4F0004FF6FF769AB282420BD30420EEE7002378
:10C500004FF6FF7099B28A42E9D82069FCF795FD91
:10C51000ECE761685A0001EB43078A5AB24203F123
:10C520000103E7D13D80D8E70E20D7E737B50C46A9
:10C5300008B301B30588112D15D181882046FFF776
:10C5400007FE2388ADF80600834214D0112D14D1C4
:10C5500063684FF6FF7223F810200DF10601E068C2
:10C56000FCF78EFE07E0A5F130031F2BE5D9A5F1FE
:10C5700050031F2BE1D903B030BDA368142202FB86
:10C580000030FFF775FEF6E78ADF70478BDF7047F4
:10C590008CDF704730B5037A89B004460D46CBB1C5
:10C5A000837C0193FFF7F2FF1422002103A800F01F
:10C5B00026FE019B04F10A0204F11401A81CFFF7F6
:10C5C000E7FF05238DF80C30049018B1636A0BB1B6
:10C5D00003A8984709B030BD10B5034668B162B1F1
:10C5E00003290CD1007960B91C8811888C4203D0D2
:10C5F0000121197112681A6010BD0E20FCE7072096
:10C60000FAE70420F8E750B1CB060AD011F0040194
:10C6100016BF0123417143718271002070470E20C3
:10C62000704707207047007DC0F3C0007047F8B521
:10C630000D460446002852D042620021082200F034
:10C64000DEFD002D38D02B7923722B7BA3742B6851
:10C65000FBB104F1140203F1080718685968164683
:10C6600003C60833BB423246F7D1186830609B8856
:10C67000B380AA68C2B11368C4F80A305368C4F81A
:10C680000E3004F12803A3641F23A4F84C300020CB
:10C69000F8BD636903F0E30343F4200343F48273BA
:10C6A00063615023A361E4E7062363811823E360F9
:10C6B0004FF4C8732382E4E76369257203F0E30350
:10C6C00043F4200343F4827363615023A361062380
:10C6D00063811823E3604FF4C8732382D1E70E20EF
:10C6E000D6E7000010B5044686B048B314220021F6
:10C6F00001A800F084FDFFF749FF2046FFF793FFF4
:10C7000030B1636A23B101228DF8042001A8984753
:10C7100004F1480104F11400FFF736FF044630F03D
:10C7200008000BD00748084B08491B1ADB081B04FC
:10C7300043F001002246FBF73FF9204606B010BD4A
:10C740000E20FBE714D3020064D30200DCE10200F8
:10C750002DE9F04F06468BB036F8083B1B2B0746F9
:10C760000C4600F094801D2B16D0102B32D11422D1
:10C7700000210DEB020000F042FD06238DF814307D
:10C78000BB88ADF81C3004F114030993636A069664
:10C79000002B40F08F801DE0142200210DEB0200E1
:10C7A00000F02DFD04F1140320460993FFF73BFF31
:10C7B00004F1480A88B102238DF8143005A8636A91
:10C7C0000696984751460020FFF7DEFE3146204688
:10C7D000FFF7E0FE0BB0BDE8F08F94F8058094F809
:10C7E0000690B8F1000F45D094F804B0B98C2246F9
:10C7F00004EB8B03054693420CD1B9F1000F18D01E
:10C80000AB4518D19DF81C3043F004038DF81C3063
:10C81000012313E0386A0191CDE90223FEF7AEFF50
:10C82000DDE90112039B00B30135EDB2B9F1000F50
:10C830001ED1002DE6D14FF0000843460122069696
:10C84000B9F1000F19D09A421DD100238DF8143090
:10C8500031462046FFF79EFE636A0BB105A8984754
:10C8600051460020FFF790FEB4E7B9F1000FC7D1A1
:10C870000432C0E743464246E1E7B8F1000F02D078
:10C880008DF81490E4E703238DF81430E4E71422C4
:10C890000DEB0200002100F0B2FC3A7A012A99D196
:10C8A000636A002B96D0042114348DF81410099477
:10C8B0008DF8182005A898478CE762DF70474B6910
:10C8C00003B1184770472DE9F0470C4686B018228F
:10C8D00005460021684600F092FC2278AABBA38896
:10C8E000012B32D1A1792B7899422ED1207ABDF833
:10C8F0001470BDF81660BDF80EE0BDF810C0BDF8AC
:10C9000012901221234611FB0041904692468B4221
:10C910001ED1BAF1000F01D0ADF81290B8F1000F9E
:10C9200003D0ADF80EE0ADF810C01AB1ADF8147038
:10C93000ADF816602B6943B16288ADF80220002281
:10C940008DF8002069462846984706B0BDE8F08774
:10C95000D889032809D004280ED0022803D1B3F8BF
:10C9600016904FF0010A1233D1E7B3F816E0B3F88E
:10C9700018C04FF00108F6E7DF8A1E8B0122F2E7AC
:10C98000F0B5184B87B002AA04460D4603F1100C0F
:10C99000174618685968164603C608336345324679
:10C9A000F7D1ECB1E5B1AB68D3B121463846FFF71A
:10C9B00084FF98B923788DF806300123ADF8043050
:10C9C0004FF6FF7363802B6823616B686361AB680C
:10C9D000A080A060A36101A8FFF7D2F807B0F0BD66
:10C9E0000E20FBE740E2020010B5034686B0084681
:10C9F000F9B1F3B149884FF6FF72914219D09C8882
:10CA00008C4216D11988112915D0392911D1828863
:10CA10007AB1598991420CD1026952B101218DF844
:10CA2000001003F11001DB890291ADF80C3069466A
:10CA3000904706B010BD0369002BFAD002218DF893
:10CA40000010428069469847F3E7000010B504469D
:10CA50008AB030B342884FF6FF739A4223D0C3881E
:10CA60000BB32022002102A800F0C9FB0123ADF87E
:10CA700004308DF808300D4B6288A069CDE904348C
:10CA8000E388ADF81A304FF40033079301AB0893F5
:10CA900002A940F20113ADF81830FFF771FC0AB09B
:10CAA00010BD0E20FBE70820F9E700BFBFC8020059
:10CAB00070B50E4688B01546044600283CD02022AA
:10CAC0000021684600F09BFBF42D0CD91B4B1C4841
:10CAD0001C49C01AC008000440F00200FAF768FFC1
