:020000022000DC
:1070000000000420757302005D73020055FF02004A
:1070100061730200637302006573020000000000E8
:107020000000000000000000000000006773020084
:1070300069730200000000006B7302006D730200B0
:10704000D1C202006F73020035D102006F730200DB
:107050006F7302006F7302002DD002006F73020085
:107060006F7302006F7302006F7302006F73020090
:107070006F7302006F7302006F7302006F73020080
:107080006F730200819C02006F7302006F73020035
:10709000C19C02006F730200B92D03006F730200E0
:1070A0006F7302006F7302006F7302006F73020050
:1070B0006F7302006F730200000000000000000008
:1070C0006F7302006F7302006F7302006F73020030
:1070D0006F7302006F7302006F7302006F73020020
:1070E0006F7302006F7302006F73020000000000F4
:1070F000000000006F730200000000006F730200C8
:10710000000000000000000000000000000000007F
:10711000000000000000000000000000000000006F
:10712000000000000000000000000000000000005F
:10713000000000000000000000000000000000004F
:10714000000000000000000000000000000000003F
:10715000000000000000000000000000000000002F
:10716000000000000000000000000000000000001F
:10717000000000000000000000000000000000000F
:1071800000000000000000000000000000000000FF
:1071900000000000000000000000000000000000EF
:1071A00000000000000000000000000000000000DF
:1071B00000000000000000000000000000000000CF
:1071C00000000000000000000000000000000000BF
:1071D00000000000000000000000000000000000AF
:1071E000000000000000000000000000000000009F
:1071F000000000000000000000000000000000008F
:10720000354936480A1A02D0072291438D4634493F
:1072100034480A1A06D00722914381F309880222D2
:1072200082F3148830483149314A00F044F831483B
:107230003149324A00F03FF831483249324A00F0D1
:107240003AF832483249334A00F035F83248334987
:10725000334A00F030F833483349344A00F02BF811
:1072600033483449344A00F026F83448344900227F
:1072700000F02CF833483449002200F027F8334856
:107280003349091A082902DB002202604160314AB1
:1072900090471F481F49884205D00268043003B454
:1072A000904703BCF7E700208646EC46002000210B
:1072B000294A9047FEE7884207D0521A05D0037842
:1072C00001300B700131013AF9D17047884202D088
:1072D00002700130FAE770470000042000E003204C
:1072E000000004200000042044570300802C0020EC
:1072F000B82D0020D0730200D07302008634030042
:1073000044570300802C0020802C00206C350300A3
:107310006C3503006C3503006C3503006C350300DD
:107320006C3503006C3503006C35030042570300D5
:107330007C580300B82D0020B82D0020B82D002067
:10734000894E00208C4E00208C4E00208C4E002058
:107350008C6E00209D730200C1FE0200FEE7FEE776
:10736000FEE7FEE7FEE7FEE7FEE7FEE7FEE7FEE7F5
:1073700000F002B8FFF7FCBF0F484FF00701884349
:1073800085460E4880470E48016841F4700101604F
:10739000BFF34F8FBFF36F8FFFF732BF09480A4922
:1073A0000A4A884207D0521A05D0037801300B7080
:1073B0000131013AF9D170470000042009B60200FA
:1073C00088ED00E06C350300802C0020802C00202C
:1073D00000B585B00190019B002B0AD0074B43F00C
:1073E00001030393019B9B010293039B029898471F
:1073F00000E000BF05B05DF804FB00BF803503006E
:1074000000B583B00190019B002B0AD04FF47A7035
:10741000FFF7DEFF019B013B0193019B002BF5D1A0
:1074200000E000BF03B05DF804FB08B508F002FF00
:1074300000BF08BD00B589B0039002910192019B85
:10744000002B33D00023079303230693029A079B54
:107450001344019A1946002008F09CFE0590079AF3
:10746000059B13440793019A059BD31A0193059B2F
:10747000002B13D10F4B1B7883F00103DBB2002BE1
:1074800013D10120FFF7BCFF069B013B0693069B2F
:10749000002B03D1074B00221A7007E0054B012295
:1074A0001A70019B002BD1D100E000BF00BF09B0D2
:1074B0005DF804FBB82D002000B585B00390029163
:1074C000054B00934023054A0299039800F012F8F7
:1074D00000BF05B05DF804FB35740200BC2D002030
:1074E00082B0019000BF02B0704782B0019000BF2F
:1074F00002B0704700B5A1B00590049103920293C9
:10750000049803F0B3FC039B1593029B169300238E
:10751000179300238DF8603000231993229B1A9350
:1075200000231F930FA91F9B0822049803F078FDE6
:1075300008231F93119B1293BDF84030ADF84C30D7
:10754000BDF84230ADF84E3000238DF851309DF833
:107550003C3003F00303DBB2012B26D10F9BC3F3B6
:1075600095231C939DF83C30C3F3C203DBB28DF826
:107570005030BDF83C30C3F38313DBB21B931B9B2D
:107580009A0009A91F9B049803F04AFD1B9B9B00CE
:107590001F9A13441F9312AA09A915AB009313460F
:1075A0001B9A1C9800F09CFF2FE09DF83C3003F0E4
:1075B0000303DBB2022B28D1BDF83E30C3F389139D
:1075C0009BB21E939DF83C30C3F3C203DBB28DF82F
:1075D00050301E9B082B28BF08231D9307A91F9B13
:1075E0001D9A049803F01CFD1F9A1D9B13441F93C2
:1075F0001E9A1D9BD31A1E9315AB12AA07A81D999C
:1076000001F010F81E9B002BE3D1049803F03DFC21
:1076100000BF21B05DF804FB82B00190019BDB68E4
:1076200001225A7100BF02B07047000000B583B05C
:107630004FF0FF330193FFF7F8FE0421084800F0F4
:107640006BFE0190019B002B03DA0649412007F0F5
:1076500055FB0348FFF7E0FF00BF03B05DF804FBF4
:107660005C3503009835030000B583B001900091AC
:10767000019B1B681B6800990198984700BF03B0E5
:107680005DF804FB00B583B00190019B1B685B684B
:107690000198984700BF03B05DF804FB00B583B0C4
:1076A0000190019B1B689B680198984700BF03B03D
:1076B0005DF804FB82B001900B468DF80330019B0E
:1076C000DB689DF803201A7100BF02B0704782B0DA
:1076D0000190019BDB681B79184602B0704782B0AD
:1076E0000190019BDB6801225A7100BF02B0704714
:1076F00082B00190019BDB685B79184602B070474D
:1077000000B585B0019000910C4B00221A700C4816
:1077100003F010FB0390039B002B01D0039B08E0B8
:10772000084803F03DFD084A084BD31ADB080293D2
:107730000023184605B05DF804FB00BF642F00204D
:10774000D8340300F43503005C350300EC34030047
:10775000024A034BD31ADB08184670475C35030016
:10776000EC34030000B587B001900B468DF8033070
:107770009DF80330002B1FD0FFF7EAFF0490002391
:10778000059313E0059B9B000E4A13440393039B50
:107790001B881A46019B1B689A4204D1019B059ADB
:1077A0001A60002309E0059B01330593059A049BA9
:1077B0009A42E7D3052300E00023184607B05DF89E
:1077C00004FB00BF802C002000B585B001900B4663
:1077D0008DF803309DF8032001AB11461846FFF7E2
:1077E000C1FF0346002B07D1019BDB00054A134470
:1077F0000393039B1B6800E00023184605B05DF867
:1078000004FB00BFEC34030084B001900B468DF8FC
:107810000330019BDB00174A134402939DF80330A9
:10782000013B032B1CD801A252F823F03D78020043
:10783000457802004D7802005778020002238DF847
:107840000F3011E004238DF80F300DE0029B1B79FF
:107850008DF80F3008E0029B5B798DF80F3003E064
:1078600000238DF80F3000BF9DF80F30184604B08C
:10787000704700BFEC34030084B0019000910023F6
:107880008DF80F30019B1B7803F00403DBB2002B53
:1078900024D0019B1B78C3F30103DBB2012B02D080
:1078A000022B0CD017E0009B1B68019A1288C2F3D0
:1078B0008312D2B213449A1C009B1A600BE0009B07
:1078C0001B68019A5288C2F3891292B213449A1C1F
:1078D000009B1A6000BF01238DF80F309DF80F3018
:1078E000184604B07047000000B58BB00023ADF817
:1078F00026303E4802F032FD3D4802F02FFD3D4B60
:107900009B6804933C4B1B680693049A069B1340A8
:1079100002339B00374A13440433089304AB1946DF
:107920000898FFF7A9FF0346002B09D0049A069B8D
:10793000134002339B002F4A134404330893EDE7AE
:1079400000BF0023079311E0049B5A1C0492069A7F
:107950001340079A920001A90A44264902339B006A
:107960000B445B681360079B01330793079B012B54
:10797000EAD99DF80430C3F30103DBB2012B10D028
:10798000022B1CD1BDF80A30ADF82630BDF8063008
:10799000C3F389139BB203339A08049B13440493E3
:1079A00013E0BDF80A30ADF82630BDF80430C3F35B
:1079B0008313DBB21A46049B1344049305E00F497A
:1079C0004FF4C27007F09AF900BF094802F0D2FCE8
:1079D0000590059B002B02D0049B064A9360BDF8DE
:1079E000263018460BB05DF804FB00BF7C33002046
:1079F00078330020642F0020882C002004360300F8
:107A000000B585B00021074802F019FC0390039BE4
:107A10000293029B83F310030193019B184605B068
:107A20005DF804FB8033002000B589B0039002911B
:107A300001920093039B1B0C0793FFF7E1FF069055
:107A4000FFF786FE0246079B934204D3214940F28A
:107A5000A91007F053F9069B1904009B5A1C0A9BB6
:107A60001340079A0A431C4902339B000B445A6097
:107A7000009A0A9B134002339B00174A13440433B5
:107A80000593039B03F00703D9B2059A137861F3BA
:107A9000C5031370019B03F00F03D9B2059A138835
:107AA00061F389131380029BC3F31501059A1368D0
:107AB00061F39F231360059A1378012161F3010399
:107AC0001370059A13786FF38203137000BF09B027
:107AD0005DF804FB04360300642F002000B58DB070
:107AE0000390029113468DF80730039B02330A93EB
:107AF00001238DF8273000238DF81B300DF11B0377
:107B0000184602F013FA404B5A68029B1A603F4B2A
:107B10001A683D4B99683C4B5B68CB1A13440133A0
:107B20000B9314E001213A4802F0E8FBFFF7DCFE7A
:107B300007900799364802F0E1FB344B1A68324B44
:107B40009968314B5B68CB1A134401330B930A9A43
:107B50000B9B9A42E6D89DF82730002B48D0002393
:107B600005939DF80730002B17D09DF814300122A3
:107B700062F301038DF814309DF8143043F00403D0
:107B80008DF81430039B03F00F03DAB2BDF8143004
:107B900062F38913ADF8143016E09DF81430022218
:107BA00062F301038DF814309DF8143043F00403A0
:107BB0008DF81430039BC3F309039AB2BDF8163055
:107BC00062F38F13ADF816300F4B5A680F4B1B68DA
:107BD000134002339B000C4A134404330893059A64
:107BE000089B1A60084B5A680A9B1344064A536064
:107BF0009DF81B30184602F0AFF99DF82730184663
:107C00000DB05DF804FB00BF642F0020882C00201D
:107C10008033002000B58BB005900491039202934D
:107C20001F4B1B68079306AB012219460298FFF70A
:107C300055FF0346002B24D0069B023309930023F3
:107C4000089311E0089B9B00039A1A44099B591C56
:107C5000099107990B401268124902339B000B44AB
:107C60005A60089B01330893089A029B9A42E9D311
:107C7000069A079B00931346029A04990598FFF70A
:107C8000D3FE084B1B78002B05D000BF00F03AF95B
:107C90000346002BFAD100BF0BB05DF804FB00BF18
:107CA000882C0020642F002000B583B00190009143
:107CB0000023002200990198FFF7ACFF00BF03B03A
:107CC0005DF804FB00B587B0039002910192019B1F
:107CD000059305AA012302990398FFF79BFF00BFB4
:107CE00007B05DF804FB00B587B0039002910192E4
:107CF0000093019B0493009B059304AA022302991D
:107D00000398FFF787FF00BF07B05DF804FB00B5DD
:107D100089B00390029101920093019B0593009B0F
:107D200006930A9B079305AA032302990398FFF77A
:107D300071FF00BF09B05DF804FB00B589B0039086
:107D4000029101920093019B0493009B05930A9B6F
:107D500006930B9B079304AA042302990398FFF749
:107D600059FF00BF09B05DF804FB00B58BB003906C
:107D7000029101920093019B0593009B06930C9B3B
:107D800007930D9B08930E9B099305AA052302995F
:107D90000398FFF73FFF00BF0BB05DF804FB000046
:107DA00000B58DB0039002911346ADF806304B4BF1
:107DB0001B680B93BDF8063003339B0805A900220E
:107DC0001846FFF78BFE0346002B78D0059B0A93DD
:107DD000059B02330593414B1A6805990B9B0B4099
:107DE000D31A01339B000993BDF80630099A9A42D1
:107DF0000ED3059A0B9B134002339B00384A134461
:107E00000433BDF80620029918460BF08EFA17E0ED
:107E1000059A0B9B134002339B00314A13440433F1
:107E2000099A029918460BF080FA029A099BD11818
:107E3000BDF80620099BD31A1A462A480BF075FA9A
:107E4000039B1B0C0893FFF7DBFD0790079B1904AE
:107E50000A9B5A1C0B9B1340089A0A432049023381
:107E60009B000B445A600A9A0B9B134002339B0001
:107E70001B4A134404330693039B03F00703D9B250
:107E8000069A137861F3C5031370069A13886FF38B
:107E90008F131380BDF80630C3F3090399B2069A15
:107EA000538861F38F135380069A1378022161F38C
:107EB00001031370069A13786FF382031370084B53
:107EC0001B78002B05D000BF00F01CF80346002BE8
:107ED000FAD100BF0DB05DF804FB00BF882C002074
:107EE000642F0020702F0020054B9A68044B5B68BC
:107EF0009A420CBF01230023DBB21846704700BF33
:107F0000642F002000B599B0FFF7EEFF0346002B69
:107F100001D00023C0E19B4B0022C3F81824BFF31B
:107F20004F8F00BF974B9B680493974B1B68109330
:107F3000049A109B134002339B00924A134404336B
:107F40001193002317930023169300230F9304AB80
:107F500019461198FFF790FC0346002B19D0894B66
:107F6000D3F81834002B14D1864B5A68049B9A42DC
:107F700005D8844B5B68834A936000238CE1049AA4
:107F8000109B134002339B007E4A13440433119329
:107F9000DDE70023159311E0049B5A1C0492109A0C
:107FA0001340159A920001A90A44764902339B00B6
:107FB0000B445B681360159B01331593159B012BD4
:107FC000EAD99DF8043003F00303DBB2022B40F042
:107FD0009C80BDF80630C3F389139BB20D93BDF8A6
:107FE0000630C3F389139BB2502B28BF50239BB29A
:107FF0000C930C9BC3F309039AB2BDF8063062F3ED
:108000008F13ADF806300C9B08330B939DF80430AA
:10801000C3F3C203DBB20F930B995C4802F095FEE9
:108020001790179B002B00F0D380179802F01EFFCB
:1080300001A9169B0822179802F0D4FF169B08335B
:108040001693049BDA43109B134001339B000A9361
:108050000C9A0A9B9A4242D90A9B002B08D0049A98
:10806000109B134002339B00464A1344043300E044
:10807000474B08930A9B002B02D00A9BDBB201E01E
:108080000C9BDBB28DF81F300A9B002B01D0404BBC
:1080900000E0002306930A9B002B06D00C9BDAB26B
:1080A0000A9BDBB2D31ADBB200E000238DF8173055
:1080B0009DF81F20169B0899179802F093FF9DF8D2
:1080C0001F30169A13441693069B002B16D09DF86A
:1080D0001720169B0699179802F084FF0EE0049A69
:1080E000109B134002339B00264A13440433099328
:1080F000169B0C9A0999179802F074FF0D9B033395
:108100009A08049B1344049362E09DF8043003F042
:108110000303DBB2012B5BD1BDF80430C3F383133F
:10812000DBB2062B28BF0623DAB2BDF8043062F3B7
:108130008913ADF80430BDF80430C3F38313DBB208
:1081400002330E939DF80430C3F3C203DBB20F93E6
:108150000E9B9B0019460D4802F0F7FD1790179BE8
:10816000002B35D0179802F081FE01A9169B08223A
:10817000179802F037FF169B0833169300231593C8
:108180001DE000BF642F0020882C0020D83403009D
:10819000702F0020049B5A1C0492109A1340023343
:1081A0009B003F4A1344191D169B0422179802F0A6
:1081B00019FF169B04331693159B01331593BDF8D5
:1081C0000430C3F38313DBB21A46159B9342E1D309
:1081D000179B002B40D0324BD3F810341493304B04
:1081E000D3F81834002B1BD0179802F04EFE4DE048
:1081F00000238DF84F301498FFF77AFA0346002BCE
:1082000002D001238DF84F309DF84F30002B03D062
:1082100017991498FFF728FA149BDB681B681493CE
:10822000149B002BE4D1179802F02FFE00238DF849
:1082300003300DF10303184601F078FE184BD3F814
:108240001834002B02D1049B154A93609DF803302B
:10825000184601F081FE19E0114BD3F81034129347
:1082600006E01298FFF71AFA129BDB681B6812935C
:10827000129B002BF5D10B4A0B4BD31ADB081B04C6
:1082800043F0020309491846FFF70EFDFFF72CFEE5
:10829000034683F00103DBB2184619B05DF804FB16
:1082A000642F002014350300EC340300583603001B
:1082B00000B585B00023039323E0164BD3F81034A8
:1082C000029301238DF807300FE00298FFF7FFF9C2
:1082D00003461A46039B934203D100238DF80730CF
:1082E00006E0029BDB681B680293029B002BECD12B
:1082F0009DF80730002B01D0039B07E0039B01335F
:108300000393039B092BD8DD4FF0FF33184605B0CC
:108310005DF804FB642F002000B585B001900B468A
:108320008DF80330FFF7C4FF0390039BB3F1FF3FC9
:1083300001D1039B22E0039BDBB219460198FFF7B2
:10834000B9F9104BD3F81034002B08D10D4A019B1A
:10835000C2F81034019BDB6800221A600DE0094B63
:10836000D3F81034DA68019BDB6812681A60054B99
:10837000D3F81034DB68019A1A60039B184605B0E5
:108380005DF804FB642F002000B583B00C4BD3F8DC
:10839000103401930A4B01221A7009E00198FFF78B
:1083A0009EF90198FFF76EF9019BDB681B6801934A
:1083B000019B002BF2D100BF00BF03B05DF804FBAE
:1083C000642F002082B00190009100BF02B070477E
:1083D00010B584B003900291039BDB88002B0AD078
:1083E000039BDB881A461F4B009313461E4A1F4906
:1083F000029802F0FBF8039B1B7A052B2ED0039BFF
:108400005B7A002B12D0039B9B881A46039B1B7A36
:1084100019461046FFF7F8F903461A46144B53F86D
:1084200022301A461349029802F0E0F8039B1B68B9
:1084300019460298FFF7C6FF039B1B7A1A460E4B9C
:1084400053F82240039B9B8800211846FFF7BCF994
:10845000034622460949029802F0C8F800BF04B05A
:1084600010BD00BF8C3603009C360300D4360300D9
:10847000A02C0020EC3603008C2C0020F0360300EA
:1084800000B585B00390029113468DF80730039B29
:108490001B7A052B0FD0039B5B7A002B06D00D4B6C
:1084A0001B681A460C49029802F0A0F80B49029882
:1084B00002F09CF807E09DF80730002B03D0074935
:1084C000029802F093F8029802F06EF800BF05B02F
:1084D0005DF804FBA02C0020EC360300FC36030002
:1084E00030B58BB007900691059204930E9B1B7BD1
:1084F0008DF827300E9B00221A730E990498FFF70F
:1085000067FF059B062B7FD801A252F823F000BF1E
:108510002D85020037850200478502005B85020039
:1085200079850200A1850200D185020007990E9885
:1085300002F05CF869E0069B1B681A4607990E98E2
:1085400002F054F861E0069B1A68069B04331B682E
:1085500007990E9802F04AF857E0069B1A68069BA6
:1085600004331968069B08331B6800930B46079970
:108570000E9802F03BF848E0069B1968069B04330E
:108580001868069B08331B68069A0C321268019221
:10859000009303460A4607990E9802F027F834E044
:1085A000069B1868069B04331C68069B08331B68EF
:1085B000069A0C32126806991031096802910192EC
:1085C00000932346024607990E9802F00FF81CE02C
:1085D000069B1C68069B04331D68069B08331B68BA
:1085E000069A0C3212680699103109680698143000
:1085F000006803900291019200932B46224607994E
:108600000E9801F0F3FF00E000BF00220E990498DD
:10861000FFF736FF0E9B9DF827201A7300BF0BB0A3
:1086200030BD00BF00B587B0039002910192009366
:10863000029B082B60D8009B1B7B8DF81330009B9E
:1086400000221A7300990198FFF7C2FE00230593D8
:1086500014E0059A029B9A4209D2039A059B13449F
:108660001B781A462649009801F0C0FF03E025490F
:10867000009801F0BBFF059B01330593059B072B79
:10868000E7D92149009801F0B1FF0023059326E0C6
:10869000059A029B9A421BD2039A059B13441B78AE
:1086A0008DF812309DF812307E2B0AD89DF81230CA
:1086B00018460AF035FE0346002B02D09DF8123012
:1086C00000E02E231A461149009801F08FFF03E0C5
:1086D0000F49009801F08AFF059B01330593059B24
:1086E000072BD5D9012200990198FFF7C9FE009BFD
:1086F0009DF813201A7300E000BF07B05DF804FB7B
:1087000000370300083703000C370300103703005D
:108710001437030084B003468DF807309DF8073006
:108720005B08DBB21A460D4B9B5C8DF80F309DF851
:10873000073003F00103002B04D09DF80F301B0914
:10874000DBB204E09DF80F3003F00F03DBB28DF8CD
:108750000E309DF80E30184604B07047B833002034
:1087600084B003460A468DF8073013468DF806306C
:108770009DF8073003F00103002B01D00F2300E028
:10878000F0238DF80F309DF8073003F00103002B24
:1087900004D09DF806301B01DBB201E09DF80630E5
:1087A0008DF80E309DF807305B08DBB21A46114B8E
:1087B0009A5C9DF807305B08DBB219469DF80F30D4
:1087C0001340DAB20B4B5A549DF807305B08DBB20A
:1087D0001A46084B9A5C9DF807305B08DBB21946D5
:1087E0009DF80E301343DAB2024B5A5400BF04B066
:1087F000704700BFB833002000B585B003468DF840
:1088000007300023039310E00F4B1A68039BDB0033
:1088100013440293029B1B789DF807209A4201D1D2
:10882000029B0DE0039B01330393084B1B781A4610
:10883000039B9342E8DB0649882006F05FFA002399
:10884000184605B05DF804FB84330020883300200F
:108850002437030000B585B003460A468DF807307B
:1088600013468DF806309DF807301846FFF7C4FF11
:108870000390039B002B0BD0039B5B68002B07D05E
:10888000039B5B689DF806109DF8072010469847EB
:1088900000BF05B05DF804FB2DE9F04F87B003463B
:1088A0000A468DF80F3013468DF80E309DF80F30C4
:1088B0001846FFF72FFF0346042B00F2C28001A2E7
:1088C00052F823F0D98802004D890200698902001C
:1088D00099890200AF8902009DF80E30002B00F04C
:1088E000AD809DF80F3001211846FFF739FF0023B6
:1088F0008DF817300DF11703184601F017FB9DF89E
:108900000F104FF001024FF00003A1F12004C1F15C
:10891000200003FA01F702FA04F4274322FA00F0D8
:10892000074302FA01F6494BD3E9002346EA020164
:1089300000913B430193454BDDE90012C3E900126E
:108940009DF81730184601F007FB77E09DF80E30D0
:10895000002B01D0022200E000229DF80F301146CA
:108960001846FFF7FDFE6CE09DF80E30002B0CD092
:108970009DF80F3003211846FFF7F2FE9DF80F30E7
:1089800001211846FFF766FF5BE09DF80F300121DB
:108990001846FFF7E5FE54E09DF80E30002B4FD14E
:1089A0009DF80F3004211846FFF7DAFE48E09DF8E5
:1089B0000E30002B06D09DF80F3003211846FFF72C
:1089C000CFFE3EE09DF80F3000211846FFF7C8FEAD
:1089D0009DF80F3000211846FFF73CFF00238DF86B
:1089E00016300DF11603184601F0A0FA9DF80F108D
:1089F0004FF001024FF00003A1F12006C1F1200069
:108A000003FA01F502FA06F6354322FA00F00543AF
:108A100002FA01F46FEA04086FEA05090B4BD3E987
:108A2000002308EA020A09EA030B084BC3E900AB7A
:108A30009DF81630184601F08FFA02E000BF00E002
:108A400000BF00BF07B0BDE8F08F00BFB03300200B
:108A500000B583B00648074B1B685B080022194627
:108A600001F098F9019000BF03B05DF804FB00BF6E
:108A7000903300208C33002000B587B00190002394
:108A8000059328E01C4B1A68059BDB0013440493F4
:108A9000049B1B78184604F019FA03468DF80F3032
:108AA000049B5B78012B0CBF01230023DBB21A4629
:108AB0009DF80F309A420CBF012300238DF80E3031
:108AC000049B1B789DF80E2011461846FFF7E4FE24
:108AD000059B01330593094B1B781A46059B93426E
:108AE000D0DB074BD3E90023134301D0FFF7B0FFDE
:108AF00000BF07B05DF804FB8433002088330020FA
:108B0000B033002000B585B001900B468DF80330DE
:108B1000019BDBB21846FFF76FFE0390039B1B78A7
:108B2000184604F0D3F903468DF80B30039B5B78AD
:108B3000012B0CBF01230023DBB21A469DF80B303A
:108B40009A420CBF012300238DF80A309DF80A30A9
:108B5000002B06D0054BD3E90023134301D1FFF7C7
:108B600077FF00BF05B05DF804FB00BFB033002005
:108B700000B58BB003900B4601928DF80B30019B32
:108B8000092B01D8072367E004F054F8034683F06B
:108B90000103DBB2002B09D003F0E8FF0990099B29
:108BA0000893089B002B01D0089B55E02C4A039B9F
:108BB00013602C4A9DF80B3013702B4A019B1360F5
:108BC0002022002129480AF0D9FB29494FF0000250
:108BD0004FF00003C1E9002331E09DF80B30DB00CA
:108BE000039A1344079303238DF8143000238DF860
:108BF00015309DF816306FF300038DF816309DF890
:108C000016306FF341038DF816309DF816306FF370
:108C100082038DF81630079B9B788DF81530079BE3
:108C20001B78184605AB134A194604F00FF8099053
:108C3000099B0693069B002B01D0069B0CE09DF838
:108C40000B305A1E8DF80B20002BC6D10A4A00218A
:108C50000A4801F06FF8034618460BB05DF804FBB4
:108C600084330020883300208C330020B833002068
:108C7000B0330020058B0200798A020074370300AC
:108C800000B583B0114B1B68002B04D1104940F292
:108C9000351006F033F8002301930CE00B4B1A68F3
:108CA000019BDB0013441B780121184604F04AF8AD
:108CB000019B01330193074B1B781A46019B93429A
:108CC000ECD30023184603B05DF804FB8433002086
:108CD000243703008833002000B583B01D4B1B6888
:108CE000002B04D11C4940F2431006F007F8002382
:108CF00001930BE0174B1A68019BDB0013441B78B0
:108D0000184604F0A3F8019B01330193134B1B7821
:108D10001A46019B9342EDD300238DF803300DF1E9
:108D20000303184601F002F90D494FF000024FF01D
:108D30000003C1E900239DF80330184601F00CF947
:108D4000084B184601F05CF80346184603B05DF87E
:108D500004FB00BF84330020243703008833002045
:108D6000B03300209033002086B00390029101922E
:108D700001238DF817309DF81730204A039B1360AC
:108D80001E4A029B53601D4A019B9360039B44F261
:108D90000102934212D0039B44F20202934220D17B
:108DA000019B164AD360154BDB681B68134A93611D
:108DB000124BDB685B68114AD36112E0019B0F4ADA
:108DC00013610E4B1B699B680C4A53610B4B1B696B
:108DD0001B680A4A9361094B1B695B68074AD361A8
:108DE00000BF72B600BF00BF9DF81730DBB2002B8A
:108DF000FAD162B600BF00BF06B07047D83300207A
:108E000000B583B002900091019244F201007146D6
:108E10006A4600F003F803B000BD00BF30B58BB068
:108E200007900691059272B600BFFFF7ADFA00BF3A
:108E3000FFF768F80346002BFAD1079B44F20202C1
:108E400093422FD0079B44F20202934269D8079BBA
:108E500044F20102934237D0079B44F2010293424D
:108E60005FD8079B012B05D0079B41F2010293427B
:108E70000CD056E0394A3A4BD31ADB081B0443F0B6
:108E8000010338491846FEF70FFF57E0334A344BC9
:108E9000D31ADB081B0443F0010333491846FEF7DD
:108EA00003FF4BE0059B09932C4A2D4BD31ADB089B
:108EB0001B0443F00100099B5B681A46099B1B6871
:108EC0002A49FEF710FF39E0059B0893234A244BFB
:108ED000D31ADB081B0443F00104089B9D68089B20
:108EE0009B68184602F0D6F903461846089B5B6853
:108EF0001946089B1B68069A02920193009103464B
:108F00002A461B492046FEF730FF144A144BD31A59
:108F1000DB081B0443F0010316491846FEF7C4FEA4
:108F20000CE00E4A0E4BD31ADB081B0443F001037E
:108F3000069A11491846FEF7C5FE00BF0F4B1B6885
:108F400003F00103002B00D000BE059A0699079894
:108F5000FFF70AFF00BF0BB030BD00BF14350300A0
:108F6000EC3403007837030098370300BC37030064
:108F7000D83703000038030014380300F0ED00E098
:108F800082B00190019B03F00303002B0CBF01236F
:108F90000023DBB2184602B07047000082B00346DF
:108FA0008DF807309DF807309AB2064B1B889A421D
:108FB00004D29DF807300133DBB200E000231846ED
:108FC00002B070470434002000B583B00B4B1B780F
:108FD0008DF807300A4B1B78DBB21846FFF7DEFF2F
:108FE00003461A469DF8073093420CBF0123002325
:108FF000DBB2184603B05DF804FB00BF003400206C
:109000000134002082B0084B1B788DF80730074BE5
:109010001B78DBB29DF807209A420CBF0123002386
:10902000DBB2184602B07047003400200134002043
:1090300000B585B003460092ADF806300B46ADF89A
:109040000430BDF8043001339BB2DB00ADF80E30C4
:109050000098FFF795FF034683F00103DBB2002B76
:1090600001D0072317E00E4A009B1360BDF80E30B5
:10907000009A13440B4A13600B4B00221A700B4BDF
:1090800000221A700A4ABDF806301380094ABDF85A
:10909000043013800023184605B05DF804FB00BFC0
:1090A000F8330020FC33002001340020003400207D
:1090B000023400200434002000B587B003900B4632
:1090C0000192ADF80A30374B1B88BDF80A209A424E
:1090D00060D84FF6FF73ADF8123000238DF81130D1
:1090E0000DF11103184600F021FFFFF76DFF034655
:1090F000002B0ED12C4B1B78DBB2ADF812302A4B73
:109100001B78DBB21846FFF749FF03461A46264B89
:109110001A709DF81130184600F01EFFBDF812308D
:109120004FF6FF72934232D0204B1A68BDF81230CE
:10913000DB001344019A1A60039B002B1CD0BDF87E
:109140000A30002B18D01A4B1B68BDF812201549A5
:10915000098801FB02F21344BDF80A20039918465E
:109160000AF0E3F8114B1A68BDF81230DB00134423
:10917000BDF80A209A8007E00C4B1A68BDF812303F
:10918000DB00134400229A800023059304E00423AB
:10919000059301E009230593059B184607B05DF888
:1091A00004FB00BF0234002001340020F83300200B
:1091B000FC330020002318467047000000B585B03E
:1091C0002FE0204B1B78DBB2ADF80E301E4B1B6836
:1091D000BDF80E201D49098801FB02F213440293D9
:1091E0001B4B1A68BDF80E30DB0013449B88ADF8AA
:1091F0000630174B1A68BDF80E30DB0013441B68AD
:109200000093BDF80620009B1146029898470D4B2D
:109210001B78DBB21846FFF7C1FE03461A46094B1E
:109220001A70FFF7C7FF034683F00103DBB2002B80
:1092300004D0FFF7E7FE0346002BC2D000BF05B005
:109240005DF804FB00340020FC33002002340020D1
:10925000F833002082B003468DF807309DF90730BF
:10926000002B0CDB9DF8073003F01F0205499DF928
:1092700007305B09012000FA02F241F8232000BF09
:1092800002B0704700E100E082B003468DF807307D
:109290009DF90730002B13DB9DF8073003F01F0208
:1092A00009499DF907305B09012000FA02F22033D9
:1092B00041F82320BFF34F8F00BFBFF36F8F00BF74
:1092C00000BF02B0704700BF00E100E082B003467B
:1092D0008DF807309DF90730002B0DDB9DF8073026
:1092E00003F01F0206499DF907305B09012000FACF
:1092F00002F2403341F8232000BF02B0704700BFA4
:1093000000E100E082B003468DF807309DF9073098
:10931000002B0DDB9DF8073003F01F0206499DF975
:1093200007305B09012000FA02F2603341F8232084
:1093300000BF02B0704700BF00E100E082B003460A
:1093400000918DF807309DF90730002B0ADB009B58
:10935000DAB20C499DF907305201D2B20B4483F8BE
:1093600000230BE0009BDAB207499DF8073003F0B9
:109370000F03043B5201D2B20B441A7600BF02B075
:10938000704700BF00E100E000ED00E000B585B0EF
:109390000190019B002B0AD0074B43F0010303937C
:1093A000019B9B010293039B0298984700E000BF3A
:1093B00005B05DF804FB00BF3038030000B583B092
:1093C0000190064A019BC2F8083506211120FFF7DB
:1093D000B5FF00BF03B05DF804FB00BF0010014003
:1093E00008B50D4B4FF48032C3F844230A4B4FF4B9
:1093F0008032C3F804231120FFF784FF1120FFF708
:1094000029FF054B01221A602F20FFF7BFFF034BF6
:1094100001221A7000BF08BD00100140263500204F
:1094200008B51120FFF730FF0E4B4FF48032C3F820
:1094300048230C4B4FF48032C3F80823094B012218
:109440005A602F20FFF7A2FF064B01229A60064BBD
:1094500000221A602F20FFF799FF044B00221A7098
:1094600000BF08BD0010014018350020263500203F
:10947000024BD3F804351846704700BF0010014076
:1094800082B001900091019A009BD31A23F07F4390
:10949000184602B07047000082B00190034A019B59
:1094A000C2F8403500BF02B0704700BF0010014055
:1094B00086B00190284B1B68002B03D1264A019BE4
:1094C000136045E0019B1A68234B1B681B689A4296
:1094D00010D8214B1B681968019B1A681E4B1B682A
:1094E0008A1A1A601C4B1A68019BDA611A4A019B9E
:1094F00013602DE0019B1B680393174B1B680593BA
:10950000154B1B68049309E0049B1B68039AD31A4C
:109510000393049B0593049BDB690493049B002B3A
:1095200004D0049B1B68039A9A42EDD8049B002B3D
:1095300005D0049B1A68039BD21A049B1A60019BF6
:10954000039A1A60019B049ADA61059B019ADA6119
:1095500000BF06B0704700BF1435002000B587B0CB
:1095600001902A4B1B680393284B1B680593059BAE
:10957000049308E0049A019B9A4208D0049B059347
:10958000049BDB690493049B002BF3D100E000BF34
:10959000049B002B01D1002333E0059A049B9A42DF
:1095A00014D11A4B1B68DB69184A1360174B1B68F0
:1095B000002B0BD1164B01229A60164B00221A6029
:1095C000154B01221A702F20FFF7E0FE049B1B6849
:1095D0000293049BDA69059BDA61059BDB690493BE
:1095E000049B002B05D0049B1A68029B1A44049B21
:1095F0001A60064B1B68039A9A4214BF012300238A
:10960000DBB2184607B05DF804FB00BF143500203C
:1096100000100140183500202735002008B5112022
:10962000FFF754FE00BF08BD08B51420FFF74EFE3B
:1096300000BF08BD00B583B00190019B5B69019A32
:1096400092691046984700BF03B05DF804FB000024
:1096500000B585B02B4B1B68002B4ED00023019327
:10966000FFF706FF0246284B1B6819461046FFF716
:1096700007FF0290234B1B6803931DE0039B1B68AD
:10968000029A9A421CD3039B1B68029AD31A029334
:10969000039B1B68019A13440193039B0093039B54
:1096A000DB690393009B1B7C002B05D0009B0022F1
:1096B0001A740098FFF7BEFF039B002BDED100E079
:1096C00000BF124B1A78124B1B789A420CD1104BE8
:1096D0001B780133DAB20E4B1A700D4B1B78022B3C
:1096E00002D10B4B00221A70094B1B781946094A0C
:1096F000019B42F82130FFF797FF00BF05B05DF8EE
:1097000004FB00BF1435002018350020243500204C
:10971000253500201C35002082B00190184B1A78A6
:10972000184B1B789A4223D0154B1B780133DAB2C1
:10973000134B1A70124B1B78022B02D1104B0022D4
:109740001A700F4B1B781A460F4B53F82220019BBF
:109750001A60019B1A680D4B1B6813440B4A136077
:109760000A4B1B6823F07F43084A1360012303E080
:10977000019B00221A600023184602B0704700BF08
:1097800024350020253500201C3500201835002008
:1097900088B00390029101920023079338E0204B98
:1097A0001B680693069B1B68039A9A4206D2069B87
:1097B0001A68039BD21A069B1A602EE0069B1B6850
:1097C000039AD31A0393069B1B68079A13440793C3
:1097D000069B00221A60124B1B680593069BDB69EF
:1097E0000F4A1360069BDB68002B11D0029A079B7F
:1097F000134423F07F42069B5A60069BDA68069B5F
:109800009A60019B1A68069BDA61019B059A1A60AF
:10981000034B1B68002BC2D100BF00BF08B07047CC
:109820001435002000B589B0019000238DF81F3059
:10983000664B1B680593AAE0019B002B05D0019B9A
:109840000693069BDB69019361E0614B1B781A4626
:1098500013465B001344DB005D4A13440433049356
:109860005B4B1B780133DAB2594B1A70584B1A789C
:10987000574B9B789A4202D1554B00221A70049B99
:109880005B680693049B1B78032B1ED0032B7EDCA6
:10989000012B1FD0022B7AD1049B5B681846FFF77F
:1098A0005DFE0346002B02D001238DF81F30069B7E
:1098B00000221A746BE0454B1B680393039B002244
:1098C0001A74039BDB69414A1360404B1B68002BF1
:1098D000F1D15CE000BF069B1B7C002B00D056E062
:1098E000049B9A68069B5A60049BDA68069B9A6000
:1098F000049B1A69069BDA60049B5A69069B9A616D
:10990000344B1B78002B02D0069B00225A60069B2A
:109910005A68314B1B68D31A23F07F432F4A934276
:109920000ED8069B5B682C4A126811461846FFF752
:10993000A7FD0246069B9B681A44069B1A6017E027
:10994000254B1A68069B5B6819461046FFF798FD81
:109950000290069B9B68029A9A4206D2069B9A68DE
:10996000029BD21A069B1A6002E0069B00221A6034
:10997000069B00225A60069B00229A60069B0122E9
:109980001A74069B0022DA610698FFF791FD019B8D
:10999000002B7FF451AF0E4B1A780D4B5B789A4237
:1099A0007FF44AAF9DF81F30002B04D1074B1B6892
:1099B000059A9A4201D0012300E0002303F001033D
:1099C000DBB2184609B05DF804FB00BF1435002077
:1099D000083400202735002018350020FEFF7F00C6
:1099E00010B588B00190274B1B68002B44D0254B45
:1099F0001B681B680793FFF73BFD0690224B1B6813
:109A0000059305990698FFF73BFD0346033304933E
:109A10001E4B1B7883F00103DBB2002B01D0FFF754
:109A2000DFFC049A079B934238BF1346059A134400
:109A30000593059B23F07F4305930598FFF72CFDC5
:109A4000FFF716FD039006990398FFF719FD0346EB
:109A5000DC1C06990598FFF713FD03469C420DD9BF
:109A6000FFF706FD03461846FFF716FD2F20FFF708
:109A70008DFCFFF7D3FD01E0FFF7D2FC00BF08B07B
:109A800010BD00BF143500201835002026350020F9
:109A900000B587B00023019300238DF81730194BD0
:109AA0001B680493184B1B6803936B461846FFF71B
:109AB00033FE03468DF80B309DF80B30002B08D099
:109AC000009B01AA04991846FFF762FE01238DF856
:109AD0001730019B1846FFF7A5FE0346002B02D066
:109AE00001238DF817309DF81730002B02D0039812
:109AF000FFF776FF054B00221A7000BF07B05DF834
:109B000004FB00BF18350020143500202735002045
:109B100082B003468DF80730034A9DF80730537032
:109B200000BF02B0704700BF0834002084B001902D
:109B3000144B5B7801338DF80F30124B9B789DF8F6
:109B40000F209A4202D100238DF80F300D4B1B7865
:109B50009DF80F209A4201D100230FE0019B9DF850
:109B60000F201A70074B5B781A4613465B001344AC
:109B7000DB00044A134404330293029B184604B0EA
:109B8000704700BF0834002000B589B003900291EF
:109B9000019200930023079300238DF816300DF1F6
:109BA0001603184600F0C2F90DF117031846FFF727
:109BB000BDFF0690069B002B02D10423079318E0FB
:109BC000069B01221A70069B039A5A60FFF750FC0D
:109BD0000246069B9A60069B029ADA60069B019AEF
:109BE0001A61069B009A5A619DF817301846FFF7D4
:109BF0008FFF9DF81630184600F0AEF9079B002B3A
:109C000001D1FFF711FD079B184609B05DF804FB71
:109C100000B587B001900B468DF803300023059303
:109C200000238DF80E300DF10E03184600F07EF97A
:109C30000DF10F031846FFF779FF0490049B002BEA
:109C400002D1042305930BE0049B9DF803201A70B6
:109C5000049B019A5A609DF80F301846FFF758FF91
:109C60009DF80E30184600F077F9059B002B01D1C6
:109C7000FFF7DAFC059B184607B05DF804FB00000F
:109C800008B50E4B0022C3F840210C4B0022C3F84C
:109C900044210A4B0022C3F84821084B0022C3F894
:109CA0004C21064B0022C3F80021044B0022C3F8CC
:109CB0000421FFF7CDFC00BF08BD00BF001001402C
:109CC00008B5FFF7E5FE00BF08BD000008B5FFF7C7
:109CD000A7FB134B00221A70114B00225A70104B35
:109CE0000B229A700F4B00221A600F4B00221A7041
:109CF0000E4B00221A701420FFF704FB06211420DB
:109D0000FFF71CFB1420FFF7A5FA0020FFF756FB16
:109D1000FFF7AEFB0346064A13600023184608BD52
:109D2000083400201435002024350020253500207B
:109D30001835002086B003900B4601928DF80B3049
:109D4000134B9B78002B01D108231EE0019B002BB5
:109D500001D1072319E0039B002B01D1072314E055
:109D6000039B1B681B7C002B01D008230DE0039B89
:109D70001B680593059B00221A74059B9DF80B2018
:109D80005A74059B019A5A610023184606B0704721
:109D90000834002000B587B0039002910192039B24
:109DA0000593164B9B78002B01D1082322E0039BDF
:109DB000002B01D108231DE0029B042B03D9029B39
:109DC000B3F1807F01D3072314E0059B5B69002B6F
:109DD00001D108230EE0059B5B7C012B01D1029B86
:109DE00000E000230493019B049A02990598FFF771
:109DF000CBFE0346184607B05DF804FB083400208C
:109E000000B585B00190019B03930D4B9B78002B0F
:109E100001D1082310E0019B002B03D0039B5B6959
:109E2000002B01D1082307E0039B00221A740221B2
:109E30000398FFF7EDFE0346184605B05DF804FBF6
:109E40000834002082B0EFF310830093009B01934D
:109E500072B600BF019B184602B0704762B600BFE1
:109E600000BF704700B585B00190FFF7EBFF03908E
:109E7000164B9B68002B1BD1144B01229A60144B8C
:109E8000D3F88020134B1340104A1360104B114A33
:109E9000C3F880200E4BD3F884300C4A53600C4B2F
:109EA0004FF0FF32C3F88420019B00221A7002E0B9
:109EB000019B01221A70039B002B01D1FFF7CEFFFB
:109EC0000023184605B05DF804FB00BF28350020CC
:109ED00000E100E0FC06FFBD00B585B003468DF84B
:109EE0000730104B9B68002B16D09DF80730002BD5
:109EF00012D1FFF7A7FF03900B4A0A4B1B681360B0
:109F0000094A084B5B685360064B00229A60039B2A
:109F1000002B01D1FFF7A2FF0023184605B05DF822
:109F200004FB00BF2835002000E100E000B583B04D
:109F3000019000F02BF80346012B03D00549432084
:109F400004F0DCFE0198FFF78DFF00BF03B05DF861
:109F500004FB00BF3838030000B583B003468DF81A
:109F6000073000F013F80346012B03D006495120B7
:109F700004F0C4FE9DF807301846FFF7ADFF00BFA0
:109F800003B05DF804FB00BF3838030084B0EFF382
:109F900005830193019BC3F308030393039B002BE9
:109FA0000DD1EFF314830093009B0293029B03F007
:109FB0000103002B0CBF01230023DBB200E00123CF
:109FC000184604B070470000BFF34F8F00BF064B28
:109FD000DB6803F4E0620449044B1343CB60BFF336
:109FE0004F8F00BF00BFFDE700ED00E00400FA0561
:109FF00000B583B00190FFF7E7FF000010B588B00F
:10A000000390FEF7C1F900BFFDF77CFF0346002B6C
:10A01000FAD1039B0693584B9B6A0593069B002B32
:10A0200035D0564A564BD31ADB081B0443F00100C7
:10A03000069B9B691A465349FDF744FE4F4A504B15
:10A04000D31ADB081B0443F00100069B1968069B2A
:10A050005C68069B9B68069AD2680192009323462F
:10A060000A464949FDF769FE444A454BD31ADB08C5
:10A070001B0443F00100069B1A69069B5969069B65
:10A08000DB6900930B464149FDF741FE0AE03B4A7C
:10A090003B4BD31ADB081B0443F001033C49184631
:10A0A000FDF702FE344BDB6A03F00203002B0AD0FB
:10A0B000324A334BD31ADB081B0443F00103354902
:10A0C0001846FDF7F1FD0023079320E00122079BCE
:10A0D00002FA03F31A46059B1340002B14D02E4AB4
:10A0E000079B52F82330002B0ED0244A244BD31A5E
:10A0F000DB081B0443F00100274A079B52F823307A
:10A100001A462649FDF7DEFD079B01330793079B9F
:10A11000192BDBD9059B03F08003002B0CD0174AC9
:10A12000174BD31ADB081B0443F00103124A526B8E
:10A130001B491846FDF7C6FD059B03F40043002BA1
:10A140000CD00E4A0E4BD31ADB081B0443F001035C
:10A15000094A926B13491846FDF7B4FD124B1B6870
:10A1600003F00103002B00D000BE0398FFF740FF6F
:10A1700000BF08B010BD00BF00ED00E02C350300AB
:10A18000EC34030098380300B0380300E8380300CB
:10A190001039030044390300C42C0020883903001F
:10A1A00094390300B4390300F0ED00E000B585B048
:10A1B00001900091009B5B099B00019A1A44009B4F
:10A1C00003F01F03012101FA03F31946104600F0C2
:10A1D0004DF8039000BF05B05DF804FB00B585B0F5
:10A1E00001900091009B5B099B00019A1A44009B1F
:10A1F00003F01F03012101FA03F3DB431946104664
:10A2000000F064F8039000BF05B05DF804FB82B075
:10A2100001900091009B5B099B00019A13441A680E
:10A22000009B03F01F0322FA03F303F00103002B4A
:10A2300014BF01230023DBB2184602B0704710B4EC
:10A2400087B001900091019B009A53E8004F10469F
:10A2500043E8000191F0000FF7D1059404900391B9
:10A26000059B184607B05DF8044B704710B487B0E3
:10A2700001900091019B009A53E8004F44EA0200CC
:10A2800043E8000191F0000FF6D10594049003918A
:10A29000049B184607B05DF8044B704710B487B0B4
:10A2A00001900091019B009A53E8004F04EA0200DC
:10A2B00043E8000191F0000FF6D10594049003915A
:10A2C000059B184607B05DF8044B704710B487B083
:10A2D00001900091019B009A53E8004F04EA0200AC
:10A2E00043E8000191F0000FF6D10594049003912A
:10A2F000049B184607B05DF8044B704710B487B054
:10A3000001900091019B009A53E8004F04EB02007A
:10A3100043E8000191F0000FF6D1059404900391F9
:10A32000049B184607B05DF8044B704710B487B023
:10A3300001900091019B009A53E8004FA4EB0200AA
:10A3400043E8000191F0000FF6D1059404900391C9
:10A35000049B184607B05DF8044B704700B583B006
:10A36000019001210198FFF781FF0346184603B0D1
:10A370005DF804FB00B583B0019000210198FFF760
:10A380008DFF0346184603B05DF804FB00B583B0AB
:10A3900001900B468DF80330019B002B03D1084937
:10A3A000E82004F0ABFC019BDA689DF803300199CA
:10A3B000098A01FB03F31344184603B05DF804FB5C
:10A3C000A43E030000B583B001900091019B002BD7
:10A3D00003D10849F52004F091FC009B019AD26852
:10A3E0009B1A019A128AB3FBF2F3DBB2184603B050
:10A3F0005DF804FBA43E030000B585B00190019B0D
:10A40000002B01D10E234CE0019B1B68002B03D1D4
:10A410002649FF2004F072FC019B5B68002B04D1ED
:10A4200022494FF4807004F069FC019B9B68002B6B
:10A4300004D11E4940F2011004F060FC019BDB686E
:10A44000002B04D119494FF4817004F057FC019B93
:10A450001B8A002B04D1154940F2031004F04EFC76
:10A46000019B9A68019B5B68D31A8DF80F30019BA2
:10A470001B68019A52681A6007E0019B1A6813680A
:10A48000591C11609DF80F201A709DF80F305A1E4C
:10A490008DF80F20002BF0D1019B1B6800221A7150
:10A4A0000023184605B05DF804FB00BFA43E03007E
:10A4B00000B585B00190019B002B04D11F494FF4DA
:10A4C000927004F01BFC0023039300238DF80A30E4
:10A4D0000DF10A031846FFF729FD019B1B681A6856
:10A4E000019B5B689A421FD9019B1B681A68013A5D
:10A4F0001A601B681B7819460198FFF747FF039005
:10A50000019B9A68019B1B681B68D31A8DF80B305E
:10A51000019B1B681B799DF80B209A4204D9019B73
:10A520001B689DF80B201A719DF80A301846FFF73A
:10A5300013FD039B184605B05DF804FBA43E030021
:10A5400010B584B001900091019B002B04D11549F6
:10A5500040F2471004F0D2FB009B002B04D11149BC
:10A560004FF4A47004F0CAFB009B039300238DF802
:10A570000B300DF10B031846FFF7D8FC019B1B684D
:10A580001C68621C1A6003990198FFF71BFF0346C1
:10A5900023709DF80B301846FFF7DEFC00BF04B0B7
:10A5A00010BD00BFA43E030000B583B00190019B25
:10A5B000002B03D10C49312004F0A0FB019B9B68C8
:10A5C000002B0CD0019B5B69019A1069019A1168FC
:10A5D000019A92689847019B00229A6000E000BFB0
:10A5E00003B05DF804FB00BFF43E03000EB400B5F9
:10A5F00084B00190019B002B03D11849422004F044
:10A600007DFB019B5B69002B03D11449432004F0BF
:10A6100075FB019B1B68002B03D11049442004F0FB
:10A620006DFB019B5B68002B03D10C49452004F0B6
:10A6300065FB059B002B0AD00023039306AB039315
:10A6400003AB1A460599019800F0B0F900E000BF8D
:10A6500004B05DF804EB03B0704700BFF43E0300A4
:10A6600000B583B001900B468DF80330019B1A684A
:10A67000019B9B68581C0199886013449DF8032036
:10A680001A70019B9A68019B5B689A4202D30198F9
:10A69000FFF78AFF00BF03B05DF804FB00B587B089
:10A6A000039002910192009300230593009B03F015
:10A6B0000103002B24D00BE0029B01330293059B86
:10A6C000013305939DF8133019460398FFF7C8FF2F
:10A6D000029B1B788DF813309DF81330002BEBD1C3
:10A6E00006E0019B013B019320210398FFF7B8FF8F
:10A6F000019A059B9A422ED9019B002BF1D12AE0A9
:10A70000029B002B0BD0029808F08DFE059006E00E
:10A71000019B013B019320210398FFF7A1FF019AC0
:10A72000059B9A420FD9019B002BF1D10BE0029BB4
:10A7300001330293059B013305939DF813301946AD
:10A740000398FFF78DFF029B1B788DF813309DF85F
:10A750001330002BEBD100BF07B05DF804FB000005
:10A7600000B589B00390029101920093029B079378
:10A770000123069307E0079A019BB2FBF3F30793CB
:10A78000069B01330693079A019B9A42F3D2009AE3
:10A79000069B9A4201D9009B06930B9B03F0010391
:10A7A000002B22D10A9B002B1FD00B9B03F002032E
:10A7B000002B06D0009B002B03D130238DF81730DF
:10A7C00002E020238DF8173008E00A9B013B0A9332
:10A7D0009DF8173019460398FFF742FF0A9B002B9C
:10A7E00003D0069A0A9B9A42EFD301230793009B5A
:10A7F000012B03D9009B013B009309E0029A079BC0
:10A80000B2FBF3F30493049A019B9A4200D205E051
:10A81000079B019A02FB03F30793E8E7029A079B61
:10A82000B2FBF3F30493049B079A02FB03F3029A2F
:10A83000D31A0293154A049B13441B7819460398B4
:10A84000FFF70EFF079A019BB2FBF3F30793079BF9
:10A85000002BE3D10B9B03F00103002B11D00A9BCB
:10A86000002B0ED006E00A9B013B0A93202103989F
:10A87000FFF7F6FE0A9B002B03D0069A0A9B9A422A
:10A88000F1D300BF09B05DF804FB00BF843F0300B3
:10A8900000B589B00590049103920293049B002BAC
:10A8A000B8BF5B4206930123079307E0039B069A18
:10A8B00092FBF3F30693079B01330793039B069ADE
:10A8C0009A42F3DA029A079B9A4201D9029B0793B4
:10A8D0000A9B002B0AD0049B002B04DB0B9B03F08C
:10A8E0000403002B02D00A9B013B0A930B9B03F04D
:10A8F0000203002B02D0029B002B16D00B9B03F00F
:10A900000103002B11D10A9B002B0ED006E00A9BFD
:10A91000013B0A9320210598FFF7A2FE0A9B002B1A
:10A9200003D0079A0A9B9A42F1D3049B002B07DAC3
:10A93000049B5B4204932D210598FFF791FE08E0EC
:10A940000B9B03F00403002B03D02B210598FFF78A
:10A9500087FE0B9B03F00203002B19D00B9B03F027
:10A960000103002B14D1029B002B11D10A9B002B59
:10A970000ED006E00A9B013B0A9330210598FFF7B1
:10A980006FFE0A9B002B03D0079A0A9B9A42F1D3D1
:10A9900004990B9B01930A9B0093029B039A0598D1
:10A9A000FFF7DEFE00BF09B05DF804FB00B58FB015
:10A9B000059004910392059B002B04D1B64940F207
:10A9C000522004F09BF9059B5B69002B04D1B2492E
:10A9D0004FF4157004F092F9059B1B68002B04D10D
:10A9E000AD4940F2552004F089F9059B5B68002BC6
:10A9F00004D1A94940F2562004F080F9049B002BB1
:10AA000000F09381049B1B788DF83730049B013351
:10AA100004939DF83730002B00F07E819DF837308D
:10AA2000252B40F06D8100230A9301230C93049B96
:10AA30001B788DF837309DF83730302B0DD0302B08
:10AA40001BDC2B2B11D02D2B17D10A9B43F00103BC
:10AA50000A93049B0133049312E00A9B43F0020320
:10AA60000A93049B013304930AE00A9B43F0040316
:10AA70000A93049B0133049302E000230C9300BF6C
:10AA80000C9B002BD3D1002309939DF837302A2B40
:10AA90000CD1039B1B68191D039A11601B68099A4E
:10AAA00013440993049B013304931AE0049B1B781D
:10AAB0008DF837309DF837302F2B12D99DF837306D
:10AAC000392B0ED8049B01330493099A13469B003B
:10AAD00013445B001A469DF837301344303B09930A
:10AAE000D3E700230B93049B1B788DF837309DF838
:10AAF00037302E2B1DD1049B01330493049B1B780C
:10AB00008DF837309DF837302F2B12D99DF837301C
:10AB1000392B0ED8049B013304930B9A13469B00E8
:10AB200013445B001A469DF837301344303B0B93B7
:10AB3000E4E7049B1B788DF837309DF837306C2B99
:10AB400003D09DF83730682B07D1049B0133049361
:10AB5000049B1B788DF83730EFE79DF83730252BB5
:10AB600000F0C480252BC0F2C680782B00F3C38090
:10AB7000582BC0F2C080583B202B00F2BC8001A2B1
:10AB800052F823F073AC0200F7AC0200F7AC0200FD
:10AB9000F7AC0200F7AC0200F7AC0200F7AC020021
:10ABA000F7AC0200F7AC0200F7AC0200F7AC020011
:10ABB00009AC02002BAC0200F7AC0200F7AC0200BB
:10ABC000F7AC0200F7AC02002BAC0200F7AC0200BD
:10ABD000F7AC0200F7AC0200F7AC0200F7AC0200E1
:10ABE000F7AC0200B9AC0200F7AC0200F7AC02000F
:10ABF0009DAC0200F7AC02004FAC0200F7AC0200C3
:10AC0000F7AC020073AC0200039B1B68191D039A8A
:10AC100011601B680C930C9B8DF81F309DF81F3042
:10AC200019460598FFF71CFD66E0039B1B68191D7C
:10AC3000039A11601B680C930A9B0193099B009374
:10AC40000B9B0A220C990598FFF722FE54E0039B08
:10AC50001B68191D039A11601B680C930C990A9BC1
:10AC60000193099B00930B9B0A220598FFF778FD3F
:10AC700042E0039B1B68191D039A11601B680C932B
:10AC80000C990A9B0193099B00930B9B102205983A
:10AC9000FFF766FD30E000BF383F0300039B1B68F1
:10ACA000191D039A11601B6808930A9B099A089959
:10ACB0000598FFF7F3FC1FE0039B1B68191D039A1F
:10ACC00011601B680C9330210598FFF7C9FC7821AF
:10ACD0000598FFF7C5FC0C99002301930823009306
:10ACE000082310220598FFF73BFD05E02521059874
:10ACF000FFF7B6FC00E000BF049B0133049305E0BE
:10AD00009DF8373019460598FFF7AAFC049B1B787D
:10AD1000002B7FF477AE00E000BF059B1B7B002B70
:10AD200004D00598FFF740FC00E000BF0FB05DF8CD
:10AD300004FB00BF00B583B001900198FFF75CFBF6
:10AD40000346184603B05DF804FB00B58BB00190D4
:10AD50000091019B1B8A043B0793009A079B1344B5
:10AD6000DA1C079BB2FBF3F38DF81B300198FFF759
:10AD70009FFB0590059B002B01D1002338E0059B2C
:10AD800000221A71059B01225A71079B9AB2059BFA
:10AD9000DA80059B09939DF81B30013B0493099BC6
:10ADA000019A1A60002308931DE00198FFF780FBC9
:10ADB0000390039B002B0ED0059B5B790133DAB225
:10ADC000059B5A71099B039A1A60039B019A1A60AA
:10ADD000039B099304E0059800F00EF8002307E0B8
:10ADE000089B01330893089A049B9A42DDD3059B84
:10ADF00018460BB05DF804FB00B58BB00190019BC9
:10AE00000793079B5B798DF81B30019B08939DF896
:10AE10001B30013B05930023099305E0089B1B6849
:10AE20000893099B01330993099A059B9A42F5D32C
:10AE3000089B1B680493019B0893002309930BE074
:10AE4000089B1B68039308990498FFF779FB039B01
:10AE50000893099B013309939DF81B30099A9A4284
:10AE6000EED300BF00BF0BB05DF804FB00B585B0AA
:10AE70000190019B0393039B043301211846FFF7C4
:10AE80003DFA00BF05B05DF804FB00B587B0019046
:10AE9000019B0593059B043301211846FFF746FAF1
:10AEA0000346039303AB0493049B1B78002B02D14E
:10AEB0000198FFF7A1FF00BF07B05DF804FB000099
:10AEC00000B591B00390029101920093039B002B77
:10AED00003D14349B62003F011FF039B0993039B61
:10AEE0000F93099BDB881A46099B5B7903FB02F3EE
:10AEF000043B0893009A089B9A4203D33849C42024
:10AF000003F0FCFE099BDB880793009B1A1D079B3F
:10AF1000B2FBF3F30E93009B0433079AB3FBF2F2F8
:10AF2000079901FB02F29B1A0D93019B1A68009B83
:10AF30001344089A9A4203D2089A009BD31A01E05C
:10AF4000019B1B680C93019B0C9A1A6005E00F9BF8
:10AF50001B680F930E9B013B0E930E9B002BF6D1AB
:10AF600000230B93079A0D9BD31A0A930A9A0C9B02
:10AF7000934228BF13460A932AE0029A0B9B13447C
:10AF800006930F9A0D9B1344043305939DF84830A4
:10AF9000002B05D00A9A0599069808F0C6F904E036
:10AFA0000A9A0699059808F0C0F900230D930F9BA3
:10AFB0001B680F930C9A0A9BD31A0C930B9A0A9B4B
:10AFC00013440B93079A0C9B934228BF13460A9392
:10AFD0000C9B002BD1D100BF00BF11B05DF804FB6A
:10AFE000943F030000B589B0059004910392029349
:10AFF000039B079307AA00230093029B04990598DB
:10B00000FFF75EFF079B039A9A4203D00349F6209D
:10B0100003F074FE00BF09B05DF804FB943F030029
:10B0200000B589B00590049103920293039B0793A6
:10B0300007AA01230093029B04990598FFF740FF9C
:10B04000079B039A9A4204D004494FF4807003F09E
:10B0500055FE00BF09B05DF804FB00BF943F03003C
:10B0600082B003468DF807309DF90730002B0DDBC9
:10B070009DF8073003F01F0206499DF907305B0970
:10B08000012000FA02F2603341F8232000BF02B031
:10B09000704700BF00E100E000B583B00190019B64
:10B0A000002B03D10649722003F028FE019B0022E9
:10B0B0001A60BFF35F8F00BF00BF03B05DF804FBF1
:10B0C0003840030041DF704700BF184600B585B027
:10B0D00000238DF803300DF103031846FEF726FF19
:10B0E000F1EE103A0193019B0393039B23F09F031E
:10B0F0000293029BE1EE103A00BFBFF35F8F00BFE7
:10B100002620FFF7ADFF9DF803301846FEF724FF19
:10B11000039B03F00703002B03D004497D2003F0B9
:10B12000EDFD00BF05B05DF804FB00BF7C400300EF
:10B1300008B5064B00221A700548FFF7ADFF054918
:10B14000054800F04BF80023184608BD38350020AC
:10B1500034350020D04003003C35002000B583B0DA
:10B16000FFF7B4FF07F0FAFD0346002B0ED0FFF700
:10B17000A9FF0190019B002B0BD0019B022B08D053
:10B1800006494FF4B07003F0B9FD02E020BF40BFA4
:10B1900020BF00BF03B05DF804FB00BF7C4003008C
:10B1A00082B00190019B9B6800229A60019B9B6882
:10B1B00000221A61019B9B6800225A61019B9B68D7
:10B1C0000022DA60019B9B6800225A60019B9B6809
:10B1D00000221A6000BF02B07047000000B583B0C3
:10B1E00001900091019B002B03D11049502003F0E6
:10B1F00085FD009B002B03D10C49512003F07EFDFF
:10B20000019B009A1A60019B1B681A68019B5A6097
:10B21000019B5A68019B1B685B689A4202D1019BA3
:10B2200000225A6000BF03B05DF804FBDC4003005D
:10B2300000B583B00190019B002B03D1144963201A
:10B2400003F05CFD019B1B68002B03D110496420B7
:10B2500003F054FD019B5B68002B14D0019B5B68DD
:10B260001A46019B1B689B6813441A46019B5A604F
:10B27000019B5A68019B1B685B689A4204D1019B41
:10B2800000225A6000E000BF03B05DF804FB00BF7D
:10B29000DC40030000B585B00190019800F00EF885
:10B2A0000390039B002B01D0039B00E0024B184648
:10B2B00005B05DF804FB00BF4441030086B0019077
:10B2C000164B0593164B04931FE0049A059BD31A63
:10B2D000DB10DA0F13445B10DB00059A1344039371
:10B2E000039B1B680293029A019B9A4202D9039B1B
:10B2F00004930AE0029A019B9A4203D2039B08330B
:10B30000059302E0039B5B6804E0059A049B9A4264
:10B31000DBD30023184606B0704700BF4445030046
:10B320006C460300BFF34F8F00BF064BDB6803F48E
:10B33000E0620449044B1343CB60BFF34F8F00BF5F
:10B3400000BFFDE700ED00E00400FA0582B0194BF4
:10B350001B68B3F1FF3F0AD1174B1B68DBB20193A7
:10B36000164B1B681B0903F00F03009305E0114BFC
:10B370001B680193124B1B680093019B082B15D18E
:10B38000009B032B12D801A252F823F09DB30200B8
:10B39000A1B30200A5B30200A9B30200012306E095
:10B3A000012304E0012302E0012300E0002318460A
:10B3B00002B0704730010010E00F00F0E80F00F01D
:10B3C0003401001082B0194B1B68B3F1FF3F0AD162
:10B3D000174B1B68DBB20193164B1B681B0903F06C
:10B3E0000F03009305E0114B1B680193124B1B6880
:10B3F0000093019B082B15D1009B032B12D801A2AF
:10B4000052F823F015B4020019B402001DB4020072
:10B4100021B40200012306E0012304E0012302E03D
:10B42000012300E00023184602B0704730010010ED
:10B43000E00F00F0E80F00F03401001082B0114B73
:10B440001B680193104B1B680093019B082B15D1BF
:10B45000009B032B12D801A252F823F06DB4020016
:10B4600071B4020075B4020079B40200012306E051
:10B47000002304E0002302E0002300E0002318463C
:10B4800002B07047300100103401001082B0114B3F
:10B490001B680193104B1B680093019B082B15D16F
:10B4A000009B032B12D801A252F823F0BDB4020076
:10B4B000C1B40200C5B40200C9B40200012306E011
:10B4C000002304E0002302E0002300E000231846EC
:10B4D00002B07047300100103401001082B0114BEF
:10B4E0001B680193104B1B680093019B082B15D11F
:10B4F000009B032B12D801A252F823F00DB50200D5
:10B5000011B5020015B5020019B50200012306E0CD
:10B51000002304E0002302E0002300E0002318469B
:10B5200002B07047300100103401001082B0114B9E
:10B530001B680193104B1B680093019B082B15D1CE
:10B54000009B032B12D801A252F823F05DB5020034
:10B5500061B5020065B5020069B50200012306E08D
:10B56000002304E0002302E0002300E0002318464B
:10B5700002B07047300100103401001082B0194B46
:10B580001B68B3F1FF3F0AD1174B1B68DBB2019375
:10B59000164B1B681B0903F00F03009305E0114BCA
:10B5A0001B680193124B1B680093019B082B15D15C
:10B5B000009B032B12D801A252F823F0CDB5020054
:10B5C000D1B50200D5B50200D9B50200012306E0CD
:10B5D000012304E0012302E0012300E000231846D8
:10B5E00002B0704730010010E00F00F0E80F00F0EB
:10B5F00034010010024B034A1A6000BF704700BFBD
:10B600002C2D00200090D00308B5FFF79FFE0346C5
:10B61000002B0ED04FF080430022C3F80C214FF0D6
:10B6200080430022C3F810214FF080430022C3F86A
:10B630003825FFF7C7FE0346002B76D04FF0805326
:10B640007D4AD3F80434C2F820354FF080537A4A4B
:10B65000D3F80834C2F824354FF08053764AD3F833
:10B660000C34C2F828354FF08053734AD3F81034A5
:10B67000C2F82C354FF080536F4AD3F81434C2F817
:10B6800030354FF080536C4AD3F81834C2F8343553
:10B690004FF08053684AD3F81C34C2F840354FF05D
:10B6A0008053654AD3F82034C2F844354FF08053B4
:10B6B000614AD3F82434C2F848354FF080535E4ACB
:10B6C000D3F82834C2F84C354FF080535A4AD3F897
:10B6D0002C34C2F850354FF08053574AD3F83034E9
:10B6E000C2F854354FF08053534AD3F83434C2F87B
:10B6F00060354FF08053504AD3F83834C2F864357F
:10B700004FF080534C4AD3F83C34C2F868354FF0C0
:10B710008053494AD3F84034C2F86C354FF0805317
:10B72000454AD3F84434C2F87035FFF787FE034624
:10B73000002B02D0414B424A1A60FFF7A7FE034696
:10B74000002B03D03F4BFB22C3F81825FFF7C6FEA2
:10B750000346002B0AD03C4B1B6823F00F023B4BE7
:10B760001B6803F00F03384913430B60FFF7DEFE3D
:10B770000346002B03D0364B4FF400721A60FFF7DC
:10B78000FDFE0346002B0DD04FF08043D3F800346C
:10B7900003F00103002B05D04FF080436FF001024E
:10B7A000C3F800242B4BD3F888302A4A43F47003A3
:10B7B000C2F88830BFF34F8F00BFBFF36F8F00BF59
:10B7C0004FF01023D3F80032002B05DB4FF010238D
:10B7D000D3F80432002B2BDA1F4B0122C3F80425C7
:10B7E00000BF1D4BD3F80034002BFAD04FF01023CC
:10B7F0001222C3F8002200BF174BD3F80034002BED
:10B80000FAD04FF010231222C3F8042200BF124BCB
:10B81000D3F80034002BFAD00F4B0022C3F80425D4
:10B8200000BF0D4BD3F80034002BFAD0FFF77AFDA0
:10B83000FFF7E0FE00BF08BD00C000408C5600408E
:10B840004881030000F00040E40E00405802001060
:10B850004096024000ED00E000E0014000B583B0FA
:10B860000190019B1B68184600F0C3F80346002BAB
:10B8700004D10B494FF4F67003F040FA019B1B68AA
:10B880001F2B02D84FF0A04306E0019B1B6803F07A
:10B890001F02019B1A60034B184603B05DF804FBBE
:10B8A0006C4603000003005000B585B001900846C7
:10B8B00011461A4603468DF803300B468DF80230C8
:10B8C00013468DF8013001AB1846FFF7C7FF039010
:10B8D0009DF803209DF802305B001A439DF801306B
:10B8E0009B001A439DF818301B0242EA03019DF8A1
:10B8F0001C301B04019A1943039B02F5E07243F8C4
:10B90000221000BF05B05DF804FB00B585B00390C0
:10B9100000230193002300930023012201210398B7
:10B92000FFF7C2FF00BF05B05DF804FB00B585B0AE
:10B9300003900B468DF80B309DF80B3000220192DE
:10B9400000220092002200210398FFF7ADFF00BF04
:10B9500005B05DF804FB00B585B0019001AB184659
:10B96000FFF77CFF0390019B012202FA03F31946C3
:10B97000039800F02AF800BF05B05DF804FB00B59D
:10B9800085B0019001AB1846FFF768FF0390019B5B
:10B99000012202FA03F31946039800F020F800BFD1
:10B9A00005B05DF804FB00B583B001900091009BE9
:10B9B000002B03D10198FFF7E2FF02E00198FFF7A7
:10B9C000CAFF00BF03B05DF804FB82B00190009194
:10B9D000019B009AC3F8082500BF02B0704782B0EF
:10B9E00001900091019B009AC3F80C2500BF02B0A2
:10B9F000704784B00190019B5B090293002303937D
:10BA0000029B002B03D0029B012B04D007E04FF0D8
:10BA1000FF33039303E04FF6FF73039300BF019BD3
:10BA200003F01F030193039A019B22FA03F303F02F
:10BA30000103002B14BF01230023DBB2184604B01E
:10BA40007047000000B583B00190019B032B03D920
:10BA50000749412003F052F9064A019B13441B7821
:10BA600000211846FFF79FFF00BF03B05DF804FBFD
:10BA70009C460300DC46030000B583B00190019BA7
:10BA8000032B03D90749472003F038F9064A019BE5
:10BA900013441B7801211846FFF785FF00BF03B050
:10BAA0005DF804FB9C460300DC46030000B583B050
:10BAB0000023019305E00198FFF7DEFF019B0133AE
:10BAC0000193019B032BF6D900BF00BF03B05DF8C3
:10BAD00004FB000000B583B00023019309E0094A8C
:10BAE000019B13441B781846FFF70FFF019B01339E
:10BAF0000193019B032BF2D9FFF7D8FF00BF03B0DE
:10BB00005DF804FBDC46030000B583B0002301931D
:10BB10000AE0094A019B13441B7803211846FFF7EA
:10BB200005FF019B01330193019B032BF1D900BF5A
:10BB300000BF03B05DF804FBE046030000B583B02E
:10BB40000190019B03F00103002B01D0FFF7C2FF1E
:10BB5000019B03F00203002B01D0FFF7D5FF00BFCC
:10BB600003B05DF804FB000082B003468DF8073097
:10BB70009DF90730002B13DB9DF8073003F01F02FF
:10BB800009499DF907305B09012000FA02F22033D0
:10BB900041F82320BFF34F8F00BFBFF36F8F00BF6B
:10BBA00000BF02B0704700BF00E100E0044BD3F8D3
:10BBB0000034002B14BF01230023DBB2184670476A
:10BBC0000000014008B507F0C9F8034683F00103FF
:10BBD000DBB2002B03D109497B2003F08FF8FFF77C
:10BBE000E5FF034683F00103DBB2002B04D000F035
:10BBF0004FFB034B00229A7000BF08BDEC460300C8
:10BC00004435002000B583B000230193184B1B7806
:10BC1000002B02D0852301931CE0154B00229A6073
:10BC2000134B00225A60124B00221A61104B002263
:10BC3000DA60104800F0F2FA019007F08FF803463E
:10BC400083F00103DBB2002B01D000F00DFB084BA9
:10BC500001221A70FFF7AAFF0346002B02D0044B03
:10BC600001229A70019B184603B05DF804FB00BFE7
:10BC7000443500204DBD020084B00190019B1B683B
:10BC80000393039B002B03D0039B1A68019B1A604C
:10BC9000039B184604B0704700B583B0164B1B7861
:10BCA000002B04D1154940F2171003F027F8124B6E
:10BCB000DB68002B04D111494FF48C7003F01EF89F
:10BCC00000238DF807300DF107031846FEF72EF913
:10BCD000094BDB68013B084AD360074BDB68002B4C
:10BCE00001D1FFF76FFF9DF807301846FEF734F9D2
:10BCF00000BF03B05DF804FB44350020EC460300B0
:10BD000000B585B003468DF807309DF80730002B4D
:10BD100002D10C4B039301E00B4B03930398FFF705
:10BD2000ABFF0290029B002B06D0029B5B689DF844
:10BD3000072010469847F1E700BF00BF05B05DF847
:10BD400004FB00BF4C3500205435002000B583B003
:10BD500003468DF807309DF80730002B05D10A4BBC
:10BD600001225A700020FFF7CBFF9DF80730012B0E
:10BD700005D1054B01229A700120FFF7C1FF00BFDA
:10BD800003B05DF804FB00BF4435002000B583B06C
:10BD900001900091019B002B05D1054B01225A70A7
:10BDA0000020FFF7ADFF00BF03B05DF804FB00BF4C
:10BDB0004435002000B585B0034600918DF807306A
:10BDC0009DF80730032B29D0032B35DC002B02D044
:10BDD000012B04D030E00020FFF7C6FE2DE0002349
:10BDE0008DF80F300DF10F031846FEF79FF8154B35
:10BDF0001B7883F00103DBB2002B01D0FFF702FFB9
:10BE0000104BDB6801330F4AD3600E4B01229A704E
:10BE10009DF80F301846FEF79FF80EE0094B1B788F
:10BE2000002B04D1084940F2522002F067FF00F0D5
:10BE30001BFAFFF731FF00E000BF00BF05B05DF85F
:10BE400004FB00BF44350020EC46030000B589B078
:10BE500001900091009B0793019B1B788DF80C309B
:10BE6000019B5B680493019B9B68DBB28DF81430E7
:10BE7000019BDB680693074A079B52F8233006496B
:10BE8000079A51F8221003AA1046984700BF09B03C
:10BE90005DF804FB583500206035002000B589B0FE
:10BEA00001900091009B0793019B1B788DF80C304B
:10BEB000019B5B680493019B9B68DBB28DF8143097
:10BEC000019BDB680693074A079B52F8233006491B
:10BED000079A51F8221003AA1046984700BF09B0EC
:10BEE0005DF804FB583500206035002030B58FB078
:10BEF000039002910192039B1B780C932C490C9B9D
:10BF0000019A41F82320029B1A692A490C9B41F8A7
:10BF100023200C9B012B07D1029B5B7F002B03D1BD
:10BF20002549762002F0EAFE029B5B7F1946234AF0
:10BF30000C9B13440A461A70029B04AC1D460FCD9D
:10BF40000FC495E80F0084E80F000C9B08930023B2
:10BF50000D93039B1B781A46184B9B5C002B0DD04E
:10BF6000039B181D019B002B01D0154A00E0002205
:10BF700004AB194602F0A0FA0D9014E0039B1B7865
:10BF80001A460E4B9B5C002B0DD1039B03F10C005A
:10BF9000019B002B01D00B4A00E0002204AB1946A4
:10BFA00001F0D0FB0D900D9B18460FB030BD00BFC7
:10BFB00058350020603500203847030068350020E0
:10BFC0004DBE02009DBE020082B003468DF80730D0
:10BFD0009DF90730002B0CDB9DF8073003F01F02A2
:10BFE00005499DF907305B09012000FA02F241F88A
:10BFF000232000BF02B0704700E100E082B003469A
:10C0000000918DF807309DF90730002B0ADB009B6B
:10C01000DAB20C499DF907305201D2B20B4483F8D1
:10C0200000230BE0009BDAB207499DF8073003F0CC
:10C030000F03043B5201D2B20B441A7600BF02B088
:10C04000704700BF00E100E000ED00E082B0019029
:10C05000019B1B0B5BB2184602B0704700B583B062
:10C0600003460A468DF8073013468DF806309DF8D2
:10C070000630012B03D99DF80630032B0BD99DF810
:10C080000630042B03D99DF80630072B03D9084945
:10C090006B2002F033FE9DF806209DF90730114613
:10C0A0001846FFF7ABFF00BF03B05DF804FB00BF0D
:10C0B0008447030000B583B003468DF807309DF92F
:10C0C00007301846FFF780FF00BF03B05DF804FBA0
:10C0D00082B003468DF807300F4A9DF90730002BD8
:10C0E00000DA1F335B115BB252F823209DF9073051
:10C0F000594203F01F0301F01F0158BF4B425BB2CE
:10C1000022FA03F303F00103002B14BF01230023E1
:10C11000DBB2184602B0704700E100E082B0019047
:10C120004FF08042019BC2F8083300BF02B0704755
:10C1300082B003468DF807309DF8073003F1804345
:10C1400001221A6000BF02B0704784B00346ADF808
:10C150000630BDF8063003F1804300221A60BDF8B6
:10C16000063003F180431B680393039B00BF04B0B8
:10C17000704782B00346ADF80630BDF8063003F1D3
:10C1800080431B68002B14BF01230023DBB2184639
:10C1900002B0704782B001904FF08042019BC2F81C
:10C1A000183500BF02B070474FF08043D3F8183401
:10C1B0001B0C03F00103002B14BF01230023DBB28F
:10C1C0001846704700B583B006238DF807304FF04E
:10C1D0008040FFF73BFF03461846FFF779FF034611
:10C1E00083F00103DBB2002B13D04FF08040FFF748
:10C1F0002DFF03461A469DF8073019461046FFF7F3
:10C200002DFF4FF08040FFF721FF03461846FFF750
:10C2100051FF00BF03B05DF804FB000000B585B01E
:10C220000190019B002B03D10D49A42002F066FD73
:10C23000002303930B4B1B79002B02D08523039320
:10C2400008E0084A019B1360064B01221A71054B56
:10C2500000225A71039B184605B05DF804FB00BF2D
:10C26000BC4703006C35002008B5074B1B79002B39
:10C2700003D10649BD2002F041FDFFF7A3FF0120D5
:10C28000FFF788FF00BF08BD6C350020BC470300E6
:10C2900008B50D4B1B79002B03D10C49F72002F098
:10C2A0002DFD0220FFF73AFF4FF48270FFF74DFF9C
:10C2B0000C20FFF73DFF00BFFFF776FF0346002B82
:10C2C000FAD100BF00BF08BD6C350020BC47030099
:10C2D00008B54FF48070FFF74CFF0346002B14D0D5
:10C2E0004FF48070FFF731FF0120FFF717FF114B6C
:10C2F0005B7983F00103DBB2002B06D00D4B0122EA
:10C300005A710C4B1B68002098474FF48270FFF75E
:10C3100030FF0346002B0AD04FF48270FFF715FF61
:10C320000220FFF7FBFE034B1B680120984700BF6C
:10C3300008BD00BF6C35002082B003468DF8073081
:10C340009DF90730002B0CDB9DF8073003F01F022E
:10C3500005499DF907305B09012000FA02F241F816
:10C36000232000BF02B0704700E100E082B0034626
:10C3700000918DF807309DF90730002B0ADB009BF8
:10C38000DAB20C499DF907305201D2B20B4483F85E
:10C3900000230BE0009BDAB207499DF8073003F059
:10C3A0000F03043B5201D2B20B441A7600BF02B015
:10C3B000704700BF00E100E000ED00E082B00190B6
:10C3C000019B1B0B5BB2184602B0704700B583B0EF
:10C3D00003460A468DF8073013468DF806309DF85F
:10C3E0000630012B03D99DF80630032B0BD99DF89D
:10C3F0000630042B03D99DF80630072B03D90849D2
:10C400006B2002F07BFC9DF806209DF90730114659
:10C410001846FFF7ABFF00BF03B05DF804FB00BF99
:10C420000848030000B583B003468DF807309DF936
:10C4300007301846FFF780FF00BF03B05DF804FB2C
:10C4400000B583B00346ADF80630BDF80630184697
:10C4500000F026F803461B68012B0CBF01230023C4
:10C46000DBB2184603B05DF804FB00B585B00346A7
:10C47000ADF80630BDF80630184600F011F8034656
:10C480001A4600231360BDF80630184600F008F87D
:10C4900003461B680393039B00BF05B05DF804FBD4
:10C4A00082B00346ADF80630BDF8063003F1804394
:10C4B00003F5C043184602B07047000082B00190F7
:10C4C000034A019BC2F8043300BF02B0704700BFAB
:10C4D0000060004082B00190034A019BC2F808331B
:10C4E00000BF02B0704700BF0060004082B0019002
:10C4F000034BD3F80423019B1340184602B0704746
:10C500000060004082B00190084A019B03F5A273CD
:10C5100052F82330054943F00102019B03F5A27351
:10C5200041F8232000BF02B0704700BF0060004008
:10C5300082B00190084A019B03F5A27352F82330A0
:10C54000054923F00102019B03F5A27341F8232062
:10C5500000BF02B0704700BF0060004084B003908D
:10C56000029113468DF80730144A039B03F5A2731A
:10C5700052F82330114923F44F3323F44073039AC4
:10C5800002F5A27241F822300C4A039B03F5A27314
:10C5900052F82320029B1B0203F47C519DF80730C4
:10C5A0001B0403F440330B4304491A43039B03F574
:10C5B000A27341F8232000BF04B070470060004020
:10C5C00082B00190054A019B03F5A27352F8233013
:10C5D0001B0A03F03F03184602B07047006000409A
:10C5E00082B00190064A019B03F5A27352F82330F2
:10C5F0001B0C03F00303DBB2184602B0704700BF08
:10C600000060004000B583B00190019B1B68184694
:10C6100000F02AF90346002B04D10B494FF4F670C1
:10C6200002F06CFB019B1B681F2B02D84FF0A0434C
:10C6300006E0019B1B6803F01F02019B1A60034B7D
:10C64000184603B05DF804FB3848030000030050AF
:10C6500000B585B00190084611461A4603468DF88C
:10C6600003300B468DF8023013468DF8013001ABD4
:10C670001846FFF7C7FF03909DF803209DF802308E
:10C680005B001A439DF801309B001A439DF8183057
:10C690001B0242EA03019DF81C301B04019A194356
:10C6A000039B02F5E07243F8221000BF05B05DF86D
:10C6B00004FB00B585B003900B468DF80B309DF858
:10C6C0000B300022019200220092002200210398E8
:10C6D000FFF7BEFF00BF05B05DF804FB00B585B0F5
:10C6E000019001AB1846FFF78DFF0390019A039B61
:10C6F00002F5E07253F8223023F002030293019A0C
:10C70000039B02F5E072029943F8221000BF05B0C6
:10C710005DF804FB00B585B001900B468DF8033041
:10C7200001AB1846FFF76EFF0390019A039B02F5D9
:10C73000E07253F82230019A23F44031039B02F552
:10C74000E07243F82210019A039B02F5E07253F85D
:10C7500022309DF8032012041146019A1943039BCD
:10C7600002F5E07243F8221000BF05B05DF804FB4B
:10C7700000B585B0019001AB1846FFF743FF039069
:10C78000039800F020F80246019B22FA03F303F01D
:10C790000103184605B05DF804FB00B585B00190B3
:10C7A00001AB1846FFF72EFF0390019A039B02F599
:10C7B000E07253F822301B0C03F00303DBB218467F
:10C7C00005B05DF804FB82B00190019BD3F81035F1
:10C7D000184602B07047000088B0039002910192A1
:10C7E000164A05AB92E8030083E80300039B079316
:10C7F00019E0079B9B0008AA134453F80C3CD3F89C
:10C800002025019B1A60079B9B0008AA134453F83C
:10C810000C3C019A1268C3F82025019B0433019354
:10C82000079B01330793039A029B1344079A9A428A
:10C83000DFD300BF00BF08B0704700BF68480300E7
:10C8400000B585B0019001AB1846FFF7DBFE039001
:10C85000019B012202FA03F31A46039BC3F8202529
:10C8600000BF05B05DF804FB84B00190019B5B093B
:10C87000029300230393029B002B03D0029B012B06
:10C8800004D007E04FF0FF33039303E04FF6FF734C
:10C89000039300BF019B03F01F030193039A019BC5
:10C8A00022FA03F303F00103002B14BF012300233A
:10C8B000DBB2184604B0704784B001900091009B31
:10C8C0000393019BDB080293019B03F00703019391
:10C8D0000122019B02FA03F30399029A0A44127897
:10C8E0001340184604B0704784B001900091009B3B
:10C8F0000393019BDB080293019B03F00703019361
:10C90000039A029B13441B785AB20121019B01FA3E
:10C9100003F35BB2134359B2039A029B1344CAB2A6
:10C920001A7000BF04B0704782B001900C4A019B9E
:10C930001344303393F90030002B09DB084A019B84
:10C940001344303393F90030072B01DC012300E05E
:10C95000002303F00103DBB2184602B0704700BFAA
:10C960007435002082B00190064A019B1344303395
:10C9700093F90030072BCCBF01230023DBB218460C
:10C9800002B070477435002082B00190064A019BC6
:10C990001344303393F90030DB43DBB2DB09DBB205
:10C9A000184602B0704700BF7435002084B0039071
:10C9B000029101928DF80330029B59B20E4A039BFB
:10C9C000134430330A461A700B49029B019A41F80E
:10C9D00023209DF8033083F00103DBB2002B08D045
:10C9E000029B083B039A51B2034A13440A4683F858
:10C9F000602000BF04B070477435002082B0019001
:10CA0000044A019B13443033FF221A7000BF02B066
:10CA1000704700BF7435002000B583B00190044911
:10CA20000198FFF761FF00BF03B05DF804FB00BF92
:10CA3000D835002082B00190044A019B1344303362
:10CA400093F90030184602B0704700BF74350020DB
:10CA500082B00190034A019B52F82330184602B07D
:10CA6000704700BF7435002084B00190074A019BD5
:10CA70001344603393F900308DF80F309DF80F3078
:10CA800023F0C003184604B0704700BF743500207F
:10CA900084B00190074A019B1344603393F900303E
:10CAA0008DF80F309DF80F309B09DBB2184604B0AB
:10CAB000704700BF7435002000B589B00390029123
:10CAC00013468DF80730FF238DF81F309DF807308F
:10CAD000002B01D0002300E0082305939DF80730C8
