:020000022000DC
:1070000000000220757302005D7302005F730200CE
:1070100061730200637302006573020000000000E8
:107020000000000000000000000000006773020084
:1070300069730200000000006B7302006D730200B0
:10704000059602006F730200E19A02006F7302005E
:107050006F7302006F730200619902006F73020088
:107060006F7302006F7302006F7302006F73020090
:107070006F7302006F7302006F7302006F73020080
:107080006F730200058802006F7302006F730200C5
:107090006F7302006F73020019BE02006F7302006B
:1070A0006F7302006F7302006F7302006F73020050
:1070B0006F7302006F730200000000000000000008
:1070C0006F7302006F7302006F7302006F73020030
:1070D0006F7302006F7302006F7302006F73020020
:1070E0006F730200000000000000000000000000BC
:1070F000000000006F730200000000006F730200C8
:10710000000000000000000000000000000000007F
:10711000000000000000000000000000000000006F
:10712000000000000000000000000000000000005F
:10713000000000000000000000000000000000004F
:10714000000000000000000000000000000000003F
:10715000000000000000000000000000000000002F
:10716000000000000000000000000000000000001F
:10717000000000000000000000000000000000000F
:1071800000000000000000000000000000000000FF
:1071900000000000000000000000000000000000EF
:1071A00000000000000000000000000000000000DF
:1071B00000000000000000000000000000000000CF
:1071C00000000000000000000000000000000000BF
:1071D00000000000000000000000000000000000AF
:1071E000000000000000000000000000000000009F
:1071F000000000000000000000000000000000008F
:10720000354936480A1A02D0072291438D4634493F
:1072100034480A1A06D00722914381F309880222D2
:1072200082F3148830483149314A00F044F831483B
:107230003149324A00F03FF831483249324A00F0D1
:107240003AF832483249334A00F035F83248334987
:10725000334A00F030F833483349344A00F02BF811
:1072600033483449344A00F026F83448344900227F
:1072700000F02CF833483449002200F027F8334856
:107280003349091A082902DB002202604160314AB1
:1072900090471F481F49884205D00268043003B454
:1072A000904703BCF7E700208646EC46002000210B
:1072B000294A9047FEE7884207D0521A05D0037842
:1072C00001300B700131013AF9D17047884202D088
:1072D00002700130FAE770470000022000F8012038
:1072E0000000022000000220D8DA0200802C0020DA
:1072F0001C2D0020D0730200D07302007AC9020056
:10730000D8DA0200802C0020802C002070CA0200F5
:1073100070CA020070CA020070CA020070CA02007D
:1073200070CA020070CA020070CA0200D6DA0200F7
:1073300074DB02001C2D00201C2D00201C2D0020C1
:10734000787B0020787B0020787B0020787B0020F1
:10735000788300209D73020085AC0200FEE7FEE703
:10736000FEE7FEE7FEE7FEE7FEE7FEE7FEE7FEE7F5
:1073700000F002B8FFF7FCBF0F484FF00701884349
:1073800085460E4880470E48016841F4700101604F
:10739000BFF34F8FBFF36F8FFFF732BF09480A4922
:1073A0000A4A884207D0521A05D0037801300B7080
:1073B0000131013AF9D17047000002204D910200DD
:1073C00088ED00E070CA0200802C0020802C002094
:1073D0007047000007B5044B0093044A402300F0B7
:1073E00032F803B05DF804FBF17302001D2D00209C
:1073F0002DE9F84388461446B2B10F4B0F4E0325D2
:10740000002743F00109224608EB0701002003F0A2
:107410003FFE0744241A48B933782BB14FF47A4021
:10742000C847013D02D13570BDE8F88301233370B0
:10743000002CE8D1F8E700BF70CA02001C2D002024
:10744000704703F059BEF0B595B01D461646084684
:107450000C4601F089FD1A9B0D93CDE908650025C6
:107460002B46082205A920460A958DF82C500C952C
:1074700001F097FD079B0293069B03939DF8143040
:107480008DF8115003F00302012A1DD1BDF814201C
:10749000059DC3F3C203C2F383168DF81030B2000A
:1074A00008230EA9204601F07CFDC5F3952508AB05
:1074B0000093324602AB0EA9284600F033FB20466B
:1074C00001F056FD15B0F0BD022AF8D1BDF81650F6
:1074D000C3F3C203C5F389158DF810300827082DB2
:1074E0002E4628BF08263B4632460EA9204601F00C
:1074F00058FDAD1B08AB02AA31460EA8374400F078
:1075000075FB002DEBD1DAE708B5FFF79AFF0448C9
:10751000042100F071FA034B01225A7108BD00BF2B
:1075200060CA0200802C0020037813F0040216D0F9
:1075300003F00303012B03D0022B09D00120704775
:107540000A6800880232C0F3831002440A60F5E73B
:107550000B684288023303EB92130B60EEE7104690
:10756000704700002DE9F04F87B000230446861CC9
:107570000DF107000F4615468DF8073000F0D4FFD7
:10758000404A51683960936803F580735B1A9246EC
:1075900002F21C4702F5836902F21448B3421AD37F
:1075A0000020002D69D004F00F039B0143F0050378
:1075B00063F30F00DAF80430DAB203321E444AF8FB
:1075C00022009DF80700CAF8046000F0D1FF0120F6
:1075D00007B0BDE8F08F0121384601F0F0F94846C8
:1075E00001F005FA404601F002FADAF808000290CC
:1075F000C0B203300AEB800002A9FFF795FF029B9F
:1076000030BBDAB20AEB8202D16803919A1C0133D3
:10761000DBB20AEB83030292D3F80CB001F0030350
:10762000012B22D0022B15D08346404601F0E2F90F
:1076300010B1029BCAF808305946384601F0BFF92C
:10764000DAF80830DAF8042003F580739B1AA5E70E
:10765000D8B2CEE7BDF80E30C3F3891303334FEA37
:107660001B4B02EB93030293DFE7BDF80C30C3F32F
:1076700083134FEA1B4B1344F5E7A40544F00600BF
:1076800098E700BF302E0020064B074810B50022B7
:107690001A7001F022FC044610B9044801F0CAFC3B
:1076A000204610BD302E0020D4C90200ACCA020012
:1076B00030B50A4C71B10A4A0A49121BD20800239C
:1076C0009A4201D1002030BD31F82350854202D0CA
:1076D0000133F5E7034654F83300F4E7E8C9020044
:1076E00060CA0200802C0020094B013903EBC00066
:1076F000032909D8DFE801F00A02040604207047D4
:107700000079704740797047002070470220704729
:10771000E8C90200034BD3E90130C31A584258416B
:10772000704700BF302E00202DE9F04186B0FFF7F2
:10773000F1FF0546002840F0E680744CC4F81804B8
:10774000BFF34F8FA3680293DBB2033304EB8300D4
:1077500002A9FFF7E9FE029B18B1D4F81824002A09
:1077600055D0DAB2991C013304EB8202DBB204EB90
:107770008303D268DB68049302F00303022B0392B5
:1077800002914FD1BDF80E306148C3F38917502FD5
:107790003E4628BF502666F38F1306F10801ADF868
:1077A0000E3001F0B2FB0546002800F0978001F092
:1077B000DBFB002303A90822284601F0E8FB02991D
:1077C000CB43DBB20133C9B20331B6EB830F4FEACF
:1077D000830804EB810122D908234246A6EB080660
:1077E000284601F0D4FBF6B24A4908F108033246B4
:1077F000284601F0CCFB029B033703EB9707029767
:10780000D4F81834002B41D1D4F8106451E06268E8
:107810009A4299D8A260284606B0BDE8F0810823B4
:107820003246E5E7012B59D1BDF80C303848C3F397
:107830008311062928BF062161F3891302318900CB
:10784000ADF80C3001F061FB0546002846D001F090
:107850008BFB0023082203A9284601F098FB002691
:10786000BDF80C20C2F38312B300964203F1080363
:10787000C6D202994A1CC9B20331029204EB8101BB
:107880000422284601F083FB0136E9E7284601F08F
:107890006FFBFFF73FFF80F00100C5B2BBE7F36865
:1078A0005B7923B1336829461B6830469847F368F3
:1078B0001E68002EF3D1284601F05AFB0DF1070097
:1078C0008DF8076000F030FED4F818340BB9029B35
:1078D000A3609DF8070000F04BFEDAE7D4F81044EF
:1078E00054B90D4B0D480E49C01AC008000440F0B1
:1078F000020000F05DF8CCE7236820469B689847BB
:10790000E3681C68ECE7002585E700BF302E002007
:10791000D4C902003C2E0020E8C9020010CA0200AF
:1079200094CA02002DE9F34704460E46924601A987
:10793000012218469946FFF715FE1B4F10B3019D13
:107940004FF00008AA1CC84508EB020123D11748D4
:10795000002101F005F880F31000000440EA144013
:10796000E4006B1C04F03804DBB2EDB244F0010417
:1079700007EB8303033544EA881444EA8624D8607D
:1079800047F825403B781BB1FFF7CEFE0028FBD11E
:1079900002B0BDE8F087C9B207EB81015AF8283080
:1079A000CB6008F10108CEE7302E00204C320020D9
:1079B00000231A46FFF7B6BF07B50123019201AABB
:1079C000FFF7B0FF03B05DF804FB07B5CDE9002376
:1079D00002236A46FFF7A6FF03B05DF804FB1FB55C
:1079E000CDE90123069B039301AA0323FFF79AFF26
:1079F00005B05DF804FB000030B50F49D1F8102444
:107A000003460020144634B9DC6820714AB9C1F835
:107A10001034226030BDE4682579854206D02468A0
:107A2000F1E7D268116821601360F3E701300A289A
:107A3000E8D14FF0FF30EDE7302E0020084A38B58E
:107A40000123D2F8104413701D4604B938BDE36811
:107A50005D71236820465B689847E3681C68F4E71B
:107A6000302E002007B503460846197A052911D0A3
:107A70005B7A2BB1094A0A49019001F01EF801987E
:107A80000849019001F019F8019803B05DF804EB82
:107A900001F008B8002AF8D0F2E700BFB8CA020027
:107AA000BDCA0200DDCA020030B5C38885B00446F5
:107AB0000D4633B1144A00921449154A284600F085
:107AC000FCFF217A05291DD0637A4BB1A088FFF70E
:107AD0000BFE104B104953F82020284600F0EDFF14
:107AE000227A0E4BA08853F8222003920021FFF740
:107AF000DFFD039A0A490346284605B0BDE8304039
:107B000000F0DBBF05B030BDB8CA0200C8CA020031
:107B1000C0CA020044CB0200BDCA020068CB02000A
:107B2000E0CA02002DE9F04385B01F460C9D0023FA
:107B300095F80C902B7306460C469046294638461D
:107B4000FFF7B2FFB8F1060F09D8DFE808F004121A
:107B5000181F283340003146284600F0AEFF0022AF
:107B600029463846FFF77EFF85F80C9005B0BDE842
:107B7000F08322683146284600F09FFFEFE7D4E902
:107B800000233146284600F098FFE8E7A3680093F9
:107B90003146D4E90023284600F08FFFDFE7E36891
:107BA0000193A36800933146D4E90023284600F0EE
:107BB00084FFD4E723690293E3680193A3680093E9
:107BC0003146D4E90023284600F077FFC7E7636910
:107BD000039323690293E3680193A36800933146FA
:107BE000D4E90023284600F068FFB8E708292DE90A
:107BF000F74F80460E4617461C463CD8002593F8A2
:107C00000C901D7319461046FFF74EFFDFF888A051
:107C1000DFF888B0AE4231D918F805205946204621
:107C200000F04BFF0135082DF4D11949194DDFF84B
:107C300070A0204600F041FF4FF0000B5E4522D9B6
:107C400018F80B207E2A05D81046019204F0E2FDB8
:107C5000019A00B92E225146204600F02EFF0BF16A
:107C6000010BBBF1080FE9D1012221463846FFF78D
:107C7000F9FE84F80C9003B0BDE8F08F5146204621
:107C800000F01BFFCEE72946204600F016FFE6E78E
:107C9000F4CA0200F2CA0200F0CA0200EACA0200F4
:107CA000F6CA0200C30710B507D4F023054A4008FE
:107CB000145C23401943115410BD0901C9B20F23AC
:107CC000F4E700BF1833002030B5094B1C78094B8E
:107CD000196800239C4202DC0022104630BD11F8D6
:107CE0003350854201EBC302F7D00133F2E700BF06
:107CF000E83200203833002013B504460191FFF725
:107D0000E3FF38B143682BB10199204602B0BDE8CA
:107D10001040184702B010BD034B044819680022F8
:107D2000490800F010BB00BFEC320020F032002008
:107D300010B5C0B2FFF7C8FF0446007801F002FE9C
:107D400063785A1E53425341834208D1044BD3E90E
:107D50000023134303D1BDE81040FFF7DDBF10BD82
:107D60001033002037B54308354AD35CC2074CBFF7
:107D70001B0903F00F0304460D46042B35D8DFE83A
:107D800003F003252C383C0079B30121FFF78AFF6B
:107D900000230DF107008DF8073000F0C5FB01202E
:107DA000A4F12003C4F12001264A20FA01F100FACF
:107DB00003F30B43A040D2E9004120430B43C2E947
:107DC00000039DF8070000F0D3FB0EE0002918BF68
:107DD00002212046FFF766FF07E041B10321FFF7CC
:107DE00061FF01212046FFF787FF03B030BD01216D
:107DF000EFE70029F9D10421EBE709B10321E8E716
:107E0000FFF750FF29462046FFF776FF0DF10700E8
:107E10008DF8075000F088FB0120A4F12003C4F185
:107E20002001084A20FA01F100FA03F30B43A040B5
:107E3000D2E9004124EA000021EA0303BFE700BFC2
:107E400018330020103300202DE9F041124E134F5B
:107E500000243378A34208DC114BD3E900231343F9
:107E600018D0BDE8F041FFF757BF3D6805EBC408E7
:107E700015F8340001F066FD98F801305A1E53429F
:107E80005341181A4142414115F83400FFF76AFF87
:107E90000134DEE7BDE8F081E8320020383300200D
:107EA00010330020092AF7B505460C4616463CD982
:107EB00001F056FCD8B11E4B1E481D601E4B1F4FD3
:107EC0001C701F4B002120221E6004F0D1FC1D4BB2
:107ED00000200021C3E90001013CE4B20326FF2C8D
:107EE0000BD1194A1948002100F022FA03E001F0F1
:107EF000F1FB0028DFD003B0F0BD9DF8063015F887
:107F000034008DF8046005EBC40223F007038DF8FC
:107F1000063001A993788DF805303A4601F02AFC25
:107F2000013CE4B20028DAD0E5E70720E3E700BF30
:107F30003833002018330020E8320020317D020061
:107F4000EC32002010330020497E020088CB020072
:107F500070B5084D084E00242B789C4201D30020B8
:107F600070BD3368012113F8340001F07FFC013447
:107F7000F2E700BFE83200203833002073B5114D1E
:107F8000114E00242B789C4214D300230DF10700DE
:107F90008DF8073000F0C8FA0C4B00210020C3E92F
:107FA00000019DF8070000F0E3FA094800F0E3F94A
:107FB00002B070BD336813F8340001F0A1FC013445
:107FC000E0E700BFE8320020383300201033002003
:107FD000F03200201FB50021039001AA44F20100F5
:107FE000CDE9011100F004F805B05DF804FB0000D4
:107FF00010B572B6FFF722FDFFF796FB0028FBD104
:10800000104B114C1149E41AE408240444F0010017
:10801000FFF7CEFC0E4B1B68DB0700D500BE0D49F9
:1080200044F00200FFF7C4FCBFF34F8F0A490B4B2B
:10803000CA6802F4E0621343CB60BFF34F8F00BF06
:10804000FDE700BFE8C9020010CA02008CCB0200A5
:10805000F0ED00E098CB020000ED00E00400FA052E
:108060004B1C30B5DB00044612F003009BB20DD16F
:10807000074D2A601A44074B1A60074B1870074BCC
:108080001870074B1C80074B198030BD0720FCE798
:1080900044330020403300203C3300204C33002088
:1080A000483300204A3300202DE9F3472B4F3B880B
:1080B0008B4206460D4690464BD300240DF1070037
:1080C0008DF8074000F030FA254B26481A78264BE9
:1080D000008893F800C084455FFA8CF138BF4C1CCF
:1080E000D2B238BFE4B2A2422DD01C781A78D1B2F5
:1080F000904286BF0131C9B2002119709DF8070076
:1081000000F036FA4FF6FF739C4224D0DFF86090FF
:10811000D9F800204FEAC40A42F8348002EBC403C5
:10812000A6B19DB1114B38881B682A4604FB00306C
:10813000314604F074FBD9F80030534400209D8090
:1081400002B0BDE8F0874FF6FF74D7E700209880B3
:10815000F6E70920F4E70420F2E700BF48330020E7
:108160004C3300204A3300203C33002040330020B1
:1081700044330020F8B5114C114D264622782B7857
:108180009A4200D1F8BD0F480F4A23781268078839
:108190000E4802EBC301006852F83320898803FBC4
:1081A000070090470A4922780988D3B2914286BFD6
:1081B0000133DBB200233370E0E700BF4C33002013
:1081C0003C3300204833002044330020403300205B
:1081D0004A330020D0E90223D1E90201994208BFC5
:1081E00090422CBF012000207047000008B50B48CA
:1081F00000F0F1FA0A4B0B49D3E900231218D1E938
:10820000000143F100038B4208BF824203D212F106
:10821000807243F100031046194608BD882C0020E7
:1082200058330020D033002037B505460C460A48A5
:1082300001A900F004FB60B10570446001A9064883
:1082400000F027FB18B1054800F0CAFA002003B07F
:1082500030BD0420FBE700BFBC330020882C002089
:1082600038B5184B1B78044613B90025284638BD8D
:108270000028FAD0037F03F0FF05002BF5D0FFF7AD
:10828000B5FFD4E90223994208BF904214D3236971
:1082900003B92377D4E90530984721690029E4D050
:1082A000237F03F0FF05002BDFD0D4E9022352180F
:1082B00043F10003C4E902230348214600F0D9FE3C
:1082C000D4E700BF60330020B4CB020013B5114BDC
:1082D00011491868019008231048582200F09CFAB0
:1082E000044698B90E4A0F4801A900F065F9044602
:1082F00060B90C48012100F051FA01230A4A0948EB
:10830000194600F0B3F9094B01221A70204602B059
:1083100010BD00BFB0CB020064330020BC3300208E
:1083200091830200882C0020FFFF7F006033002033
:108330003AB103685A614A1E514251411961002005
:1083400070470720704738B5037F04460D4683B950
:108350008261FFF74BFF2369401941F10001C4E935
:10836000020103B1256121460020BDE83840FFF736
:108370005BBF002038BD0023014603770120FFF7D3
:1083800053BF0000014800F026BA00BF882C00202F
:108390002DE9F04F85B0804600F008FA40B15A4A06
:1083A000D2E9003113F1807341F10001C2E90031DB
:1083B0000021404600F009FA38B1544E336823B129
:1083C0003068FFF74DFF002333600121404600F085
:1083D000FCF920B1FFF70AFF4D4BC3E900014D48FE
:1083E0004A4F4D4EDFF8389103A900F062FA002899
:1083F00045D1DFF82491454EDFF828A1484600F02A
:108400004EFE3368002875D07BB13368D0E9020195
:10841000D3E90223994208BF90422DD233681B7FD3
:108420001BB13168484600F024FE484600F031FE9A
:10843000D0E902B307460193FFF7D8FE019BBBEBDF
:10844000000463EB0105012C75F1000345DBB4F575
:10845000350F40D3FFF796FF304A02444FF496039E
:108460000021504600F022F900283ED1336813B9AC
:10847000404600F0F3F8376005B0BDE8F08F0378B0
:10848000012B1DD0022B09D14FF0000A304600F01D
:1084900000FE002834D080F81CA0F7E73BB9416803
:1084A0000B7F23B901230B77304600F0E2FD03A9CF
:1084B000184800F029FA03A9164800F0FAF996E7DF
:1084C00041683B68994202D100233B60EFE73046A8
:1084D00000F0E8FDEBE7BA68C0E70021504600F085
:1084E0006AF93846FFF7BCFE01E00D28F9D00023F9
:1084F000336083E7002BBFD1404600F0B3F8BBE701
:10850000012389F80030D2E758330020D833002007
:10851000D0330020BC330020B4CB0200FFFFB400F6
:1085200060330020882C002070B5EFF3108672B6FF
:108530000C4A946801239CB993600B4B0B4DD3F804
:10854000801029401160C3F88050D3F88410516026
:108550004FF0FF32C3F88420047006B962B670BDD4
:108560000370FAE7DC33002000E100E0FC06FFBD09
:10857000084B9A6810B55AB150B9EFF3108172B632
:10858000054A1C6814605C685460986001B962B662
:1085900010BD00BFDC33002000E100E0435882B092
:1085A0003BB10023435043580193019B012002B08B
:1085B00070471846FBE70000F8B5204B4479204D82
:1085C00043F824201F4A204B05EBC4049B1A227950
:1085D000DB081B0432B143F002001C49FFF7E8F945
:1085E0000820F8BD02680C88C2F8084590F90460BC
:1085F0008A7804795201002ED2B219DB14498F19FE
:1086000087F800230122760904F01F0402FA04F41B
:1086100041F82640427905EBC201012445F83200B9
:108620000C7143F003000B49FFF7C2F90020D8E7B3
:10863000094904F00F040A55ECE700BFF0330020AD
:10864000E8330020E8C9020020CA0200C0CB0200C3
:1086500000E100E0E2CB020014ED00E0036801223B
:108660001A607047036801225A60704773B501F1C0
:108670005005AD000068ADB24FF480348C40002648
:10868000C0F80843C0F84843465101F5A871455960
:10869000019522F07F42019D40F82120C0F844431B
:1086A0000BB1C0F8044302B070BD00002DE9F74FD4
:1086B0000D4622F07F4402684FF4803705F15006E2
:1086C0008F408046B60002EB8500C2F84873B6B210
:1086D000C2F80873D2F8041599464FF0000BD0F891
:1086E0004035C0F8401542F806B05B1A9259009226
:1086F00023F07F43012B009A4FEA850A0CD1264BC9
:108700004FF4806043F001039847D8F8003043F8F5
:1087100006B09B590193019BD8F80010D1F804656D
:10872000C1F84473A31B23F07F43012B1CD11A4BC8
:1087300005F5A875013443F0010341F825404FF4D5
:1087400080609847D8F80030D3F804359E4209D1AC
:10875000D8F800300020C3F84473C3F8047303B0A2
:10876000BDE8F08F0D20FAE78A44C9F1FF13CAF87B
:108770004045D1F80405221A013A22F07F4203F560
:108780007F439342EED3002AE2D10134CAF8404538
:10879000D1F804359842DAE700CC020003680222DF
:1087A000C3F8442309B1C3F80423704700684FF4A9
:1087B0008271FFF7F3BE4FF4803303FA01F10368CF
:1087C000C3F84813C3F80813704750318900006894
:1087D00089B2FFF7E3BE0368D3F8040570470000D1
:1087E00090F90430002B09DB5A09012103F01F0323
:1087F00001FA03F34032024941F82230704700BFCA
:1088000000E100E0024B034A1B681068184700BFF4
:10881000F0330020E833002010B561B1B2FBF3F46F
:1088200003FB1424A4B244B9C0E90014846082811B
:10883000C381204610BD0E20FCE70920FAE737B5BA
:1088400050E8013F9DB2C48925448489A54228BFD0
:108850002D1B0489A54202BFBFF32F8F002207E022
:10886000C5EA030540E80154002CE9D14FF00102AC
:108870008DF803200193019B9DF803200B6002F00B
:10888000FF0322B10B880068184403B030BD1846BE
:10889000FBE70A884B889A4209D150E8012FC2EAC7
:1088A000024240E80123002BF7D10120704700204D
:1088B000704737B550E8023F1FFAA3F5C488A542B8
:1088C00002BFBFF32F8F00220DE0C48925448489A5
:1088D000A54228BF2D1BC3EA054540E80254002CE1
:1088E000E8D14FF001028DF803200193019B9DF820
:1088F00003200B6002F0FF0322B14B88006818448C
:1089000003B030BD1846FBE70A884B889A4209D16C
:1089100050E8022FC2EA224240E80223002BF7D19E
:10892000012070470020704701F01F024B09012110
:10893000914000EB830000F01EB801F01F030122FC
:108940009A404B0900EB8300D14300F02CB84B094F
:1089500001F01F0150F82300C84000F001007047EB
:1089600010B5034653E8000F0A4643E8002494F08C
:10897000000FF7D110BD10B5034653E8002F42EAAF
:10898000010043E8000494F0000FF6D110BD10B5CB
:10899000034653E8000F00EA010243E8002494F084
:1089A000000FF6D110BD10B5034653E8002F02EAC0
:1089B000010043E8000494F0000FF6D110BD10B59B
:1089C000034653E8002F02EB010043E8000494F053
:1089D000000FF6D110BD10B5034653E8002FA2EBEF
:1089E000010043E8000494F0000FF6D110BD01210E
:1089F000FFF7C1BF0021FFF7CABF10B590B1D0E9A2
:108A0000012301689B1ADBB20A60013BDBB2FF2B3A
:108A1000026802D10020107110BD11684C1C146056
:108A20000B70F2E70E20F7E737B5054600240DF18D
:108A300007008DF80740FFF777FD2A686B6811681B
:108A400099420ED9481E106011F8014CEB68298A32
:108A500001FB0434AB6811791B1ADBB2994238BFB1
:108A600013719DF80700FFF783FD204603B030BD6A
:108A700037B5054600230DF107000C468DF8073089
:108A8000FFF752FD2A681368591C1160E968641ADF
:108A9000298AB4FBF1F41C709DF80700FFF768FD0C
:108AA00003B030BD826810B504462AB1436901683D
:108AB000006998470023A36010BD0EB403B5039965
:108AC00021B104AB01AA019300F076F802B05DF881
:108AD00004EB03B070470A2938B504460D4602D1AD
:108AE0000D21FFF7F8FFA3682268591CA160D55437
:108AF000D4E901329A4204D32046BDE83840FFF75A
:108B0000D1BF38BD2DE9F84F9846DDE90A43154637
:108B100082460F460A464FF00109AA420FD2C145CC
:108B200038BFC14613F0010B01D16CB900240126F6
:108B3000B8F1010F1BD908F1FF386E43F8E709F1CE
:108B40000109B2FBF5F2E8E79B070ED5B8F1000F7B
:108B50000CBF30262026A145E9D2013C31465046C3
:108B6000FFF7B9FF002CF6D1E0E72026F3E7B7FBCB
:108B7000F6F39D42E1D9DFF83C80B7FBF6F35046AF
:108B800018F8031006FB1377FFF7A5FF3346AB4237
:108B9000B6FBF5F6F1D2BBF1000F02D00CB1A14546
:108BA00001D3BDE8F88F20215046013CFFF793FF29
:108BB000F4E700BF06CC02002DE9F74F0546174643
:108BC0008846002900F0428118F8011B49B92B7B27
:108BD000002B00F03B81284603B0BDE8F04FFFF7C3
:108BE00061BF252940F0B780002698F800302D2B72
:108BF000424608F1010823D0302B24D02B2B25D05E
:108C000000242A2B02F1010123D13B681A1D1B68A5
:108C10003A601C440A4613782E2B26D101324FF0BD
:108C2000000A104610F8011BA1F1300CBCF1090F2D
:108C30001DD80A2303FB0A13A3F1300A0246F0E70A
:108C400046F00106D1E746F00206CEE746F00406FC
:108C5000CBE711F8013CA3F130000928DBD80A2248
:108C600002FB0434303C0A46CBE74FF0000A12F80E
:108C7000011B01F0FB0068289046F8D0782909D83C
:108C80006F290CD8632962D022D8252963D05829AE
:108C900000F0888098F80030002B95D197E7703964
:108CA0000829F7D801A353F821F000BF278E02004E
:108CB000958C0200958C0200B58D0200958C020007
:108CC000938D0200958C0200958C0200A58D020008
:108CD000642901D06929DDD13A68D2F80090111DCC
:108CE00089EAE9723960A2EBE9724FF0010B092AB7
:108CF00035DCD34538BFD3462CB1B9F1000F01DBC9
:108D0000720700D5013CB30702D5BAF1000F03D0BA
:108D1000F00701D44CBB0024B9F1000F2DDAC9F1E2
:108D200000092D212846FFF7D6FE06F00302022A8D
:108D300004D1BAF1000F01D11CBB0024CDE90046DB
:108D400053460A2249462846FFF7DCFEA2E73B6865
:108D50001A1D19783A602846FFF7BDFE9AE70A23E4
:108D60000BF1010BB2FBF3F2C1E7A345D4D22021F2
:108D70002846013CFFF7AFFECCE77107D5D52B2184
:108D8000D0E7A345DAD230212846013CFFF7A3FE05
:108D9000D2E73968CDE900460A1D3A6053460A22F7
:108DA0000968D0E739680A1D3A60CDE900465346A4
:108DB0001022F5E73B681A1D3A6016F00106D3F859
:108DC000009028D1B9F1000F03D0484603F0A5FD6B
:108DD0000646B44200D904BB09F1FF3919F8011F56
:108DE00000293FF457AF2846FFF775FEF6E72846FF
:108DF0000136FFF770FE19F806100029F7D1A642D8
:108E0000BFF448AF002C3FF445AF20212846013C79
:108E1000FFF761FEF3E70026EDE720212846013C3D
:108E2000FFF759FED5E73B681A1D3A603021284606
:108E30001C68FFF750FE78212846FFF74CFE002201
:108E40000823CDE90032214610227CE703B0BDE8BB
:108E5000F08F00BF2DE9F84FB0F806A04579D2F8A1
:108E600000B09DF828900AFB05F5043D88460BEB01
:108E70000301A94203F1040488BFA5EB030BB4FB73
:108E8000FAF607460AFB1644C2F800B04EB9AAEB40
:108E900004055D4528BF5D46BBF1000F04D1BDE868
:108EA000F88F3F68013EF1E7043408EB06003C44CC
:108EB0002A46B9F1000F0DD02146ABEB050B03F0AC
:108EC000AEFCDA452E443F6855464FF0000428BFFB
:108ED0005D46E1E701462046EFE7FFF78EBDF8B5B6
:108EE00046790146721E0546002393422D6803D33E
:108EF0000024A64202D8F8BD0133F6E70F682846E1
:108F0000FFF7B6FD01343946F3E72DE9F843068A49
:108F1000CD1C0746FFF788FD043E35440446B5FBEB
:108F2000F6F5F0B14FF48073EDB28380C680013D59
:108F3000076081464FF00008A84512D23846FFF777
:108F400073FD064648B163790133637108F1010886
:108F5000C9F8000007608146EEE72046FFF7BFFF33
:108F600034462046BDE8F88301210430FFF727BDD1
:108F700010B5012104460430FFF72DFD10F0FF0F5E
:108F800004D12046BDE81040FFF7A9BF10BD1FB5B2
:108F900003920022009203AAFFF75CFF05B05DF880
:108FA00004FB1FB503920122009203AAFFF752FFB0
:108FB00005B05DF804FB41DF70470000064B10B5BB
:108FC00000241C70054B1C60BFF35F8F04490548EB
:108FD00000F039F8204610BDFC330020003400209A
:108FE00020CC0200F433002007B500230DF1070068
:108FF0008DF80730FFF798FAF1EE103A23F09F034F
:10900000E1EE103ABFF35F8F094B4022C3F8842191
:109010009DF80700FFF7ACFA02F0E4FE20B1FFF77D
:10902000CAFF03B05DF804FB20BF40BF20BFF8E7D4
:1090300000E100E0836800225A60C3E904229A60DC
:10904000DA601A6070470B684A684360934208BF51
:109050000023016008BF43607047436843B1026862
:10906000916852680B449342436004BF00234360FD
:10907000704770B5446806460D46206818B1B3685D
:109080002946984718B923682B60256070BD24686D
:10909000F3E74368186808B102681A6070474368CC
:1090A000186870474368186800B97047884203D150
:1090B00002681A600120704703460068F4E7000068
:1090C00010B50D49A1F59472914201D800200FE02E
:1090D0008C1AE30F03EBE4035B1002EBC30452F8BA
:1090E0003330834205D802D204F10802ECE760680D
:1090F00010BD2146E8E700BF2CD1020008B5FFF7FC
:10910000DFFF024B002808BF184608BDEFCF020062
:109110000A4B1B685A1C05BF094B0A4A0A4A1068C9
:109120000ABF1B781068C0F303100D2B04D101286F
:109130008CBF0020012070470020704730010010D4
:10914000E00F00F0E80F00F03401001008B5FFF761
:10915000DFFF40B14FF080430022C3F80C21C3F879
:109160001021C3F83825FFF7D3FF002846D04FF071
:1091700080524D4BD2F80414C3F82015D2F80814CD
:10918000C3F82415D2F80C14C3F82815D2F810141B
:10919000C3F82C15D2F81414C3F83015D2F81814EB
:1091A000C3F83415D2F81C14C3F84015D2F82014B3
:1091B000C3F84415D2F82414C3F84815D2F828147B
:1091C000C3F84C15D2F82C14C3F85015D2F830144B
:1091D000C3F85415D2F83414C3F86015D2F8381413
:1091E000C3F86415D2F83C14C3F86815D2F84014DB
:1091F000C3F86C15D2F84424C3F87025FFF788FF34
:1092000048B14FF08043D3F80024D20744BF6FF039
:109210000102C3F80024254AD2F8883043F47003D1
:10922000C2F88830BFF34F8FBFF36F8F4FF010231A
:10923000D3F80022002A03DBD3F80432002B2FDA04
:109240001B4B0122C3F80425D3F80024002AFBD0CD
:109250004FF010221221C2F80012D3F80024002A85
:10926000FBD04FF010231222C3F80422104B1A46F1
:10927000D3F800140029FBD00021C3F80415D2F85C
:109280000034002BFBD0BFF34F8F0849094BCA684D
:1092900002F4E0621343CB60BFF34F8F00BFFDE7E2
:1092A000054B064A1A6008BD00C0004000ED00E012
:1092B00000E001400400FA05902C00200090D0034B
:1092C000074B1B5C1F2B86BF064903F01F034FF0A3
:1092D000A041012202FA03F3C1F80C35704700BF28
:1092E0002CD1020000030050074B1B5C1F2B86BFD4
:1092F000064903F01F034FF0A041012202FA03F3D5
:10930000C1F80835704700BF2CD10200000300509F
:1093100008B50020FFF7E8FF0120FFF7E5FF022076
:10932000FFF7E2FFBDE808400320FFF7DDBFC207FB
:1093300010B504460CD54FF0A0430322C3F83427E0
:10934000C3F83827C3F83C27C3F84027FFF7E0FFEE
:10935000A3070AD54FF0A0430C22C3F82C27C3F86B
:109360003027C3F86027C3F8642710BD38B5074C11
:10937000051E04F1080318BF1C4623682BB11A68A8
:1093800022605B6828469847F7E738BD0C34002018
:1093900020B9054B01225A70FFF7E8BF012802D11E
:1093A000014A9070F8E770470434002020B9034B5D
:1093B00001225A70FFF7DABF704700BF0434002063
:1093C00038B50E4C2378B3B90D486360A3602361B0
:1093D000E36000F0E5F8054602F004FD08B900F08E
:1093E000EBF801232370074BD3F800340BB10123B2
:1093F000A370284638BD8525F5E700BF043400205A
:10940000919302000000014037B50D4C00230DF18F
:1094100007008DF80730FFF787F8E368013BE3604A
:10942000E36833B9074BD3F8005415B900F0D6F808
:10943000A5709DF80700FFF79BF803B030BD00BF93
:109440000434002000000140012813B50CD003288B
:1094500020D038B9124B0122C3F88020BFF34F8FC0
:10946000BFF36F8F02B010BD0E4C00230DF107004B
:109470008DF80730FFF758F823780BB9FFF7A0FFF6
:10948000E3689DF807000133E3600123A370FFF751
:109490006FF8E7E700F090F8FFF7B6FFE2E700BFEC
:1094A00000E100E0043400201FB503788DF800309F
:1094B0004368019383688DF80830C368054A0393B5
:1094C000054B684653F8213052F82110984705B0F3
:1094D0005DF804FB18340020203400201FB5037809
:1094E0008DF800304368019383688DF80830C368B5
:1094F000054A0393054B684653F8213052F8211072
:10950000984705B05DF804FB183400202034002093
:10951000F0B5194B90F800C0DFF86CE043F82C2050
:10952000164B16460A6943F82C204B7F0EF80C3078
:109530000C4607460FCC89B06D460FC594E80F0066
:1095400085E80F001EF80C30CDF810C04BB1002E8E
:109550000B4A694608BF3246381D00F009FE09B0C3
:10956000F0BD002E074A694608BF324607F10C00DD
:1095700000F0CAFBF3E700BF2034002018340020BD
:10958000A9940200DD9402002834002000F18040FC
:10959000002382B0036003680193019B02B070470F
:1095A000044A137923B901211060117118467047DC
:1095B000852070472C340020074B1A68D20704D44A
:1095C000C02283F8002301221A604FF08043012259
:1095D000C3F81825704700BF00E100E04FF080425B
:1095E00008B50223C2F808334FF48270FFF7CEFFAC
:1095F000034B01211960D2F81834DB03FBD408BDFA
:109600000C000040114B1B6810B563B14FF4807023
:10961000FFF7BCFF4FF080430122C3F808230C4B37
:1096200000201B6898470B4B1B6873B14FF4827086
:10963000FFF7ACFF4FF080430222C3F80823044B2E
:10964000BDE810401B680120184710BD0001004014
:109650002C3400200401004000F1804000F5C0409F
:10966000002382B0036003680193019B02B070473E
:1096700003681F2B83BF03F01F03036001484FF0F3
:10968000A04070470003005007B5019001A8FFF704
:10969000EFFF019B00EB8300D0F8003723F4403349
:1096A000C0F80037D0F8003743EA0141C0F800178E
:1096B00003B05DF804FB0000054B4FF0FF320728B4
:1096C00043F8202084BFC01880F85220704700BFA4
:1096D0003434002038B51E4C94F86430ABBB40F2F3
:1096E000FF31FF205A09012A14BF4FF0FF320A460A
:1096F00003F01F05EA40D20748BFE21803F1010357
:1097000048BF82F830002A2BECD10021C8B2FFF705
:10971000D3FF01310C29F9D1062200210D4803F0B5
:10972000A7F80D4BC02283F8062340221A604FF49D
:10973000BE70FFF791FF094B4FF00042C3F80423BE
:10974000012384F86430002038BD0820FCE700BF06
:10975000343400209234002000E100E0006000403A
:10976000034B93F86400003818BF0120704700BF16
:1097700034340020F7B53B4E3318054693F93030AA
:10978000002B6CDA8B78C3F34003002B0BBF08244B
:1097900000240C200820844202D1042003B0F0BD34
:1097A00056F82470013743D1701946F8242080F808
:1097B000304013B9331983F852508B785A0717D4B5
:1097C000D80737D501A80195FFF752FF019B00EBA1
:1097D0008300D0F8003723F00203C0F80037224896
:1097E000EA0805F007070123BB40875C3B4383542D
:1097F0008B780A7813F0020328D0A40004F1804487
:1098000004F5C0442D02D4F8103523F44F3323F46B
:109810004073C4F810351204D4F8103505F47C55A3
:1098200002F4403215431D43C4F810550020B5E73B
:109830000134B0E701A84A780195FFF719FF019BB1
:1098400003F5E073920040F82320C8E7083C344455
:1098500094F85A5045EA821284F85A20E6E7082024
:109860009CE700BF343400209234002073B5224CB2
:109870002618054696F93020072A1ADD224492F868
:1098800052309B09032B0FD1019001A8FFF7F0FE86
:10989000019BD0F81015D94001F001010231284692
:1098A000FFF7F2FE02B070BD012B0CBF02210321B5
:1098B000F5E7D3B2072BF5D8930003F1804303F506
:1098C000C043D3F8100540F00100C3F8100502F1C1
:1098D0004000800080B2FFF7BFFE0029E2D096F979
:1098E000303054F82330002BDCD0012303FA02F28D
:1098F000024BC3F80423D5E7343400200060004055
:109900000E4B034493F93020072A02DD0021FFF7B4
:10991000BBBED3B2072B10D8930003F1804303F5ED
:10992000C043D3F8101521F00101C3F8101501232D
:1099300003FA02F2024BC3F80823704734340020C4
:109940000060004007B5019001A8FFF791FE019B60
:10995000D0F81005D84000F0010003B05DF804FB1A
:109960002DE9FF470024CDE90244584D4FF48072A1
:10997000012102F1804303F5C04390B21B68012B23
:1099800006D1D5F804330B4202D0FFF765FE0C4335
:109990000432B2F5907F4FEA4101EAD14C4B1B688B
:1099A000012B11D14FF4BE70FFF756FE4FF0A043CC
:1099B00044F00044D3F820250292C3F82025D3F8C0
:1099C00020280392C3F8202814F0FF0F1AD0414F2B
:1099D00000250126344210D0AB0003F1804303F58B
:1099E000C043D3F81005D3F8101557F8253023B12C
:1099F000C1F30141C0F3052098470135082D4FEA16
:109A00004606E7D1002C59DA324D334C334E4FF035
:109A10000008012716F9013B5A1C3CD0C3F3C201D0
:109A200004A801445FFA83F911F8081C03F03F020F
:109A300003F0070307FA03F319422CD001A801929F
:109A4000FFF716FE019B03F5E07350F82330C3F3D4
:109A5000014ABAF1020F10460CBF03210221FFF7A1
:109A600013FE01A80192FFF703FE019B07FA03F31F
:109A7000C0F82035AB1893F9303055F8233053B186
:109A80004FEA9911032904D0BAF1020F19D1012923
:109A900001D11046984708F10108B8F1040FB9D177
:109AA0004FF0A043D3F820250292C3F82025D4F824
:109AB00020350393C4F820351343A7D104B0BDE883
:109AC000F087BAF1030FE6D10229E1E70060004018
:109AD0007C61004034340020000300508E340020AC
:109AE000014B1B68184700BF9C3400200E4B984266
:109AF00037B50C4602D0002003B030BD00230DF175
:109B000007008DF80730FEF70FFD084B1D7915B9DA
:109B100001221C601A719DF80700FEF729FD002D37
:109B2000E9D01120E8E700BF002000409C3400206D
:109B30000023435082B043580193019B02B0704709
:109B40000A4610B54FF48E71FFF7F2FF136A916861
:109B5000C95C136A01331362C0F81C1510BD0246BC
:109B600008B500684FF49271FFF7E2FF4FF484717B
:109B70001068FFF7DDFF136801221A6008BD8B69CA
:109B80000A4610B54FF4847123B9FFF7D1FFD0F81E
:109B9000183510BDFFF7CCFF536AD168D0F818050F
:109BA000C854536A01335362F3E700001FB5012321
:109BB0008DF80030044BCDE90110D3E9001268465E
:109BC000904705B05DF804FBA434002030B54C4844
:109BD000D0F8043313F4007F85B005464DD0D0F89B
:109BE0002431002B49D04FF49271FFF7A1FF4FF4BD
:109BF0000173C0F80833434B93F829200AB90122B6
:109C000042603F4902228DF80020D1F88024C1F83B
:109C1000802403929A690292DA6801920022C3E9D1
:109C200006226846D3E9001290473548D0F81C3127
:109C30005BB134494A690B6A9A420A464AD991F89B
:109C40002830002B46D1FFF77BFF2D48D0F8443158
:109C50008BB14FF4A271FFF76BFF2A4B93F82920C9
:109C60000AB1012202609A692AB10022586AD968B1
:109C70009A61FFF79BFF05B030BDD5F804335B0751
:109C8000D3D5D5F80831002BCFD01E4C1C48214627
:109C9000FFF775FF636AA2699A422346C5D1E2695C
:109CA000E1684AB12369E3600023606AA261E3616D
:109CB0006362FFF77BFFB8E794F829200AB9012215
:109CC0006A600F4A4FF40170C2F808030022586A14
:109CD0009A61EEE70A484FF48E71FFF729FF536946
:109CE000002BB2D051690291002391688DF80030A9
:109CF000019153616846D2E900139847A5E700BF78
:109D000000200040A43400202DE9F843614B057980
:109D100091462C2202FB0532064692F82A200C4678
:109D20009846002A40F0B1805B490068FFF7DEFEEC
:109D30000746002840F0AB8021684A1C10D01F293C
:109D400087BF564A01F01F030B464FF0A042012087
:109D5000984003F5E073C2F80805032042F8230099
:109D60006068431C0DD01F288BBF00F01F03034603
:109D70004A4A4FF0A04203F5E0734FF0000C42F85E
:109D800023C03368A269C3F8242594F814C0627D07
:109D9000BCF1010F4CEA0202C3F86C25C3F81405AC
:109DA000C3F80C152BD1A168481C0DD01F298BBFFF
:109DB00001F01F020A4639484FF0A04002F5E07258
:109DC0004FF0000C40F822C0E068421C13D01F285E
:109DD00087BF324A00F01F0C84464FF0A0424FF07C
:109DE000010E0EFA0CFE0CF5E07CC2F808E54FF00F
:109DF000030E42F82CE0C3F80805C3F810152C2315
:109E00006B4308EB0302C2F80490226948F8032070
:109E1000B9F1000F21D03068247F4FF48E71FFF725
:109E200087FE4FF4A2713068FFF782FE32681C4B48
:109E3000C2F80433110B42F307326301002ADBB28C
:109E40001EDB1848841884F800330123520901F0FE
:109E50001F0103FA01F140F8221033680422C3F80D
:109E600000252C2303FB05830022C3E9062283F887
:109E700029205A61012283F82A203846BDE8F88358
:109E8000094A01F00F015354E7E70827F5E71127C6
:109E9000F3E700BFA4340020CD9B02000003005074
:109EA0008000020000E100E014ED00E02DE9F04741
:109EB000204F90F804904FF02C0808FB09740546D9
:109EC0006669002E34D162610068A16026624FF499
:109ED0008E7184F82860FFF72BFE286801238360C9
:109EE0002146FFF72DFE6368A0468BB92868D4F899
:109EF00014A0236A9A4511D82A68D2F81C31002B85
:109F0000FBD00123D3602C2303FB097300225A6189
:109F10003046BDE8F08794F828303BB9D0F81C31C2
:109F2000002BF8D04146FFF70BFEE2E70F26EAE7E9
:109F30001126EDE7A43400202DE9F843394F0579C7
:109F40002C2303FB057306465C6824B103684FF4B9
:109F50000170C3F808032C2303FB0573986950B103
:109F6000D86900283ED024B133684FF40172C3F899
:109F70000423112433E09A61D9605862D8612C23FC
:109F800003FB057393F829301BB910B93046FFF76E
:109F9000E6FD4FF02C0909FB05783068D8F804304D
:109FA000002B34D14FF4A271C146FFF7C1FD3068D8
:109FB000D0F82431D0F80821D0F84441B2B90CB916
:109FC000002BF4D02C2202FB05750022AA6123BBD2
:109FD0002CBB95F8291033680122B1B11A602046D4
:109FE000BDE8F8831961DA610120C8E7002BE9D1E7
:109FF000002CE7D14946FFF7C2FDD8F82430D8F845
:10A0000018209A42D3D82346DCE75A60E7E74FF49A
:10A010000173C0F804330024E1E70324DFE70F24D1
:10A02000DDE700BFA43400200023435082B0435832
:10A030000193019B02B070471FB501238DF80030DA
:10A04000044BCDE90110D3E900126846904705B0F2
:10A050005DF804FBD03400207FB5434AD2F8246178
:10A06000002E60D010464FF49271FFF7DDFF0223FF
:10A070008DF80030D2F88034C2F880340393D2F8DF
:10A080003C350293394BDA6801920022C3E906227B
:10A090006846D3E9001290473348D0F8443173B191
:10A0A0004FF4A271FFF7C0FF304B9A693AB100221A
:10A0B000C3E90622D968D0F83C05FFF7BDFF2A485E
:10A0C000D0F82031ABB14FF49071FFF7ADFF012311
:10A0D000C360264B5A6962B1D0F84C150291002238
:10A0E00099688DF8002001915A616846D3E9001201
:10A0F00090471D48D0F858319BB14FF4AC71FFF731
:10A1000093FF1A4B5A6962B1D0F84C1502910022A4
:10A1100099688DF8002001915A616846D3E90012D0
:10A12000904704B070BDD2F81031002BB4D04FF47A
:10A1300088711046FFF778FF0C4BD2F83C059969FF
:10A140008842A9D1DC69D96864B1D2F8005225F0FF
:10A150002005C2F800521A699C61DA60DE61FFF7DF
:10A160006BFF99E79C61FAE700200040D0340020A3
:10A170002DE9F843674B06799146242202FB06320B
:10A18000044692F820200D469846002A40F0BE80F2
:10A1900061490068FFF7AAFC0746002840F0B88034
:10A1A0002868421C10D01F2887BF5C4A00F01F039C
:10A1B00003464FF0A0420121994003F5E073C2F835
:10A1C0000815032142F8231069684B1C0DD01F2984
:10A1D0008BBF01F01F030B46504A4FF0A04203F51E
:10A1E000E0734FF0000C42F823C02368AA69C3F85B
:10A1F000242595F814C06A7DBCF1010F4CEA0202D7
:10A20000C3F86C25C3F80C05C3F814152BD1A96845
:10A21000481C0DD01F298BBF01F01F020A463F4882
:10A220004FF0A04002F5E0724FF0000C40F822C061
:10A23000E868421C13D01F2887BF384A00F01F0C63
:10A2400084464FF0A0424FF0010E0EFA0CFE0CF5C2
:10A25000E07CC2F808E54FF0030E42F82CE0C3F8AA
:10A260000805C3F810152423734308EB0302C2F852
:10A2700004902A6948F80320B9F1000F30D0206813
:10A280002A7F4FF48871FFF7CFFE20684FF490715A
:10A29000FFF7CAFE20684FF49271FFF7C5FE2068F1
:10A2A0004FF4A271FFF7C0FE4FF4AC712068FFF7C6
:10A2B000BBFE23681A49C3F80413190B43F3073391
:10A2C0005201002BD2B21CDB1648C51885F80023BA
:10A2D00001225B0901F01F0102FA01F140F823108D
:10A2E00023680822C3F80025242303FB06830022E9
:10A2F000C3E906225A61012283F820203846BDE8CE
:10A30000F883094B01F00F015A54E9E70827F5E7F4
:10A310001127F3E7D034002059A0020000030050B9
:10A320001003420000E100E014ED00E001F06043A2
:10A33000B3F1005F2DE9F041064638D11E4B077995
:10A34000242505FB073598466C69002C31D16A61DC
:10A350000068A9604FF49071FFF766FE4FF4AC718E
:10A360003068FFF761FE33686A69A968C3F844156D
:10A37000C3F8482501229A606A68AAB9D3F8202157
:10A38000D3F858411AB9002CF8D00F2407E0002C5C
:10A39000FBD10122DA60D3F85821002AFBD0242314
:10A3A00003FB078700237B612046BDE8F081102472
:10A3B000FAE71124F8E700BFD0340020F8B501F027
:10A3C0006043B3F1005F04460F465ED10379304D20
:10A3D000242101FB0351496821B100684FF4047640
:10A3E000C0F80863242000FB03539E6956B1D86966
:10A3F000002839D021B123684FF40472C3F8042334
:10A40000112030E09A61DF60DE6120684FF48871CE
:10A41000FFF70AFE20684FF4A271FFF705FE2368DC
:10A42000C3F83475C3F8382516BB01221A602179A8
:10A43000242202FB015252680ABBD3F81041D3F820
:10A440004421D3F82401144302D10028F5D0224638
:10A45000242303FB01550023984218BF03209A428E
:10A46000AB6118BF0F20F8BD1F61DA610126CCE790
:10A47000D3F8002242F02002C3F80022D7E74FF4BD
:10A480000472C3F804230020EDE71020EBE700BFBF
:10A49000D0340020032811D8012A0AD101290FD174
:10A4A00000F10E02D2B20D4B00EB40001A54002016
:10A4B00070470129F7D0022904D049B1072070471D
:10A4C0000022F8E7054B00EB400018444270EEE72D
:10A4D000024B00EB400018448270E8E7F43400209F
:10A4E00008B5012202210020FFF7D4FF08B1072898
:10A4F00010D1072202210120FFF7CCFF08B1072865
:10A5000008D100210A220846FFF7C4FF10B107282E
:10A5100008BF002008BD00000388102B10B502D032
:10A52000112B1ED010BD1A4C2168B1B9012208466A
:10A53000FFF7B0FF08B1072824D10722022101202C
:10A54000FFF7A8FF08B107281CD104220221002030
:10A55000FFF7A0FF08B1072814D123680133236057
:10A56000E0E70B4A1368013B1360002BDAD1FFF7D9
:10A57000B7FF0028D6D0074B1B68002BD2D0BDE810
:10A5800010401847034B1B68002BE6D09847E4E7C0
:10A59000043500200035002072DF704773DF7047FC
:10A5A00076DF704777DF70477ADF70477CDF704770
:10A5B0007FDF70478FDF7047B1DF704767DF70471D
:10A5C00032DF70473FDF7047024A13680133136080
:10A5D000704700BFF8770020FDF7FCBC08B50B4BB7
:10A5E00001211878FFF7DAFF08B1FDF7F3FC084BFB
:10A5F00008480949C01AC008000440F00300FDF7EC
:10A60000D7F9BDE808400020FEF75ABEB82C00205C
:10A61000E8C9020010CA020052D10200164B4A8853
:10A620001B889A4227D10B8840F67722934211D19A
:10A630008B8812491248033B9AB20A8011490A805A
:10A64000114A1249801AC00800041A4640F003005B
:10A65000FDF7BBB94DF67A2293420CD1074A084860
:10A660000B49F4231380074A1380074A801AC00855
:10A6700000041A46EAE77047BE2C0020BA2C0020DE
:10A6800010CA0200BC2C0020E8C9020064D10200FC
:10A690008CD1020008B503784BB9054B3B211888D3
:10A6A000FFF77EFF18B1BDE80840FDF793BC08BD79
:10A6B000BE2C002013B504468DF804008DF805006B
:10A6C00001A90020FFF776FF0C480D4B0D491B1A1E
:10A6D000DB081B0443F00300FDF76AF9022C07D0E6
:10A6E0000220FEF7EDFD0320FEF7FEFD02B010BDD7
:10A6F0000320FEF7E5FD2046F6E700BFE8C90200AB
:10A7000010CA0200B5D102000388212B37B50546D7
:10A7100000F0838017D8132B73D005D8102B1DD0D1
:10A72000112B55D003B030BD1F2BFBD1484B4948EE
:10A730002A894949C01AC00800046B8940F0030007
:10A74000FDF743F9EEE7522B79D0562B01D03B2B86
:10A75000E8D1A8881321FFF723FF59E03C4B3D4C7B
:10A760003E49E41AE408240444F003042046FDF7BB
:10A770001FF90120FEF7A4FD0020FEF7B5FDA98812
:10A78000374D3848298001F049FA08B1FDF722FC1D
:10A79000354800224FF48041FDF7D5FD08B1FDF7A3
:10A7A00019FC298804220320FFF7FCFE08B1FDF7FD
:10A7B00011FC2E4D2E496A782046FDF7FDF86B7886
:10A7C000012B02D10220FFF775FF02232B70A9E7AE
:10A7D0001F4B20482749C01AC008000440F003005E
:10A7E000FDF7E6F80120FEF77FFD1D4B4FF6FF72E7
:10A7F0001A80FDF7C3FB08B1FDF7ECFBFFF7EEFE97
:10A8000090E71748002300881A468521FFF7D0FEFD
:10A81000002887D0FDF7DEFB84E70D4B0D48164975
:10A82000C01AC008000440F00300FDF7C1F800237F
:10A83000A888ADF8043001A9FFF7BCFEE8E7084896
:10A8400000231A4619460088FFF7B6FEE0E700BF6E
:10A85000E8C9020010CA0200F5D10200D2D10200FC
:10A86000BE2C0020E8370020503700204E37002053
:10A87000DCD102001ED202002BD202000B2838B518
:10A880000C4605D00C2818D0BDE83840FDF7A2BB17
:10A89000012911D1134D6B7873B10846FFF70AFFF8
:10A8A000114B12481249C01AC008000440F00300BE
:10A8B000FDF77EF800236B7038BD0129FCD1094DEE
:10A8C0006B78012BF8D00220FFF7F4FE064B074807
:10A8D0000849C01AC008000440F00300FDF768F8FA
:10A8E0006C70E9E74E370020E8C9020010CA020088
:10A8F0003FD2020062D202000246064806490378AF
:10A90000CB5C064913B10430FFF758BD0C30FFF79C
:10A9100013BB00BFF02C002028340020F4370020A7
:10A9200010B4094B094C0A461978615C29B10146FB
:10A930005DF8044B181DFFF7F9BC01465DF8044BA8
:10A9400003F10C00FFF7B2BAF02C002028340020ED
:10A9500070B50B4B0B4C1B8822880B490B4801F040
:10A96000B3FE08B1FDF736FB094E0A2546F0010695
:10A970004FF47A40B047013DFAD1258070BD00BF49
:10A98000BC2C0020F4770020F4470020C02C0020CD
:10A9900050D30200FDF71EBB30B53148314A0B7869
:10A9A000801AC008712B85B04FEA004019D0722B75
:10A9B00025D0702B4ED12C4940F00300FCF7F8FF56
:10A9C0004AF20303ADF80030284B03211B888DF8B1
:10A9D00002306846FFF7A4FF08B1FDF7FBFA05B0A7
:10A9E00030BD234940F00300FCF7E2FF214B012278
:10A9F00000211A700846204AFDF756FBECE740F0AC
:10AA000003001E49FCF7D4FF1A480378002BE6D058
:10AA10001B4DA9682B68994219D01A4C4AF20A407A
:10AA2000208001F5405083429ABF5B1A9BB24FF4DD
:10AA300040536160134863800821FFF771FF08B13C
:10AA4000FDF7C8FAAB6862881344AB60C7E7002320
:10AA50000370C4E70C4940F00100FCF7A9FFBEE712
:10AA600010CA0200E8C9020085D20200BA2C0020F8
:10AA700097D20200B637002051A9020037D8020051
:10AA8000B837002070370020AFD202002DE9F7431D
:10AA90000478012C05D0022C00F0BE8003B0BDE884
:10AAA000F0835F4E416833780D78DFF8A8815D4F01
:10AAB000012B75D15C4B1D700023337098F800306A
:10AAC0002846013388F80030FFF716FF08B1FDF77C
:10AAD00081FA3B78002BE1D0534B1C78A52D04F173
:10AAE000FF34A4B26AD0A82D7BD0A12D53D1DFF8BA
:10AAF00058914E4D99F8022099F801304C4C4D492F
:10AB0000120402EB032299F800301A4499F803303A
:10AB100002EB0362484B2260ED1AED082D0445F06C
:10AB200003054FF000082846C4F80880FCF744FFEE
:10AB300023684248019301A901F096FD99F8062087
:10AB400099F805303E49120402EB032299F80430CB
:10AB50001A4499F80730284602EB0362394D6260C7
:10AB6000FCF72AFF4AF20A432B802368C4F80880C6
:10AB7000B3F5405F28BF4FF4405308212846C5F87D
:10AB800004806B80FFF7CCFE08B1FDF723FAA368C1
:10AB90006A881344A36000233B70012333707DE770
:10ABA000027A2948013A013101F039FE2046FFF7C7
:10ABB000A3FE002388F800303C708AE7234D2B88E1
:10ABC000B3F5405F02D90C20FDF704FA2B8820482A
:10ABD0001D492246184401F022FE2B881C442C807B
:10ABE000D9E71A4D2B88B3F5405F02D90C20FDF749
:10ABF000F1F92B88164814492246184401F00FFE3B
:10AC00002B880E481C4471238DF804300122436ABE
:10AC10002C8001A99847BEE7C068FDF7DBF93DE746
:10AC2000A42C00204D370020FC77002010CA020021
:10AC3000B8370020C1D20200E8C90200C02C0020B1
:10AC4000D2D202007037002058360020F47700205E
:10AC5000F44700204C37002007B500210822684641
:10AC600001F006FE9DF80030694643F00103022022
:10AC70008DF80030FFF7A2FC08B1FDF7ABF903B087
:10AC80005DF804FB70B54FF48041A6B00020FCF7DE
:10AC9000FBFC08B1FDF79EF9FCF736FC0120FEF73E
:10ACA00046FBFDF713FB08B1FDF794F99C4A9D485C
:10ACB0000121FDF73DFB08B1FDF78CF99A4840F200
:10ACC00033320221FDF7EEF808B1FDF783F9FDF705
:10ACD0003FF908B1FDF77EF9FEF770F908B1FDF70D
:10ACE00079F901F041F808B1FDF774F9002317A9CB
:10ACF0000120179301F0C6F808B1FDF76BF917A80A
:10AD000001F092F908B1FDF765F90120FFF758FC51
:10AD100008B1FDF75FF90120FFF754FC08B1FDF71A
:10AD200059F9824A14210820FDF79AF908B1FDF774
:10AD300051F911237E488DF8203001F0EEFD7C4959
:10AD400082B208A8FFF732FC08B1FDF743F9794C4D
:10AD50000822002117A801F08BFD4FF0167317A8E9
:10AD6000CDE91743FFF720FC08B1FDF733F972492D
:10AD7000724800F027FE08B1FDF72CF96F48F72163
:10AD800000F034FE08B1FDF725F96C48FB224FF6C0
:10AD9000FF7100F037FE08B1FDF71CF9684B6948F8
:10ADA000089308A900F028FF08B1FDF713F9002166
:10ADB000042217A801F05CFD634B6448179317A9A0
:10ADC00001F0C6F908B1FDF705F9614B614C18684F
:10ADD00001903C22002108A801F04AFD02238DF8D1
:10ADE00020303C2240F20163002117A8ADF8223048
:10ADF00001F03EFD22460123ADF86C3052F8041BF1
:10AE000001AB08A81C9300F0F3F908B1FDF7E2F8D4
:10AE1000514AA16817A800F0EBF908B1FDF7DAF87C
:10AE20001822002102A801F023FD00230122ADF821
:10AE3000143003934FF480738DF80820ADF81C3064
:10AE400044494648402302AA0493FFF7A5FB08B1F2
:10AE5000FDF7C0F81C22002117A801F009FD00230E
:10AE60004FF4A032CDE91732ADF86A304FF4A0228A
:10AE70008DF86C303A4B19921C930322394B8DF8A4
:10AE8000682017A81D9300F07BFC08B1FDF7A2F81D
:10AE9000FFF7E2FE344E354B3549F61AF608360414
:10AEA00046F00300FCF784FDFFF798FBFDF750F830
:10AEB00008B1FDF78FF82F4D0FCD17AC0FC495E8F3
:10AEC0000F0084E80F0006220823CDE9172307218D
:10AED0000523CDE91913002301241B93264A274893
:10AEE0008DF870404FF0805317A91D93FEF710FBAB
:10AEF00068B1234946EA0400FCF75AFDFDF73AF928
:10AF0000FCF712FC0028FBD1FEF76EF8F6E72046AE
:10AF1000FFF7F2FC0028F1D01A4946F00100EBE7F8
:10AF2000C9A5020058D30200942C00200835002047
:10AF3000E0D20200060040011DA60200D03700202A
:10AF4000D9A50200E837002099A90200C02C0020F2
:10AF50002CD30200A82C0020B42C0020B82C0020F8
:10AF600095A6020095A9020010CA0200E8C90200D5
:10AF7000E4D2020030D302008DAA0200F02C00209F
:10AF8000FCD2020015D302000369C1688B429DBF49
:10AF90008268D21802F1FF3203F1FF3394BF501AD6
:10AFA000581A70472DE9F843D0E902940546A9EBF9
:10AFB00004084068904520440F46144404D901F029
:10AFC0002EFCEC60BDE8F8834246A4EB090401F0D6
:10AFD00026FC6868224607EB0801F0E72DE9F843F4
:10AFE000C5680646894617464FF000083469B368BD
:10AFF0007068A54228BFE418013C621B5C1BBC4280
:10B0000028BF3C46944228BF14464946284422465D
:10B0100001F005FCB3682544AB4208BF00253F1B87
:10B02000A044A144F560E1D14046BDE8F8830000AA
:10B0300010B5114C114AA2610223C4E90433104B2C
:10B04000E361A2644FF400730E4A0F492362E26485
:10B0500000231022E01DA3626362E362A3656365BF
:10B06000E365226501F037FC0849204601F033FC16
:10B070002023A37110BD00BF007800205CD3020024
:10B08000887800207878002065D3020069D3020018
:10B09000F8B5184C182300FB033503FB004025448A
:10B0A000C46A012C0F4616460FD0022C1AD0F4B9F0
:10B0B0002846FFF769FF864205D8324639462846BA
:10B0C000FFF770FF34462046F8BD2846FFF75CFFC7
:10B0D0008642344628BF0446224639462846FFF7B2
:10B0E00061FFF0E72846BDE8F840FFF777BF00248E
:10B0F000E9E700BF00780020FFF79ABF6DDF7047D7
:10B1000079DF70477DDF704764DF70472DE9F04FCE
:10B1100085B000250E9CBDF83CB0B4F800A00191AC
:10B12000074690461E46A9463A884A450DDC45B179
:10B130002388013BA3EB0A039BB2FF2B3AD806F806
:10B140000A30002005B0BDE8F08F7A6852F8290077
:10B15000039000220DF10B0103A8FFF7D5FF002893
:10B16000F0D19DF80B20424521D12288002D14BF3B
:10B170000020022002EB0801014459451ADC3DB9C8
:10B18000013292B2019B2280B35422880132228084
:10B1900022880DF10B01324403A8FFF7B5FF002808
:10B1A000D0D121889DF80B200A442280012509F185
:10B1B0000109B9E70C20C5E72DE9F341089FBDF867
:10B1C00024801546CDE90078022204461E46FFF78A
:10B1D0009DFF50B93346102229462046CDE9087814
:10B1E00002B0BDE8F041FFF791BF02B0BDE8F081C9
:10B1F0002DE9F04F00231788138090F82D3085B08B
:10B2000006460D46144653B3082F01D80C2027E1FB
:10B2100002A8FFF773FF002840F02281238808224C
:10B22000EA54238801339BB21B222380EA542088EE
:10B23000013080B2208006220DF10901284401F07E
:10B24000EEFA23889DF8082006339BB212F0FE0226
:10B2500018BF01222380EA54238801332380B37866
:10B26000FBB123880433BB42D0D802A8FFF748FFC4
:10B27000002840F0F58023880322EA542388013314
:10B280009BB219222380EA542388BDF80820013399
:10B290009BB2E9182380EA54120A4A7023880233C9
:10B2A0002380F2789AB12388D91CB942AED8022102
:10B2B000E954238801339BB201212380E954238878
:10B2C0000B449BB22380EA5423880B44238072688A
:10B2D000AAB12388D91CB94298D8022192F900203A
:10B2E000E954238801339BB20A212380E95423883F
:10B2F00001339BB22380EA542388013323803389AE
:10B30000002B40F0A180338A5BB1CDE900472B468A
:10B310000722032106F11000FFF74EFF002840F03E
:10B320009F80338B5BB1CDE900472B46152214215A
:10B3300006F11800FFF740FF002840F09180326AC4
:10B34000002A40F09080D6F82480B8F1000F30D069
:10B35000B8F804302188981C8A1C0244BA423FF68F
:10B3600055AFFE283FF652AF03336B5423880133A9
:10B370009BB2FF222380EA54238801339BB22380AF
:10B38000B8F80020EA54E918120A4A7020880230FE
:10B3900080B22080B8F804205AB1D8F808100029EB
:10B3A0006BD0284401F03BFA2388B8F804201344FA
:10B3B000238096F82C30002B40F09A8030780028BB
:10B3C0004ED03388012B58D0228802F1020CBC45A4
:10B3D0003FF61CAF012805D17378023313449F4216
:10B3E000FFF414AF023FBF1ABFB202A905EB0C0075
:10B3F000ADF80870FFF786FE90BB3178BDF80830D5
:10B40000022900F0BA8072789A4202D3BB4240F21D
:10B41000B280012940F0B380974293B2C0F0AF8070
:10B42000ADF808300821BDF80830FE2B3FF6EEAE2F
:10B4300022880133AB542288013292B22280A9546F
:10B440002288134423800BE0CDE900472B460622D7
:10B45000022106F10800FFF7AFFE00283FF453AFCA
:10B4600005B0BDE8F08FB4F800C00CF10603BB4294
:10B470003FF6CCAE1188052901D80720F0E76FF41C
:10B48000486E01EB0E039BB24FF27D3E7345F4D93B
:10B490005388052BF1D96FF44860181880B27045B5
:10B4A000EBD94FF6FF70814203D0834201D099421D
:10B4B000E3D8052305F80C30238801339BB2122111
:10B4C0002380E954238801339BB223801188E954F7
:10B4D000E818090A4170238802339BB223805288FE
:10B4E000EA54E918120A4A702388023323802AE7B3
:10B4F000B36A002BC1D04FF000094FF00C0A4FF097
:10B50000160B96F82C305FFA89F293427FF656AF0D
:10B51000B16A0AFB02F201EB0208B8F80430981C89
:10B52000FE283FF673AE208803332B542388013363
:10B530009BB2238005F803B0238801339BB223809C
:10B540008A5AEA54E918120A4A702088023080B2F6
:10B550002080B8F804205AB1D8F8081000298CD0FF
:10B56000284401F05CF92388B8F8042013442380B0
:10B5700009F10109C5E7092155E7BB42FBD9ADF83F
:10B5800008704FE775DF704776DF70477ADF7047E6
:10B590007BDF7047034B1A8882420CBF184600209D
:10B5A000704700BFA47A0020024B9B6903B1184783
:10B5B000704700BF887A002073B585B22846FFF730
:10B5C000E9FF044670B1164E027A337B9A420BD2E1
:10B5D00000F10A012846FFF7D5FFE8B1112801D094
:10B5E000FFF7E2FF02B070BD00230372337C43B16A
:10B5F0003B212846FFF7C8FF30F0080301D0FFF7D2
:10B60000D3FF7369002BEDD000228DF80420ADF834
:10B61000065001A89847E5E7237A01332372E1E752
:10B62000887A002037B50B46497A0F4A71B9D2E9BA
:10B6300001141D7A0246002D18BF21465868FCF7F8
:10B6400082FE08B1FFF7B0FF03B030BD00211972D0
:10B650005369002BF8D00122ADF806008DF80420C4
:10B6600001A89847F0E700BF887A00204B8802883D
:10B670009A4213D842889A4210D380888A8840F22E
:10B68000F313984294BF031AC31A934206D800F2E8
:10B69000F310904234BF0020012070470020704713
:10B6A0000388122B70B5014659D004D8102B1ED038
:10B6B000112B44D070BD502BFCD12F4BC288DB899D
:10B6C0009A42F7D1038A022BF4D186883046FFF7DD
:10B6D00061FF05460028EDD001F1120000F028F9C5
:10B6E00038BB6868FCF747FE0028E3D009E0C37B5D
:10B6F000012BDFD14FF6FF70FFF74CFF054620B955
:10B700000420BDE87040FFF74FBF1C4A8E880680BA
:10B71000002303721368C0F80A305368C0F80E3073
:10B7200010310A30FFF7A2FF134B6872DB89002B40
:10B73000C0D129463046BDE87040FFF773BF80880E
:10B74000FFF728FF04460028B4D04068FCF713FE3A
:10B7500008B1FFF729FF4FF6FF732380AAE7868819
:10B760003046FFF717FF05460028A3D008310A30FE
:10B77000FFF77CFF6872DCE7887A0020B87A002047
:10B78000F8B5064648B305460FCD154F3C460FC4E5
:10B7900095E8070084E807003068124C3C60B0B1BF
:10B7A000FFF7F4FEC0B93268136823605368636022
:10B7B0000D480E4A4FF6FF7303800D4B40F8043FCF
:10B7C0000021FCF7B5FD002818BF032004E0204647
:10B7D000FFF7DEFE0028EBD0F8BD0E20FCE700BF2F
:10B7E000887A0020B87A0020A47A0020B9B5020037
:10B7F000C07A00200AB1FDF797B8FDF79EB873B57F
:10B800000191019C06466CB100252C46294601A8F1
:10B81000FDF79DF818B106EB440301349D80013516
:10B82000142DF3D13046346002B070BD2DE9F047DD
:10B8300003888488103B8CB005460A2B1FD8DFE8AC
:10B8400003F0063F1E1E1E1E1E1E1E604400314ECB
:10B85000B368DB43009371686846FDF7A4F800996C
:10B8600001A8FFF7CCFF0DF108094FF00008019B7C
:10B87000984507D3132C13D90420FCF7ABFB0CB06D
:10B88000BDE8F08739F802AB00270137514606EBD7
:10B890008700FDF752F81E2FF7D108F10108E6E7FF
:10B8A0001D482146FDF740F81C482146FDF73CF8AD
:10B8B000EB7B022BE3D11A482146FDF735F8DEE792
:10B8C00015482146FDF739F8D9E7027A15483F2A8D
:10B8D0004FEA1215214694BF00220122FFF78AFF8A
:10B8E000022D94BF002201220F482146FFF782FF5C
:10B8F000012D0E4894BF002201222146FFF77AFF56
:10B90000BDE7037A002BBAD1427A0648C2F3C002DF
:10B910002146F3E7E07A0020E87A0020E47A00206C
:10B92000EC7A0020F87A0020F47A0020F07A0020E7
:10B93000007800F00100704790DF7047A5DF704786
:10B94000B5DF70477FB50023ADF80810ADF80A10D9
:10B950006A4602A9064603930093ADF80430FFF748
:10B96000EBFF054600B3124B124CE41AE408FDF756
:10B97000C5FB240444F0010403460F493246204627
:10B98000FCF723F8BDF80020BDF8023052EA0301AD
:10B9900003D00A492046FCF718F8BDF804201AB174
:10B9A00007492046FCF708F8284604B070BD00BFE0
:10B9B000E8C9020030CA020070D30200BAD3020004
:10B9C000F9D3020080B14FF0F7130360FB2303713A
:10B9D000F723C3801723038141F6FB320023016163
:10B9E00043818281184670470E20704730B1A1F123
:10B9F0001703E02B04D80180002070470E20704709
:10BA0000072070470B4688B1A2F11B01C9B2E0299B
:10BA10000ED84FF6FF718B4202D1027100207047A1
:10BA200033B9027311461846FFF78CBF0E207047DA
:10BA30000720704713B5034680880C46B8B91A88AA
:10BA4000242A00F0968014D8112A71D0232A00F0FD
:10BA50009E80102A3BD0A37A4BB1E1880020FFF7EB
:10BA60006DFF002840F099804FF48073638102B02D
:10BA700010BD3A2A65D0552AEDD1DB88C988A0725D
:10BA8000172B38BF17238B4228BF0B462381FFF7A4
:10BA900057FF60B1FDF732FB484B49490246494820
:10BAA0001B1ADB081B0443F00100FBF785FFE37A58
:10BAB000002BD0D12369002BCDD040F67722009205
:10BAC0002289ADF80420694620469847C3E7DB7B0E
:10BAD0000A790A73012B13D0022B14D0E188238931
:10BAE0008B4205D20020FFF729FF70B90123E372D2
:10BAF000217B637B8B42AED20020FFF723FFAAE7B6
:10BB00000B88E380EAE74B88FBE7112802D1012389
:10BB1000A372EDE7FDF7F2FA284B2B4902462948BC
:10BB20001B1ADB081B0443F00100FBF745FFDFE7AE
:10BB3000F723CB8017230B8141F6FB3348818B81A0
:10BB400089E75B89CA88934228BF1346172B0A6985
:10BB500038BF17230B814AB1C97A39B140F6772132
:10BB60000091ADF804306946204690470023638178
:10BB700071E71A7A0B694A73002B3FF46CAF4DF6EC
:10BB80007A218DF8050000918DF804209BE7197A41
:10BB9000237B994228BF1946AFE711283FF467AFCE
:10BBA000FDF7ACFA054B0849024606481B1ADB08AC
:10BBB0001B0443F00100FBF7FFFE58E730CA020008
:10BBC00080D40200E8C902004FD40200B0DF704701
:10BBD00066DF704710B5002104464088FFF7F8FF84
:10BBE000034608B9237210BD112801D10123F9E7DA
:10BBF0006368BDE81040184760B159B10378DE2B87
:10BC00000AD00B684360DE2303704FF6FF73438056
:10BC1000002070470E2070470820704728B1037835
:10BC2000DE2B04D14180002070470E207047082091
:10BC30007047F0B5054685B00C46F1B1E8B10B7818
:10BC4000DE2B1AD182884B889A4204D10B7A13B129
:10BC50000846FFF7BFFF2B88112B32D0512B0ED097
:10BC6000012B0AD12B7A012B07D1A9886288914236
:10BC700003D123722046FFF7ADFF05B0F0BDAE88BB
:10BC80006388B342F9D1AF79022FF6D1AD7B2B1F78
:10BC9000022BF2D800211022684600F0E9FD052DA4
:10BCA00014BF4FF4C0730023694630468DF800700E
:10BCB000ADF80430FFF78AFF0028DED063689847AC
:10BCC000DBE76388AA889A4204BF4FF6FF7363805C
:10BCD000D3E710DF7047000013B5044609496846F2
:10BCE000FDF7B1F9019808B902B010BDD0E9002103
:10BCF0002046904718B16846FDF7AFF9F2E71120EA
:10BD0000F2E700BFC8D4020013B5044607496846ED
:10BD1000FDF799F9019B0BB902B010BD2046D3E99C
:10BD2000002190476846FDF798F9F3E7E0D4020058
:10BD30000B4991F816335A09EC231341DB0706D55A
:10BD4000084B9A683AB94FF480030B60704742F28F
:10BD50000200FCF73FB91A6842F480021A6070478B
:10BD600000E100E0DC330020F7B5194F3C7864BBFC
:10BD7000184E012520463570FFF7AEFF112821D05F
:10BD80002046FFF7C1FF144B8DF80340186801905F
:10BD90000DF10300FCF7C8FB104901A8FFF799FF5C
:10BDA0000446B0FA80F0400938709DF80300FCF7B3
:10BDB000DFFB3CB90A4B34701C70FFF7B9FF284613
:10BDC000FFF7A2FF204603B0F0BD0824FAE700BF4A
:10BDD0005D7B00205C7B0020C4D40200F17F020068
:10BDE0005E7B0020014B1878704700BF5D7B002010
:10BDF00007B508496846FDF726F9019B13B903B05A
:10BE00005DF804FBD3E9002090476846FDF725F96B
:10BE1000F3E700BFD4D40200FFF7EABF60DF70474A
:10BE200069DF704761DF704730B5114DADF5017DB9
:10BE30004FF4FA740DF1020103A8ADF80240FFF7C8
:10BE4000F1FF70B9294601A8FDF7FDF8029B002B10
:10BE5000F0D003A8D3E90021904701A8FDF7FDF831
:10BE6000F4E7052801D0FCF7B5F80DF5017D30BDEC
:10BE700068D70200024B1B780BB1FFF7D5BF7047A4
:10BE80005F7B002030B5054685B00C46002900F0E8
:10BE9000B6805C4B0B600C22002101A800F0E8FC8E
:10BEA00001238DF8063022688DF804504FF4A073FA
:10BEB00001A92020ADF80830FFF7B2FF60B1FDF70F
:10BEC0001DF9514B5149024651481B1ADB081B040E
:10BED00043F00100FBF770FD0C22002101A800F0E7
:10BEE000C7FC01238DF805302268002301A94020FA
:10BEF000ADF80630FFF794FF60B1FDF7FFF8424B55
:10BF00004449024642481B1ADB081B0443F0010067
:10BF1000FBF752FD0C22002101A800F0A9FCF72339
:10BF200022688DF8045001A92320ADF80630FFF7F0
:10BF300077FF60B1FDF7E2F8334B374902463448EA
:10BF40001B1ADB081B0443F00100FBF735FD0C2234
:10BF5000002101A800F08CFC012022688DF804006B
:10BF600001A9FFF75DFF60B1FDF7C8F8264B2B492B
:10BF7000024627481B1ADB081B0443F00100FBF7AD
:10BF80001BFD0C22002101A800F072FC4FF4B063ED
:10BF90002268019301A9A120FFF742FF60B1FDF7DC
:10BFA000ADF8194B1E49024619481B1ADB081B0441
:10BFB00043F00100FBF700FD0C22002101A800F076
:10BFC00057FC9DF8043022686FF3000301A9A020FC
:10BFD0008DF80430FFF724FF034668B1FDF78EF8B3
:10BFE000094B104902460A481B1ADB081B0443F0A0
:10BFF0000100FBF7E1FC0023184605B030BD0E231D
:10C00000FAE700BF802C002040CA0200ECD40200F6
:10C01000E8C9020032D502007ED50200C5D5020073
:10C0200011D6020062D6020073B505460668FFF716
:10C03000F5FE2B68B34204461DD91A481A4B1B491A
:10C040001B1ADB081B0443F002000190FBF7B0FC55
:10C050002B68174901983246FBF7B7FC4FF0805325
:10C060002A68D3F80C31134901989B0203F100535D
:10C070009A1AFBF7A1FC2CB90F4B01221A7020462B
:10C0800002B070BD2046FDF739F8074B0B49024658
:10C0900004481B1ADB081B0443F00100FBF78CFC6F
:10C0A000EDE700BFE8C9020040CA0200B5D60200B1
:10C0B000E4D6020015D702005F7B00203FD70200C4
:10C0C0004BDF70471FB50D4C01A8FFF7F9FF70B9A2
:10C0D000214602A8FCF7B7FF039B002BF4D0019880
:10C0E000D3E90021904702A8FCF7B7FFF4E7052841
:10C0F00001D0FBF76FFF04B010BD00BF80D7020076
:10C10000A8DF7047AADF7047AEDF704762DF704775
:10C110001F2886BF054A00F01F004FF0A0420123F0
:10C1200003FA00F0C2F80805704700BF0003005092
:10C130001F2886BF054A00F01F004FF0A0420123D0
:10C1400003FA00F0C2F80C05704700BF000300506E
:10C150002DE9F04F884B97B006AC05460A4603F12F
:10C16000100C274618685968264603C608336345ED
:10C170003446F7D1002D00F0FD80002A00F0FA804F
:10C180004FF6FF73AB8313686B620023AB772946CE
:10C190003846FFF7BBFF0446002840F0E7802A46F8
:10C1A000012712F8023B8DF8123004A93846ADF889
:10C1B0001070FFF7A5FF0446002840F0D780014625
:10C1C0001C220FA800F054FB9DF83C301094AA46A6
:10C1D00023F00C0343F00C038DF83C3003AE1AF847
:10C1E0000C3B8DF816302146022303223046ADF871
:10C1F0001430CDE91244CDE9144400F039FB9DF828
:10C200000E2022F01F0242F0030221468DF80E207C
:10C2100041F2111914220AA8ADF80C900DF114087E
:10C2200000F026FB4FF0F40B68880C9753460AAADF
:10C230000FA9CDE90A86ADF834B0FFF763FF0446D5
:10C24000002840F093800146032202A800F010FB72
:10C250009DF80A30ADF8089067F3420321461C228E
:10C260000FA88DF80A3000F003FB9DF83C301094C5
:10C2700043F010038DF83C3002ABCDE914342B466B
:10C280004FF0030A13F8042B8DF81620214652466E
:10C290003046CDE90033CDE91244ADF814A000F0EA
:10C2A000E7FA9DF80E20ADF80C9022F01F0242EA4A
:10C2B0000A0221468DF80E200AA8142200F0D8FAAE
:10C2C000009B68880C970AAA0FA9CDE90A86ADF8E9
:10C2D00034B0FFF717FF0446002847D10146524605
:10C2E00002A800F0C5FA9DF80A30ADF8089067F38F
:10C2F000420321461C220FA88DF80A3000F0B8FA3C
:10C300009DF83C30109443F010032F468DF83C30DC
:10C3100002ABCDE9143417F8143B8DF816302146E2
:10C32000042352463046ADF81430CDE9124400F0F3
:10C330009FFA9DF80E20ADF80C9022F01F0242EA01
:10C340000A0221468DF80E200AA8142200F090FA65
:10C3500005230C931023ADF8343068883B460AAAB5
:10C360000FA9CDE90A86FFF7CDFE0446204617B097
:10C37000BDE8F08F0E24F9E786D8020070B5214E93
:10C3800086B004460E200D46ADF80620FFF7C0FE2D
:10C39000337803F0FF0133B10E20FFF7C9FE1321FC
:10C3A000084606B070BD3CB3A28B4FF6FF739A42AD
:10C3B00024D0A37F13B3BDF80630F42B20D810226D
:10C3C00002A800F055FAA388ADF8083005950DF1E4
:10C3D000060302A9A08B049301258DF80A50FFF7EC
:10C3E00093FE1328014603D10F203570FFF790FE0E
:10C3F0000E20FFF79DFED3E70E21D1E70821CFE7FE
:10C400000721CDE7747B0020344B2DE9F74F0F2037
:10C410001F68334DDFF8ECA0DFF8EC90FFF778FEF3
:10C42000304BED1AED082D0445F003050024D346EA
:10C430009AF800302C4E43B1D9F80030326800929F
:10C440002A4922462846FBF7CAFAD9F80030326852
:10C450009B1ABB4231D8D9F8002033689A421BBFDF
:10C46000D9F8004033680024E41A08BF34609BF810
:10C47000003043B1D9F80030326800921C4922469E
:10C480002846FBF7ACFAD4B11A4A3368116819444C
:10C49000194BA2B21868FFF771FF9BF80030804675
:10C4A00023B1024615492846FBF786FAB8F1000F7A
:10C4B0000CD1336823443360BAE73C46D7E71049D0
:10C4C000C9F800402846FBF773FAA0460F20FFF793
:10C4D0002FFE404603B0BDE8F08F00BF042D0020C2
:10C4E00010CA0200E8C90200687B00208CD7020055
:10C4F00093D70200647B0020707B0020C7D7020026
:10C50000E5D70200617B00206C7B0020F7B5054673
:10C510000C4641B138B10388502B50D005D8102BB0
:10C5200047D0112B48D003B0F0BD572BFBD11020C2
:10C53000414EFFF7EDFD0F20FFF7FAFD33680BB119
:10C54000FFF762FF1020FFF7F3FD3C4F3C4B00224A
:10C550001A703B7863B13B493B483C4B32681B68DF
:10C56000401AC00800043A4940F00300FBF72DFAD6
:10C57000384B1B78002BD6D0374BAA791D88AD1AC3
:10C58000ADB21D80002DCED172238DF804302E481F
:10C590002C4B3249C01AC008000440F00300FBF7DE
:10C5A00007FA636A012201A92046984735603D7069
:10C5B000B9E78388A383B6E74FF6FF73FAE7C3882A
:10C5C0000A899A4215D1028A022A12D11230FFF743
:10C5D000AFF960B101231C48A3771A4B2049C01A58
:10C5E000C008000440F00300FBF7E2F99BE7A077E6
:10C5F00099E7228B9A4212D12A8A022A0FD105F199
:10C600001200FFF795F940B101230F48E3770D4B76
:10C610001449C01AC0080004E4E7E07783E7A28960
:10C620009A4280D1636A002B3FF47DAF2A8A05F1DC
:10C6300012012046984776E76C7B0020617B002042
:10C64000747B0020E8C9020010CA0200687B002049
:10C65000ADD70200607B0020767B002032D802003C
:10C66000F6D7020011D8020030B5044689B038B3BD
:10C67000828B4FF6FF739A4224D0C37F13B30523F6
:10C68000012504220DF10900ADF806308DF808509F
:10C6900000F0C5F8102200210DEB020000F0E8F8D0
:10C6A000A38AADF8103002AB0793A08B8DF812501F
:10C6B0000DF1060304A90693FFF726FD09B030BD6E
:10C6C0000E20FBE70820F9E79A42F8B53EBF1A4C66
:10C6D00001252570858B4FF6FF74A54227D0847FF6
:10C6E0002CB3164C266826BB154D226001272F70EF
:10C6F000B2FBF3F5134A3D44134F11603D80134ADA
:10C70000134D14492E601360134B226818601348B0
:10C710002B68401AC0080004114940F00300FBF7E1
:10C7200054F9FFF771FE132808BF0020F8BD082058
:10C73000FCE71120FAE700BF617B00206C7B002042
:10C74000607B0020647B0020767B0020042D00208D
:10C75000687B0020E8C90200707B002010CA02003C
:10C7600054D802007F2805D8034B185C034B5B5C50
:10C770001840704700207047A4D8020024D9020056
:10C78000A0F16103192B98BF20387047A0F1410335
:10C79000192B98BF203070477F2805D8034B185CB1
:10C7A000034B5B5C1840704700207047A4D8020020
:10C7B00024D90200A0F16103192B98BF20387047DB
:10C7C000A0F14103192B98BF203070477F299ABFF1
:10C7D000017001206FF02E0070475AB10A787F2A4D
:10C7E0000AD800B10260002119605960501A18BFC0
:10C7F00001207047002070476FF02E007047000046
:10C8000008B5034B5B689B681B68984708BD00BF71
:10C81000082D002008B50921FFF7F2FF08BD844666
:10C8200040EA010313F0030F18D18446202A0BD3EA
:10C830002DE9F007B1E8F807A0E8F807A2F1200217
:10C84000202AF7D2BDE8F007042A07D351F8043BA9
:10C8500040F8043BA2F10402042AF7D2002A05D0D2
:10C8600011F8013B00F8013B013AF9D160467047ED
:10C870008446002A2DD010F0030F04D000F8011BCD
:10C88000013A26D0F7E7C9B241EA012141EA014164
:10C89000202A12D3A2F120022DE9F0030B460C4608
:10C8A0000D460E460F4688468946A0E8FA03203A10
:10C8B000FBD2BDE8F00320320BD0042A05D340F8A8
:10C8C000041B043A05D0042AF9D200F8011B013AEE
:10C8D000FBD160467047024610F0030F16D111F0ED
:10C8E000030F13D12DE9F0004FF001374FF08033E3
:10C8F00051F8044BA4EB070525EA04051D4002D1BD
:10C9000042F8044BF4E7A1F10401F0BC11F8013B3B
:10C9100002F8013B002BF9D1704700F1010110F042
:10C92000030F11D010F8012B002A23D010F0030FB1
:10C930000AD010F8012B002A1CD010F0030F03D0EE
:10C9400010F8012B002A15D02DE970004FF00132AC
:10C950004FF0803350F8044BA4EB020525EA0405A0
:10C960001D4000D1F6E7A0F1040070BC10F8012BC7
:0AC97000002AFBD1A0EB0100704784
:08C97C00AD9302000000000071
:10C984002DB802000000000019A5020000000000FC
:10C9940035BA0200D0370020A1B602000000000022
:10C9A40033BC0200E83700200DC50200C02C002073
:08C9B40009A7020000000000C9
:08C9BC00499402000000000094
:10C9C40075BE020000000000C5C0020000000000A7
:10C9D400602D0020282E0020302E0020682D0020FD
:04C9E4001800000037
:10C9E80036D10200000000003CD102000000000027
:10C9F80043D102000000000047D1020000000000FF
:10CA08004CD1020000000000A5CA02000000030388
:10CA18007CCB020000000000A5CB02000000000053
:10CA280030D1020000000000AFD402000000030370
:10CA3800BCD40200000003035CD70200000003031B
:10CA480074D702000000030316CC020000000000A7
:08CA58002CCC020000000000DC
:10CA600078CA02000000000084CA0200802C002066
:10CA70000338FDD870470000D573020041740200EE
:10CA8000D17302007274745F6C6F675F6261636B75
:10CA9000656E64004261636B656E647320666C75DD
:10CAA00073686564006170700000000050320020FF
:10CAB0007F000000D03200201B5B306D002573002A
:10CAC0001B5B313B33316D0025734C6F6773206402
