:020000022000DC
:1070000000000420757302005D7302005F730200CC
:1070100061730200637302006573020000000000E8
:107020000000000000000000000000006773020084
:1070300069730200000000006B7302006D730200B0
:1070400061C502006F73020041CA02006F73020043
:107050006F7302006F730200C1C802006F730200F9
:107060006F7302006F7302006F7302006F73020090
:107070006F7302006F7302006F7302006F73020080
:107080006F730200CD8E02006F7302006F730200F7
:107090006F7302006F730200ED0B03006F73020049
:1070A0006F7302006F7302006F7302006F73020050
:1070B0006F7302006F730200000000000000000008
:1070C0006F7302006F7302006F7302006F73020030
:1070D00075CB02006F7302006F7302006F730200C2
:1070E0006F7302006F7302006F73020000000000F4
:1070F000000000006F730200000000006F730200C8
:10710000000000000000000000000000000000007F
:10711000000000000000000000000000000000006F
:10712000000000000000000000000000000000005F
:10713000000000000000000000000000000000004F
:10714000000000000000000000000000000000003F
:10715000000000000000000000000000000000002F
:10716000000000000000000000000000000000001F
:10717000000000000000000000000000000000000F
:1071800000000000000000000000000000000000FF
:1071900000000000000000000000000000000000EF
:1071A00000000000000000000000000000000000DF
:1071B00000000000000000000000000000000000CF
:1071C00000000000000000000000000000000000BF
:1071D00000000000000000000000000000000000AF
:1071E000000000000000000000000000000000009F
:1071F000000000000000000000000000000000008F
:10720000354936480A1A02D0072291438D4634493F
:1072100034480A1A06D00722914381F309880222D2
:1072200082F3148830483149314A00F044F831483B
:107230003149324A00F03FF831483249324A00F0D1
:107240003AF832483249334A00F035F83248334987
:10725000334A00F030F833483349344A00F02BF811
:1072600033483449344A00F026F83448344900227F
:1072700000F02CF833483449002200F027F8334856
:107280003349091A082902DB002202604160314AB1
:1072900090471F481F49884205D00268043003B454
:1072A000904703BCF7E700208646EC46002000210B
:1072B000294A9047FEE7884207D0521A05D0037842
:1072C00001300B700131013AF9D17047884202D088
:1072D00002700130FAE770470000042000E003204C
:1072E000000004200000042014460300BC330020EA
:1072F000FC3A0020D0730200D0730200781603001D
:1073000014460300BC330020BC330020781A03006D
:10731000781A0300781A0300781A0300781A030019
:10732000781A0300781A0300781A03001246030043
:10733000544D0300FC3A0020FC3A0020FC3A0020A7
:10734000986A0020986A00209C6A00209C6A0020AD
:107350009C8A00209D730200C5EB0200FEE7FEE759
:10736000FEE7FEE7FEE7FEE7FEE7FEE7FEE7FEE7F5
:1073700000F002B8FFF7FCBF0F484FF00701884349
:1073800085460E4880470E48016841F4700101604F
:10739000BFF34F8FBFF36F8FFFF732BF09480A4922
:1073A0000A4A884207D0521A05D0037801300B7080
:1073B0000131013AF9D170470000042015C00200E4
:1073C00088ED00E03419030078320020BC3300203F
:1073D00000487047906A0020F0B595B01D461646EB
:1073E00008460C4604F0C2FA1A9B0D93CDE90865D5
:1073F00000252B460C2205A920460A958DF82C5015
:107400000C9504F0D0FA079B0293069B03939DF81A
:1074100014308DF8115003F00302012A1DD1BDF87C
:107420001420059DC3F3C203C2F383168DF81030F8
:10743000B2000C230EA9204604F0B5FAC5F3952539
:1074400008AB0093324602AB0EA9284600F04EFF6F
:10745000204604F08FFA15B0F0BD022AF8D1BDF82D
:107460001650C3F3C203C5F389158DF810300C27ED
:10747000082D2E4628BF08263B4632460EA9204638
:1074800004F091FAAD1B08AB02AA31460EA83744AE
:1074900000F090FF002DEBD1DAE70000014B012254
:1074A0001A7070473D3B00207047000070B5124DC8
:1074B00006460FCD88B06C460FC495E80F00002E2D
:1074C00084E80F004FF0FF334FF00602CDE90023B0
:1074D000CDE90233094A0A484FF0EB7308BF002296
:1074E0006946069304F0C2FF08B101F06FF9054B3D
:1074F0001E7008B070BD00BF781A03009D740200B2
:10750000BC330020FC3A002007B5044B0093044A2A
:107510004023FFF761FF03B05DF804FB257502000F
:10752000FD3A002038B50D4B0D4D002018700D4868
:1075300004782D5DD2B21C4665B1043006F07AF8AD
:1075400008B101F043F9084B1A7812B12378002BE7
:10755000FBD038BD0C3005F085FDF1E73D3B002048
:10756000CC5D0020BC330020FC3A002008B5084860
:10757000084A0378D35C3BB1043005F0D7FFBDE87F
:1075800008400020FFF792BF0C3005F00FFDF6E732
:10759000BC330020CC5D002000230428CB604B606E
:1075A00098BF044B044A98BF53F820308A600B60A0
:1075B000704700BFEC1E0300C81E0300CB6800220A
:1075C0005A717047C368DB6800225A717047CB68F4
:1075D00001225A717047C368DB6801225A717047F3
:1075E0000D4A8A6070B50D4A0D4C0023121BCB600A
:1075F0004B600B6012091D469A4207D0E668367947
:10760000FF2E05D0854202D1A3680B6070BD013505
:1076100001331034F0E700BF001F030034190300EA
:10762000041903002DE9F74F154D164C9846641BBD
:1076300052F8043C06468946174624094FF0000BD1
:107640005C4507D1104A0221304603B0BDE8F04F37
:1076500002F006BAA9680193184609F0B6FFAA46D7
:10766000103518B1019B0BF1010BE9E73B464A4687
:1076700051463046C44603B0BDE8F04F604700BFF6
:107680000419030034190300A41A0300014BFFF787
:10769000C9BF00BFBD7C0200014BFFF7C3BF00BFE5
:1076A000BD750200014BFFF7BDBF00BFCF750200E3
:1076B000014BFFF7B7BF00BFE97A0200037813F070
:1076C000040216D003F00303012B03D0022B09D0D0
:1076D000012070470A6800880332C0F38310024417
:1076E0000A60F5E70B684288033303EB92130B60E3
:1076F000EEE71046704700002DE9F04F87B00023F9
:107700000446C61C0DF107000F4615468DF80730DC
:1077100001F060FA424A516839609368414F03F5BD
:1077200000635B1A9246A7F10409A7F10808B34267
:107730001BD30020002D6FD004F00F039B0143F0FA
:10774000050363F30F00DAF80430C3F30A020332CF
:107750001E444AF822009DF80700CAF8046001F0B0
:107760005DFA012007B0BDE8F08F0121384601F035
:107770007AFC484601F092FC404601F08FFCDAF8B2
:1077800008000290C0F30A0003300AEB800002A94F
:10779000FFF794FF029B48BBC3F30A020AEB820285
:1077A00003F1010CD2680392CCF30A0C0AEB8C0CA7
:1077B00002F003020333012ADCF80C10029323D0F9
:1077C000022A16D08346404601F06BFC10B1029BA2
:1077D000CAF808305946384601F045FCDAF8083056
:1077E000DAF8042003F500639B1AA0E7C3F30A004C
:1077F000CAE7BDF80E20C2F3891203324FEA114BDB
:1078000003EB92030293DEE7BDF80C20C2F3831270
:107810004FEA114B1344F5E7A40544F0060092E744
:10782000103C00202C5C0020012907B5034604D041
:107830008168D1F84811890707D5002211461846FA
:1078400003B05DF804EB03F05DB953680193054B99
:1078500000931368044A022102F002F903B05DF8B4
:1078600004FB00BFC41A0300BA1A03002DE9F34752
:107870008368D3F84831C3F340059B07074606D514
:107880000022114602B0BDE8F04703F03BB9144EA8
:10789000144CDFF85880DFF85890DFF858A0A41B8C
:1078A0002409A54202D102B0BDE8F087F268B368AE
:1078B0001179FF2907D10C4A0821384602F0D0F887
:1078C00001351036EDE75279002A14BF42464A4688
:1078D000CDE9002138465246082102F0C1F8EFE711
:1078E0000419030034190300EA1A0300D91A03002B
:1078F000E11A0300091B030030B50A4B0A4A0B4981
:10790000D21AD20800239A4201D1052006E031F8AC
:1079100023500468A54202D10360002030BD01332A
:10792000F1E700BF5C1703007C1803009C320020C5
:107930008368D3F848319B0703D50022114603F032
:10794000E1B8024A022102F08BB800BF2A1B0300F3
:107950008368D3F848319B0703D50022114603F012
:10796000D1B8024A022102F07BB800BF2A1B0300F3
:107970002DE9F84F04460846002C40D0214D002345
:107980002B7000F073FD42F20C031F48EC5003F023
:10799000A6FF814688B91D481D4E1E4CDFF880A009
:1079A00004F085F9A41BE4084D46A54208D1002344
:1079B000194A1A481946A3421BD14846BDE8F88F18
:1079C0004FF00008474606EBC50BBD420AD056F8FB
:1079D0003710DBF80000142209F009FD0028C8BFA9
:1079E00008F101080137BC42EFD12AF825800135A2
:1079F000DBE720F8231042F8041B0133DBE74FF0EC
:107A00000709DAE7103C00207C180300BC1E0300C5
:107A10005C1703007C1803002C3300209E320020EA
:107A20009C32002007B5019031B9019A064B53F8FA
:107A3000320003B05DF804FB01A8FFF75DFF0028EA
:107A4000F3D00020F5E700BF5C170300002310B55A
:107A5000CB604B60034B8B600C460121FFF7E2FFCC
:107A6000206010BDC81E0300094B013903EBC000A4
:107A7000032909D8DFE801F00A0204060420704750
:107A800000797047407970470020704702207047A6
:107A90005C17030030B5124C00EB400054F8215045
:107AA00002FA00F3072202FA00F06B400D4A03408D
:107AB0006B40C3F3821044F8213002EB8101C3F321
:107AC000C202824238BF0246C3F34220824203F020
:107AD000070338BF0246934238BF13464B8030BD80
:107AE0002C3300209C3200202DE9F04F064685B053
:107AF0001D461746002A51D0CB6828684C4993F898
:107B00000490072209F073FC0446C8B9012F07D17D
:107B1000484A0221304605B0BDE8F04F01F0A0BF51
:107B2000DFF82C8158F8041B68680A2209F05FFC12
:107B3000002877D00134052CF4D16B683E4A15E05B
:107B40003E492868082209F052FC044660B9012F1A
:107B50002DD04FF001083A4A3A4BDFF8F8A09B1AB3
:107B6000DB08CDE9013247E02B68374A0221304675
:107B700005B0BDE8F04F01F073BF18F83530A342EF
:107B80000FD200212846FFF74DFF5246034602213F
:107B9000304601F065FF0135BD42EED105B0BDE8CC
:107BA000F08F224629464846FFF774FFF3E7244B3F
:107BB000244FDFF8A0A0FF1AFF08002503F10608F4
:107BC000EAE7184600210393FFF72CFF59462022CD
:107BD00009F00DFC039B014608B1013311E0029A44
:107BE00002EBC3029279A24216D3224619464846B6
:107BF000FFF750FF08F10108B845CFD255F828B07B
:107C00000023019A9A42DCD155F828300F4A02210C
:107C1000304601F025FFEDE71846FFF703FF524617
:107C20000346F4E7022FE4B2C1D04FF0020892E716
:107C30003B1B0300421B0300AD1B0300591B030049
:107C40005C1703007C180300611B0300991B0300F1
:107C5000D81E0300761B030013460A46C168FFF7CF
:107C600043BF000013B504460191ABB16AB9019955
:107C7000104A04EB440052F82120072383401340AC
:107C800023FA00F0C0B202B010BD01A8FFF734FE25
:107C90000028ECD00020F6E72AB9019A064B03EB46
:107CA000C2039879EFE701A8FFF726FE0028F1D17B
:107CB000F3E700BF2C3300205C170300294B2A4A4E
:107CC0002DE9F04F9B1A4FEAD30ACB685B7985B058
:107CD00005460E461BB9254A022101F0C1FE244B80
:107CE000244ADFF8A4800821284601F0B9FE224A80
:107CF0000821284601F0B4FE0024544502D105B005
:107D0000BDE8F08FF36893F8049001231A462146EA
:107D10004846FFF7A7FF00230746214601224846B1
:107D2000FFF7A0FF03280246814628BF0322012156
:107D300020465FFA82FBFFF775FE104A58F82B10B9
:107D4000034658F827000E4F0090D94598BF3A4691
:107D5000CDE9011228460B4A082101F081FE0134C9
:107D6000CBE700BF7C1803005C170300CC1B0300AB
:107D7000DF1B0300EB1B0300091C0300CA1B0300ED
:107D800012230300461C0300D81E030013460A46B4
:107D9000C168FFF793BF0000034BD3E90130C31A5A
:107DA00058425841704700BF103C00202DE9F04375
:107DB00087B0FFF7F1FF0546002840F02281924C82
:107DC00042F21803E050BFF34F8FA3680293C3F34E
:107DD0000A0303338D4E04EB830002A9FFF76EFC08
:107DE000029B10B13268002A6DD0591CC1F30A0100
:107DF00004EB8101C3F30A02C9680491D91C023360
:107E000004EB8202C3F30A0304EB8303D268DB684A
:107E1000059302F00303022B0392029164D1BDF893
:107E20000E307B489DF80C50C3F38917502FB8468D
:107E300028BF4FF0500868F38F1308F10C01ADF81C
:107E40000E3003F064FDC5F3C2050646002800F0BD
:107E5000BE8003F08BFD0C2200230DEB02013046A7
:107E600003F097FD0299CB43C3F30A030133C1F337
:107E70000A010331B8EB830F4FEA830904EB810158
:107E80002FD90C234A46A8EB0908304603F081FDA0
:107E90005FFA88F85F4909F10C034246304603F067
:107EA00078FD029B033703EB9707029742F2180312
:107EB000E358002B50D142F21003DFF86C91E758E1
:107EC0004FF007086DE062689A4204D8A260284625
:107ED00007B0BDE8F083C3F30A03033304EB830068
:107EE0007BE70C234246D9E7012B70D1BDF80C503B
:107EF0004748C5F38311062928BF062161F3891578
:107F000003318900ADF80C5003F001FDC5F3C20543
:107F1000064600285BD003F029FD0C2200230DEB60
:107F20000201304603F035FD0027BDF80C20C2F3F6
:107F30008312BB00974203F10C03B7D202994A1C8B
:107F4000C1F30A010331029204EB8101042230469D
:107F500003F01FFD0137E8E7304603F00BFDFFF7A4
:107F60001BFF80F00100C5B2B1E7FB685A79B2B1DE
:107F70001B79BDF8101003EB430259F8211008FAE1
:107F800002F3052D03EA010323FA02F308BF0325D8
:107F9000AB4204D33B6831461B6838469847FB68C0
:107FA0001F68002FE1D1304603F0E4FC0DF107001B
:107FB0008DF8077000F00EFE42F21803E3580BB97B
:107FC000029BA3609DF8070000F028FEC7E742F27D
:107FD0001003E45874B9104B5B88012BBFD90F4BC9
:107FE0000F481049C01AC008000440F0020000F019
:107FF00071F8B4E7236820469B689847E3681C68DB
:10800000E8E7002563E700BF103C0020285C002063
:108010007C1803001C3C0020BC3200205C170300CD
:108020009C1703005C1C03002C3300202DE9F34750
:1080300004460E46924601A9012218469946FFF7CA
:108040005BFB224F70B3019D4FF00008EA1CC8454E
:1080500008EB02012FD100211D4800F0C9FF80F379
:1080600010006B1CC3F30A0307EB8303000440EA10
:108070001440D86042F20C03E400FB58984704F027
:108080003804AB1CC3F30A03C5F30A0544F001042A
:1080900007EB8303033544EA881444EA8624D86056
:1080A00047F825403B781BB1FFF780FE0028FBD145
:1080B00002B0BDE8F087C1F30A0107EB81015AF86D
:1080C0002830CB6008F10108C1E700BF103C002058
:1080D0002C5C002000231A46FFF7A8BF07B5012338
:1080E000019201AAFFF7A2FF03B05DF804FB07B5F8
:1080F000CDE9002302236A46FFF798FF03B05DF83D
:1081000004FB1FB5CDE90123069B039301AA0323BA
:10811000FFF78CFF05B05DF804FB00002DE9F84384
:108120001C4A42F210030546D358884600241946DB
:1081300091B9E9680C71ABB942F2100015500B60AF
:10814000154B164EF61AF608002703F10709B74239
:108150000DD12046BDE8F883C9680879A04212D045
:108160000968E5E7DB681A680A601D60E8E719F846
:108170003720EB6842453946187928BF4246FFF759
:1081800089FC0137E3E701340A2CD0D14FF0FF34EA
:10819000DFE700BF103C00205C1703007C180300E1
:1081A00038B5094A42F21003D458012313701D4612
:1081B00004B938BDE3685D71236820465B68984761
:1081C000E3681C68F4E700BF103C002007B50346D5
:1081D0000846197A052911D05B7A2BB1094A0A4958
:1081E000019003F06CF901980849019003F067F9D8
:1081F000019803B05DF804EB03F056B9002AF8D0FB
:10820000F2E700BF48200300C423030074220300E8
:10821000F0B5C38887B005460E4633B1294A0092AF
:1082200029492A4A304603F04AF9297A052946D0D5
:108230006B7A4BB1A888FFF717FC254B254953F8FB
:108240002020304603F03BF9234A2B681468B3FB27
:10825000F4F4224B1F68B4FBF7F34FF461604FF462
:108260007A71B3FBF0F200FB123007FB13434FF0BF
:108270003C0C01FB03F4B0FBFCF3B4FBF7FE0CFB7E
:10828000130007FB1E4400904C4330461449B4FBD6
:10829000F7F4CDE901E403F012F92A7A114BA8882A
:1082A00053F8222005920021FFF7BCFB059A0E49E6
:1082B0000346304607B0BDE8F04003F000B907B010
:1082C000F0BD00BF48200300552003004D200300EF
:1082D000DC200300C4230300CC5C0020C85C002029
:1082E0006D20030000210300892003002DE9F043E5
:1082F00085B01F460C9D002395F80C902B73064605
:108300000C46904629463846FFF782FFB8F1060F23
:1083100009D8DFE808F00412181F2833400031465E
:10832000284603F0CCF8002229463846FFF74EFFD6
:1083300085F80C9005B0BDE8F083226831462846E8
:1083400003F0BDF8EFE7D4E900233146284603F0F7
:10835000B6F8E8E7A36800933146D4E9002328463D
:1083600003F0ADF8DFE7E3680193A36800933146BB
:10837000D4E90023284603F0A2F8D4E72369029346
:10838000E3680193A36800933146D4E900232846AB
:1083900003F095F8C7E76369039323690293E368E1
:1083A0000193A36800933146D4E90023284603F0E3
:1083B00086F8B8E708292DE9F74F80460E4617469C
:1083C0001C463CD8002593F80C901D7319461046A6
:1083D000FFF71EFFDFF888A0DFF888B0AE4231D982
:1083E00018F805205946204603F069F80135082D94
:1083F000F4D11949194DDFF870A0204603F05FF859
:108400004FF0000B5E4522D918F80B207E2A05D8C4
:108410001046019208F00CFE019A00B92E22514636
:10842000204603F04CF80BF1010BBBF1080FE9D12A
:10843000012221463846FFF7C9FE84F80C9003B0AC
:10844000BDE8F08F5146204603F039F8CEE72946C3
:10845000204603F034F8E6E79D2003009B2003004C
:1084600099200300932003009F200300084A10B5C1
:108470000123084C13600021A04204D801B113600D
:10848000054B186010BD40085B000121F4E700BFF8
:10849000CC5C002040420F00C85C0020C30710B530
:1084A00007D4F023054A4008145C234019431154B3
:1084B00010BD0901C9B20F23F4E700BFE05C002042
:1084C00030B5094B1C78094B196800239C4202DC2B
:1084D0000022104630BD11F83350854201EBC30233
:1084E000F7D00133F2E700BFD05C0020005D002030
:1084F00013B504460191FFF7E3FF38B143682BB190
:108500000199204602B0BDE81040184702B010BDE6
:10851000034B044819680022490800F064BA00BF00
:10852000D45C0020D833002010B5C0B2FFF7C8FFDC
:108530000446007804F0B6F963785A1E534253415A
:10854000834208D1044BD3E90023134303D1BDE890
:108550001040FFF7DDBF10BDD85C002037B54308E1
:10856000354AD35CC2074CBF1B0903F00F03044616
:108570000D46042B35D8DFE803F003252C383C00EA
:1085800079B30121FFF78AFF00230DF107008DF871
:10859000073000F01FFB0120A4F12003C4F12001EB
:1085A000264A20FA01F100FA03F30B43A040D2E976
:1085B000004120430B43C2E900039DF8070000F08F
:1085C0002DFB0EE0002918BF02212046FFF766FFB1
:1085D00007E041B10321FFF761FF01212046FFF7CA
:1085E00087FF03B030BD0121EFE70029F9D1042155
:1085F000EBE709B10321E8E7FFF750FF29462046E2
:10860000FFF776FF0DF107008DF8075000F0E2FA52
:108610000120A4F12003C4F12001084A20FA01F14D
:1086200000FA03F30B43A040D2E9004124EA000022
:1086300021EA0303BFE700BFE05C0020D85C002014
:108640002DE9F041124E134F00243378A34208DC89
:10865000114BD3E90023134318D0BDE8F041FFF7D5
:1086600057BF3D6805EBC40815F8340004F01AF94B
:1086700098F801305A1E53425341181A4142414161
:1086800015F83400FFF76AFF0134DEE7BDE8F0813A
:10869000D05C0020005D0020D85C0020092AF7B5DE
:1086A00005460C4616463CD904F00AF8D8B11E4BD4
:1086B0001E481D601E4B1F4F1C701F4B00212022A7
:1086C0001E6008F02DFF1D4B00200021C3E90001B2
:1086D000013CE4B20326FF2C0BD1194A19480021B2
:1086E00000F076F903E003F0A5FF0028DFD003B027
:1086F000F0BD9DF8063015F834008DF8046005EBE8
:10870000C40223F007038DF8063001A993788DF891
:1087100005303A4603F0DEFF013CE4B20028DAD02F
:10872000E5E70720E3E700BF005D0020E05C0020F4
:10873000D05C002029850200D45C0020D85C002099
:10874000418602004421030070B5084D084E002404
:108750002B789C4201D3002070BD3368012113F8AF
:10876000340004F033F80134F2E700BFD05C00209D
:10877000005D002073B5114D114E00242B789C42F2
:1087800014D300230DF107008DF8073000F022FA12
:108790000C4B00210020C3E900019DF8070000F008
:1087A0003DFA094800F038F902B070BD336813F89B
:1087B000340004F055F80134E0E700BFD05C00203D
:1087C000005D0020D85C0020D83300201FB50021B8
:1087D000039001AA44F20100CDE9011100F004F870
:1087E00005B05DF804FB000010B572B6FFF7D8FCC9
:1087F000FFF7DCFA0028FBD1154C62884AB1154816
:10880000154B1649C01AC008000440F00100FFF7DC
:1088100061FC134B1B68DB0700D500BE6388012B8E
:1088200009D90C480C4B0F49C01AC008000440F08D
:108830000200FFF74FFCBFF34F8F0B490B4BCA6889
:1088400002F4E0621343CB60BFF34F8F00BFFDE73C
:10885000BC3200209C1703005C1703004821030072
:10886000F0ED00E05421030000ED00E00400FA0503
:10887000D0E90223D1E90201994208BF90422CBFFE
:10888000012000207047000008B50B4800F007FBEE
:108890000A4B0B49D3E900231218D1E9000143F137
:1088A00000038B4208BF824203D212F1807243F16F
:1088B00000031046194608BD14340020085D00204E
:1088C000705D002037B505460C460A4801A900F046
:1088D0001AFB60B10570446001A9064800F03DFB39
:1088E00018B1054800F0E0FA002003B030BD0420C4
:1088F000FBE700BF003400201434002038B5194BCA
:108900001B78044613B90025284638BD0028FAD044
:1089100090F8203003F0FF05002BF4D0FFF7B4FFF0
:10892000D4E90223994208BF904216D323690BB9B8
:1089300084F82030D4E90530984721690029E2D035
:1089400094F8203003F0FF05002BDCD0D4E902239B
:10895000521843F10003C4E902230348214603F0FF
:10896000D9FAD1E7105D00208421030013B5114B23
:1089700011491868019008231048582200F0B0FAF5
:10898000044698B90E4A0F4801A900F06BF9044655
:1089900060B90C48012100F065FA01230A4A094830
:1089A000194600F0C7F9094B01221A70204602B09F
:1089B00010BD00BF7E210300145D002000340020A4
:1089C000358A020014340020FFFF7F00105D002074
:1089D0003AB103685A614A1E51425141196100205F
:1089E00070470720704738B590F8203004460D4690
:1089F00083B98261FFF748FF2369401941F1000103
:108A0000C4E9020103B1256121460020BDE83840D8
:108A1000FFF758BF002038BD0023014680F8203002
:108A20000120FFF74FBF0000014800F038BA00BF37
:108A3000143400202DE9F04F85B0804600F01AFA7A
:108A400040B15C4AD2E9003113F1807341F1000179
:108A5000C2E900310021404600F01BFA38B1564E01
:108A6000336823B13068FFF749FF002333600121E9
:108A7000404600F00EFA20B1FFF706FF4F4BC3E966
:108A800000014F484C4F4F4EDFF8409103A900F0D2
:108A900074FA002846D1DFF82C91474EDFF830A158
:108AA000484603F04DFA3368002878D083B1336824
:108AB000D0E90201D3E90223994208BF90422ED2A5
:108AC000336893F820301BB13168484603F022FA2E
:108AD000484603F02FFAD0E902B307460193FFF7A7
:108AE000D3FE019BBBEB000463EB0105012C75F188
:108AF000000347DBB4F5350F42D3FFF795FF324A49
:108B000002444FF496030021504600F033F9002848
:108B100040D1336813B9404600F004F9376005B01E
:108B2000BDE8F08F0378012B1FD0022B09D14FF045
:108B3000000A304603F0FEF9002836D080F820A065
:108B4000F7E74BB9416891F820302BB9012381F840
:108B50002030304603F0DEF903A9194800F038FA56
:108B600003A9174800F009FA93E741683B68994266
:108B700002D100233B60EFE7304603F0E4F9EBE776
:108B8000BA68BEE70021504600F079F93846FFF791
:108B9000B5FE01E00D28F9D00023336080E7002BFB
:108BA000BDD1404600F0C2F8B9E7012389F8003092
:108BB000D2E700BF085D0020785D0020705D0020D6
:108BC0000034002084210300FFFFB400105D00206A
:108BD0001434002070B5EFF3108672B60C4A946816
:108BE00001239CB993600B4B0B4DD3F880102940A7
:108BF0001160C3F88050D3F8841051604FF0FF32F9
:108C0000C3F88420047006B962B670BD0370FAE739
:108C10007C5D002000E100E0FC06FFBD084B9A6887
:108C200010B55AB150B9EFF3108172B6054A1C68FD
:108C300014605C685460986001B962B610BD00BFF2
:108C40007C5D002000E100E0435882B03BB100238E
:108C5000435043580193019B012002B070471846CE
:108C6000FBE70000F8B5264C4379264E44F8232054
:108C7000254C04EBC3031B7973B17388012B09D90D
:108C80002248234B2349C01AC008000440F00200C8
:108C9000FFF720FA0820F8BD03680A88C3F8082502
:108CA00090F904508B7802795B01002DDBB221DB57
:108CB00019494F1987F8003301236D0902F01F028B
:108CC00003FA02F241F82520437904EBC30244F889
:108CD000330073880121022B117109D90B480C4B09
:108CE0000E49C01AC008000440F00300FFF7F2F973
:108CF0000020D0E70A4902F00F028B54E4E700BFDE
:108D0000905D0020C4320020885D0020AC17030075
:108D10005C1703009021030000E100E0B221030092
:108D200014ED00E0036801221A6070470368012215
:108D30005A60704773B501F15005AD000068ADB2DF
:108D40004FF480348C400026C0F80843C0F84843F4
:108D5000465101F5A8714559019522F07F42019DC8
:108D600040F82120C0F844430BB1C0F8044302B0DE
:108D700070BD00002DE9F74F0D4622F07F440268D8
:108D80004FF4803705F150068F408046B60002EB65
:108D90008500C2F84873B6B2C2F80873D2F8041559
:108DA00099464FF0000BD0F84035C0F8401542F816
:108DB00006B05B1A9259009223F07F43012B009A70
:108DC0004FEA850A0CD1264B4FF4806043F0010333
:108DD0009847D8F8003043F806B09B590193019B9F
:108DE000D8F80010D1F80465C1F84473A31B23F030
:108DF0007F43012B1CD11A4B05F5A875013443F0B4
:108E0000010341F825404FF480609847D8F80030BE
:108E1000D3F804359E4209D1D8F800300020C3F8B9
:108E20004473C3F8047303B0BDE8F08F0D20FAE774
:108E30008A44C9F1FF13CAF84045D1F80405221A43
:108E4000013A22F07F4203F57F439342EED3002A9A
:108E5000E2D10134CAF84045D1F804359842DAE746
:108E6000D021030003680222C3F8442309B1C3F8E8
:108E70000423704700684FF48271FFF7E5BE4FF49A
:108E8000803303FA01F10368C3F84813C3F80813E9
:108E9000704750318900006889B2FFF7D5BE03687A
:108EA000D3F804057047000090F90430002B09DB6B
:108EB0005A09012103F01F0301FA03F3403202496A
:108EC00041F82230704700BF00E100E0024B034A46
:108ED0001B681068184700BF905D0020885D002067
:108EE00010B561B1B2FBF3F403FB1424A4B244B98E
:108EF000C0E9001484608281C381204610BD0E2029
:108F0000FCE70920FAE737B550E8013F9DB2C48974
:108F100025448489A54228BF2D1B0489A54202BF90
:108F2000BFF32F8F002207E0C5EA030540E8015494
:108F3000002CE9D14FF001028DF803200193019B31
:108F40009DF803200B6002F0FF0322B10B8800683C
:108F5000184403B030BD1846FBE70A884B889A4294
:108F600009D150E8012FC2EA024240E80123002B58
:108F7000F7D1012070470020704737B550E8023F15
:108F80001FFAA3F5C488A54202BFBFF32F8F0022AA
:108F90000DE0C48925448489A54228BF2D1BC3EA5E
:108FA000054540E80254002CE8D14FF001028DF84D
:108FB00003200193019B9DF803200B6002F0FF0347
:108FC00022B14B880068184403B030BD1846FBE757
:108FD0000A884B889A4209D150E8022FC2EA2242FD
:108FE00040E80223002BF7D1012070470020704792
:108FF00010B5034653E8000F0A4643E8002494F0F6
:10900000000FF7D110BD10B5034653E8000F40EA3A
:10901000010243E8002494F0000FF6D110BD10B512
:10902000034653E8002F42EA010043E8000494F0AD
:10903000000FF6D110BD10B5034653E8000F00EA4B
:10904000010243E8002494F0000FF6D110BD10B5E2
:10905000034653E8002F02EA010043E8000494F0BD
:10906000000FF6D110BD10B5034653E8002F02EBF8
:10907000010043E8000494F0000FF6D110BD10B5D4
:10908000034653E8002FA2EB010043E8000494F0EC
:10909000000FF6D110BD0121FFF7B5BF0121FFF789
:1090A000BEBF0021FFF7C7BF0021FFF7D0BF000000
:1090B0002DE9F0478368D3F84831C3F340059B0797
:1090C00088B0074606D50022114608B0BDE8F04733
:1090D00001F018BD012906D91E4A022108B0BDE8D9
:1090E000F04700F0BDBC1C4C1C4EDFF874A04FF0E4
:1090F0006408A946361B1C23B6FBF3F6AE4204F106
:109100001C0402D108B0BDE8F08754F81C0C54E9E7
:109110000623017900689A1A1B1ADBB2039308FB35
:1091200003F3B3FBF2F3CDE9019334F8043C00936D
:10913000CDE9061254F8083C11FB08F13846B1FBA2
:10914000F2F1CDE904215246082100F089FC0135F5
:10915000D4E700BFD62103007C180300EC180300FD
:10916000E921030010B590B1D0E9012301689B1AF1
:10917000DBB20A60013BDBB2FF2B026802D10020A8
:10918000107110BD11684C1C14600B70F2E70E20BA
:10919000F7E737B5054600240DF107008DF80740C5
:1091A000FFF718FD2A686B68116899420ED9481EAE
:1091B000106011F8014CEB68298B01FB0434AB689B
:1091C00011791B1ADBB2994238BF13719DF8070061
:1091D000FFF724FD204603B030BD37B50546002318
:1091E0000DF107000C468DF80730FFF7F3FC2A68F5
:1091F0001368591C1160E968641A298BB4FBF1F4F7
:109200001C709DF80700FFF709FD03B030BD30B1B9
:109210008A68B2F8483143F02003A2F84831704719
:10922000436810B59C686068036801219B68984793
:10923000A36810B903221A7010BD0422FBE7096865
:10924000006808F0C2B908B108F0E6B9704738B54F
:10925000836804460068DD7FFFF7F5FFA3685A7E48
:109260002844B0FBF2F302FB1300B0FA80F040098F
:1092700038BD10B584680068FFF7E5FFE37F627EC4
:10928000A07653FA80F3B3FBF2F102FB1133013302
:109290002375A37F53FA80F00131B0FBF2F302FB98
:1092A0001300A1750130591C6075E17504F11400BB
:1092B00010BD38B58368044600689D7FFFF7C3FF83
:1092C000A3685A7E2844B0FBF2F302FB1300B0FA05
:1092D00080F0400938BD00002DE9F843089E1C4687
:1092E0000D46E9B9194E1A4B9B1BB2EBD30F4FEA4F
:1092F000D30804D2174F07EB8207A84501D10023FA
:1093000009E073683868196808F05FF9B1460836F3
:1093100020B9D9F804302360BDE8F8830135ECE7C3
:109320000028ECD00178436839B13146104698479F
:109330003368002BE3D02660EEE7110103EB021245
:109340005B58002BDBD02260E6E700BFC0160300AD
:10935000081703007832002030B50368D3F8405175
:1093600085B00446EDB10023092201A9284602F088
:109370001AFB2368029AC3F840210021092201A8A0
:1093800008F0CEF80023092201A9284602F001FBCB
:10939000284602F0A6FA2368D3F8400118B9C3F8AA
:1093A0003C0105B030BD01A90023092202F0FBFAFF
:1093B00020680023D0F840010193092201A902F09E
:1093C000E8FAEEE707B58368B9B1DA7E8A4211D0D0
:1093D0000B4A009233228DF8042001F12F028DF800
:1093E00005206D22ADF80620D9766A460549006948
:1093F00002F065F803B05DF804FB034AD976F5E79F
:109400001B5B313BC42303005527030007B583686A
:109410001A7F8A4213D045F61B32ADF80020342261
:109420008DF8022001F12F0219778DF803206D22AB
:10943000ADF80420034900696A4602F040F803B021
:109440005DF804FBC4230300014902F038B800BFF3
:10945000112303000A460068014902F030B800BF3A
:10946000F822030009B1FFF7F5BF7047014A02492E
:1094700002F025B84B270300C42303002DE9F7436E
:10948000002506460F4614460560207840B107F0D7
:10949000CAFD68B1002304F8013B33680B2BF4D9F3
:1094A00033680022284647F8232003B0BDE8F08344
:1094B00033685A1C326047F82340054694F8008010
:1094C000B8F1000FE9D0002D77D1B8F1270F05D002
:1094D000B8F15C0F79D0B8F1220F66D12046FFF7C2
:1094E000B2FE611C0246204607F053FE4546E5E702
:1094F0002046FFF7A8FE611C0246204607F049FE01
:109500000025DBE7302826D102234FF00008E05C7D
:10951000A0F13001C9B207295FFA83F918D80133E5
:1095200041EAC801052B5FFA81F8F0D1994609F1AB
:10953000FF31214420460191FFF785FE0230A0EB68
:1095400009020199204607F024FE04F8018BB5E7D3
:10955000B9F1020FEBD178282DD102214FF000088C
:10956000635CA3F13002D2B2092AC8B20AD842EA37
:10957000081303295FFA83F802D14FF00409D6E7F4
:109580000321EDE7A3F16102052A03D8573B43EA23
:109590000813EEE7A3F14102052A01D8373BF6E7AD
:1095A000022808D04FF00309C1E7404607F03BFD11
:1095B00000287FF472AF013480E7A84598D0B8F155
:1095C0005C0FF8D1607885429CD12046FFF73BFEC6
:1095D00004F1010802464146204607F0DAFD444600
:1095E0006CE72DE9F34105460F461446002614B9F1
:1095F00002B0BDE8F081686803682246D3F80C80A9
:10960000B91901ABC047019B1E44E41A002BEED1EF
:10961000AB681A78032AEAD0D3F848219206FBD522
:10962000B3F848216FF34512A3F84821DFE72DE98D
:10963000F04F2DED028B044683B090460E46002974
:1096400073D00025705D07F0EEFC50BB04F11003F1
:1096500008EE103A5FFA88FB3046FFF7F4FDA36886
:1096600093F81990401BA9EB080906EB050A484539
:1096700053464FF0000717D913F8010BCDE900331B
:1096800007F0D1FC009B20B113F8012C0A2A34D03A
:10969000B946A268507E08EB070290422CD90137E8
:1096A000EAE70135CEE70137B84219D013F8012BAC
:1096B0000A2A05EB0709F6D1206901F0F5FE3A46C2
:1096C000274651462046FFF78CFF57F8100FFFF74B
:1096D000BBFE5FFA88F1384609F10105FFF7C2FECB
:1096E0002069711901F0EBFE206903B0BDEC028B1B
:1096F000BDE8F04FFFF7A8BE4F46206901F0D4FE49
:109700003A4651462046FFF76CFF3D44705D07F036
:109710008AFC40B92069FFF797FE18EE100A5946F7
:10972000FFF7A0FE98E70135F0E703B0BDEC028B30
:10973000BDE8F08F0A4619B10249006801F0BFBECA
:10974000704700BFFE2203000A4619B102490068B3
:1097500001F0B5BE704700BF0423030037B50546CE
:10976000FFF787FD83790278817801339A420446B6
:1097700001D1012915D0012905F1100005D90139C0
:10978000C9B20190FFF7D6FF01982378A1798B42E7
:1097900009D9013B591AC9B2FFF7D6FFAB680022BD
:1097A000DA7703B030BD0131C91AC9B2FFF75AFEEA
:1097B000F4E7F7B50546FFF75CFD8778C678044601
:1097C0002846FFF744FD78B12869FFF73DFEB74210
:1097D00005F110000ED161782378C91AC9B203B01F
:1097E000BDE8F040FFF7B0BF2846FFF762FD002854
:1097F000EAD1ECE7A378E1780190C91AC9B2FFF782
:1098000099FF2378617801988B42E6D9591AC9B239
:1098100003B0BDE8F040FFF725BE00002DE9F3419D
:1098200005468068424F002480222146A0308DF8F2
:10983000034007F075FE3F49286901F040FE2869A2
:1098400001F032FE4FF47A7647F00107686803684A
:109850000122D3F810800DF1030101ABC047019B39
:109860005BB94FF6C010B847019B002BEED1013E0B
:10987000B6B2002EEAD10D2035E09DF80330AA687B
:109880001B2B48D092F8A0101B29EDD1522B42D1AE
:109890001444002384F8A03092F8A1105B291FD152
:1098A00002F1A20602211D4616F8010B4C1C3B28B2
:1098B000E1B264B21AD1002C20DB01F1A0041444FF
:1098C000002314F8010BD8B9FA2B28BFFA23FA2D7C
:1098D00013752B4628BFFA23937582F8A00002E087
:1098E00082F8A0300B2002B0BDE8F08105EB8503C3
:1098F00000EB4303303B80299DB2D5D10C20F2E729
:1099000003EB830300EB43004E1C303883B2300678
:10991000F1B2F3D4D5E711190134E4B2092C81F87E
:10992000A030A1D9002382F8A0300420DBE700BFDB
:10993000702703006127030038B50546FFF799FC3F
:10994000027843789A4204468378C27801D19342E0
:1099500014D09A4205D9D21A0B492869D2B201F023
:10996000AEFD237861788B4205F1100007D9591AB2
:10997000C9B2FFF7E9FEAB689A7FDA7738BDC91A3A
:10998000C9B2FFF76FFDF6E70A230300F8B51E46DC
:10999000C3685B68054698604068036817461C68A2
:1099A000294A2B46A0470446002844D1686901F0A3
:1099B00096FF044600283ED1A8684FF4A6722146BF
:1099C000C0E94F4407F0ACFDA9682048B1F8483120
:1099D0001F4A43F02003A1F84831B1F8483167F33A
:1099E0008203A1F84831B1F8483143F00803A1F8E7
:1099F000483101230B7045F218030B83121A154BE3
:109A00004FEAD20C21460430614516D1072A04D909
:109A1000114B1048042207F0D9FB66B19DF81810CD
:109A2000E868FEF77BFB0028A1BFEB68DB6801223A
:109A30005A71B8BF04242046F8BD50F831703F6811
:109A400043F8047B0131DFE70F920200C0160300E8
:109A500008170300783200203F920200FFF7C1BDD3
:109A60000CB473B506AB0D4653F8046B81680193D3
:109A7000D1F848315B07044620D5CB7EAB421DD0E0
:109A800002221B31684607F022FD29462046FFF7D7
:109A900099FC206901AA314601F090FD9DF8001063
:109AA0002046FFF78FFC9DF8011011B12046FFF70B
:109AB000ADFC02B0BDE8704002B07047206901AA59
:109AC000314601F07BFDF4E782680021D18382F802
:109AD00020100368014A0321FFF7C2BFC42303001B
:109AE00070B583681E78012E04461AD14068036859
:109AF00000219B689847054688B908212046FFF752
:109B000061FC31462046FFF781FC2069064901F0DF
:109B1000D6FCA36802221A702046FFF7D5FF28461C
:109B200070BD0825FBE700BF10230300F8B504460D
:109B30008068867FB3187F2B0F4615463ADC002AD3
:109B400038D0C37FF61A03F1200113442033F6B254
:109B50000144721C184407F01CFBA068C37F20332B
:109B60002A463946184407F014FBA0682030FFF756
:109B70006AFBA268D37F90772033134420460E4AB5
:109B80000821FFF76DFFA368DA7F1544DD772046D3
:109B9000FFF75DFB40B12069FFF756FC56B1204648
:109BA000BDE8F840FFF705BE2046FFF782FB00281E
:109BB000F1D1F3E7F8BD00BFC42303002DE9F04164
:109BC00004468068D0F84861827FC37FC6F30008EE
:109BD000D51A16F001060F46EDB23ED17E2A40D8C6
:109BE0003DB103F12001213301442A46184407F016
:109BF000D0FAA368DA7F1A4482F82070002E72D15E
:109C00009A7F0132D2B29A77134483F82080002DD4
:109C100072D02046FFF72DFB8278C3789A4204F178
:109C2000100720D1A268D37F203313440821204697
:109C3000344AFFF715FFA91BC9B23846FFF784FD68
:109C4000A268D37F0133D3772046FFF700FB10B320
:109C50002069BDE8F041FFF7F7BB7E2AC9D9002D86
:109C6000C7D1BDE8F0812069274A264901F027FCC9
:109C7000A268D37F203313442046224A0821FFF7ED
:109C8000EFFE2069214A1F4901F019FC01213846E5
:109C9000FFF7E0FBD4E72046FFF70BFB0028E0D0FE
:109CA0002046FFF7E6FAC2788378013AD21A12F01A
:109CB000FF02054604F1100603D01549206901F0A2
:109CC000FEFB2069FFF7C0FBE978AB78C91A304684
:109CD000C9B2FFF72FFD297801393046C9B2BDE876
:109CE000F041FFF7BFBB002D93D19A7F0132D2B272
:109CF0009A77134483F82050064920693A4601F0C8
:109D0000DEFB9DE7C42303004F2703005227030017
:109D10000A2303009F2003007FB583680025CDE957
:109D20000155D3F844218DF80C5004460E46002905
:109D300041D1002A3AD0FFF711FDA0683346D0F890
:109D40004401092201A901F02EFEA068029B857F33
:109D5000C0F84431002B4ED1A030FFF774FAA3684D
:109D600030B303F1A00103F1200007F00CFCA06860
:109D70002030FFF768FA8DF80C009DF80C30A268CF
:109D8000AB42D377937702D22069FFF76FFBA368CA
:109D90002D4A204620330821FFF762FE2046FFF7B8
:109DA00056FA00284AD02069FFF74EFB04B070BD78
:109DB00083F82000DBE7D3F840119142F6D0D3F8C6
:109DC0003C31002BF2D0FFF7C9FCA368D3F8440163
:109DD00040BB03F12000FFF736FAA36810F0FF053F
:109DE000D3F83C21C3F8442119D003F1200103F139
:109DF000A00007F0C8FBA06801A9D0F84401002327
:109E0000092201F0D0FDA0689DF80C2000F120018E
:109E10000923D0F84401013201F0C5FDADE783F814
:109E2000A050E8E72B46092201A901F0BCFDA36878
:109E3000019A9DF80C50C3F84421DCE72046FFF757
:109E400038FA0028AFD1B1E7C423030038B504467F
:109E50008068C37F857FED1A15F0FF0540D003F1C0
:109E60002101203301442A46184407F092F9A268E0
:109E7000937F013B93772046FFF7FBF98278C37805
:109E80009A4215D1A268D37F203313442046154A45
:109E90000821FFF7E5FD54F8100F1249124A01F0AE
:109EA0000EFB691E2046C9B2BDE83840FFF74CBC26
:109EB0000E4A0C49206901F002FB2069FFF7D6FA2F
:109EC000A268D37F203313442046064A0821FFF7B7
:109ED000C7FD2069064A0349BDE8384001F0EFBAE2
:109EE00038BD00BFC4230300592703004F270300D8
:109EF000522703002DE9F041C3685B6890B0044627
:109F00000D461868002203A901F085FE002840F0E4
:109F10008C808DB1039801F02DFDA268D2F8383104
:109F20000133C2F8383103F00703012B04D00125B7
:109F3000284610B0BDE8F0812046FFF79AF98178F5
:109F40000129064605D90139C9B204F11000FFF70D
:109F5000F1FB3178012905D90139C9B204F11000AA
:109F6000FFF7F2FB2069FFF781FA2DB1304A022199
:109F70002046FFF775FDDBE700230C22039804A9B8
:109F800001F011FD069B0793059B08939DF8103087
:109F90008DF8255003F00302012A25D1BDF81020C9
:109FA000049E0398C3F3C203C2F383178DF82430D1
:109FB000BA000C230AA901F0F6FCC6F39526236922
:109FC00000933A4607AB0AA93046FEF78FF903988B
:109FD00001F0D0FCE3685B680022186803A901F077
:109FE0001AFE0028C8D0A2E7022AF0D1BDF81260FC
:109FF000C3F3C203C6F389168DF824304FF00C0862
:10A00000082E374628BF0827434603983A460AA930
:10A0100001F0C9FCF61B236907AA39460AA8B8440F
:10A02000FEF7C8F9002EEBD1D1E7002580E700BF8D
:10A0300013230300436801219868FFF75BBFF7B55E
:10A0400047680191BD68AB681E78042E0ED0386851
:10A0500001A901F00AFD044650B9019801F086FCFF
:10A06000032E03D121462846FFF744FF03B0F0BD7D
:10A07000F11E18BF01212846FFF73CFFE7E700006B
:10A080002DE9F04F04468068A5B0102100F5A470BA
:10A09000FEF7C5FFA3681B78022B40F08A800023DF
:10A0A0000B936068036801221D690DF12B010BAB56
:10A0B000A8470B9B002B63D09DF92B30002BF0DBC6
:10A0C00001F0BAFCA0684378012B00F03E84022B1B
:10A0D00000F04284002B40F0FC849DF82B500D2DA5
:10A0E00030D00A2D2ED0B0F8482163F38D12A0F89D
:10A0F0004821092D00F0F58100F2E281002DD0D039
:10A10000082D00F0C883284606F092FF0028C8D02A
:10A11000A3689DF82B10D3F848211007C2F3C0069E
:10A1200000F11283987F7E28BBD8DD7F6A1CD2B2F3
:10A13000DA771D441A44013085F8201082F8206037
:10A140009877AEE7D0F8483113F47F5F05D0D0F8A8
:10A150004831C3F387139D42CBD1B0F8483165F342
:10A160008D13A0F84831837F83BBC0F84431206948
:10A17000FFF76AF9A36802221A702046FFF7A4FCD1
:10A1800000212046FFF7B6FE98B12368AC4A0321B0
:10A190002046FFF765FCA368D3F84821120708D5CD
:10A1A0002046A74A20330821FFF75AFC2046FFF734
:10A1B00000FB206901F078F9A0686FF0100100F54C
:10A1C000A470FEF744FF25B0BDE8F08F90F8203072
:10A1D000002B5DD1A0682030FFF735F8A36800267A
:10A1E00010F0FF05C3F8446122D0D3F83C010028E9
:10A1F00000F08F803346092217A901F0D4FB9DF8A7
:10A2000064309D4240F08580A068092300F1A001E0
:10A210006A1CD0F83C0101F0C6FBA06800F1A00167
:10A22000203007F0D2F9A368002870D183F8A0008D
:10A230002046FFF781FB2046FFF709F810B9206997
:10A24000FFF702F9A26817A920320EA8FFF716F946
:10A250000E9A0346002A8AD0002840F0A080794F49
:10A26000794EF61BF6080546AE42179B40F09D80DE
:10A27000764A00920221764A2046FFF7F1FB79E701
:10A280000135B5F5807F04D1002283F82020A1E7B5
:10A290000025A3682B44EEB293F8200006F0C3FE1D
:10A2A000A3680028ECD16EB19A7F03F1200001323F
:10A2B000521B411906F06DFFA268937F9B1BDBB216
:10A2C0009377D377A568AB7F1F331D445FFA85F87A
:10A2D000A946EFB2A8EB070699F80000F6B2013DD7
:10A2E00006F0A1FE0028F3D1A268937F03F11F01BD
:10A2F000114489453FF46EAF9E1BA7EB0807164437
:10A300003B44DBB286F820009377D37762E783F88B
:10A31000A060082705F10A0604EB070860693146CA
:10A3200001F0F5FA0546002833D0A368D3F83C01C4
:10A33000A8B9C3E94F55CDE917009B7F8DF864306C
:10A3400017A928460023092201F023FBA1688A7F70
:10A35000092301322031284601F01BFB68E7002366
:10A36000092217A901F01FFBA068189500230922F4
:10A37000D0F83C0117A901F00CFB00231893A36847
:10A38000D3F83C2117929A7F8DF86420C3F83C5192
:10A39000D6E74046FEF7E0FF013FBFD148E72D4A30
:10A3A00002212046FFF75CFBE4E67A681846116854
:10A3B00007F00BF9B846083718B10135AE42BFF4C3
:10A3C00053AFA0680021102204300F9107F0A8F8C5
:10A3D000D8F80450EB682BB195E80F00A668043656
:10A3E00086E80F00D5F808B0DFF86C90DFF86CA0B5
:10A3F00017AF00264FF0010800250E9B43450BD9EF
:10A400007868494607F0E1F850BBA268B2F84831D5
:10A4100043F00203A2F84831A3681B69002B49D01E
:10A420000E9917AA02EB8602891B20469847A3685B
:10A43000B3F848216FF34102A3F848219AE600BF20
:10A44000C4230300C01603000817030055230300AC
:10A450002124030041230300692303006C2303002C
:10A460007868514607F0B1F80028CED013AB0093BE
:10A470002A460FAB41465846FEF72EFF6A1CCBD04A
:10A480000F9B002BC8D01968786807F09EF801353B
:10A490000028B2D10F9DEB6833B195E80F00A66894
:10A4A000043686E80F004646D5F808B008F10108E2
:10A4B0000437A1E7B34A02212046FFF7D1FAB6E7F5
:10A4C0001B2D0BD07F2D7FF41EAED0F848311D0719
:10A4D0007FF5E7AD2046FFF7B9FCE2E501234370C5
:10A4E000DFE5D0F848311B077FF5DBAD837FC3F193
:10A4F0007F0313F0FF0304933FF4D3AD00F1200179
:10A50000C27FA03006F0E3FFA368DA7F1344002582
:10A51000D87F83F8A05006F086FDA2680690431B02
:10A5200018BF0123C2F8445117A9A0320CA8079301
:10A53000FEF7A4FF1798FEF786FECDE90D55C7B2CA
:10A540002E46A84603950595AA460C9B23B1079A6B
:10A55000013B1344B3427CD8069B002B38D124AB7B
:10A5600003EB860353F8340CFEF76DFEC7B224AB41
:10A5700003EB86034FF0000B09930BF101030893E3
:10A580000FAB00935A460DAB31464046FEF7A4FE92
:10A590000D9B002B00F0C3801968099B3A4653F8C5
:10A5A000340C06F024FF8146A8B9039B01330393C2
:10A5B0000D9B18680E9B8BB9FEF745FE049AC5B239
:10A5C000EB1B9A4201DDDBB20493CDF814B025E019
:10A5D0000027CCE7DA46DDF820B0CEE7FEF733FE01
:10A5E000049BC0B2854238BF0546BBB113AB009394
:10A5F00040460EAB52463146FEF76EFE0D9B186884
:10A600000E9BD3F800C009EB07015FFA89F3425CA7
:10A61000A2B9049A9A4228BF1A4604920D9B0E933F
:10A62000089B002BD6D1584A04212046FFF718FA80
:10A63000B8F1000F79D14FF0FF3A73E01CF8011028
:10A640009142E6D109F10109B9F5807FDBD1FF2301
:10A65000DFE724AB4FF0000B03EB86090FAB009351
:10A660005A460DAB31464046FEF736FEBBF1FF3F82
:10A6700005D1454A04212046FFF7F2F911E50D9B6B
:10A68000002B3FF40EAD196859F8340C06F09DFF0D
:10A690000BF1010B0028E1D10D9BD3F80880B8F134
:10A6A000000F47D1039B002B3FF4FBAC012B71D172
:10A6B00098F800303BB10FAB009352460EAB3146D9
:10A6C0004046FEF709FE0E9B1868FEF7BCFDB84237
:10A6D00006D00E9B049A196820463944FFF726FAE3
:10A6E000A368DA7F134493F8200006F09CFCA3686B
:10A6F00070BBD3F84821D70725D5B3F8482160F3BC
:10A700000002A3F8482120212046FFF757FAA2684B
:10A71000B2F8483143F00103A2F84831C1E4B8F17E
:10A72000000FBFD14FF00008BCE70D9B4FF0FF3A80
:10A73000002BB7D00C9B079A0136F6B213449E4209
:10A74000FFF403AFAEE720212046FFF737FAA8E475
:10A75000DA7F9B7F9A42BFF4A4AC2046FEF789FDC6
:10A76000A2688578D37F0133D3772046FEF781FD39
:10A770008378AB420AD1012104F11000FEF76AFE92
:10A780008FE400BF73230300912303002069FEF7C9
:10A790005BFE86E4A368DFF868A300225A7724AB47
:10A7A00003EB86030793059B059A013306930FABD2
:10A7B000009331460DAB4046FEF78EFD0D9B1968A8
:10A7C000079B3A4653F8340C06F011FE50B9039B30
:10A7D000013B03930D9B1B683BB9A2685377039B16
:10A7E000002B40D0069B0593DDE750460593FEF70E
:10A7F0002AFDA1682844C2B2504691F819900992E6
:10A80000FEF721FD059B08901846FEF71CFD099AEE
:10A810000899059B101A5FFA80FBA06890F81DC08C
:10A82000A9EB0109B9FBF2F2D2B2BCFBF2F102FBD7
:10A8300011C20CF1010E12F0FF0F80F81DE00CD1D7
:10A840000093A54A534607212046FFF709F95946C8
:10A8500004F11000FEF706FEC1E7A04A07212046DA
:10A86000FFF7FEF8F3E723689D4A20460321FFF730
:10A87000F7F8A368994A203308212046FFF7F0F83B
:10A880002046FEF796FF0E9B049A1968204639442D
:10A89000FFF74CF905E4D0F848311E077FF501AC0D
:10A8A000867F002E3FF4FDABC37F002B3FF4F9AB56
:10A8B000F61A03F12001F6B21F33721C014418444A
:10A8C00006F067FCA368DA7F013ADA779A7F013AEB
:10A8D0009A77002E37D02A468249206900F0EFFD92
:10A8E0002046FEF7C6FC8278C3789A4213D1A2684C
:10A8F000D37F29462033254613442046774AFFF765
:10A90000AFF855F8100FFEF7B1FD31462846FEF7B7
:10A910001BFFFFF7C6BB744A7049206900F0CFFDEA
:10A920002069FEF7A3FDA268D37F20331344294694
:10A930006A4A2046FFF794F86C4A6849206900F09B
:10A94000BEFDFFF7AEBB6A4AF7E79DF82B305B2BE5
:10A9500040F0BF800223C2E500234370A368D3F810
:10A96000482111077FF50CAC9DF82B20313A1B2AAA
:10A970003FF697AB01A151F822F000BF99AA02005F
:10A98000A7AA0200C7AA02008BAA0200A3A0020085
:10A99000A3A00200A3A00200A3A00200A3A00200A3
:10A9A000A3A00200A3A00200A3A00200A3A0020093
:10A9B000A3A00200A3A00200A3A00200EDA9020030
:10A9C000F9A90200FDA9020049AA0200A3A0020001
:10A9D0008FAA0200A3A002009DAA0200A3A0020069
:10A9E000A3A00200A3A00200ABAA020001212046FE
:10A9F000FFF792F9FFF755BB0021F8E72046FEF775
:10AA000038FC037842789A42054604D18178C278AE
:10AA100091423FF446AB6A799A4204F110060ED196
:10AA200034492069012200F04AFD69793046FEF779
:10AA30008BFEA268D37F0133D377FFF732BB0121AE
:10AA40003046FEF707FDF4E72046FEF712FC837957
:10AA5000027801339A42054603D18378012B3FF4F3
:10AA600020AB012A20690BD1234900F028FD697928
:10AA700004F11000FEF7F6FCA268D37F013BDBE790
:10AA80001E49012200F01BFDF6E703225A70204602
:10AA9000FEF752FFFFF705BB03225A702046FEF770
:10AAA0005DFEFFF7FEBA03225A70D3F84821B3F8CF
:10AAB000481102F0010282F0010262F30001A3F8E2
:10AAC0004811FFF7EEBA03225A70A368D3F8483151
:10AAD000FDE4002303E500BFBD230300C4230300FE
:10AAE000C32303009F2003004F27030052270300C6
:10AAF0005D2703000A230300FE2203000423030052
:10AB00009A2003002DE9F04F07468BB07F48DFF80D
:10AB10001C8291460D4606F07FFD06467C4806F0F5
:10AB20007BFDBB68CDF80080301A7A4A5B6808214B
:10AB300086B23846FEF794FFBB685868FEF783FB81
:10AB40000446404606F068FDBB68204482B299681E
:10AB50003846FEF76CFD704A00213846FEF780FF4C
:10AB6000B9F1000F07D035B14FF00C08AA4608FB29
:10AB70000958C24529D1664806F04EFD841C34446C
:10AB8000A4B2624B654A009304F1030808213846D9
:10AB900023461FFA88F8FEF763FF614942463846AC
:10ABA000FEF745FD45B10C2606FB0956DFF880B1DE
:10ABB000DFF86891B54222D1BB68D3F80C80B8F1B8
:10ABC000000F5AD10BB0BDE8F08FDAF80400FEF7A1
:10ABD0003AFB0446DAF80000FEF735FB2044B042A9
:10ABE0000AD9DAF80400FEF72EFB0446DAF8000072
:10ABF000FEF729FB204486B20AF10C0AB9E7D5E931
:10AC0000002393B34AB30192414A009208215A4665
:10AC10003846FEF725FF6868FEF715FB03902868A5
:10AC2000FEF711FB82463A4806F0F6FC039AA21A98
:10AC3000A2EB0A03181AC1B207F11000FEF712FCCA
:10AC4000384938693A2200F03AFCA96889B142468D
:10AC50003846FEF7ECFC0C35ACE7009323464A4639
:10AC600008213846FEF7FCFEEFE7002AEDD00092FF
:10AC7000F4E73869FEF7E8FBEDE700220592164697
:10AC800006AD009505AB0121404602F10109FEF732
:10AC900023FB059C5CB12068FEF7D5FAB04204D9CD
:10ACA000059B1868FEF7CFFA86B24A46E9E7B9F184
:10ACB000010F87D01C4ADFF864A021463846FEF712
:10ACC000CFFE2246B41CA4B205AB0095012140463C
:10ACD00002F10109FEF700FB059B002B3FF472AF68
:10ACE0001B6800930821234652463846FEF7B8FEFB
:10ACF000059B596831B1721D92B23846FEF797FC38
:10AD00004A46E1E73869FEF79FFBF9E7762703003B
:10AD1000E8280300BE230300C7230300D123030058
:10AD2000D92303009F200300F523030066270300B7
:10AD3000EC23030000221146FFF7E4BE022910B500
:10AD4000044608D18368D3F848319B0703D5BDE892
:10AD50001040FFF7EFBF2069054A064900F0AFFB3E
:10AD60002069054A0349BDE8104000F0A8BB00BFB8
:10AD70003C270300C423030040270300012906D019
:10AD8000022906D18368D3F848319B0701D5FFF724
:10AD9000D1BF024A0221FEF763BE00BF7323030046
:10ADA00038B58368D3F84821C2F3400592070C46B2
:10ADB00006D500221146FFF7A5FE2C46204638BDD9
:10ADC0000029FBD05B68024A0221FEF749FEF5E745
:10ADD00003240300012937B50546144604D103B006
:10ADE000BDE83040FFF7A6BF023918BF0121FFF7C9
:10ADF000D7FF48B963680193044B0093044A236862
:10AE000002212846FEF72CFE03B030BDC41A030011
:10AE10001E240300012907B504D103B05DF804EB3B
:10AE2000FFF788BF02290AD153680193084B0093AA
:10AE30001368084AFEF714FE03B05DF804FB8CBFEC
:10AE40000121002103B05DF804EBFFF7A9BF00BFAB
:10AE5000C41A03001E240300013910B518BF0121D4
:10AE60000446FFF79DFF40B9044A0549206900F0F8
:10AE700026FBA36845F218021A8310BD452703007C
:10AE8000C423030001292DE9F3410446154637D1B7
:10AE90008668FEF7C3FC38BBA36804F11005FA21ED
:10AEA000284693F814809F7DFEF7D4FA20691E4946
:10AEB000FA2200F004FB2046FEF7B0FCA0B9A3681C
:10AEC000197D7176A368A1EB08019B7D3376284636
:10AED000C9B2FEF739FC317EC91BC9B2284602B09F
:10AEE000BDE8F041FEF726BCA36845F218021A83BC
:10AEF0000E4A0421204602B0BDE8F041FEF7B0BD85
:10AF0000022994BF00210121FFF74AFF48B96B686D
:10AF10000193074B00932B68064A02212046FEF757
:10AF20009FFD02B0BDE8F0810A230300272403003F
:10AF3000C41A03001E2403002DE9F041013986B034
:10AF400018BF01210546FFF72BFF40BBAB68DFF8B8
:10AF50005480D3F840610446EEB1082C1BD0304633
:10AF60000023092203A900F01EFD9DF81420A96802
:10AF7000304609230132A03100F015FDAB68049E74
:10AF8000A0330093671C2346424600212846FEF763
:10AF900067FD3C46E0E7AB68002283F8A02006B0DE
:10AFA000BDE8F08161240300013910B518BF01210B
:10AFB0000446FFF7F5FE30B9A368B3F8482160F303
:10AFC0008202A3F8482110BD013910B518BF012134
:10AFD0000446FFF7E5FE30B9A268B2F8483143F005
:10AFE0000403A2F8483110BD013910B518BF012182
:10AFF0000446FFF7D5FE30B9A368B3F8482160F3E3
:10B00000C302A3F8482110BD013910B518BF0121B2
:10B010000446FFF7C5FE30B9A268B2F8483143F0E4
:10B020000803A2F8483110BD022973B50D4694BF3C
:10B030000021012104461646FFF7B2FE014658B929
:10B04000022D0BD1736801930C4B00930C4A3368AB
:10B0500029462046FEF704FD02B070BDA368094AE8
:10B06000D3F8483113F0080F074B18BF1346074AAF
:10B07000204602B0BDE87040FEF7F2BCC41A0300DF
:10B080001E240300543303007E3303006B240300AB
:10B09000013910B518BF01210446FFF781FE48B9F8
:10B0A000A368C3F83801E3685B68BDE8104018681E
:10B0B00000F0F9BD10BD00007FB5013918BF0121B6
:10B0C0000446FFF76DFE0546B8B9E3685B681E6885
:10B0D000304600F0E5FDB168A268C0B2CDE90101DB
:10B0E00064234343B3FBF1F3DBB20093D2F838316E
:10B0F000034A29462046FEF7B3FC04B070BD00BFEA
:10B100007C24030010B500201C4603F089FF20605A
:10B11000002010BD83681868FDF77EBC10B541683B
:10B120000024C1E900230C7203F0F0FF024B01225E
:10B130001A70204610BD00BF945D002010B5044673
:10B14000002003F0D9FF20B163680020D3E900217B
:10B15000904763680120D3E900219047A368224605
:10B160001868BDE8104040F26661FDF73CBC000085
:10B1700043681B7A70B505460E46CBB183681868E4
:10B18000FDF74AFC30F00803044601D116B1002453
:10B19000204670BD6B681B7A63B1AB682A4618689D
:10B1A00040F26661FDF71FFC044603F0AFFFEFE7D6
:10B1B0000029ECD1054AA8680021FDF709FC6B685D
:10B1C00001221A7204460028E7D0E1E73DB10200EF
:10B1D0002DE9F74F1F461B4B1B68DB0789461446BA
:10B1E00004D43A60002003B0BDE8F08F164BDFF8BE
:10B1F0005CB04FF00508002543F0010A224609EB38
:10B200000501002003F058FF0646A0B99BF8003066
:10B2100063B10A2301934FF47A40D047019B013B6D
:10B22000F8D1B8F1010806D18BF80080002D08BFD5
:10B2300025463D60D6E70123A41B8BF8003035443A
:10B24000DCD1F3E7F0ED00E0F0280300945D00208E
:10B250001A60C0681A4600F0F7BD000010B4074C31
:10B260000378E35C23B15DF8044B043002F0E2B9EB
:10B270005DF8044B0C3001F0F5BE00BFCC5D002042
:10B280004069054A0378D35C13B1043002F092BAE6
:10B290000C3001F0B1BF00BFCC5D00200378044A40
:10B2A000D35C13B1043002F041B90C3001F07EBE22
:10B2B000CC5D002010B504464069FFF7EFFFA3689E
:10B2C000BDE810401868FDF7A7BB000037B51A604D
:10B2D00005461A46006900F042FD044608BB68694D
:10B2E000134A0378D35CFBB1043002F0EBF9C0B928
:10B2F000FF2301932869012301AA694600F06DFD2F
:10B3000078B99DF8042000996869FFF7A7FF6B687A
:10B3100093F82930044623B118B90199286900F03F
:10B32000D2FD204603B030BD0C3001F0E1FEDEE777
:10B33000CC5D002037B5FF2304460093C06801238D
:10B340006A4601A900F0BCFC98B9009888B163690D
:10B350000B4D0199C2B21878285C60B1181D02F03B
:10B36000BDF930B9A3682246186840F26661FDF75E
:10B370003AFB03B030BD03F10C0001F0C5FEF0E76D
:10B38000CC5D002073B50378FF26012B05460C46E3
:10B39000019623D0022B18D0F3B9017A206900F06E
:10B3A00092FD01AA206901960123694600F015FD6E
:10B3B000019A22B100996069D2B2FFF74FFF63682A
:10B3C0000120D3E90021904706E0017AE06800F00F
:10B3D000AFFC2046FFF7AEFF02B070BD017AE06817
:10B3E00000F0A6FC2B7A002BF3D063680020D3E991
:10B3F00000219047EDE7000038B5436893F8283006
:10B4000004460D460BB383681868FDF705FB30F062
:10B4100008030ED175B16069FFF740FF616860698C
:10B420000022083101F022F868B96368012283F82C
:10B43000292038BD636893F8283043B12046BDE821
:10B440003840FFF777BF0620F3E70029E3D1064A2B
:10B45000A0680021FDF7BCFA6368012283F8282068
:10B460000028EBD0E5E700BF81B2020038B5044602
:10B4700040680D46C0E900230023038520220830E0
:10B4800006F025F82C612946064A606900F0EEFFB7
:10B49000054628B9E06800F00AFC206900F007FCC6
:10B4A000284638BD85B30200826810B504462AB12B
:10B4B00043690168006998470023A36010BD0EB47A
:10B4C00003B5039921B104AB01AA019300F076F80A
:10B4D00002B05DF804EB03B070470A2938B50446A2
:10B4E0000D4602D10D21FFF7F8FFA3682268591C11
:10B4F000A160D554D4E901329A4204D32046BDE874
:10B500003840FFF7D1BF38BD2DE9F84F9846DDE947
:10B510000A43154682460F460A464FF00109AA42E1
:10B520000FD2C14538BFC14613F0010B01D16CB930
:10B5300000240126B8F1010F1BD908F1FF386E4332
:10B54000F8E709F10109B2FBF5F2E8E79B070ED530
:10B55000B8F1000F0CBF30262026A145E9D2013CEE
:10B5600031465046FFF7B9FF002CF6D1E0E7202620
:10B57000F3E7B7FBF6F39D42E1D9DFF83C80B7FB78
:10B58000F6F3504618F8031006FB1377FFF7A5FFF4
:10B590003346AB42B6FBF5F6F1D2BBF1000F02D059
:10B5A0000CB1A14501D3BDE8F88F20215046013CE4
:10B5B000FFF793FFF4E700BF2C2903002DE9F74FB5
:10B5C000054617468846002900F0428118F8011BFD
:10B5D00049B92B7B002B00F03B81284603B0BDE826
:10B5E000F04FFFF761BF252940F0B780002698F89B
:10B5F00000302D2B424608F1010823D0302B24D0F7
:10B600002B2B25D000242A2B02F1010123D13B68EA
:10B610001A1D1B683A601C440A4613782E2B26D14B
:10B6200001324FF0000A104610F8011BA1F1300C56
:10B63000BCF1090F1DD80A2303FB0A13A3F1300A3A
:10B640000246F0E746F00106D1E746F00206CEE7F3
:10B6500046F00406CBE711F8013CA3F130000928BD
:10B66000DBD80A2202FB0434303C0A46CBE74FF019
:10B67000000A12F8011B01F0FB0068289046F8D080
:10B68000782909D86F290CD8632962D022D82529B6
:10B6900063D0582900F0888098F80030002B95D1AD
:10B6A00097E770390829F7D801A353F821F000BFB4
:10B6B0002BB8020099B6020099B60200B9B7020091
:10B6C00099B6020097B7020099B6020099B6020037
:10B6D000A9B70200642901D06929DDD13A68D2F8FE
:10B6E0000090111D89EAE9723960A2EBE9724FF00E
:10B6F000010B092A35DCD34538BFD3462CB1B9F14B
:10B70000000F01DB720700D5013CB30702D5BAF187
:10B71000000F03D0F00701D44CBB0024B9F1000F97
:10B720002DDAC9F100092D212846FFF7D6FE06F0D3
:10B730000302022A04D1BAF1000F01D11CBB00247C
:10B74000CDE9004653460A2249462846FFF7DCFE6B
:10B75000A2E73B681A1D19783A602846FFF7BDFE3C
:10B760009AE70A230BF1010BB2FBF3F2C1E7A34501
:10B77000D4D220212846013CFFF7AFFECCE7710769
:10B78000D5D52B21D0E7A345DAD230212846013C7C
:10B79000FFF7A3FED2E73968CDE900460A1D3A60FB
:10B7A00053460A220968D0E739680A1D3A60CDE994
:10B7B000004653461022F5E73B681A1D3A6016F022
:10B7C0000106D3F8009028D1B9F1000F03D0484604
:10B7D00005F022FF0646B44200D904BB09F1FF3947
:10B7E00019F8011F00293FF457AF2846FFF775FEEF
:10B7F000F6E728460136FFF770FE19F80610002913
:10B80000F7D1A642BFF448AF002C3FF445AF20214A
:10B810002846013CFFF761FEF3E70026EDE7202113
:10B820002846013CFFF759FED5E73B681A1D3A60F0
:10B83000302128461C68FFF750FE78212846FFF784
:10B840004CFE00220823CDE90032214610227CE77D
:10B8500003B0BDE8F08F00BF2DE9F84FB0F806A0A7
:10B860004579D2F800B09DF828900AFB05F5043D13
:10B8700088460BEB0301A94203F1040488BFA5EB42
:10B88000030BB4FBFAF607460AFB1644C2F800B0F5
:10B890004EB9AAEB04055D4528BF5D46BBF1000F1C
:10B8A00004D1BDE8F88F3F68013EF1E7043408EBAE
:10B8B00006003C442A46B9F1000F0DD02146ABEBFF
:10B8C000050B05F004FEDA452E443F6855464FF05F
:10B8D000000428BF5D46E1E701462046EFE7FDF79B
:10B8E00041BCF8B546790146721E054600239342D5
:10B8F0002D6803D30024A64202D8F8BD0133F6E731
:10B900000F682846FDF769FC01343946F3E72DE955
:10B91000F843068BCD1C0746FDF73BFC043E35443F
:10B920000446B5FBF6F5F0B14FF48073EDB28380B9
:10B93000C680013D076081464FF00008A84512D23D
:10B940003846FDF726FC064648B16379013363713A
:10B9500008F10108C9F8000007608146EEE72046BB
:10B96000FFF7BFFF34462046BDE8F88301210430CD
:10B97000FDF779BB10B5012104460430FDF77FFBCC
:10B9800010F0FF0F04D12046BDE81040FFF7A9BF1B
:10B9900010BD1FB503920022009203AAFFF75CFFBF
:10B9A00005B05DF804FB1FB503920122009203AAC3
:10B9B000FFF752FF05B05DF804FB41DF7047000060
:10B9C000064B10B500241C70054B1C60BFF35F8F45
:10B9D0000449054800F088FA204610BDA05D00200B
:10B9E000A45D002048290300985D002007B50023CE
:10B9F0000DF107008DF80730FDF7ECF8F1EE103A85
:10BA000023F09F03E1EE103ABFF35F8F094B402212
:10BA1000C3F884219DF80700FDF700F905F0CCF884
:10BA200020B1FFF7CAFF03B05DF804FB20BF40BFA1
:10BA300020BFF8E700E100E0704702681368526831
:10BA4000934291BFD01A80680130801888BFC01A15
:10BA50007047036881681A685B688B4234BF0133A2
:10BA60000023D31A584258417047F7B500230446C3
:10BA70000DF107000D468DF80730FDF7ABF82046B5
:10BA8000FFF7E7FF10B1237C002B3CD12268A668AA
:10BA900053685168B14234BF01310021516030B167
:10BAA0001168A068814234BF013100211160E26851
:10BAB0006068511E072920D8DFE801F004101F1428
:10BAC0001F1F1F182A78C2542046FFF7B6FF2368AD
:10BAD0009A68824200D29860002415E02A8820F8F3
:10BAE0001320F1E72A6840F82320EDE7D5E9006745
:10BAF00000EBC300C0E90067E6E7294602FB03004C
:10BB000005F0E5FCE0E704249DF80700FDF786F862
:10BB1000204603B0F0BD13B5002304460DF1070025
:10BB20008DF80730FDF756F82046FFF786FF0446EC
:10BB30009DF80700FDF772F8204602B010BD000026
:10BB40002DE9F04F8368D3F84831C3F340059B07D4
:10BB50008BB0074606D5002211460BB0BDE8F04F6A
:10BB6000FEF7D0BF012906D9214A02210BB0BDE85A
:10BB7000F04FFDF775BF1F4C1F4EDFF88090DFF8C8
:10BB800080A0DFF880B0361B1C23B6FBF3F6AE4274
:10BB900002D10BB0BDE8F08FE36808932368D4F8B6
:10BBA00008809A6809922046FFF7B5FF099A94F831
:10BBB00010E0642303FB00FCBEF1000F0CBFCE4677
:10BBC000D6465343B3FBF8F3CDE90432BCFBF8F19E
:10BBD000089B0191CDE902080093CDE9068E6369C7
:10BBE0005A4608213846FDF73BFF01351C34CEE7A5
:10BBF000D6210300081703005C1703005429030033
:10BC00005D29030069290300036818685B68C31A8B
:10BC100058425841704773B5002305460DF107009F
:10BC20000C4616468DF80730FCF7D4FF2846FFF780
:10BC3000EBFF002832D129680B682EB90A68A86882
:10BC4000824238BF561C0E60EA686968501E072899
:10BC50001ED8DFE800F0040E1D121D1D1D16CB5C62
:10BC6000237000249DF80700FCF7D8FF204602B09F
:10BC700070BD31F813302380F3E751F8233023608F
:10BC8000EFE701EBC301D1E90023C4E90023E8E7B2
:10BC900003FB0211204605F01AFCE2E70524E1E768
:10BCA000036898687047036800229A607047836849
:10BCB00000225A60C3E904229A60DA601A60704771
:10BCC0002DE9F0410646884617461D4683B9B068FF
:10BCD0007368D0E9031403F1010C0A1B62450ED10D
:10BCE00000243C6015B3FDF7DFF90020BDE8F081CA
:10BCF0008068FDF7D0F90028E9D01120F6E701EAC5
:10BD0000030223409A4238BF64443B682CBFACEB2B
:10BD10000204641A9C4228BF1C4633683C601344EA
:10BD2000C8F80030C3681C44C460DEE72846DDE77D
:10BD3000034680685B68826810B504690133234458
:10BD40009B1A8B4209D31144C0E90211FDF7A9F9EE
:10BD5000002814BF0020082010BD0420FCE72DE9B6
:10BD6000F84F074680688A469046FDF794F9814669
:10BD700080BBD7E901431A69013414449A68A41AB4
:10BD8000D8F80020944228BF1446C8F800407E68C6
:10BD90009D6835400136A6EB050B5C4509D938682E
:10BDA000514628445A4605F092FBAD1B2C44DA4418
:10BDB0004D46386822465146284405F088FBB8684D
:10BDC000D8F80020836813448360FDF76DF9484676
:10BDD000BDE8F88F4FF01109F9E72DE9F04106466B
:10BDE0000F461446984673B9B068816842698D1A47
:10BDF00011D12560B8F1000F02D00430FDF754F9DD
:10BE00002846BDE8F08180680430FDF744F9002839
:10BE1000EAD01125F4E77368D4F800C01A4019403D
:10BE20008A420BD2654500D2256033681A443A60D5
:10BE300043692268134443610025E1E701339B1AFB
:10BE4000634538BF2360F0E72DE9F8430646806874
:10BE500004300F469146FDF71EF9804680BBB2685C
:10BE600013699568ED1AD9F800309D4228BF1D4628
:10BE7000C9F8005073681169946819401C40A142C8
:10BE800028BF5C1C641AA54208D933683846194497
:10BE9000224605F01CFB2D1B2744002133682A464F
:10BEA0001944384605F013FBB068D9F8002003693F
:10BEB000134403610430FDF7F7F84046BDE8F8830A
:10BEC0004FF01108F9E7806808B582680369D21A53
:10BED0008A4207D31944C0E904110430FDF7E4F89D
:10BEE000002008BD0420FCE70B684A6843609342C9
:10BEF00008BF0023016008BF43607047436843B137
:10BF00000268916852680B449342436004BF002367
:10BF10004360704770B5446806460D46206818B106
:10BF2000B3682946984718B923682B60256070BD0F
:10BF30002468F3E74368186808B102681A6070471C
:10BF40004368186870474368186800B970478842AA
:10BF500003D102681A600120704703460068F4E7C5
:10BF600010B50D49A1F59472914201D800200FE05F
:10BF70008C1AE30F03EBE4035B1002EBC30452F8EB
:10BF80003330834205D802D204F10802ECE760683E
:10BF900010BD2146E8E700BF402F030008B5FFF7BA
:10BFA000DFFF024B002808BF184608BD032E030020
:10BFB0000A4B1B685A1C05BF094B0A4A0A4A1068FB
:10BFC0000ABF1B781068C0F30310082B04D10328A4
:10BFD0008CBF002001207047002070473001001006
:10BFE000E00F00F0E80F00F034010010064B1B6872
:10BFF000082B06D1054B1B68032B02D8044AD05CE2
:10C0000070470020704700BF30010010340100105D
:10C01000402F030008B5FFF7CBFF40B14FF080433E
:10C020000022C3F80C21C3F81021C3F83825FFF70C
:10C03000BFFF002846D04FF080525E4BD2F8041468
:10C04000C3F82015D2F80814C3F82415D2F80C143C
:10C05000C3F82815D2F81014C3F82C15D2F814140C
:10C06000C3F83015D2F81814C3F83415D2F81C14DC
:10C07000C3F84015D2F82014C3F84415D2F824149C
:10C08000C3F84815D2F82814C3F84C15D2F82C146C
:10C09000C3F85015D2F83014C3F85415D2F834143C
:10C0A000C3F86015D2F83814C3F86415D2F83C14FC
:10C0B000C3F86815D2F84014C3F86C15D2F84424BC
:10C0C000C3F87025FFF792FF10B13B4B3B4A1A6053
:10C0D000FFF78CFF18B13A4BFB22C3F81825FFF786
:10C0E00085FF48B13749384B0A681B6822F00F02B8
:10C0F00003F00F0313430B60FFF778FF18B1334BC6
:10C100004FF400721A60FFF753FF48B14FF08043BD
:10C11000D3F80024D20744BF6FF00102C3F8002413
:10C120002B4AD2F8883043F47003C2F88830BFF34A
:10C130004F8FBFF36F8F4FF01023D3F80022002AE8
:10C1400003DBD3F80432002B2FDA224B0122C3F891
:10C150000425D3F80024002AFBD04FF0102212212E
:10C16000C2F80012D3F80024002AFBD04FF01023AD
:10C170001222C3F80422174B1A46D3F800140029E0
:10C18000FBD00021C3F80415D2F80034002BFBD0FB
:10C19000BFF34F8F0E49104BCA6802F4E06213439D
:10C1A000CB60BFF34F8F00BFFDE70C4B0C4A1A600A
:10C1B00008BD00BF00C000408C560040488103000D
:10C1C00000F00040E40E004058020010409602408B
:10C1D00000ED00E000E001400400FA051C340020FE
:10C1E0000090D003074B1B5C1F2B86BF064903F052
:10C1F0001F034FF0A041012202FA03F3C1F80C35EE
:10C20000704700BF442F030000030050074B1B5C26
:10C210001F2B86BF064903F01F034FF0A0410122E8
:10C2200002FA03F3C1F80835704700BF442F03003A
:10C230000003005008B50020FFF7E8FF0120FFF7DA
:10C24000E5FF0220FFF7E2FFBDE808400320FFF70B
:10C25000DDBF00000A4B185C1F288ABF094B4FF056
:10C26000A04300F01F00D3F804250121814021EAFA
:10C2700002000A40C3F80805C3F80C25704700BF48
:10C28000442F030000030050C20710B504460CD52C
:10C290004FF0A0430322C3F83427C3F83827C3F86C
:10C2A0003C27C3F84027FFF7C5FFA3070AD54FF087
:10C2B000A0430C22C3F82C27C3F83027C3F860270B
:10C2C000C3F8642710BD000038B5074C051E04F103
:10C2D000080318BF1C4623682BB11A6822605B68EC
:10C2E00028469847F7E738BDB05D002020B9054BD8
:10C2F00001225A70FFF7E8BF012802D1014A90706D
:10C30000F8E77047A85D002020B9034B01225A705E
:10C31000FFF7DABF704700BFA85D002038B50E4CAC
:10C320002378B3B90D486360A3602361E36000F034
:10C33000E5F8054604F040FC08B900F0EBF80123ED
:10C340002370074BD3F800340BB10123A3702846A8
:10C3500038BD8525F5E700BFA85D0020EDC20200CD
:10C360000000014037B50D4C00230DF107008DF89A
:10C370000730FCF72FFCE368013BE360E36833B967
:10C38000074BD3F8005415B900F0D6F8A5709DF806
:10C390000700FCF743FC03B030BD00BFA85D0020E0
:10C3A00000000140012813B50CD0032820D038B973
:10C3B000124B0122C3F88020BFF34F8FBFF36F8F62
:10C3C00002B010BD0E4C00230DF107008DF80730B0
:10C3D000FCF700FC23780BB9FFF7A0FFE3689DF89A
:10C3E00007000133E3600123A370FCF717FCE7E7C4
:10C3F00000F090F8FFF7B6FFE2E700BF00E100E0D1
:10C40000A85D00201FB503788DF8003043680193C4
:10C4100083688DF80830C368054A0393054B684666
:10C4200053F8213052F82110984705B05DF804FB0D
:10C43000BC5D0020C45D00201FB503788DF800307E
:10C440004368019383688DF80830C368054A0393F5
:10C45000054B684653F8213052F82110984705B033
:10C460005DF804FBBC5D0020C45D0020F0B5194BF5
:10C4700090F800C0DFF86CE043F82C20164B16460D
:10C480000A6943F82C204B7F0EF80C300C46074607
:10C490000FCC89B06D460FC594E80F0085E80F00FA
:10C4A0001EF80C30CDF810C04BB1002E0B4A694677
:10C4B00008BF3246381D00F05BFF09B0F0BD002E0A
:10C4C000074A694608BF324607F10C0000F09CFCA1
:10C4D000F3E700BFC45D0020BC5D002005C402007E
:10C4E00039C40200CC5D002000F18040002382B0FE
:10C4F000036003680193019B02B07047044A1379FB
:10C5000023B901211060918018467047852070473B
:10C51000D05D0020074B1A68D20704D4C02283F8EC
:10C52000002301221A604FF080430122C3F818252E
:10C53000704700BF00E100E04FF0804208B50223E1
:10C54000C2F808334FF48270FFF7CEFF034B01218E
:10C550001960D2F81834DB03FBD408BD0C0000408E
:10C56000124B1B6810B573B14FF48070FFF7BCFF1E
:10C570004FF080430122C3F808230D4B587910B9BE
:10C580005A711B6898470B4B1B6873B14FF482704C
:10C59000FFF7AAFF4FF080430222C3F80823044BA1
:10C5A000BDE810401B680120184710BD0001004085
:10C5B000D05D00200401004000F1804000F5C04043
:10C5C000002382B0036003680193019B02B07047AF
:10C5D00003681F2B83BF03F01F03036001484FF064
:10C5E000A04070470003005007B5019001A8FFF775
:10C5F000EFFF019B00EB8300D0F8003723F44033BA
:10C60000C0F80037D0F8003743EA0141C0F80017FE
:10C6100003B05DF804FB0000054B4FF0FF32072824
:10C6200043F8202084BFC01880F85820704700BF0E
:10C63000D85D002038B51E4C94F86A30ABBB4FF67D
:10C64000FF71FF205A09012A14BF4FF0FF320A463A
:10C6500003F01F05EA40D20748BFE21803F10103C7
:10C6600048BF82F83000302BECD10021C8B2FFF770
:10C67000D3FF01310C29F9D1062200210D4804F025
:10C680004FFF0D4BC02283F8062340221A604FF45F
:10C69000BE70FFF791FF094B4FF00042C3F804232F
:10C6A000012384F86A30002038BD0820FCE700BF71
:10C6B000D85D00203C5E002000E100E0006000400A
:10C6C000034B93F86A00003818BF0120704700BF81
:10C6D000D85D0020F7B53B4E3318054693F930304E
:10C6E000002B6CDA8B78C3F34003002B0BBF0824BC
:10C6F00000240C200820844202D1042003B0F0BDA5
:10C7000056F82470013743D1701946F8242080F878
:10C71000304013B9331983F858508B785A0717D41F
:10C72000D80737D501A80195FFF752FF019B00EB11
:10C730008300D0F8003723F00203C0F80037224806
:10C74000EA0805F007070123BB40875C3B4383549D
:10C750008B780A7813F0020328D0A40004F18044F7
:10C7600004F5C0442D02D4F8103523F44F3323F4DC
:10C770004073C4F810351204D4F8103505F47C5514
:10C7800002F4403215431D43C4F810550020B5E7AC
:10C790000134B0E701A84A780195FFF719FF019B22
:10C7A00003F5E073920040F82320C8E7083C3444C6
:10C7B00094F8605045EA821284F86020E6E7082089
:10C7C0009CE700BFD85D00203C5E002073B5224C82
:10C7D0002618054696F93020072A1ADD224492F8D9
:10C7E00058309B09032B0FD1019001A8FFF7F0FEF1
:10C7F000019BD0F81015D94001F001010231284603
:10C80000FFF7F2FE02B070BD012B0CBF0221032125
:10C81000F5E7D3B2072BF5D8930003F1804303F576
:10C82000C043D3F8100540F00100C3F8100502F131
:10C830004000800080B2FFF7BFFE0029E2D096F9E9
:10C84000303054F82330002BDCD0012303FA02F2FD
:10C85000024BC3F80423D5E7D85D002000600040F8
:10C860000E4B034493F93020072A02DD0021FFF725
:10C87000BBBED3B2072B10D8930003F1804303F55E
:10C88000C043D3F8101521F00101C3F8101501239E
:10C8900003FA02F2024BC3F808237047D85D002068
:10C8A0000060004007B5019001A8FFF791FE019BD1
:10C8B000D0F81005D84000F0010003B05DF804FB8B
:10C8C0002DE9FF470024CDE90244584D4FF4807212
:10C8D000012102F1804303F5C04390B21B68012B94
:10C8E00006D1D5F804330B4202D0FFF765FE0C43A6
:10C8F0000432B2F5907F4FEA4101EAD14C4B1B68FC
:10C90000012B11D14FF4BE70FFF756FE4FF0A0433C
:10C9100044F00044D3F820250292C3F82025D3F830
:10C9200020280392C3F8202814F0FF0F1AD0414F9B
:10C9300000250126344210D0AB0003F1804303F5FB
:10C94000C043D3F81005D3F8101557F8253023B19C
:10C95000C1F30141C0F3052098470135082D4FEA86
:10C960004606E7D1002C59DA324D334C334E4FF0A6
:10C970000008012716F9013B5A1C3CD0C3F3C20141
:10C9800004A801445FFA83F911F8081C03F03F0280
:10C9900003F0070307FA03F319422CD001A8019210
:10C9A000FFF716FE019B03F5E07350F82330C3F345
:10C9B000014ABAF1020F10460CBF03210221FFF712
:10C9C00013FE01A80192FFF703FE019B07FA03F390
:10C9D000C0F82035AB1893F9303055F8233053B1F7
:10C9E0004FEA9911032904D0BAF1020F19D1012994
:10C9F00001D11046984708F10108B8F1040FB9D1E8
:10CA00004FF0A043D3F820250292C3F82025D4F894
:10CA100020350393C4F820351343A7D104B0BDE8F3
:10CA2000F087BAF1030FE6D10229E1E70060004088
:10CA30007C610040D85D002000030050385E00207B
:10CA4000014B1B68184700BF445E00200E4B984204
:10CA500037B50C4602D0002003B030BD00230DF1E5
:10CA600007008DF80730FCF7B5F8084B1D7915B9AC
:10CA700001221C601A719DF80700FCF7CFF8002D09
:10CA8000E9D01120E8E700BF00200040445E00200C
:10CA9000034B984201BF034B00221A601A71704782
:10CAA00000200040445E00200023435082B04358E1
:10CAB0000193019B02B07047F0B51A4C437944F8DA
:10CAC0002320194C03EB4303E35C43BB90F9045070
:10CAD0008B7802795B01002DDBB21BDB134E7719DB
